{
	"contracts/PingPongPlay.sol": {
		"PingPongPlay": {
			"abi": [
				{
					"inputs": [
						{
							"internalType": "uint256",
							"name": "_rewardRate",
							"type": "uint256"
						}
					],
					"stateMutability": "nonpayable",
					"type": "constructor"
				},
				{
					"inputs": [
						{
							"internalType": "address",
							"name": "spender",
							"type": "address"
						},
						{
							"internalType": "uint256",
							"name": "allowance",
							"type": "uint256"
						},
						{
							"internalType": "uint256",
							"name": "needed",
							"type": "uint256"
						}
					],
					"name": "ERC20InsufficientAllowance",
					"type": "error"
				},
				{
					"inputs": [
						{
							"internalType": "address",
							"name": "sender",
							"type": "address"
						},
						{
							"internalType": "uint256",
							"name": "balance",
							"type": "uint256"
						},
						{
							"internalType": "uint256",
							"name": "needed",
							"type": "uint256"
						}
					],
					"name": "ERC20InsufficientBalance",
					"type": "error"
				},
				{
					"inputs": [
						{
							"internalType": "address",
							"name": "approver",
							"type": "address"
						}
					],
					"name": "ERC20InvalidApprover",
					"type": "error"
				},
				{
					"inputs": [
						{
							"internalType": "address",
							"name": "receiver",
							"type": "address"
						}
					],
					"name": "ERC20InvalidReceiver",
					"type": "error"
				},
				{
					"inputs": [
						{
							"internalType": "address",
							"name": "sender",
							"type": "address"
						}
					],
					"name": "ERC20InvalidSender",
					"type": "error"
				},
				{
					"inputs": [
						{
							"internalType": "address",
							"name": "spender",
							"type": "address"
						}
					],
					"name": "ERC20InvalidSpender",
					"type": "error"
				},
				{
					"inputs": [
						{
							"internalType": "address",
							"name": "owner",
							"type": "address"
						}
					],
					"name": "OwnableInvalidOwner",
					"type": "error"
				},
				{
					"inputs": [
						{
							"internalType": "address",
							"name": "account",
							"type": "address"
						}
					],
					"name": "OwnableUnauthorizedAccount",
					"type": "error"
				},
				{
					"anonymous": false,
					"inputs": [
						{
							"indexed": false,
							"internalType": "uint256",
							"name": "totalAmount",
							"type": "uint256"
						}
					],
					"name": "AllInterestReleased",
					"type": "event"
				},
				{
					"anonymous": false,
					"inputs": [
						{
							"indexed": true,
							"internalType": "address",
							"name": "owner",
							"type": "address"
						},
						{
							"indexed": true,
							"internalType": "address",
							"name": "spender",
							"type": "address"
						},
						{
							"indexed": false,
							"internalType": "uint256",
							"name": "value",
							"type": "uint256"
						}
					],
					"name": "Approval",
					"type": "event"
				},
				{
					"anonymous": false,
					"inputs": [
						{
							"indexed": true,
							"internalType": "address",
							"name": "user",
							"type": "address"
						},
						{
							"indexed": false,
							"internalType": "uint256",
							"name": "amount",
							"type": "uint256"
						}
					],
					"name": "InterestClaimed",
					"type": "event"
				},
				{
					"anonymous": false,
					"inputs": [
						{
							"indexed": true,
							"internalType": "address",
							"name": "previousOwner",
							"type": "address"
						},
						{
							"indexed": true,
							"internalType": "address",
							"name": "newOwner",
							"type": "address"
						}
					],
					"name": "OwnershipTransferred",
					"type": "event"
				},
				{
					"anonymous": false,
					"inputs": [
						{
							"indexed": true,
							"internalType": "address",
							"name": "from",
							"type": "address"
						},
						{
							"indexed": true,
							"internalType": "address",
							"name": "to",
							"type": "address"
						},
						{
							"indexed": false,
							"internalType": "uint256",
							"name": "value",
							"type": "uint256"
						}
					],
					"name": "Transfer",
					"type": "event"
				},
				{
					"anonymous": false,
					"inputs": [
						{
							"indexed": true,
							"internalType": "address",
							"name": "user",
							"type": "address"
						},
						{
							"indexed": false,
							"internalType": "uint256",
							"name": "amount",
							"type": "uint256"
						}
					],
					"name": "Unstaked",
					"type": "event"
				},
				{
					"inputs": [],
					"name": "COMMUNITY_REWARDS",
					"outputs": [
						{
							"internalType": "uint256",
							"name": "",
							"type": "uint256"
						}
					],
					"stateMutability": "view",
					"type": "function"
				},
				{
					"inputs": [],
					"name": "MARKETING_PARTNERSHIP",
					"outputs": [
						{
							"internalType": "uint256",
							"name": "",
							"type": "uint256"
						}
					],
					"stateMutability": "view",
					"type": "function"
				},
				{
					"inputs": [],
					"name": "PROJECT_DEVELOPMENT",
					"outputs": [
						{
							"internalType": "uint256",
							"name": "",
							"type": "uint256"
						}
					],
					"stateMutability": "view",
					"type": "function"
				},
				{
					"inputs": [],
					"name": "PUBLIC_SALE",
					"outputs": [
						{
							"internalType": "uint256",
							"name": "",
							"type": "uint256"
						}
					],
					"stateMutability": "view",
					"type": "function"
				},
				{
					"inputs": [],
					"name": "RESERVE",
					"outputs": [
						{
							"internalType": "uint256",
							"name": "",
							"type": "uint256"
						}
					],
					"stateMutability": "view",
					"type": "function"
				},
				{
					"inputs": [],
					"name": "TEAM_FOUNDERS",
					"outputs": [
						{
							"internalType": "uint256",
							"name": "",
							"type": "uint256"
						}
					],
					"stateMutability": "view",
					"type": "function"
				},
				{
					"inputs": [],
					"name": "TOTAL_SUPPLY",
					"outputs": [
						{
							"internalType": "uint256",
							"name": "",
							"type": "uint256"
						}
					],
					"stateMutability": "view",
					"type": "function"
				},
				{
					"inputs": [],
					"name": "VESTING_DURATION",
					"outputs": [
						{
							"internalType": "uint256",
							"name": "",
							"type": "uint256"
						}
					],
					"stateMutability": "view",
					"type": "function"
				},
				{
					"inputs": [
						{
							"internalType": "address",
							"name": "owner",
							"type": "address"
						},
						{
							"internalType": "address",
							"name": "spender",
							"type": "address"
						}
					],
					"name": "allowance",
					"outputs": [
						{
							"internalType": "uint256",
							"name": "",
							"type": "uint256"
						}
					],
					"stateMutability": "view",
					"type": "function"
				},
				{
					"inputs": [
						{
							"internalType": "address",
							"name": "spender",
							"type": "address"
						},
						{
							"internalType": "uint256",
							"name": "value",
							"type": "uint256"
						}
					],
					"name": "approve",
					"outputs": [
						{
							"internalType": "bool",
							"name": "",
							"type": "bool"
						}
					],
					"stateMutability": "nonpayable",
					"type": "function"
				},
				{
					"inputs": [
						{
							"internalType": "address",
							"name": "account",
							"type": "address"
						}
					],
					"name": "balanceOf",
					"outputs": [
						{
							"internalType": "uint256",
							"name": "",
							"type": "uint256"
						}
					],
					"stateMutability": "view",
					"type": "function"
				},
				{
					"inputs": [
						{
							"internalType": "uint256",
							"name": "value",
							"type": "uint256"
						}
					],
					"name": "burn",
					"outputs": [],
					"stateMutability": "nonpayable",
					"type": "function"
				},
				{
					"inputs": [
						{
							"internalType": "address",
							"name": "account",
							"type": "address"
						},
						{
							"internalType": "uint256",
							"name": "value",
							"type": "uint256"
						}
					],
					"name": "burnFrom",
					"outputs": [],
					"stateMutability": "nonpayable",
					"type": "function"
				},
				{
					"inputs": [
						{
							"internalType": "address",
							"name": "staker",
							"type": "address"
						}
					],
					"name": "calculateReward",
					"outputs": [
						{
							"internalType": "uint256",
							"name": "",
							"type": "uint256"
						}
					],
					"stateMutability": "view",
					"type": "function"
				},
				{
					"inputs": [],
					"name": "decimals",
					"outputs": [
						{
							"internalType": "uint8",
							"name": "",
							"type": "uint8"
						}
					],
					"stateMutability": "view",
					"type": "function"
				},
				{
					"inputs": [],
					"name": "name",
					"outputs": [
						{
							"internalType": "string",
							"name": "",
							"type": "string"
						}
					],
					"stateMutability": "view",
					"type": "function"
				},
				{
					"inputs": [],
					"name": "owner",
					"outputs": [
						{
							"internalType": "address",
							"name": "",
							"type": "address"
						}
					],
					"stateMutability": "view",
					"type": "function"
				},
				{
					"inputs": [],
					"name": "releaseAllInterest",
					"outputs": [],
					"stateMutability": "nonpayable",
					"type": "function"
				},
				{
					"inputs": [],
					"name": "releaseTeamTokens",
					"outputs": [],
					"stateMutability": "nonpayable",
					"type": "function"
				},
				{
					"inputs": [],
					"name": "renounceOwnership",
					"outputs": [],
					"stateMutability": "nonpayable",
					"type": "function"
				},
				{
					"inputs": [],
					"name": "rewardRate",
					"outputs": [
						{
							"internalType": "uint256",
							"name": "",
							"type": "uint256"
						}
					],
					"stateMutability": "view",
					"type": "function"
				},
				{
					"inputs": [
						{
							"internalType": "uint256",
							"name": "amount",
							"type": "uint256"
						}
					],
					"name": "stake",
					"outputs": [],
					"stateMutability": "nonpayable",
					"type": "function"
				},
				{
					"inputs": [
						{
							"internalType": "uint256",
							"name": "",
							"type": "uint256"
						}
					],
					"name": "stakeAddresses",
					"outputs": [
						{
							"internalType": "address",
							"name": "",
							"type": "address"
						}
					],
					"stateMutability": "view",
					"type": "function"
				},
				{
					"inputs": [
						{
							"internalType": "address",
							"name": "",
							"type": "address"
						}
					],
					"name": "stakes",
					"outputs": [
						{
							"internalType": "uint256",
							"name": "amount",
							"type": "uint256"
						},
						{
							"internalType": "uint256",
							"name": "timestamp",
							"type": "uint256"
						},
						{
							"internalType": "uint256",
							"name": "lastClaimed",
							"type": "uint256"
						}
					],
					"stateMutability": "view",
					"type": "function"
				},
				{
					"inputs": [],
					"name": "symbol",
					"outputs": [
						{
							"internalType": "string",
							"name": "",
							"type": "string"
						}
					],
					"stateMutability": "view",
					"type": "function"
				},
				{
					"inputs": [],
					"name": "teamReleased",
					"outputs": [
						{
							"internalType": "uint256",
							"name": "",
							"type": "uint256"
						}
					],
					"stateMutability": "view",
					"type": "function"
				},
				{
					"inputs": [],
					"name": "totalSupply",
					"outputs": [
						{
							"internalType": "uint256",
							"name": "",
							"type": "uint256"
						}
					],
					"stateMutability": "view",
					"type": "function"
				},
				{
					"inputs": [
						{
							"internalType": "address",
							"name": "to",
							"type": "address"
						},
						{
							"internalType": "uint256",
							"name": "value",
							"type": "uint256"
						}
					],
					"name": "transfer",
					"outputs": [
						{
							"internalType": "bool",
							"name": "",
							"type": "bool"
						}
					],
					"stateMutability": "nonpayable",
					"type": "function"
				},
				{
					"inputs": [
						{
							"internalType": "address",
							"name": "from",
							"type": "address"
						},
						{
							"internalType": "address",
							"name": "to",
							"type": "address"
						},
						{
							"internalType": "uint256",
							"name": "value",
							"type": "uint256"
						}
					],
					"name": "transferFrom",
					"outputs": [
						{
							"internalType": "bool",
							"name": "",
							"type": "bool"
						}
					],
					"stateMutability": "nonpayable",
					"type": "function"
				},
				{
					"inputs": [
						{
							"internalType": "address",
							"name": "newOwner",
							"type": "address"
						}
					],
					"name": "transferOwnership",
					"outputs": [],
					"stateMutability": "nonpayable",
					"type": "function"
				},
				{
					"inputs": [
						{
							"internalType": "uint256",
							"name": "amount",
							"type": "uint256"
						}
					],
					"name": "unstake",
					"outputs": [],
					"stateMutability": "nonpayable",
					"type": "function"
				},
				{
					"inputs": [
						{
							"internalType": "uint256",
							"name": "_newRate",
							"type": "uint256"
						}
					],
					"name": "updateRewardRate",
					"outputs": [],
					"stateMutability": "nonpayable",
					"type": "function"
				},
				{
					"inputs": [],
					"name": "vestingStart",
					"outputs": [
						{
							"internalType": "uint256",
							"name": "",
							"type": "uint256"
						}
					],
					"stateMutability": "view",
					"type": "function"
				}
			],
			"devdoc": {
				"details": "ERC20 Token con funzionalità di staking, vesting e gestione della liquidità.",
				"errors": {
					"ERC20InsufficientAllowance(address,uint256,uint256)": [
						{
							"details": "Indicates a failure with the `spender`’s `allowance`. Used in transfers.",
							"params": {
								"allowance": "Amount of tokens a `spender` is allowed to operate with.",
								"needed": "Minimum amount required to perform a transfer.",
								"spender": "Address that may be allowed to operate on tokens without being their owner."
							}
						}
					],
					"ERC20InsufficientBalance(address,uint256,uint256)": [
						{
							"details": "Indicates an error related to the current `balance` of a `sender`. Used in transfers.",
							"params": {
								"balance": "Current balance for the interacting account.",
								"needed": "Minimum amount required to perform a transfer.",
								"sender": "Address whose tokens are being transferred."
							}
						}
					],
					"ERC20InvalidApprover(address)": [
						{
							"details": "Indicates a failure with the `approver` of a token to be approved. Used in approvals.",
							"params": {
								"approver": "Address initiating an approval operation."
							}
						}
					],
					"ERC20InvalidReceiver(address)": [
						{
							"details": "Indicates a failure with the token `receiver`. Used in transfers.",
							"params": {
								"receiver": "Address to which tokens are being transferred."
							}
						}
					],
					"ERC20InvalidSender(address)": [
						{
							"details": "Indicates a failure with the token `sender`. Used in transfers.",
							"params": {
								"sender": "Address whose tokens are being transferred."
							}
						}
					],
					"ERC20InvalidSpender(address)": [
						{
							"details": "Indicates a failure with the `spender` to be approved. Used in approvals.",
							"params": {
								"spender": "Address that may be allowed to operate on tokens without being their owner."
							}
						}
					],
					"OwnableInvalidOwner(address)": [
						{
							"details": "The owner is not a valid owner account. (eg. `address(0)`)"
						}
					],
					"OwnableUnauthorizedAccount(address)": [
						{
							"details": "The caller account is not authorized to perform an operation."
						}
					]
				},
				"events": {
					"Approval(address,address,uint256)": {
						"details": "Emitted when the allowance of a `spender` for an `owner` is set by a call to {approve}. `value` is the new allowance."
					},
					"Transfer(address,address,uint256)": {
						"details": "Emitted when `value` tokens are moved from one account (`from`) to another (`to`). Note that `value` may be zero."
					}
				},
				"kind": "dev",
				"methods": {
					"allowance(address,address)": {
						"details": "See {IERC20-allowance}."
					},
					"approve(address,uint256)": {
						"details": "See {IERC20-approve}. NOTE: If `value` is the maximum `uint256`, the allowance is not updated on `transferFrom`. This is semantically equivalent to an infinite approval. Requirements: - `spender` cannot be the zero address."
					},
					"balanceOf(address)": {
						"details": "See {IERC20-balanceOf}."
					},
					"burn(uint256)": {
						"details": "Destroys a `value` amount of tokens from the caller. See {ERC20-_burn}."
					},
					"burnFrom(address,uint256)": {
						"details": "Destroys a `value` amount of tokens from `account`, deducting from the caller's allowance. See {ERC20-_burn} and {ERC20-allowance}. Requirements: - the caller must have allowance for ``accounts``'s tokens of at least `value`."
					},
					"calculateReward(address)": {
						"details": "Calcola la ricompensa accumulata per un indirizzo staker.",
						"params": {
							"staker": "Indirizzo dello staker."
						},
						"returns": {
							"_0": "Ricompensa accumulata."
						}
					},
					"constructor": {
						"details": "Costruttore del contratto.",
						"params": {
							"_rewardRate": "Tasso di ricompensa annuale per lo staking."
						}
					},
					"decimals()": {
						"details": "Returns the number of decimals used to get its user representation. For example, if `decimals` equals `2`, a balance of `505` tokens should be displayed to a user as `5.05` (`505 / 10 ** 2`). Tokens usually opt for a value of 18, imitating the relationship between Ether and Wei. This is the default value returned by this function, unless it's overridden. NOTE: This information is only used for _display_ purposes: it in no way affects any of the arithmetic of the contract, including {IERC20-balanceOf} and {IERC20-transfer}."
					},
					"name()": {
						"details": "Returns the name of the token."
					},
					"owner()": {
						"details": "Returns the address of the current owner."
					},
					"releaseAllInterest()": {
						"details": "Rilascia tutti gli interessi maturati per ogni utente che ha stake attivo."
					},
					"releaseTeamTokens()": {
						"details": "Rilascia i token del team secondo il piano di vesting."
					},
					"renounceOwnership()": {
						"details": "Leaves the contract without owner. It will not be possible to call `onlyOwner` functions. Can only be called by the current owner. NOTE: Renouncing ownership will leave the contract without an owner, thereby disabling any functionality that is only available to the owner."
					},
					"stake(uint256)": {
						"details": "Permette agli utenti di mettere in staking i propri token.",
						"params": {
							"amount": "Quantità di token da mettere in staking."
						}
					},
					"symbol()": {
						"details": "Returns the symbol of the token, usually a shorter version of the name."
					},
					"totalSupply()": {
						"details": "See {IERC20-totalSupply}."
					},
					"transfer(address,uint256)": {
						"details": "See {IERC20-transfer}. Requirements: - `to` cannot be the zero address. - the caller must have a balance of at least `value`."
					},
					"transferFrom(address,address,uint256)": {
						"details": "See {IERC20-transferFrom}. Skips emitting an {Approval} event indicating an allowance update. This is not required by the ERC. See {xref-ERC20-_approve-address-address-uint256-bool-}[_approve]. NOTE: Does not update the allowance if the current allowance is the maximum `uint256`. Requirements: - `from` and `to` cannot be the zero address. - `from` must have a balance of at least `value`. - the caller must have allowance for ``from``'s tokens of at least `value`."
					},
					"transferOwnership(address)": {
						"details": "Transfers ownership of the contract to a new account (`newOwner`). Can only be called by the current owner."
					},
					"unstake(uint256)": {
						"details": "Permette agli utenti di ritirare i propri token in staking e le ricompense accumulate.",
						"params": {
							"amount": "Quantità di token da ritirare."
						}
					},
					"updateRewardRate(uint256)": {
						"details": "Aggiorna il tasso di ricompensa per lo staking.",
						"params": {
							"_newRate": "Nuovo tasso di ricompensa annuale."
						}
					}
				},
				"title": "PingPongPlay",
				"version": 1
			},
			"evm": {
				"assembly": "    /* \"contracts/PingPongPlay.sol\":482:8229  contract PingPongPlay is ERC20, Ownable(address(this)), ReentrancyGuard, ERC20Burnable {... */\n  mstore(0x40, 0x80)\n    /* \"contracts/PingPongPlay.sol\":1940:2705  constructor(uint256 _rewardRate) ERC20(\"PingPongPlay\", \"PINGPP\") {... */\n  callvalue\n  dup1\n  iszero\n  tag_1\n  jumpi\n  revert(0x00, 0x00)\ntag_1:\n  pop\n  mload(0x40)\n  sub(codesize, bytecodeSize)\n  dup1\n  bytecodeSize\n  dup4\n  codecopy\n  dup2\n  dup2\n  add\n  0x40\n  mstore\n  dup2\n  add\n  swap1\n  tag_2\n  swap2\n  swap1\n  tag_3\n  jump\t// in\ntag_2:\n    /* \"contracts/PingPongPlay.sol\":530:534  this */\n  address\n    /* \"@openzeppelin/contracts/token/ERC20/ERC20.sol\":1601:1714  constructor(string memory name_, string memory symbol_) {... */\n  mload(0x40)\n  dup1\n  0x40\n  add\n  0x40\n  mstore\n  dup1\n  0x0c\n  dup2\n  mstore\n  0x20\n  add\n  0x50696e67506f6e67506c61790000000000000000000000000000000000000000\n  dup2\n  mstore\n  pop\n  mload(0x40)\n  dup1\n  0x40\n  add\n  0x40\n  mstore\n  dup1\n  0x06\n  dup2\n  mstore\n  0x20\n  add\n  0x50494e4750500000000000000000000000000000000000000000000000000000\n  dup2\n  mstore\n  pop\n    /* \"@openzeppelin/contracts/token/ERC20/ERC20.sol\":1675:1680  name_ */\n  dup2\n    /* \"@openzeppelin/contracts/token/ERC20/ERC20.sol\":1667:1672  _name */\n  0x03\n    /* \"@openzeppelin/contracts/token/ERC20/ERC20.sol\":1667:1680  _name = name_ */\n  swap1\n  dup2\n  tag_9\n  swap2\n  swap1\n  tag_10\n  jump\t// in\ntag_9:\n  pop\n    /* \"@openzeppelin/contracts/token/ERC20/ERC20.sol\":1700:1707  symbol_ */\n  dup1\n    /* \"@openzeppelin/contracts/token/ERC20/ERC20.sol\":1690:1697  _symbol */\n  0x04\n    /* \"@openzeppelin/contracts/token/ERC20/ERC20.sol\":1690:1707  _symbol = symbol_ */\n  swap1\n  dup2\n  tag_11\n  swap2\n  swap1\n  tag_10\n  jump\t// in\ntag_11:\n  pop\n    /* \"@openzeppelin/contracts/token/ERC20/ERC20.sol\":1601:1714  constructor(string memory name_, string memory symbol_) {... */\n  pop\n  pop\n    /* \"@openzeppelin/contracts/access/Ownable.sol\":1297:1298  0 */\n  0x00\n    /* \"@openzeppelin/contracts/access/Ownable.sol\":1273:1299  initialOwner == address(0) */\n  0xffffffffffffffffffffffffffffffffffffffff\n  and\n    /* \"@openzeppelin/contracts/access/Ownable.sol\":1273:1285  initialOwner */\n  dup2\n    /* \"@openzeppelin/contracts/access/Ownable.sol\":1273:1299  initialOwner == address(0) */\n  0xffffffffffffffffffffffffffffffffffffffff\n  and\n  sub\n    /* \"@openzeppelin/contracts/access/Ownable.sol\":1269:1364  if (initialOwner == address(0)) {... */\n  tag_13\n  jumpi\n    /* \"@openzeppelin/contracts/access/Ownable.sol\":1350:1351  0 */\n  0x00\n    /* \"@openzeppelin/contracts/access/Ownable.sol\":1322:1353  OwnableInvalidOwner(address(0)) */\n  mload(0x40)\n  0x1e4fbdf700000000000000000000000000000000000000000000000000000000\n  dup2\n  mstore\n  0x04\n  add\n  tag_14\n  swap2\n  swap1\n  tag_15\n  jump\t// in\ntag_14:\n  mload(0x40)\n  dup1\n  swap2\n  sub\n  swap1\n  revert\n    /* \"@openzeppelin/contracts/access/Ownable.sol\":1269:1364  if (initialOwner == address(0)) {... */\ntag_13:\n    /* \"@openzeppelin/contracts/access/Ownable.sol\":1373:1405  _transferOwnership(initialOwner) */\n  tag_16\n    /* \"@openzeppelin/contracts/access/Ownable.sol\":1392:1404  initialOwner */\n  dup2\n    /* \"@openzeppelin/contracts/access/Ownable.sol\":1373:1391  _transferOwnership */\n  shl(0x20, tag_17)\n    /* \"@openzeppelin/contracts/access/Ownable.sol\":1373:1405  _transferOwnership(initialOwner) */\n  0x20\n  shr\n  jump\t// in\ntag_16:\n    /* \"@openzeppelin/contracts/access/Ownable.sol\":1225:1412  constructor(address initialOwner) {... */\n  pop\n    /* \"@openzeppelin/contracts/security/ReentrancyGuard.sol\":1716:1717  1 */\n  0x01\n    /* \"@openzeppelin/contracts/security/ReentrancyGuard.sol\":1821:1828  _status */\n  0x06\n    /* \"@openzeppelin/contracts/security/ReentrancyGuard.sol\":1821:1843  _status = _NOT_ENTERED */\n  dup2\n  swap1\n  sstore\n  pop\n    /* \"contracts/PingPongPlay.sol\":2037:2038  0 */\n  0x00\n    /* \"contracts/PingPongPlay.sol\":2023:2034  _rewardRate */\n  dup2\n    /* \"contracts/PingPongPlay.sol\":2023:2038  _rewardRate > 0 */\n  gt\n    /* \"contracts/PingPongPlay.sol\":2015:2077  require(_rewardRate > 0, \"Reward rate must be greater than 0\") */\n  tag_20\n  jumpi\n  mload(0x40)\n  0x08c379a000000000000000000000000000000000000000000000000000000000\n  dup2\n  mstore\n  0x04\n  add\n  tag_21\n  swap1\n  tag_22\n  jump\t// in\ntag_21:\n  mload(0x40)\n  dup1\n  swap2\n  sub\n  swap1\n  revert\ntag_20:\n    /* \"contracts/PingPongPlay.sol\":2109:2120  _rewardRate */\n  dup1\n    /* \"contracts/PingPongPlay.sol\":2096:2106  rewardRate */\n  0x0b\n    /* \"contracts/PingPongPlay.sol\":2096:2120  rewardRate = _rewardRate */\n  dup2\n  swap1\n  sstore\n  pop\n    /* \"contracts/PingPongPlay.sol\":2139:2173  _mint(address(this), TOTAL_SUPPLY) */\n  tag_23\n    /* \"contracts/PingPongPlay.sol\":2153:2157  this */\n  address\n    /* \"contracts/PingPongPlay.sol\":647:669  100_000_000 * 10 ** 18 */\n  0x52b7d2dcc80cd2e4000000\n    /* \"contracts/PingPongPlay.sol\":2139:2144  _mint */\n  shl(0x20, tag_24)\n    /* \"contracts/PingPongPlay.sol\":2139:2173  _mint(address(this), TOTAL_SUPPLY) */\n  0x20\n  shr\n  jump\t// in\ntag_23:\n    /* \"contracts/PingPongPlay.sol\":2207:2222  block.timestamp */\n  timestamp\n    /* \"contracts/PingPongPlay.sol\":2192:2204  vestingStart */\n  0x07\n    /* \"contracts/PingPongPlay.sol\":2192:2222  vestingStart = block.timestamp */\n  dup2\n  swap1\n  sstore\n  pop\n    /* \"contracts/PingPongPlay.sol\":2267:2316  _transfer(address(this), msg.sender, PUBLIC_SALE) */\n  tag_25\n    /* \"contracts/PingPongPlay.sol\":2285:2289  this */\n  address\n    /* \"contracts/PingPongPlay.sol\":2292:2302  msg.sender */\n  caller\n    /* \"contracts/PingPongPlay.sol\":767:770  100 */\n  0x64\n    /* \"contracts/PingPongPlay.sol\":762:764  40 */\n  0x28\n    /* \"contracts/PingPongPlay.sol\":647:669  100_000_000 * 10 ** 18 */\n  0x52b7d2dcc80cd2e4000000\n    /* \"contracts/PingPongPlay.sol\":747:764  TOTAL_SUPPLY * 40 */\n  tag_26\n  swap2\n  swap1\n  tag_27\n  jump\t// in\ntag_26:\n    /* \"contracts/PingPongPlay.sol\":747:770  TOTAL_SUPPLY * 40 / 100 */\n  tag_28\n  swap2\n  swap1\n  tag_29\n  jump\t// in\ntag_28:\n    /* \"contracts/PingPongPlay.sol\":2267:2276  _transfer */\n  shl(0x20, tag_30)\n    /* \"contracts/PingPongPlay.sol\":2267:2316  _transfer(address(this), msg.sender, PUBLIC_SALE) */\n  0x20\n  shr\n  jump\t// in\ntag_25:\n    /* \"contracts/PingPongPlay.sol\":2346:2400  _transfer(address(this), address(this), TEAM_FOUNDERS) */\n  tag_31\n    /* \"contracts/PingPongPlay.sol\":2364:2368  this */\n  address\n    /* \"contracts/PingPongPlay.sol\":2379:2383  this */\n  address\n    /* \"contracts/PingPongPlay.sol\":836:839  100 */\n  0x64\n    /* \"contracts/PingPongPlay.sol\":831:833  20 */\n  0x14\n    /* \"contracts/PingPongPlay.sol\":647:669  100_000_000 * 10 ** 18 */\n  0x52b7d2dcc80cd2e4000000\n    /* \"contracts/PingPongPlay.sol\":816:833  TOTAL_SUPPLY * 20 */\n  tag_32\n  swap2\n  swap1\n  tag_27\n  jump\t// in\ntag_32:\n    /* \"contracts/PingPongPlay.sol\":816:839  TOTAL_SUPPLY * 20 / 100 */\n  tag_33\n  swap2\n  swap1\n  tag_29\n  jump\t// in\ntag_33:\n    /* \"contracts/PingPongPlay.sol\":2346:2355  _transfer */\n  shl(0x20, tag_30)\n    /* \"contracts/PingPongPlay.sol\":2346:2400  _transfer(address(this), address(this), TEAM_FOUNDERS) */\n  0x20\n  shr\n  jump\t// in\ntag_31:\n    /* \"contracts/PingPongPlay.sol\":2452:2511  _transfer(address(this), msg.sender, MARKETING_PARTNERSHIP) */\n  tag_34\n    /* \"contracts/PingPongPlay.sol\":2470:2474  this */\n  address\n    /* \"contracts/PingPongPlay.sol\":2477:2487  msg.sender */\n  caller\n    /* \"contracts/PingPongPlay.sol\":913:916  100 */\n  0x64\n    /* \"contracts/PingPongPlay.sol\":908:910  15 */\n  0x0f\n    /* \"contracts/PingPongPlay.sol\":647:669  100_000_000 * 10 ** 18 */\n  0x52b7d2dcc80cd2e4000000\n    /* \"contracts/PingPongPlay.sol\":893:910  TOTAL_SUPPLY * 15 */\n  tag_35\n  swap2\n  swap1\n  tag_27\n  jump\t// in\ntag_35:\n    /* \"contracts/PingPongPlay.sol\":893:916  TOTAL_SUPPLY * 15 / 100 */\n  tag_36\n  swap2\n  swap1\n  tag_29\n  jump\t// in\ntag_36:\n    /* \"contracts/PingPongPlay.sol\":2452:2461  _transfer */\n  shl(0x20, tag_30)\n    /* \"contracts/PingPongPlay.sol\":2452:2511  _transfer(address(this), msg.sender, MARKETING_PARTNERSHIP) */\n  0x20\n  shr\n  jump\t// in\ntag_34:\n    /* \"contracts/PingPongPlay.sol\":2521:2578  _transfer(address(this), msg.sender, PROJECT_DEVELOPMENT) */\n  tag_37\n    /* \"contracts/PingPongPlay.sol\":2539:2543  this */\n  address\n    /* \"contracts/PingPongPlay.sol\":2546:2556  msg.sender */\n  caller\n    /* \"contracts/PingPongPlay.sol\":988:991  100 */\n  0x64\n    /* \"contracts/PingPongPlay.sol\":983:985  10 */\n  0x0a\n    /* \"contracts/PingPongPlay.sol\":647:669  100_000_000 * 10 ** 18 */\n  0x52b7d2dcc80cd2e4000000\n    /* \"contracts/PingPongPlay.sol\":968:985  TOTAL_SUPPLY * 10 */\n  tag_38\n  swap2\n  swap1\n  tag_27\n  jump\t// in\ntag_38:\n    /* \"contracts/PingPongPlay.sol\":968:991  TOTAL_SUPPLY * 10 / 100 */\n  tag_39\n  swap2\n  swap1\n  tag_29\n  jump\t// in\ntag_39:\n    /* \"contracts/PingPongPlay.sol\":2521:2530  _transfer */\n  shl(0x20, tag_30)\n    /* \"contracts/PingPongPlay.sol\":2521:2578  _transfer(address(this), msg.sender, PROJECT_DEVELOPMENT) */\n  0x20\n  shr\n  jump\t// in\ntag_37:\n    /* \"contracts/PingPongPlay.sol\":2588:2633  _transfer(address(this), msg.sender, RESERVE) */\n  tag_40\n    /* \"contracts/PingPongPlay.sol\":2606:2610  this */\n  address\n    /* \"contracts/PingPongPlay.sol\":2613:2623  msg.sender */\n  caller\n    /* \"contracts/PingPongPlay.sol\":1051:1054  100 */\n  0x64\n    /* \"contracts/PingPongPlay.sol\":1046:1048  10 */\n  0x0a\n    /* \"contracts/PingPongPlay.sol\":647:669  100_000_000 * 10 ** 18 */\n  0x52b7d2dcc80cd2e4000000\n    /* \"contracts/PingPongPlay.sol\":1031:1048  TOTAL_SUPPLY * 10 */\n  tag_41\n  swap2\n  swap1\n  tag_27\n  jump\t// in\ntag_41:\n    /* \"contracts/PingPongPlay.sol\":1031:1054  TOTAL_SUPPLY * 10 / 100 */\n  tag_42\n  swap2\n  swap1\n  tag_29\n  jump\t// in\ntag_42:\n    /* \"contracts/PingPongPlay.sol\":2588:2597  _transfer */\n  shl(0x20, tag_30)\n    /* \"contracts/PingPongPlay.sol\":2588:2633  _transfer(address(this), msg.sender, RESERVE) */\n  0x20\n  shr\n  jump\t// in\ntag_40:\n    /* \"contracts/PingPongPlay.sol\":2643:2698  _transfer(address(this), msg.sender, COMMUNITY_REWARDS) */\n  tag_43\n    /* \"contracts/PingPongPlay.sol\":2661:2665  this */\n  address\n    /* \"contracts/PingPongPlay.sol\":2668:2678  msg.sender */\n  caller\n    /* \"contracts/PingPongPlay.sol\":1123:1126  100 */\n  0x64\n    /* \"contracts/PingPongPlay.sol\":1119:1120  5 */\n  0x05\n    /* \"contracts/PingPongPlay.sol\":647:669  100_000_000 * 10 ** 18 */\n  0x52b7d2dcc80cd2e4000000\n    /* \"contracts/PingPongPlay.sol\":1104:1120  TOTAL_SUPPLY * 5 */\n  tag_44\n  swap2\n  swap1\n  tag_27\n  jump\t// in\ntag_44:\n    /* \"contracts/PingPongPlay.sol\":1104:1126  TOTAL_SUPPLY * 5 / 100 */\n  tag_45\n  swap2\n  swap1\n  tag_29\n  jump\t// in\ntag_45:\n    /* \"contracts/PingPongPlay.sol\":2643:2652  _transfer */\n  shl(0x20, tag_30)\n    /* \"contracts/PingPongPlay.sol\":2643:2698  _transfer(address(this), msg.sender, COMMUNITY_REWARDS) */\n  0x20\n  shr\n  jump\t// in\ntag_43:\n    /* \"contracts/PingPongPlay.sol\":1940:2705  constructor(uint256 _rewardRate) ERC20(\"PingPongPlay\", \"PINGPP\") {... */\n  pop\n    /* \"contracts/PingPongPlay.sol\":482:8229  contract PingPongPlay is ERC20, Ownable(address(this)), ReentrancyGuard, ERC20Burnable {... */\n  jump(tag_46)\n    /* \"@openzeppelin/contracts/access/Ownable.sol\":2912:3099  function _transferOwnership(address newOwner) internal virtual {... */\ntag_17:\n    /* \"@openzeppelin/contracts/access/Ownable.sol\":2985:3001  address oldOwner */\n  0x00\n    /* \"@openzeppelin/contracts/access/Ownable.sol\":3004:3010  _owner */\n  0x05\n  0x00\n  swap1\n  sload\n  swap1\n  0x0100\n  exp\n  swap1\n  div\n  0xffffffffffffffffffffffffffffffffffffffff\n  and\n    /* \"@openzeppelin/contracts/access/Ownable.sol\":2985:3010  address oldOwner = _owner */\n  swap1\n  pop\n    /* \"@openzeppelin/contracts/access/Ownable.sol\":3029:3037  newOwner */\n  dup2\n    /* \"@openzeppelin/contracts/access/Ownable.sol\":3020:3026  _owner */\n  0x05\n  0x00\n    /* \"@openzeppelin/contracts/access/Ownable.sol\":3020:3037  _owner = newOwner */\n  0x0100\n  exp\n  dup2\n  sload\n  dup2\n  0xffffffffffffffffffffffffffffffffffffffff\n  mul\n  not\n  and\n  swap1\n  dup4\n  0xffffffffffffffffffffffffffffffffffffffff\n  and\n  mul\n  or\n  swap1\n  sstore\n  pop\n    /* \"@openzeppelin/contracts/access/Ownable.sol\":3083:3091  newOwner */\n  dup2\n    /* \"@openzeppelin/contracts/access/Ownable.sol\":3052:3092  OwnershipTransferred(oldOwner, newOwner) */\n  0xffffffffffffffffffffffffffffffffffffffff\n  and\n    /* \"@openzeppelin/contracts/access/Ownable.sol\":3073:3081  oldOwner */\n  dup2\n    /* \"@openzeppelin/contracts/access/Ownable.sol\":3052:3092  OwnershipTransferred(oldOwner, newOwner) */\n  0xffffffffffffffffffffffffffffffffffffffff\n  and\n  0x8be0079c531659141344cd1fd0a4f28419497f9722a3daafe3b4186f6b6457e0\n  mload(0x40)\n  mload(0x40)\n  dup1\n  swap2\n  sub\n  swap1\n  log3\n    /* \"@openzeppelin/contracts/access/Ownable.sol\":2975:3099  {... */\n  pop\n    /* \"@openzeppelin/contracts/access/Ownable.sol\":2912:3099  function _transferOwnership(address newOwner) internal virtual {... */\n  pop\n  jump\t// out\n    /* \"@openzeppelin/contracts/token/ERC20/ERC20.sol\":7458:7666  function _mint(address account, uint256 value) internal {... */\ntag_24:\n    /* \"@openzeppelin/contracts/token/ERC20/ERC20.sol\":7547:7548  0 */\n  0x00\n    /* \"@openzeppelin/contracts/token/ERC20/ERC20.sol\":7528:7549  account == address(0) */\n  0xffffffffffffffffffffffffffffffffffffffff\n  and\n    /* \"@openzeppelin/contracts/token/ERC20/ERC20.sol\":7528:7535  account */\n  dup3\n    /* \"@openzeppelin/contracts/token/ERC20/ERC20.sol\":7528:7549  account == address(0) */\n  0xffffffffffffffffffffffffffffffffffffffff\n  and\n  sub\n    /* \"@openzeppelin/contracts/token/ERC20/ERC20.sol\":7524:7615  if (account == address(0)) {... */\n  tag_49\n  jumpi\n    /* \"@openzeppelin/contracts/token/ERC20/ERC20.sol\":7601:7602  0 */\n  0x00\n    /* \"@openzeppelin/contracts/token/ERC20/ERC20.sol\":7572:7604  ERC20InvalidReceiver(address(0)) */\n  mload(0x40)\n  0xec442f0500000000000000000000000000000000000000000000000000000000\n  dup2\n  mstore\n  0x04\n  add\n  tag_50\n  swap2\n  swap1\n  tag_15\n  jump\t// in\ntag_50:\n  mload(0x40)\n  dup1\n  swap2\n  sub\n  swap1\n  revert\n    /* \"@openzeppelin/contracts/token/ERC20/ERC20.sol\":7524:7615  if (account == address(0)) {... */\ntag_49:\n    /* \"@openzeppelin/contracts/token/ERC20/ERC20.sol\":7624:7659  _update(address(0), account, value) */\n  tag_51\n    /* \"@openzeppelin/contracts/token/ERC20/ERC20.sol\":7640:7641  0 */\n  0x00\n    /* \"@openzeppelin/contracts/token/ERC20/ERC20.sol\":7644:7651  account */\n  dup4\n    /* \"@openzeppelin/contracts/token/ERC20/ERC20.sol\":7653:7658  value */\n  dup4\n    /* \"@openzeppelin/contracts/token/ERC20/ERC20.sol\":7624:7631  _update */\n  shl(0x20, tag_52)\n    /* \"@openzeppelin/contracts/token/ERC20/ERC20.sol\":7624:7659  _update(address(0), account, value) */\n  0x20\n  shr\n  jump\t// in\ntag_51:\n    /* \"@openzeppelin/contracts/token/ERC20/ERC20.sol\":7458:7666  function _mint(address account, uint256 value) internal {... */\n  pop\n  pop\n  jump\t// out\n    /* \"@openzeppelin/contracts/token/ERC20/ERC20.sol\":5393:5693  function _transfer(address from, address to, uint256 value) internal {... */\ntag_30:\n    /* \"@openzeppelin/contracts/token/ERC20/ERC20.sol\":5492:5493  0 */\n  0x00\n    /* \"@openzeppelin/contracts/token/ERC20/ERC20.sol\":5476:5494  from == address(0) */\n  0xffffffffffffffffffffffffffffffffffffffff\n  and\n    /* \"@openzeppelin/contracts/token/ERC20/ERC20.sol\":5476:5480  from */\n  dup4\n    /* \"@openzeppelin/contracts/token/ERC20/ERC20.sol\":5476:5494  from == address(0) */\n  0xffffffffffffffffffffffffffffffffffffffff\n  and\n  sub\n    /* \"@openzeppelin/contracts/token/ERC20/ERC20.sol\":5472:5558  if (from == address(0)) {... */\n  tag_54\n  jumpi\n    /* \"@openzeppelin/contracts/token/ERC20/ERC20.sol\":5544:5545  0 */\n  0x00\n    /* \"@openzeppelin/contracts/token/ERC20/ERC20.sol\":5517:5547  ERC20InvalidSender(address(0)) */\n  mload(0x40)\n  0x96c6fd1e00000000000000000000000000000000000000000000000000000000\n  dup2\n  mstore\n  0x04\n  add\n  tag_55\n  swap2\n  swap1\n  tag_15\n  jump\t// in\ntag_55:\n  mload(0x40)\n  dup1\n  swap2\n  sub\n  swap1\n  revert\n    /* \"@openzeppelin/contracts/token/ERC20/ERC20.sol\":5472:5558  if (from == address(0)) {... */\ntag_54:\n    /* \"@openzeppelin/contracts/token/ERC20/ERC20.sol\":5585:5586  0 */\n  0x00\n    /* \"@openzeppelin/contracts/token/ERC20/ERC20.sol\":5571:5587  to == address(0) */\n  0xffffffffffffffffffffffffffffffffffffffff\n  and\n    /* \"@openzeppelin/contracts/token/ERC20/ERC20.sol\":5571:5573  to */\n  dup3\n    /* \"@openzeppelin/contracts/token/ERC20/ERC20.sol\":5571:5587  to == address(0) */\n  0xffffffffffffffffffffffffffffffffffffffff\n  and\n  sub\n    /* \"@openzeppelin/contracts/token/ERC20/ERC20.sol\":5567:5653  if (to == address(0)) {... */\n  tag_56\n  jumpi\n    /* \"@openzeppelin/contracts/token/ERC20/ERC20.sol\":5639:5640  0 */\n  0x00\n    /* \"@openzeppelin/contracts/token/ERC20/ERC20.sol\":5610:5642  ERC20InvalidReceiver(address(0)) */\n  mload(0x40)\n  0xec442f0500000000000000000000000000000000000000000000000000000000\n  dup2\n  mstore\n  0x04\n  add\n  tag_57\n  swap2\n  swap1\n  tag_15\n  jump\t// in\ntag_57:\n  mload(0x40)\n  dup1\n  swap2\n  sub\n  swap1\n  revert\n    /* \"@openzeppelin/contracts/token/ERC20/ERC20.sol\":5567:5653  if (to == address(0)) {... */\ntag_56:\n    /* \"@openzeppelin/contracts/token/ERC20/ERC20.sol\":5662:5686  _update(from, to, value) */\n  tag_58\n    /* \"@openzeppelin/contracts/token/ERC20/ERC20.sol\":5670:5674  from */\n  dup4\n    /* \"@openzeppelin/contracts/token/ERC20/ERC20.sol\":5676:5678  to */\n  dup4\n    /* \"@openzeppelin/contracts/token/ERC20/ERC20.sol\":5680:5685  value */\n  dup4\n    /* \"@openzeppelin/contracts/token/ERC20/ERC20.sol\":5662:5669  _update */\n  shl(0x20, tag_52)\n    /* \"@openzeppelin/contracts/token/ERC20/ERC20.sol\":5662:5686  _update(from, to, value) */\n  0x20\n  shr\n  jump\t// in\ntag_58:\n    /* \"@openzeppelin/contracts/token/ERC20/ERC20.sol\":5393:5693  function _transfer(address from, address to, uint256 value) internal {... */\n  pop\n  pop\n  pop\n  jump\t// out\n    /* \"@openzeppelin/contracts/token/ERC20/ERC20.sol\":6008:7115  function _update(address from, address to, uint256 value) internal virtual {... */\ntag_52:\n    /* \"@openzeppelin/contracts/token/ERC20/ERC20.sol\":6113:6114  0 */\n  0x00\n    /* \"@openzeppelin/contracts/token/ERC20/ERC20.sol\":6097:6115  from == address(0) */\n  0xffffffffffffffffffffffffffffffffffffffff\n  and\n    /* \"@openzeppelin/contracts/token/ERC20/ERC20.sol\":6097:6101  from */\n  dup4\n    /* \"@openzeppelin/contracts/token/ERC20/ERC20.sol\":6097:6115  from == address(0) */\n  0xffffffffffffffffffffffffffffffffffffffff\n  and\n  sub\n    /* \"@openzeppelin/contracts/token/ERC20/ERC20.sol\":6093:6633  if (from == address(0)) {... */\n  tag_60\n  jumpi\n    /* \"@openzeppelin/contracts/token/ERC20/ERC20.sol\":6249:6254  value */\n  dup1\n    /* \"@openzeppelin/contracts/token/ERC20/ERC20.sol\":6233:6245  _totalSupply */\n  0x02\n  0x00\n    /* \"@openzeppelin/contracts/token/ERC20/ERC20.sol\":6233:6254  _totalSupply += value */\n  dup3\n  dup3\n  sload\n  tag_61\n  swap2\n  swap1\n  tag_62\n  jump\t// in\ntag_61:\n  swap3\n  pop\n  pop\n  dup2\n  swap1\n  sstore\n  pop\n    /* \"@openzeppelin/contracts/token/ERC20/ERC20.sol\":6093:6633  if (from == address(0)) {... */\n  jump(tag_63)\ntag_60:\n    /* \"@openzeppelin/contracts/token/ERC20/ERC20.sol\":6285:6304  uint256 fromBalance */\n  0x00\n    /* \"@openzeppelin/contracts/token/ERC20/ERC20.sol\":6307:6316  _balances */\n  0x00\n    /* \"@openzeppelin/contracts/token/ERC20/ERC20.sol\":6307:6322  _balances[from] */\n  0x00\n    /* \"@openzeppelin/contracts/token/ERC20/ERC20.sol\":6317:6321  from */\n  dup6\n    /* \"@openzeppelin/contracts/token/ERC20/ERC20.sol\":6307:6322  _balances[from] */\n  0xffffffffffffffffffffffffffffffffffffffff\n  and\n  0xffffffffffffffffffffffffffffffffffffffff\n  and\n  dup2\n  mstore\n  0x20\n  add\n  swap1\n  dup2\n  mstore\n  0x20\n  add\n  0x00\n  keccak256\n  sload\n    /* \"@openzeppelin/contracts/token/ERC20/ERC20.sol\":6285:6322  uint256 fromBalance = _balances[from] */\n  swap1\n  pop\n    /* \"@openzeppelin/contracts/token/ERC20/ERC20.sol\":6354:6359  value */\n  dup2\n    /* \"@openzeppelin/contracts/token/ERC20/ERC20.sol\":6340:6351  fromBalance */\n  dup2\n    /* \"@openzeppelin/contracts/token/ERC20/ERC20.sol\":6340:6359  fromBalance < value */\n  lt\n    /* \"@openzeppelin/contracts/token/ERC20/ERC20.sol\":6336:6451  if (fromBalance < value) {... */\n  iszero\n  tag_64\n  jumpi\n    /* \"@openzeppelin/contracts/token/ERC20/ERC20.sol\":6411:6415  from */\n  dup4\n    /* \"@openzeppelin/contracts/token/ERC20/ERC20.sol\":6417:6428  fromBalance */\n  dup2\n    /* \"@openzeppelin/contracts/token/ERC20/ERC20.sol\":6430:6435  value */\n  dup4\n    /* \"@openzeppelin/contracts/token/ERC20/ERC20.sol\":6386:6436  ERC20InsufficientBalance(from, fromBalance, value) */\n  mload(0x40)\n  0xe450d38c00000000000000000000000000000000000000000000000000000000\n  dup2\n  mstore\n  0x04\n  add\n  tag_65\n  swap4\n  swap3\n  swap2\n  swap1\n  tag_66\n  jump\t// in\ntag_65:\n  mload(0x40)\n  dup1\n  swap2\n  sub\n  swap1\n  revert\n    /* \"@openzeppelin/contracts/token/ERC20/ERC20.sol\":6336:6451  if (fromBalance < value) {... */\ntag_64:\n    /* \"@openzeppelin/contracts/token/ERC20/ERC20.sol\":6603:6608  value */\n  dup2\n    /* \"@openzeppelin/contracts/token/ERC20/ERC20.sol\":6589:6600  fromBalance */\n  dup2\n    /* \"@openzeppelin/contracts/token/ERC20/ERC20.sol\":6589:6608  fromBalance - value */\n  sub\n    /* \"@openzeppelin/contracts/token/ERC20/ERC20.sol\":6571:6580  _balances */\n  0x00\n    /* \"@openzeppelin/contracts/token/ERC20/ERC20.sol\":6571:6586  _balances[from] */\n  0x00\n    /* \"@openzeppelin/contracts/token/ERC20/ERC20.sol\":6581:6585  from */\n  dup7\n    /* \"@openzeppelin/contracts/token/ERC20/ERC20.sol\":6571:6586  _balances[from] */\n  0xffffffffffffffffffffffffffffffffffffffff\n  and\n  0xffffffffffffffffffffffffffffffffffffffff\n  and\n  dup2\n  mstore\n  0x20\n  add\n  swap1\n  dup2\n  mstore\n  0x20\n  add\n  0x00\n  keccak256\n    /* \"@openzeppelin/contracts/token/ERC20/ERC20.sol\":6571:6608  _balances[from] = fromBalance - value */\n  dup2\n  swap1\n  sstore\n  pop\n    /* \"@openzeppelin/contracts/token/ERC20/ERC20.sol\":6271:6633  {... */\n  pop\n    /* \"@openzeppelin/contracts/token/ERC20/ERC20.sol\":6093:6633  if (from == address(0)) {... */\ntag_63:\n    /* \"@openzeppelin/contracts/token/ERC20/ERC20.sol\":6661:6662  0 */\n  0x00\n    /* \"@openzeppelin/contracts/token/ERC20/ERC20.sol\":6647:6663  to == address(0) */\n  0xffffffffffffffffffffffffffffffffffffffff\n  and\n    /* \"@openzeppelin/contracts/token/ERC20/ERC20.sol\":6647:6649  to */\n  dup3\n    /* \"@openzeppelin/contracts/token/ERC20/ERC20.sol\":6647:6663  to == address(0) */\n  0xffffffffffffffffffffffffffffffffffffffff\n  and\n  sub\n    /* \"@openzeppelin/contracts/token/ERC20/ERC20.sol\":6643:7068  if (to == address(0)) {... */\n  tag_67\n  jumpi\n    /* \"@openzeppelin/contracts/token/ERC20/ERC20.sol\":6826:6831  value */\n  dup1\n    /* \"@openzeppelin/contracts/token/ERC20/ERC20.sol\":6810:6822  _totalSupply */\n  0x02\n  0x00\n    /* \"@openzeppelin/contracts/token/ERC20/ERC20.sol\":6810:6831  _totalSupply -= value */\n  dup3\n  dup3\n  sload\n  sub\n  swap3\n  pop\n  pop\n  dup2\n  swap1\n  sstore\n  pop\n    /* \"@openzeppelin/contracts/token/ERC20/ERC20.sol\":6643:7068  if (to == address(0)) {... */\n  jump(tag_68)\ntag_67:\n    /* \"@openzeppelin/contracts/token/ERC20/ERC20.sol\":7038:7043  value */\n  dup1\n    /* \"@openzeppelin/contracts/token/ERC20/ERC20.sol\":7021:7030  _balances */\n  0x00\n    /* \"@openzeppelin/contracts/token/ERC20/ERC20.sol\":7021:7034  _balances[to] */\n  0x00\n    /* \"@openzeppelin/contracts/token/ERC20/ERC20.sol\":7031:7033  to */\n  dup5\n    /* \"@openzeppelin/contracts/token/ERC20/ERC20.sol\":7021:7034  _balances[to] */\n  0xffffffffffffffffffffffffffffffffffffffff\n  and\n  0xffffffffffffffffffffffffffffffffffffffff\n  and\n  dup2\n  mstore\n  0x20\n  add\n  swap1\n  dup2\n  mstore\n  0x20\n  add\n  0x00\n  keccak256\n  0x00\n    /* \"@openzeppelin/contracts/token/ERC20/ERC20.sol\":7021:7043  _balances[to] += value */\n  dup3\n  dup3\n  sload\n  add\n  swap3\n  pop\n  pop\n  dup2\n  swap1\n  sstore\n  pop\n    /* \"@openzeppelin/contracts/token/ERC20/ERC20.sol\":6643:7068  if (to == address(0)) {... */\ntag_68:\n    /* \"@openzeppelin/contracts/token/ERC20/ERC20.sol\":7098:7100  to */\n  dup2\n    /* \"@openzeppelin/contracts/token/ERC20/ERC20.sol\":7083:7108  Transfer(from, to, value) */\n  0xffffffffffffffffffffffffffffffffffffffff\n  and\n    /* \"@openzeppelin/contracts/token/ERC20/ERC20.sol\":7092:7096  from */\n  dup4\n    /* \"@openzeppelin/contracts/token/ERC20/ERC20.sol\":7083:7108  Transfer(from, to, value) */\n  0xffffffffffffffffffffffffffffffffffffffff\n  and\n  0xddf252ad1be2c89b69c2b068fc378daa952ba7f163c4a11628f55a4df523b3ef\n    /* \"@openzeppelin/contracts/token/ERC20/ERC20.sol\":7102:7107  value */\n  dup4\n    /* \"@openzeppelin/contracts/token/ERC20/ERC20.sol\":7083:7108  Transfer(from, to, value) */\n  mload(0x40)\n  tag_69\n  swap2\n  swap1\n  tag_70\n  jump\t// in\ntag_69:\n  mload(0x40)\n  dup1\n  swap2\n  sub\n  swap1\n  log3\n    /* \"@openzeppelin/contracts/token/ERC20/ERC20.sol\":6008:7115  function _update(address from, address to, uint256 value) internal virtual {... */\n  pop\n  pop\n  pop\n  jump\t// out\n    /* \"#utility.yul\":88:205   */\ntag_72:\n    /* \"#utility.yul\":197:198   */\n  0x00\n    /* \"#utility.yul\":194:195   */\n  0x00\n    /* \"#utility.yul\":187:199   */\n  revert\n    /* \"#utility.yul\":334:411   */\ntag_74:\n    /* \"#utility.yul\":371:378   */\n  0x00\n    /* \"#utility.yul\":400:405   */\n  dup2\n    /* \"#utility.yul\":389:405   */\n  swap1\n  pop\n    /* \"#utility.yul\":334:411   */\n  swap2\n  swap1\n  pop\n  jump\t// out\n    /* \"#utility.yul\":417:539   */\ntag_75:\n    /* \"#utility.yul\":490:514   */\n  tag_111\n    /* \"#utility.yul\":508:513   */\n  dup2\n    /* \"#utility.yul\":490:514   */\n  tag_74\n  jump\t// in\ntag_111:\n    /* \"#utility.yul\":483:488   */\n  dup2\n    /* \"#utility.yul\":480:515   */\n  eq\n    /* \"#utility.yul\":470:533   */\n  tag_112\n  jumpi\n    /* \"#utility.yul\":529:530   */\n  0x00\n    /* \"#utility.yul\":526:527   */\n  0x00\n    /* \"#utility.yul\":519:531   */\n  revert\n    /* \"#utility.yul\":470:533   */\ntag_112:\n    /* \"#utility.yul\":417:539   */\n  pop\n  jump\t// out\n    /* \"#utility.yul\":545:688   */\ntag_76:\n    /* \"#utility.yul\":602:607   */\n  0x00\n    /* \"#utility.yul\":633:639   */\n  dup2\n    /* \"#utility.yul\":627:640   */\n  mload\n    /* \"#utility.yul\":618:640   */\n  swap1\n  pop\n    /* \"#utility.yul\":649:682   */\n  tag_114\n    /* \"#utility.yul\":676:681   */\n  dup2\n    /* \"#utility.yul\":649:682   */\n  tag_75\n  jump\t// in\ntag_114:\n    /* \"#utility.yul\":545:688   */\n  swap3\n  swap2\n  pop\n  pop\n  jump\t// out\n    /* \"#utility.yul\":694:1045   */\ntag_3:\n    /* \"#utility.yul\":764:770   */\n  0x00\n    /* \"#utility.yul\":813:815   */\n  0x20\n    /* \"#utility.yul\":801:810   */\n  dup3\n    /* \"#utility.yul\":792:799   */\n  dup5\n    /* \"#utility.yul\":788:811   */\n  sub\n    /* \"#utility.yul\":784:816   */\n  slt\n    /* \"#utility.yul\":781:900   */\n  iszero\n  tag_116\n  jumpi\n    /* \"#utility.yul\":819:898   */\n  tag_117\n  tag_72\n  jump\t// in\ntag_117:\n    /* \"#utility.yul\":781:900   */\ntag_116:\n    /* \"#utility.yul\":939:940   */\n  0x00\n    /* \"#utility.yul\":964:1028   */\n  tag_118\n    /* \"#utility.yul\":1020:1027   */\n  dup5\n    /* \"#utility.yul\":1011:1017   */\n  dup3\n    /* \"#utility.yul\":1000:1009   */\n  dup6\n    /* \"#utility.yul\":996:1018   */\n  add\n    /* \"#utility.yul\":964:1028   */\n  tag_76\n  jump\t// in\ntag_118:\n    /* \"#utility.yul\":954:1028   */\n  swap2\n  pop\n    /* \"#utility.yul\":910:1038   */\n  pop\n    /* \"#utility.yul\":694:1045   */\n  swap3\n  swap2\n  pop\n  pop\n  jump\t// out\n    /* \"#utility.yul\":1051:1150   */\ntag_77:\n    /* \"#utility.yul\":1103:1109   */\n  0x00\n    /* \"#utility.yul\":1137:1142   */\n  dup2\n    /* \"#utility.yul\":1131:1143   */\n  mload\n    /* \"#utility.yul\":1121:1143   */\n  swap1\n  pop\n    /* \"#utility.yul\":1051:1150   */\n  swap2\n  swap1\n  pop\n  jump\t// out\n    /* \"#utility.yul\":1156:1336   */\ntag_78:\n    /* \"#utility.yul\":1204:1281   */\n  0x4e487b7100000000000000000000000000000000000000000000000000000000\n    /* \"#utility.yul\":1201:1202   */\n  0x00\n    /* \"#utility.yul\":1194:1282   */\n  mstore\n    /* \"#utility.yul\":1301:1305   */\n  0x41\n    /* \"#utility.yul\":1298:1299   */\n  0x04\n    /* \"#utility.yul\":1291:1306   */\n  mstore\n    /* \"#utility.yul\":1325:1329   */\n  0x24\n    /* \"#utility.yul\":1322:1323   */\n  0x00\n    /* \"#utility.yul\":1315:1330   */\n  revert\n    /* \"#utility.yul\":1342:1522   */\ntag_79:\n    /* \"#utility.yul\":1390:1467   */\n  0x4e487b7100000000000000000000000000000000000000000000000000000000\n    /* \"#utility.yul\":1387:1388   */\n  0x00\n    /* \"#utility.yul\":1380:1468   */\n  mstore\n    /* \"#utility.yul\":1487:1491   */\n  0x22\n    /* \"#utility.yul\":1484:1485   */\n  0x04\n    /* \"#utility.yul\":1477:1492   */\n  mstore\n    /* \"#utility.yul\":1511:1515   */\n  0x24\n    /* \"#utility.yul\":1508:1509   */\n  0x00\n    /* \"#utility.yul\":1501:1516   */\n  revert\n    /* \"#utility.yul\":1528:1848   */\ntag_80:\n    /* \"#utility.yul\":1572:1578   */\n  0x00\n    /* \"#utility.yul\":1609:1610   */\n  0x02\n    /* \"#utility.yul\":1603:1607   */\n  dup3\n    /* \"#utility.yul\":1599:1611   */\n  div\n    /* \"#utility.yul\":1589:1611   */\n  swap1\n  pop\n    /* \"#utility.yul\":1656:1657   */\n  0x01\n    /* \"#utility.yul\":1650:1654   */\n  dup3\n    /* \"#utility.yul\":1646:1658   */\n  and\n    /* \"#utility.yul\":1677:1695   */\n  dup1\n    /* \"#utility.yul\":1667:1748   */\n  tag_123\n  jumpi\n    /* \"#utility.yul\":1733:1737   */\n  0x7f\n    /* \"#utility.yul\":1725:1731   */\n  dup3\n    /* \"#utility.yul\":1721:1738   */\n  and\n    /* \"#utility.yul\":1711:1738   */\n  swap2\n  pop\n    /* \"#utility.yul\":1667:1748   */\ntag_123:\n    /* \"#utility.yul\":1795:1797   */\n  0x20\n    /* \"#utility.yul\":1787:1793   */\n  dup3\n    /* \"#utility.yul\":1784:1798   */\n  lt\n    /* \"#utility.yul\":1764:1782   */\n  dup2\n    /* \"#utility.yul\":1761:1799   */\n  sub\n    /* \"#utility.yul\":1758:1842   */\n  tag_124\n  jumpi\n    /* \"#utility.yul\":1814:1832   */\n  tag_125\n  tag_79\n  jump\t// in\ntag_125:\n    /* \"#utility.yul\":1758:1842   */\ntag_124:\n    /* \"#utility.yul\":1579:1848   */\n  pop\n    /* \"#utility.yul\":1528:1848   */\n  swap2\n  swap1\n  pop\n  jump\t// out\n    /* \"#utility.yul\":1854:1995   */\ntag_81:\n    /* \"#utility.yul\":1903:1907   */\n  0x00\n    /* \"#utility.yul\":1926:1929   */\n  dup2\n    /* \"#utility.yul\":1918:1929   */\n  swap1\n  pop\n    /* \"#utility.yul\":1949:1952   */\n  dup2\n    /* \"#utility.yul\":1946:1947   */\n  0x00\n    /* \"#utility.yul\":1939:1953   */\n  mstore\n    /* \"#utility.yul\":1983:1987   */\n  0x20\n    /* \"#utility.yul\":1980:1981   */\n  0x00\n    /* \"#utility.yul\":1970:1988   */\n  keccak256\n    /* \"#utility.yul\":1962:1988   */\n  swap1\n  pop\n    /* \"#utility.yul\":1854:1995   */\n  swap2\n  swap1\n  pop\n  jump\t// out\n    /* \"#utility.yul\":2001:2094   */\ntag_82:\n    /* \"#utility.yul\":2038:2044   */\n  0x00\n    /* \"#utility.yul\":2085:2087   */\n  0x20\n    /* \"#utility.yul\":2080:2082   */\n  0x1f\n    /* \"#utility.yul\":2073:2078   */\n  dup4\n    /* \"#utility.yul\":2069:2083   */\n  add\n    /* \"#utility.yul\":2065:2088   */\n  div\n    /* \"#utility.yul\":2055:2088   */\n  swap1\n  pop\n    /* \"#utility.yul\":2001:2094   */\n  swap2\n  swap1\n  pop\n  jump\t// out\n    /* \"#utility.yul\":2100:2207   */\ntag_83:\n    /* \"#utility.yul\":2144:2152   */\n  0x00\n    /* \"#utility.yul\":2194:2199   */\n  dup3\n    /* \"#utility.yul\":2188:2192   */\n  dup3\n    /* \"#utility.yul\":2184:2200   */\n  shl\n    /* \"#utility.yul\":2163:2200   */\n  swap1\n  pop\n    /* \"#utility.yul\":2100:2207   */\n  swap3\n  swap2\n  pop\n  pop\n  jump\t// out\n    /* \"#utility.yul\":2213:2606   */\ntag_84:\n    /* \"#utility.yul\":2282:2288   */\n  0x00\n    /* \"#utility.yul\":2332:2333   */\n  0x08\n    /* \"#utility.yul\":2320:2330   */\n  dup4\n    /* \"#utility.yul\":2316:2334   */\n  mul\n    /* \"#utility.yul\":2355:2452   */\n  tag_130\n    /* \"#utility.yul\":2385:2451   */\n  0xffffffffffffffffffffffffffffffffffffffffffffffffffffffffffffffff\n    /* \"#utility.yul\":2374:2383   */\n  dup3\n    /* \"#utility.yul\":2355:2452   */\n  tag_83\n  jump\t// in\ntag_130:\n    /* \"#utility.yul\":2473:2512   */\n  tag_131\n    /* \"#utility.yul\":2503:2511   */\n  dup7\n    /* \"#utility.yul\":2492:2501   */\n  dup4\n    /* \"#utility.yul\":2473:2512   */\n  tag_83\n  jump\t// in\ntag_131:\n    /* \"#utility.yul\":2461:2512   */\n  swap6\n  pop\n    /* \"#utility.yul\":2545:2549   */\n  dup1\n    /* \"#utility.yul\":2541:2550   */\n  not\n    /* \"#utility.yul\":2534:2539   */\n  dup5\n    /* \"#utility.yul\":2530:2551   */\n  and\n    /* \"#utility.yul\":2521:2551   */\n  swap4\n  pop\n    /* \"#utility.yul\":2594:2598   */\n  dup1\n    /* \"#utility.yul\":2584:2592   */\n  dup7\n    /* \"#utility.yul\":2580:2599   */\n  and\n    /* \"#utility.yul\":2573:2578   */\n  dup5\n    /* \"#utility.yul\":2570:2600   */\n  or\n    /* \"#utility.yul\":2560:2600   */\n  swap3\n  pop\n    /* \"#utility.yul\":2289:2606   */\n  pop\n  pop\n    /* \"#utility.yul\":2213:2606   */\n  swap4\n  swap3\n  pop\n  pop\n  pop\n  jump\t// out\n    /* \"#utility.yul\":2612:2672   */\ntag_85:\n    /* \"#utility.yul\":2640:2643   */\n  0x00\n    /* \"#utility.yul\":2661:2666   */\n  dup2\n    /* \"#utility.yul\":2654:2666   */\n  swap1\n  pop\n    /* \"#utility.yul\":2612:2672   */\n  swap2\n  swap1\n  pop\n  jump\t// out\n    /* \"#utility.yul\":2678:2820   */\ntag_86:\n    /* \"#utility.yul\":2728:2737   */\n  0x00\n    /* \"#utility.yul\":2761:2814   */\n  tag_134\n    /* \"#utility.yul\":2779:2813   */\n  tag_135\n    /* \"#utility.yul\":2788:2812   */\n  tag_136\n    /* \"#utility.yul\":2806:2811   */\n  dup5\n    /* \"#utility.yul\":2788:2812   */\n  tag_74\n  jump\t// in\ntag_136:\n    /* \"#utility.yul\":2779:2813   */\n  tag_85\n  jump\t// in\ntag_135:\n    /* \"#utility.yul\":2761:2814   */\n  tag_74\n  jump\t// in\ntag_134:\n    /* \"#utility.yul\":2748:2814   */\n  swap1\n  pop\n    /* \"#utility.yul\":2678:2820   */\n  swap2\n  swap1\n  pop\n  jump\t// out\n    /* \"#utility.yul\":2826:2901   */\ntag_87:\n    /* \"#utility.yul\":2869:2872   */\n  0x00\n    /* \"#utility.yul\":2890:2895   */\n  dup2\n    /* \"#utility.yul\":2883:2895   */\n  swap1\n  pop\n    /* \"#utility.yul\":2826:2901   */\n  swap2\n  swap1\n  pop\n  jump\t// out\n    /* \"#utility.yul\":2907:3176   */\ntag_88:\n    /* \"#utility.yul\":3017:3056   */\n  tag_139\n    /* \"#utility.yul\":3048:3055   */\n  dup4\n    /* \"#utility.yul\":3017:3056   */\n  tag_86\n  jump\t// in\ntag_139:\n    /* \"#utility.yul\":3078:3169   */\n  tag_140\n    /* \"#utility.yul\":3127:3168   */\n  tag_141\n    /* \"#utility.yul\":3151:3167   */\n  dup3\n    /* \"#utility.yul\":3127:3168   */\n  tag_87\n  jump\t// in\ntag_141:\n    /* \"#utility.yul\":3119:3125   */\n  dup5\n    /* \"#utility.yul\":3112:3116   */\n  dup5\n    /* \"#utility.yul\":3106:3117   */\n  sload\n    /* \"#utility.yul\":3078:3169   */\n  tag_84\n  jump\t// in\ntag_140:\n    /* \"#utility.yul\":3072:3076   */\n  dup3\n    /* \"#utility.yul\":3065:3170   */\n  sstore\n    /* \"#utility.yul\":2983:3176   */\n  pop\n    /* \"#utility.yul\":2907:3176   */\n  pop\n  pop\n  pop\n  jump\t// out\n    /* \"#utility.yul\":3182:3255   */\ntag_89:\n    /* \"#utility.yul\":3227:3230   */\n  0x00\n    /* \"#utility.yul\":3248:3249   */\n  0x00\n    /* \"#utility.yul\":3241:3249   */\n  swap1\n  pop\n    /* \"#utility.yul\":3182:3255   */\n  swap1\n  jump\t// out\n    /* \"#utility.yul\":3261:3450   */\ntag_90:\n    /* \"#utility.yul\":3338:3370   */\n  tag_144\n  tag_89\n  jump\t// in\ntag_144:\n    /* \"#utility.yul\":3379:3444   */\n  tag_145\n    /* \"#utility.yul\":3437:3443   */\n  dup2\n    /* \"#utility.yul\":3429:3435   */\n  dup5\n    /* \"#utility.yul\":3423:3427   */\n  dup5\n    /* \"#utility.yul\":3379:3444   */\n  tag_88\n  jump\t// in\ntag_145:\n    /* \"#utility.yul\":3314:3450   */\n  pop\n    /* \"#utility.yul\":3261:3450   */\n  pop\n  pop\n  jump\t// out\n    /* \"#utility.yul\":3456:3642   */\ntag_91:\n    /* \"#utility.yul\":3516:3636   */\ntag_147:\n    /* \"#utility.yul\":3533:3536   */\n  dup2\n    /* \"#utility.yul\":3526:3531   */\n  dup2\n    /* \"#utility.yul\":3523:3537   */\n  lt\n    /* \"#utility.yul\":3516:3636   */\n  iszero\n  tag_149\n  jumpi\n    /* \"#utility.yul\":3587:3626   */\n  tag_150\n    /* \"#utility.yul\":3624:3625   */\n  0x00\n    /* \"#utility.yul\":3617:3622   */\n  dup3\n    /* \"#utility.yul\":3587:3626   */\n  tag_90\n  jump\t// in\ntag_150:\n    /* \"#utility.yul\":3560:3561   */\n  0x01\n    /* \"#utility.yul\":3553:3558   */\n  dup2\n    /* \"#utility.yul\":3549:3562   */\n  add\n    /* \"#utility.yul\":3540:3562   */\n  swap1\n  pop\n    /* \"#utility.yul\":3516:3636   */\n  jump(tag_147)\ntag_149:\n    /* \"#utility.yul\":3456:3642   */\n  pop\n  pop\n  jump\t// out\n    /* \"#utility.yul\":3648:4191   */\ntag_92:\n    /* \"#utility.yul\":3749:3751   */\n  0x1f\n    /* \"#utility.yul\":3744:3747   */\n  dup3\n    /* \"#utility.yul\":3741:3752   */\n  gt\n    /* \"#utility.yul\":3738:4184   */\n  iszero\n  tag_152\n  jumpi\n    /* \"#utility.yul\":3783:3821   */\n  tag_153\n    /* \"#utility.yul\":3815:3820   */\n  dup2\n    /* \"#utility.yul\":3783:3821   */\n  tag_81\n  jump\t// in\ntag_153:\n    /* \"#utility.yul\":3867:3896   */\n  tag_154\n    /* \"#utility.yul\":3885:3895   */\n  dup5\n    /* \"#utility.yul\":3867:3896   */\n  tag_82\n  jump\t// in\ntag_154:\n    /* \"#utility.yul\":3857:3865   */\n  dup2\n    /* \"#utility.yul\":3853:3897   */\n  add\n    /* \"#utility.yul\":4050:4052   */\n  0x20\n    /* \"#utility.yul\":4038:4048   */\n  dup6\n    /* \"#utility.yul\":4035:4053   */\n  lt\n    /* \"#utility.yul\":4032:4081   */\n  iszero\n  tag_155\n  jumpi\n    /* \"#utility.yul\":4071:4079   */\n  dup2\n    /* \"#utility.yul\":4056:4079   */\n  swap1\n  pop\n    /* \"#utility.yul\":4032:4081   */\ntag_155:\n    /* \"#utility.yul\":4094:4174   */\n  tag_156\n    /* \"#utility.yul\":4150:4172   */\n  tag_157\n    /* \"#utility.yul\":4168:4171   */\n  dup6\n    /* \"#utility.yul\":4150:4172   */\n  tag_82\n  jump\t// in\ntag_157:\n    /* \"#utility.yul\":4140:4148   */\n  dup4\n    /* \"#utility.yul\":4136:4173   */\n  add\n    /* \"#utility.yul\":4123:4134   */\n  dup3\n    /* \"#utility.yul\":4094:4174   */\n  tag_91\n  jump\t// in\ntag_156:\n    /* \"#utility.yul\":3753:4184   */\n  pop\n  pop\n    /* \"#utility.yul\":3738:4184   */\ntag_152:\n    /* \"#utility.yul\":3648:4191   */\n  pop\n  pop\n  pop\n  jump\t// out\n    /* \"#utility.yul\":4197:4314   */\ntag_93:\n    /* \"#utility.yul\":4251:4259   */\n  0x00\n    /* \"#utility.yul\":4301:4306   */\n  dup3\n    /* \"#utility.yul\":4295:4299   */\n  dup3\n    /* \"#utility.yul\":4291:4307   */\n  shr\n    /* \"#utility.yul\":4270:4307   */\n  swap1\n  pop\n    /* \"#utility.yul\":4197:4314   */\n  swap3\n  swap2\n  pop\n  pop\n  jump\t// out\n    /* \"#utility.yul\":4320:4489   */\ntag_94:\n    /* \"#utility.yul\":4364:4370   */\n  0x00\n    /* \"#utility.yul\":4397:4448   */\n  tag_160\n    /* \"#utility.yul\":4445:4446   */\n  0x00\n    /* \"#utility.yul\":4441:4447   */\n  not\n    /* \"#utility.yul\":4433:4438   */\n  dup5\n    /* \"#utility.yul\":4430:4431   */\n  0x08\n    /* \"#utility.yul\":4426:4439   */\n  mul\n    /* \"#utility.yul\":4397:4448   */\n  tag_93\n  jump\t// in\ntag_160:\n    /* \"#utility.yul\":4393:4449   */\n  not\n    /* \"#utility.yul\":4478:4482   */\n  dup1\n    /* \"#utility.yul\":4472:4476   */\n  dup4\n    /* \"#utility.yul\":4468:4483   */\n  and\n    /* \"#utility.yul\":4458:4483   */\n  swap2\n  pop\n    /* \"#utility.yul\":4371:4489   */\n  pop\n    /* \"#utility.yul\":4320:4489   */\n  swap3\n  swap2\n  pop\n  pop\n  jump\t// out\n    /* \"#utility.yul\":4494:4789   */\ntag_95:\n    /* \"#utility.yul\":4570:4574   */\n  0x00\n    /* \"#utility.yul\":4716:4745   */\n  tag_162\n    /* \"#utility.yul\":4741:4744   */\n  dup4\n    /* \"#utility.yul\":4735:4739   */\n  dup4\n    /* \"#utility.yul\":4716:4745   */\n  tag_94\n  jump\t// in\ntag_162:\n    /* \"#utility.yul\":4708:4745   */\n  swap2\n  pop\n    /* \"#utility.yul\":4778:4781   */\n  dup3\n    /* \"#utility.yul\":4775:4776   */\n  0x02\n    /* \"#utility.yul\":4771:4782   */\n  mul\n    /* \"#utility.yul\":4765:4769   */\n  dup3\n    /* \"#utility.yul\":4762:4783   */\n  or\n    /* \"#utility.yul\":4754:4783   */\n  swap1\n  pop\n    /* \"#utility.yul\":4494:4789   */\n  swap3\n  swap2\n  pop\n  pop\n  jump\t// out\n    /* \"#utility.yul\":4794:6189   */\ntag_10:\n    /* \"#utility.yul\":4911:4948   */\n  tag_164\n    /* \"#utility.yul\":4944:4947   */\n  dup3\n    /* \"#utility.yul\":4911:4948   */\n  tag_77\n  jump\t// in\ntag_164:\n    /* \"#utility.yul\":5013:5031   */\n  0xffffffffffffffff\n    /* \"#utility.yul\":5005:5011   */\n  dup2\n    /* \"#utility.yul\":5002:5032   */\n  gt\n    /* \"#utility.yul\":4999:5055   */\n  iszero\n  tag_165\n  jumpi\n    /* \"#utility.yul\":5035:5053   */\n  tag_166\n  tag_78\n  jump\t// in\ntag_166:\n    /* \"#utility.yul\":4999:5055   */\ntag_165:\n    /* \"#utility.yul\":5079:5117   */\n  tag_167\n    /* \"#utility.yul\":5111:5115   */\n  dup3\n    /* \"#utility.yul\":5105:5116   */\n  sload\n    /* \"#utility.yul\":5079:5117   */\n  tag_80\n  jump\t// in\ntag_167:\n    /* \"#utility.yul\":5164:5231   */\n  tag_168\n    /* \"#utility.yul\":5224:5230   */\n  dup3\n    /* \"#utility.yul\":5216:5222   */\n  dup3\n    /* \"#utility.yul\":5210:5214   */\n  dup6\n    /* \"#utility.yul\":5164:5231   */\n  tag_92\n  jump\t// in\ntag_168:\n    /* \"#utility.yul\":5258:5259   */\n  0x00\n    /* \"#utility.yul\":5282:5286   */\n  0x20\n    /* \"#utility.yul\":5269:5286   */\n  swap1\n  pop\n    /* \"#utility.yul\":5314:5316   */\n  0x1f\n    /* \"#utility.yul\":5306:5312   */\n  dup4\n    /* \"#utility.yul\":5303:5317   */\n  gt\n    /* \"#utility.yul\":5331:5332   */\n  0x01\n    /* \"#utility.yul\":5326:5944   */\n  dup2\n  eq\n  tag_170\n  jumpi\n    /* \"#utility.yul\":5988:5989   */\n  0x00\n    /* \"#utility.yul\":6005:6011   */\n  dup5\n    /* \"#utility.yul\":6002:6079   */\n  iszero\n  tag_171\n  jumpi\n    /* \"#utility.yul\":6054:6063   */\n  dup3\n    /* \"#utility.yul\":6049:6052   */\n  dup8\n    /* \"#utility.yul\":6045:6064   */\n  add\n    /* \"#utility.yul\":6039:6065   */\n  mload\n    /* \"#utility.yul\":6030:6065   */\n  swap1\n  pop\n    /* \"#utility.yul\":6002:6079   */\ntag_171:\n    /* \"#utility.yul\":6105:6172   */\n  tag_172\n    /* \"#utility.yul\":6165:6171   */\n  dup6\n    /* \"#utility.yul\":6158:6163   */\n  dup3\n    /* \"#utility.yul\":6105:6172   */\n  tag_95\n  jump\t// in\ntag_172:\n    /* \"#utility.yul\":6099:6103   */\n  dup7\n    /* \"#utility.yul\":6092:6173   */\n  sstore\n    /* \"#utility.yul\":5961:6183   */\n  pop\n    /* \"#utility.yul\":5296:6183   */\n  jump(tag_169)\n    /* \"#utility.yul\":5326:5944   */\ntag_170:\n    /* \"#utility.yul\":5378:5382   */\n  0x1f\n    /* \"#utility.yul\":5374:5383   */\n  not\n    /* \"#utility.yul\":5366:5372   */\n  dup5\n    /* \"#utility.yul\":5362:5384   */\n  and\n    /* \"#utility.yul\":5412:5449   */\n  tag_173\n    /* \"#utility.yul\":5444:5448   */\n  dup7\n    /* \"#utility.yul\":5412:5449   */\n  tag_81\n  jump\t// in\ntag_173:\n    /* \"#utility.yul\":5471:5472   */\n  0x00\n    /* \"#utility.yul\":5485:5693   */\ntag_174:\n    /* \"#utility.yul\":5499:5506   */\n  dup3\n    /* \"#utility.yul\":5496:5497   */\n  dup2\n    /* \"#utility.yul\":5493:5507   */\n  lt\n    /* \"#utility.yul\":5485:5693   */\n  iszero\n  tag_176\n  jumpi\n    /* \"#utility.yul\":5578:5587   */\n  dup5\n    /* \"#utility.yul\":5573:5576   */\n  dup10\n    /* \"#utility.yul\":5569:5588   */\n  add\n    /* \"#utility.yul\":5563:5589   */\n  mload\n    /* \"#utility.yul\":5555:5561   */\n  dup3\n    /* \"#utility.yul\":5548:5590   */\n  sstore\n    /* \"#utility.yul\":5629:5630   */\n  0x01\n    /* \"#utility.yul\":5621:5627   */\n  dup3\n    /* \"#utility.yul\":5617:5631   */\n  add\n    /* \"#utility.yul\":5607:5631   */\n  swap2\n  pop\n    /* \"#utility.yul\":5676:5678   */\n  0x20\n    /* \"#utility.yul\":5665:5674   */\n  dup6\n    /* \"#utility.yul\":5661:5679   */\n  add\n    /* \"#utility.yul\":5648:5679   */\n  swap5\n  pop\n    /* \"#utility.yul\":5522:5526   */\n  0x20\n    /* \"#utility.yul\":5519:5520   */\n  dup2\n    /* \"#utility.yul\":5515:5527   */\n  add\n    /* \"#utility.yul\":5510:5527   */\n  swap1\n  pop\n    /* \"#utility.yul\":5485:5693   */\n  jump(tag_174)\ntag_176:\n    /* \"#utility.yul\":5721:5727   */\n  dup7\n    /* \"#utility.yul\":5712:5719   */\n  dup4\n    /* \"#utility.yul\":5709:5728   */\n  lt\n    /* \"#utility.yul\":5706:5885   */\n  iszero\n  tag_177\n  jumpi\n    /* \"#utility.yul\":5779:5788   */\n  dup5\n    /* \"#utility.yul\":5774:5777   */\n  dup10\n    /* \"#utility.yul\":5770:5789   */\n  add\n    /* \"#utility.yul\":5764:5790   */\n  mload\n    /* \"#utility.yul\":5822:5870   */\n  tag_178\n    /* \"#utility.yul\":5864:5868   */\n  0x1f\n    /* \"#utility.yul\":5856:5862   */\n  dup10\n    /* \"#utility.yul\":5852:5869   */\n  and\n    /* \"#utility.yul\":5841:5850   */\n  dup3\n    /* \"#utility.yul\":5822:5870   */\n  tag_94\n  jump\t// in\ntag_178:\n    /* \"#utility.yul\":5814:5820   */\n  dup4\n    /* \"#utility.yul\":5807:5871   */\n  sstore\n    /* \"#utility.yul\":5729:5885   */\n  pop\n    /* \"#utility.yul\":5706:5885   */\ntag_177:\n    /* \"#utility.yul\":5931:5932   */\n  0x01\n    /* \"#utility.yul\":5927:5928   */\n  0x02\n    /* \"#utility.yul\":5919:5925   */\n  dup9\n    /* \"#utility.yul\":5915:5929   */\n  mul\n    /* \"#utility.yul\":5911:5933   */\n  add\n    /* \"#utility.yul\":5905:5909   */\n  dup9\n    /* \"#utility.yul\":5898:5934   */\n  sstore\n    /* \"#utility.yul\":5333:5944   */\n  pop\n  pop\n  pop\n    /* \"#utility.yul\":5296:6183   */\ntag_169:\n  pop\n    /* \"#utility.yul\":4886:6189   */\n  pop\n  pop\n  pop\n    /* \"#utility.yul\":4794:6189   */\n  pop\n  pop\n  jump\t// out\n    /* \"#utility.yul\":6195:6321   */\ntag_96:\n    /* \"#utility.yul\":6232:6239   */\n  0x00\n    /* \"#utility.yul\":6272:6314   */\n  0xffffffffffffffffffffffffffffffffffffffff\n    /* \"#utility.yul\":6265:6270   */\n  dup3\n    /* \"#utility.yul\":6261:6315   */\n  and\n    /* \"#utility.yul\":6250:6315   */\n  swap1\n  pop\n    /* \"#utility.yul\":6195:6321   */\n  swap2\n  swap1\n  pop\n  jump\t// out\n    /* \"#utility.yul\":6327:6423   */\ntag_97:\n    /* \"#utility.yul\":6364:6371   */\n  0x00\n    /* \"#utility.yul\":6393:6417   */\n  tag_181\n    /* \"#utility.yul\":6411:6416   */\n  dup3\n    /* \"#utility.yul\":6393:6417   */\n  tag_96\n  jump\t// in\ntag_181:\n    /* \"#utility.yul\":6382:6417   */\n  swap1\n  pop\n    /* \"#utility.yul\":6327:6423   */\n  swap2\n  swap1\n  pop\n  jump\t// out\n    /* \"#utility.yul\":6429:6547   */\ntag_98:\n    /* \"#utility.yul\":6516:6540   */\n  tag_183\n    /* \"#utility.yul\":6534:6539   */\n  dup2\n    /* \"#utility.yul\":6516:6540   */\n  tag_97\n  jump\t// in\ntag_183:\n    /* \"#utility.yul\":6511:6514   */\n  dup3\n    /* \"#utility.yul\":6504:6541   */\n  mstore\n    /* \"#utility.yul\":6429:6547   */\n  pop\n  pop\n  jump\t// out\n    /* \"#utility.yul\":6553:6775   */\ntag_15:\n    /* \"#utility.yul\":6646:6650   */\n  0x00\n    /* \"#utility.yul\":6684:6686   */\n  0x20\n    /* \"#utility.yul\":6673:6682   */\n  dup3\n    /* \"#utility.yul\":6669:6687   */\n  add\n    /* \"#utility.yul\":6661:6687   */\n  swap1\n  pop\n    /* \"#utility.yul\":6697:6768   */\n  tag_185\n    /* \"#utility.yul\":6765:6766   */\n  0x00\n    /* \"#utility.yul\":6754:6763   */\n  dup4\n    /* \"#utility.yul\":6750:6767   */\n  add\n    /* \"#utility.yul\":6741:6747   */\n  dup5\n    /* \"#utility.yul\":6697:6768   */\n  tag_98\n  jump\t// in\ntag_185:\n    /* \"#utility.yul\":6553:6775   */\n  swap3\n  swap2\n  pop\n  pop\n  jump\t// out\n    /* \"#utility.yul\":6781:6950   */\ntag_99:\n    /* \"#utility.yul\":6865:6876   */\n  0x00\n    /* \"#utility.yul\":6899:6905   */\n  dup3\n    /* \"#utility.yul\":6894:6897   */\n  dup3\n    /* \"#utility.yul\":6887:6906   */\n  mstore\n    /* \"#utility.yul\":6939:6943   */\n  0x20\n    /* \"#utility.yul\":6934:6937   */\n  dup3\n    /* \"#utility.yul\":6930:6944   */\n  add\n    /* \"#utility.yul\":6915:6944   */\n  swap1\n  pop\n    /* \"#utility.yul\":6781:6950   */\n  swap3\n  swap2\n  pop\n  pop\n  jump\t// out\n    /* \"#utility.yul\":6956:7177   */\ntag_100:\n    /* \"#utility.yul\":7096:7130   */\n  0x5265776172642072617465206d7573742062652067726561746572207468616e\n    /* \"#utility.yul\":7092:7093   */\n  0x00\n    /* \"#utility.yul\":7084:7090   */\n  dup3\n    /* \"#utility.yul\":7080:7094   */\n  add\n    /* \"#utility.yul\":7073:7131   */\n  mstore\n    /* \"#utility.yul\":7165:7169   */\n  0x2030000000000000000000000000000000000000000000000000000000000000\n    /* \"#utility.yul\":7160:7162   */\n  0x20\n    /* \"#utility.yul\":7152:7158   */\n  dup3\n    /* \"#utility.yul\":7148:7163   */\n  add\n    /* \"#utility.yul\":7141:7170   */\n  mstore\n    /* \"#utility.yul\":6956:7177   */\n  pop\n  jump\t// out\n    /* \"#utility.yul\":7183:7549   */\ntag_101:\n    /* \"#utility.yul\":7325:7328   */\n  0x00\n    /* \"#utility.yul\":7346:7413   */\n  tag_189\n    /* \"#utility.yul\":7410:7412   */\n  0x22\n    /* \"#utility.yul\":7405:7408   */\n  dup4\n    /* \"#utility.yul\":7346:7413   */\n  tag_99\n  jump\t// in\ntag_189:\n    /* \"#utility.yul\":7339:7413   */\n  swap2\n  pop\n    /* \"#utility.yul\":7422:7515   */\n  tag_190\n    /* \"#utility.yul\":7511:7514   */\n  dup3\n    /* \"#utility.yul\":7422:7515   */\n  tag_100\n  jump\t// in\ntag_190:\n    /* \"#utility.yul\":7540:7542   */\n  0x40\n    /* \"#utility.yul\":7535:7538   */\n  dup3\n    /* \"#utility.yul\":7531:7543   */\n  add\n    /* \"#utility.yul\":7524:7543   */\n  swap1\n  pop\n    /* \"#utility.yul\":7183:7549   */\n  swap2\n  swap1\n  pop\n  jump\t// out\n    /* \"#utility.yul\":7555:7974   */\ntag_22:\n    /* \"#utility.yul\":7721:7725   */\n  0x00\n    /* \"#utility.yul\":7759:7761   */\n  0x20\n    /* \"#utility.yul\":7748:7757   */\n  dup3\n    /* \"#utility.yul\":7744:7762   */\n  add\n    /* \"#utility.yul\":7736:7762   */\n  swap1\n  pop\n    /* \"#utility.yul\":7808:7817   */\n  dup2\n    /* \"#utility.yul\":7802:7806   */\n  dup2\n    /* \"#utility.yul\":7798:7818   */\n  sub\n    /* \"#utility.yul\":7794:7795   */\n  0x00\n    /* \"#utility.yul\":7783:7792   */\n  dup4\n    /* \"#utility.yul\":7779:7796   */\n  add\n    /* \"#utility.yul\":7772:7819   */\n  mstore\n    /* \"#utility.yul\":7836:7967   */\n  tag_192\n    /* \"#utility.yul\":7962:7966   */\n  dup2\n    /* \"#utility.yul\":7836:7967   */\n  tag_101\n  jump\t// in\ntag_192:\n    /* \"#utility.yul\":7828:7967   */\n  swap1\n  pop\n    /* \"#utility.yul\":7555:7974   */\n  swap2\n  swap1\n  pop\n  jump\t// out\n    /* \"#utility.yul\":7980:8160   */\ntag_102:\n    /* \"#utility.yul\":8028:8105   */\n  0x4e487b7100000000000000000000000000000000000000000000000000000000\n    /* \"#utility.yul\":8025:8026   */\n  0x00\n    /* \"#utility.yul\":8018:8106   */\n  mstore\n    /* \"#utility.yul\":8125:8129   */\n  0x11\n    /* \"#utility.yul\":8122:8123   */\n  0x04\n    /* \"#utility.yul\":8115:8130   */\n  mstore\n    /* \"#utility.yul\":8149:8153   */\n  0x24\n    /* \"#utility.yul\":8146:8147   */\n  0x00\n    /* \"#utility.yul\":8139:8154   */\n  revert\n    /* \"#utility.yul\":8166:8576   */\ntag_27:\n    /* \"#utility.yul\":8206:8213   */\n  0x00\n    /* \"#utility.yul\":8229:8249   */\n  tag_195\n    /* \"#utility.yul\":8247:8248   */\n  dup3\n    /* \"#utility.yul\":8229:8249   */\n  tag_74\n  jump\t// in\ntag_195:\n    /* \"#utility.yul\":8224:8249   */\n  swap2\n  pop\n    /* \"#utility.yul\":8263:8283   */\n  tag_196\n    /* \"#utility.yul\":8281:8282   */\n  dup4\n    /* \"#utility.yul\":8263:8283   */\n  tag_74\n  jump\t// in\ntag_196:\n    /* \"#utility.yul\":8258:8283   */\n  swap3\n  pop\n    /* \"#utility.yul\":8318:8319   */\n  dup3\n    /* \"#utility.yul\":8315:8316   */\n  dup3\n    /* \"#utility.yul\":8311:8320   */\n  mul\n    /* \"#utility.yul\":8340:8370   */\n  tag_197\n    /* \"#utility.yul\":8358:8369   */\n  dup2\n    /* \"#utility.yul\":8340:8370   */\n  tag_74\n  jump\t// in\ntag_197:\n    /* \"#utility.yul\":8329:8370   */\n  swap2\n  pop\n    /* \"#utility.yul\":8519:8520   */\n  dup3\n    /* \"#utility.yul\":8510:8517   */\n  dup3\n    /* \"#utility.yul\":8506:8521   */\n  div\n    /* \"#utility.yul\":8503:8504   */\n  dup5\n    /* \"#utility.yul\":8500:8522   */\n  eq\n    /* \"#utility.yul\":8480:8481   */\n  dup4\n    /* \"#utility.yul\":8473:8482   */\n  iszero\n    /* \"#utility.yul\":8453:8536   */\n  or\n    /* \"#utility.yul\":8430:8569   */\n  tag_198\n  jumpi\n    /* \"#utility.yul\":8549:8567   */\n  tag_199\n  tag_102\n  jump\t// in\ntag_199:\n    /* \"#utility.yul\":8430:8569   */\ntag_198:\n    /* \"#utility.yul\":8214:8576   */\n  pop\n    /* \"#utility.yul\":8166:8576   */\n  swap3\n  swap2\n  pop\n  pop\n  jump\t// out\n    /* \"#utility.yul\":8582:8762   */\ntag_103:\n    /* \"#utility.yul\":8630:8707   */\n  0x4e487b7100000000000000000000000000000000000000000000000000000000\n    /* \"#utility.yul\":8627:8628   */\n  0x00\n    /* \"#utility.yul\":8620:8708   */\n  mstore\n    /* \"#utility.yul\":8727:8731   */\n  0x12\n    /* \"#utility.yul\":8724:8725   */\n  0x04\n    /* \"#utility.yul\":8717:8732   */\n  mstore\n    /* \"#utility.yul\":8751:8755   */\n  0x24\n    /* \"#utility.yul\":8748:8749   */\n  0x00\n    /* \"#utility.yul\":8741:8756   */\n  revert\n    /* \"#utility.yul\":8768:8953   */\ntag_29:\n    /* \"#utility.yul\":8808:8809   */\n  0x00\n    /* \"#utility.yul\":8825:8845   */\n  tag_202\n    /* \"#utility.yul\":8843:8844   */\n  dup3\n    /* \"#utility.yul\":8825:8845   */\n  tag_74\n  jump\t// in\ntag_202:\n    /* \"#utility.yul\":8820:8845   */\n  swap2\n  pop\n    /* \"#utility.yul\":8859:8879   */\n  tag_203\n    /* \"#utility.yul\":8877:8878   */\n  dup4\n    /* \"#utility.yul\":8859:8879   */\n  tag_74\n  jump\t// in\ntag_203:\n    /* \"#utility.yul\":8854:8879   */\n  swap3\n  pop\n    /* \"#utility.yul\":8898:8899   */\n  dup3\n    /* \"#utility.yul\":8888:8923   */\n  tag_204\n  jumpi\n    /* \"#utility.yul\":8903:8921   */\n  tag_205\n  tag_103\n  jump\t// in\ntag_205:\n    /* \"#utility.yul\":8888:8923   */\ntag_204:\n    /* \"#utility.yul\":8945:8946   */\n  dup3\n    /* \"#utility.yul\":8942:8943   */\n  dup3\n    /* \"#utility.yul\":8938:8947   */\n  div\n    /* \"#utility.yul\":8933:8947   */\n  swap1\n  pop\n    /* \"#utility.yul\":8768:8953   */\n  swap3\n  swap2\n  pop\n  pop\n  jump\t// out\n    /* \"#utility.yul\":8959:9150   */\ntag_62:\n    /* \"#utility.yul\":8999:9002   */\n  0x00\n    /* \"#utility.yul\":9018:9038   */\n  tag_207\n    /* \"#utility.yul\":9036:9037   */\n  dup3\n    /* \"#utility.yul\":9018:9038   */\n  tag_74\n  jump\t// in\ntag_207:\n    /* \"#utility.yul\":9013:9038   */\n  swap2\n  pop\n    /* \"#utility.yul\":9052:9072   */\n  tag_208\n    /* \"#utility.yul\":9070:9071   */\n  dup4\n    /* \"#utility.yul\":9052:9072   */\n  tag_74\n  jump\t// in\ntag_208:\n    /* \"#utility.yul\":9047:9072   */\n  swap3\n  pop\n    /* \"#utility.yul\":9095:9096   */\n  dup3\n    /* \"#utility.yul\":9092:9093   */\n  dup3\n    /* \"#utility.yul\":9088:9097   */\n  add\n    /* \"#utility.yul\":9081:9097   */\n  swap1\n  pop\n    /* \"#utility.yul\":9116:9119   */\n  dup1\n    /* \"#utility.yul\":9113:9114   */\n  dup3\n    /* \"#utility.yul\":9110:9120   */\n  gt\n    /* \"#utility.yul\":9107:9143   */\n  iszero\n  tag_209\n  jumpi\n    /* \"#utility.yul\":9123:9141   */\n  tag_210\n  tag_102\n  jump\t// in\ntag_210:\n    /* \"#utility.yul\":9107:9143   */\ntag_209:\n    /* \"#utility.yul\":8959:9150   */\n  swap3\n  swap2\n  pop\n  pop\n  jump\t// out\n    /* \"#utility.yul\":9156:9274   */\ntag_104:\n    /* \"#utility.yul\":9243:9267   */\n  tag_212\n    /* \"#utility.yul\":9261:9266   */\n  dup2\n    /* \"#utility.yul\":9243:9267   */\n  tag_74\n  jump\t// in\ntag_212:\n    /* \"#utility.yul\":9238:9241   */\n  dup3\n    /* \"#utility.yul\":9231:9268   */\n  mstore\n    /* \"#utility.yul\":9156:9274   */\n  pop\n  pop\n  jump\t// out\n    /* \"#utility.yul\":9280:9722   */\ntag_66:\n    /* \"#utility.yul\":9429:9433   */\n  0x00\n    /* \"#utility.yul\":9467:9469   */\n  0x60\n    /* \"#utility.yul\":9456:9465   */\n  dup3\n    /* \"#utility.yul\":9452:9470   */\n  add\n    /* \"#utility.yul\":9444:9470   */\n  swap1\n  pop\n    /* \"#utility.yul\":9480:9551   */\n  tag_214\n    /* \"#utility.yul\":9548:9549   */\n  0x00\n    /* \"#utility.yul\":9537:9546   */\n  dup4\n    /* \"#utility.yul\":9533:9550   */\n  add\n    /* \"#utility.yul\":9524:9530   */\n  dup7\n    /* \"#utility.yul\":9480:9551   */\n  tag_98\n  jump\t// in\ntag_214:\n    /* \"#utility.yul\":9561:9633   */\n  tag_215\n    /* \"#utility.yul\":9629:9631   */\n  0x20\n    /* \"#utility.yul\":9618:9627   */\n  dup4\n    /* \"#utility.yul\":9614:9632   */\n  add\n    /* \"#utility.yul\":9605:9611   */\n  dup6\n    /* \"#utility.yul\":9561:9633   */\n  tag_104\n  jump\t// in\ntag_215:\n    /* \"#utility.yul\":9643:9715   */\n  tag_216\n    /* \"#utility.yul\":9711:9713   */\n  0x40\n    /* \"#utility.yul\":9700:9709   */\n  dup4\n    /* \"#utility.yul\":9696:9714   */\n  add\n    /* \"#utility.yul\":9687:9693   */\n  dup5\n    /* \"#utility.yul\":9643:9715   */\n  tag_104\n  jump\t// in\ntag_216:\n    /* \"#utility.yul\":9280:9722   */\n  swap5\n  swap4\n  pop\n  pop\n  pop\n  pop\n  jump\t// out\n    /* \"#utility.yul\":9728:9950   */\ntag_70:\n    /* \"#utility.yul\":9821:9825   */\n  0x00\n    /* \"#utility.yul\":9859:9861   */\n  0x20\n    /* \"#utility.yul\":9848:9857   */\n  dup3\n    /* \"#utility.yul\":9844:9862   */\n  add\n    /* \"#utility.yul\":9836:9862   */\n  swap1\n  pop\n    /* \"#utility.yul\":9872:9943   */\n  tag_218\n    /* \"#utility.yul\":9940:9941   */\n  0x00\n    /* \"#utility.yul\":9929:9938   */\n  dup4\n    /* \"#utility.yul\":9925:9942   */\n  add\n    /* \"#utility.yul\":9916:9922   */\n  dup5\n    /* \"#utility.yul\":9872:9943   */\n  tag_104\n  jump\t// in\ntag_218:\n    /* \"#utility.yul\":9728:9950   */\n  swap3\n  swap2\n  pop\n  pop\n  jump\t// out\n    /* \"contracts/PingPongPlay.sol\":482:8229  contract PingPongPlay is ERC20, Ownable(address(this)), ReentrancyGuard, ERC20Burnable {... */\ntag_46:\n  dataSize(sub_0)\n  dup1\n  dataOffset(sub_0)\n  0x00\n  codecopy\n  0x00\n  return\nstop\n\nsub_0: assembly {\n        /* \"contracts/PingPongPlay.sol\":482:8229  contract PingPongPlay is ERC20, Ownable(address(this)), ReentrancyGuard, ERC20Burnable {... */\n      mstore(0x40, 0x80)\n      callvalue\n      dup1\n      iszero\n      tag_1\n      jumpi\n      revert(0x00, 0x00)\n    tag_1:\n      pop\n      jumpi(tag_2, lt(calldatasize, 0x04))\n      shr(0xe0, calldataload(0x00))\n      dup1\n      0x70a08231\n      gt\n      tag_36\n      jumpi\n      dup1\n      0x9ef3a261\n      gt\n      tag_37\n      jumpi\n      dup1\n      0xd82e3962\n      gt\n      tag_38\n      jumpi\n      dup1\n      0xd82e3962\n      eq\n      tag_31\n      jumpi\n      dup1\n      0xdd62ed3e\n      eq\n      tag_32\n      jumpi\n      dup1\n      0xe75c4927\n      eq\n      tag_33\n      jumpi\n      dup1\n      0xf2fde38b\n      eq\n      tag_34\n      jumpi\n      dup1\n      0xf6f0fa8d\n      eq\n      tag_35\n      jumpi\n      jump(tag_2)\n    tag_38:\n      dup1\n      0x9ef3a261\n      eq\n      tag_27\n      jumpi\n      dup1\n      0xa694fc3a\n      eq\n      tag_28\n      jumpi\n      dup1\n      0xa9059cbb\n      eq\n      tag_29\n      jumpi\n      dup1\n      0xcb3dbecb\n      eq\n      tag_30\n      jumpi\n      jump(tag_2)\n    tag_37:\n      dup1\n      0x8da5cb5b\n      gt\n      tag_39\n      jumpi\n      dup1\n      0x8da5cb5b\n      eq\n      tag_23\n      jumpi\n      dup1\n      0x902d55a5\n      eq\n      tag_24\n      jumpi\n      dup1\n      0x95d89b41\n      eq\n      tag_25\n      jumpi\n      dup1\n      0x9d2cc436\n      eq\n      tag_26\n      jumpi\n      jump(tag_2)\n    tag_39:\n      dup1\n      0x70a08231\n      eq\n      tag_19\n      jumpi\n      dup1\n      0x715018a6\n      eq\n      tag_20\n      jumpi\n      dup1\n      0x79cc6790\n      eq\n      tag_21\n      jumpi\n      dup1\n      0x7b0a47ee\n      eq\n      tag_22\n      jumpi\n      jump(tag_2)\n    tag_36:\n      dup1\n      0x254800d4\n      gt\n      tag_40\n      jumpi\n      dup1\n      0x39cf9b00\n      gt\n      tag_41\n      jumpi\n      dup1\n      0x39cf9b00\n      eq\n      tag_15\n      jumpi\n      dup1\n      0x42966c68\n      eq\n      tag_16\n      jumpi\n      dup1\n      0x4cfc4d30\n      eq\n      tag_17\n      jumpi\n      dup1\n      0x5f89584e\n      eq\n      tag_18\n      jumpi\n      jump(tag_2)\n    tag_41:\n      dup1\n      0x254800d4\n      eq\n      tag_11\n      jumpi\n      dup1\n      0x294f5fa3\n      eq\n      tag_12\n      jumpi\n      dup1\n      0x2e17de78\n      eq\n      tag_13\n      jumpi\n      dup1\n      0x313ce567\n      eq\n      tag_14\n      jumpi\n      jump(tag_2)\n    tag_40:\n      dup1\n      0x16934fc4\n      gt\n      tag_42\n      jumpi\n      dup1\n      0x16934fc4\n      eq\n      tag_7\n      jumpi\n      dup1\n      0x18160ddd\n      eq\n      tag_8\n      jumpi\n      dup1\n      0x1cfe31c2\n      eq\n      tag_9\n      jumpi\n      dup1\n      0x23b872dd\n      eq\n      tag_10\n      jumpi\n      jump(tag_2)\n    tag_42:\n      dup1\n      0x06fdde03\n      eq\n      tag_3\n      jumpi\n      dup1\n      0x095ea7b3\n      eq\n      tag_4\n      jumpi\n      dup1\n      0x14c411c7\n      eq\n      tag_5\n      jumpi\n      dup1\n      0x1571ccf6\n      eq\n      tag_6\n      jumpi\n    tag_2:\n      revert(0x00, 0x00)\n        /* \"@openzeppelin/contracts/token/ERC20/ERC20.sol\":1779:1868  function name() public view virtual returns (string memory) {... */\n    tag_3:\n      tag_43\n      tag_44\n      jump\t// in\n    tag_43:\n      mload(0x40)\n      tag_45\n      swap2\n      swap1\n      tag_46\n      jump\t// in\n    tag_45:\n      mload(0x40)\n      dup1\n      swap2\n      sub\n      swap1\n      return\n        /* \"@openzeppelin/contracts/token/ERC20/ERC20.sol\":3998:4184  function approve(address spender, uint256 value) public virtual returns (bool) {... */\n    tag_4:\n      tag_47\n      0x04\n      dup1\n      calldatasize\n      sub\n      dup2\n      add\n      swap1\n      tag_48\n      swap2\n      swap1\n      tag_49\n      jump\t// in\n    tag_48:\n      tag_50\n      jump\t// in\n    tag_47:\n      mload(0x40)\n      tag_51\n      swap2\n      swap1\n      tag_52\n      jump\t// in\n    tag_51:\n      mload(0x40)\n      dup1\n      swap2\n      sub\n      swap1\n      return\n        /* \"contracts/PingPongPlay.sol\":3104:3650  function releaseTeamTokens() external nonReentrant onlyOwner {... */\n    tag_5:\n      tag_53\n      tag_54\n      jump\t// in\n    tag_53:\n      stop\n        /* \"contracts/PingPongPlay.sol\":776:839  uint256 public constant TEAM_FOUNDERS = TOTAL_SUPPLY * 20 / 100 */\n    tag_6:\n      tag_55\n      tag_56\n      jump\t// in\n    tag_55:\n      mload(0x40)\n      tag_57\n      swap2\n      swap1\n      tag_58\n      jump\t// in\n    tag_57:\n      mload(0x40)\n      dup1\n      swap2\n      sub\n      swap1\n      return\n        /* \"contracts/PingPongPlay.sol\":1584:1623  mapping(address => Stake) public stakes */\n    tag_7:\n      tag_59\n      0x04\n      dup1\n      calldatasize\n      sub\n      dup2\n      add\n      swap1\n      tag_60\n      swap2\n      swap1\n      tag_61\n      jump\t// in\n    tag_60:\n      tag_62\n      jump\t// in\n    tag_59:\n      mload(0x40)\n      tag_63\n      swap4\n      swap3\n      swap2\n      swap1\n      tag_64\n      jump\t// in\n    tag_63:\n      mload(0x40)\n      dup1\n      swap2\n      sub\n      swap1\n      return\n        /* \"@openzeppelin/contracts/token/ERC20/ERC20.sol\":2849:2946  function totalSupply() public view virtual returns (uint256) {... */\n    tag_8:\n      tag_65\n      tag_66\n      jump\t// in\n    tag_65:\n      mload(0x40)\n      tag_67\n      swap2\n      swap1\n      tag_58\n      jump\t// in\n    tag_67:\n      mload(0x40)\n      dup1\n      swap2\n      sub\n      swap1\n      return\n        /* \"contracts/PingPongPlay.sol\":1060:1126  uint256 public constant COMMUNITY_REWARDS = TOTAL_SUPPLY * 5 / 100 */\n    tag_9:\n      tag_68\n      tag_69\n      jump\t// in\n    tag_68:\n      mload(0x40)\n      tag_70\n      swap2\n      swap1\n      tag_58\n      jump\t// in\n    tag_70:\n      mload(0x40)\n      dup1\n      swap2\n      sub\n      swap1\n      return\n        /* \"@openzeppelin/contracts/token/ERC20/ERC20.sol\":4776:5020  function transferFrom(address from, address to, uint256 value) public virtual returns (bool) {... */\n    tag_10:\n      tag_71\n      0x04\n      dup1\n      calldatasize\n      sub\n      dup2\n      add\n      swap1\n      tag_72\n      swap2\n      swap1\n      tag_73\n      jump\t// in\n    tag_72:\n      tag_74\n      jump\t// in\n    tag_71:\n      mload(0x40)\n      tag_75\n      swap2\n      swap1\n      tag_52\n      jump\t// in\n    tag_75:\n      mload(0x40)\n      dup1\n      swap2\n      sub\n      swap1\n      return\n        /* \"contracts/PingPongPlay.sol\":1186:1213  uint256 public vestingStart */\n    tag_11:\n      tag_76\n      tag_77\n      jump\t// in\n    tag_76:\n      mload(0x40)\n      tag_78\n      swap2\n      swap1\n      tag_58\n      jump\t// in\n    tag_78:\n      mload(0x40)\n      dup1\n      swap2\n      sub\n      swap1\n      return\n        /* \"contracts/PingPongPlay.sol\":1629:1660  address[] public stakeAddresses */\n    tag_12:\n      tag_79\n      0x04\n      dup1\n      calldatasize\n      sub\n      dup2\n      add\n      swap1\n      tag_80\n      swap2\n      swap1\n      tag_81\n      jump\t// in\n    tag_80:\n      tag_82\n      jump\t// in\n    tag_79:\n      mload(0x40)\n      tag_83\n      swap2\n      swap1\n      tag_84\n      jump\t// in\n    tag_83:\n      mload(0x40)\n      dup1\n      swap2\n      sub\n      swap1\n      return\n        /* \"contracts/PingPongPlay.sol\":4774:5883  function unstake(uint256 amount) external nonReentrant {... */\n    tag_13:\n      tag_85\n      0x04\n      dup1\n      calldatasize\n      sub\n      dup2\n      add\n      swap1\n      tag_86\n      swap2\n      swap1\n      tag_81\n      jump\t// in\n    tag_86:\n      tag_87\n      jump\t// in\n    tag_85:\n      stop\n        /* \"@openzeppelin/contracts/token/ERC20/ERC20.sol\":2707:2789  function decimals() public view virtual returns (uint8) {... */\n    tag_14:\n      tag_88\n      tag_89\n      jump\t// in\n    tag_88:\n      mload(0x40)\n      tag_90\n      swap2\n      swap1\n      tag_91\n      jump\t// in\n    tag_90:\n      mload(0x40)\n      dup1\n      swap2\n      sub\n      swap1\n      return\n        /* \"contracts/PingPongPlay.sol\":845:916  uint256 public constant MARKETING_PARTNERSHIP = TOTAL_SUPPLY * 15 / 100 */\n    tag_15:\n      tag_92\n      tag_93\n      jump\t// in\n    tag_92:\n      mload(0x40)\n      tag_94\n      swap2\n      swap1\n      tag_58\n      jump\t// in\n    tag_94:\n      mload(0x40)\n      dup1\n      swap2\n      sub\n      swap1\n      return\n        /* \"@openzeppelin/contracts/token/ERC20/extensions/ERC20Burnable.sol\":618:705  function burn(uint256 value) public virtual {... */\n    tag_16:\n      tag_95\n      0x04\n      dup1\n      calldatasize\n      sub\n      dup2\n      add\n      swap1\n      tag_96\n      swap2\n      swap1\n      tag_81\n      jump\t// in\n    tag_96:\n      tag_97\n      jump\t// in\n    tag_95:\n      stop\n        /* \"contracts/PingPongPlay.sol\":1219:1270  uint256 public constant VESTING_DURATION = 365 days */\n    tag_17:\n      tag_98\n      tag_99\n      jump\t// in\n    tag_98:\n      mload(0x40)\n      tag_100\n      swap2\n      swap1\n      tag_58\n      jump\t// in\n    tag_100:\n      mload(0x40)\n      dup1\n      swap2\n      sub\n      swap1\n      return\n        /* \"contracts/PingPongPlay.sol\":709:770  uint256 public constant PUBLIC_SALE = TOTAL_SUPPLY * 40 / 100 */\n    tag_18:\n      tag_101\n      tag_102\n      jump\t// in\n    tag_101:\n      mload(0x40)\n      tag_103\n      swap2\n      swap1\n      tag_58\n      jump\t// in\n    tag_103:\n      mload(0x40)\n      dup1\n      swap2\n      sub\n      swap1\n      return\n        /* \"@openzeppelin/contracts/token/ERC20/ERC20.sol\":3004:3120  function balanceOf(address account) public view virtual returns (uint256) {... */\n    tag_19:\n      tag_104\n      0x04\n      dup1\n      calldatasize\n      sub\n      dup2\n      add\n      swap1\n      tag_105\n      swap2\n      swap1\n      tag_61\n      jump\t// in\n    tag_105:\n      tag_106\n      jump\t// in\n    tag_104:\n      mload(0x40)\n      tag_107\n      swap2\n      swap1\n      tag_58\n      jump\t// in\n    tag_107:\n      mload(0x40)\n      dup1\n      swap2\n      sub\n      swap1\n      return\n        /* \"@openzeppelin/contracts/access/Ownable.sol\":2293:2394  function renounceOwnership() public virtual onlyOwner {... */\n    tag_20:\n      tag_108\n      tag_109\n      jump\t// in\n    tag_108:\n      stop\n        /* \"@openzeppelin/contracts/token/ERC20/extensions/ERC20Burnable.sol\":1021:1179  function burnFrom(address account, uint256 value) public virtual {... */\n    tag_21:\n      tag_110\n      0x04\n      dup1\n      calldatasize\n      sub\n      dup2\n      add\n      swap1\n      tag_111\n      swap2\n      swap1\n      tag_49\n      jump\t// in\n    tag_111:\n      tag_112\n      jump\t// in\n    tag_110:\n      stop\n        /* \"contracts/PingPongPlay.sol\":1737:1762  uint256 public rewardRate */\n    tag_22:\n      tag_113\n      tag_114\n      jump\t// in\n    tag_113:\n      mload(0x40)\n      tag_115\n      swap2\n      swap1\n      tag_58\n      jump\t// in\n    tag_115:\n      mload(0x40)\n      dup1\n      swap2\n      sub\n      swap1\n      return\n        /* \"@openzeppelin/contracts/access/Ownable.sol\":1638:1723  function owner() public view virtual returns (address) {... */\n    tag_23:\n      tag_116\n      tag_117\n      jump\t// in\n    tag_116:\n      mload(0x40)\n      tag_118\n      swap2\n      swap1\n      tag_84\n      jump\t// in\n    tag_118:\n      mload(0x40)\n      dup1\n      swap2\n      sub\n      swap1\n      return\n        /* \"contracts/PingPongPlay.sol\":608:669  uint256 public constant TOTAL_SUPPLY = 100_000_000 * 10 ** 18 */\n    tag_24:\n      tag_119\n      tag_120\n      jump\t// in\n    tag_119:\n      mload(0x40)\n      tag_121\n      swap2\n      swap1\n      tag_58\n      jump\t// in\n    tag_121:\n      mload(0x40)\n      dup1\n      swap2\n      sub\n      swap1\n      return\n        /* \"@openzeppelin/contracts/token/ERC20/ERC20.sol\":1981:2074  function symbol() public view virtual returns (string memory) {... */\n    tag_25:\n      tag_122\n      tag_123\n      jump\t// in\n    tag_122:\n      mload(0x40)\n      tag_124\n      swap2\n      swap1\n      tag_46\n      jump\t// in\n    tag_124:\n      mload(0x40)\n      dup1\n      swap2\n      sub\n      swap1\n      return\n        /* \"contracts/PingPongPlay.sol\":997:1054  uint256 public constant RESERVE = TOTAL_SUPPLY * 10 / 100 */\n    tag_26:\n      tag_125\n      tag_126\n      jump\t// in\n    tag_125:\n      mload(0x40)\n      tag_127\n      swap2\n      swap1\n      tag_58\n      jump\t// in\n    tag_127:\n      mload(0x40)\n      dup1\n      swap2\n      sub\n      swap1\n      return\n        /* \"contracts/PingPongPlay.sol\":2845:3015  function updateRewardRate(uint256 _newRate) external onlyOwner {... */\n    tag_27:\n      tag_128\n      0x04\n      dup1\n      calldatasize\n      sub\n      dup2\n      add\n      swap1\n      tag_129\n      swap2\n      swap1\n      tag_81\n      jump\t// in\n    tag_129:\n      tag_130\n      jump\t// in\n    tag_128:\n      stop\n        /* \"contracts/PingPongPlay.sol\":3806:4600  function stake(uint256 amount) external nonReentrant {... */\n    tag_28:\n      tag_131\n      0x04\n      dup1\n      calldatasize\n      sub\n      dup2\n      add\n      swap1\n      tag_132\n      swap2\n      swap1\n      tag_81\n      jump\t// in\n    tag_132:\n      tag_133\n      jump\t// in\n    tag_131:\n      stop\n        /* \"@openzeppelin/contracts/token/ERC20/ERC20.sol\":3315:3493  function transfer(address to, uint256 value) public virtual returns (bool) {... */\n    tag_29:\n      tag_134\n      0x04\n      dup1\n      calldatasize\n      sub\n      dup2\n      add\n      swap1\n      tag_135\n      swap2\n      swap1\n      tag_49\n      jump\t// in\n    tag_135:\n      tag_136\n      jump\t// in\n    tag_134:\n      mload(0x40)\n      tag_137\n      swap2\n      swap1\n      tag_52\n      jump\t// in\n    tag_137:\n      mload(0x40)\n      dup1\n      swap2\n      sub\n      swap1\n      return\n        /* \"contracts/PingPongPlay.sol\":6549:7289  function releaseAllInterest() external onlyOwner {... */\n    tag_30:\n      tag_138\n      tag_139\n      jump\t// in\n    tag_138:\n      stop\n        /* \"contracts/PingPongPlay.sol\":6058:6440  function calculateReward(address staker) public view returns (uint256) {... */\n    tag_31:\n      tag_140\n      0x04\n      dup1\n      calldatasize\n      sub\n      dup2\n      add\n      swap1\n      tag_141\n      swap2\n      swap1\n      tag_61\n      jump\t// in\n    tag_141:\n      tag_142\n      jump\t// in\n    tag_140:\n      mload(0x40)\n      tag_143\n      swap2\n      swap1\n      tag_58\n      jump\t// in\n    tag_143:\n      mload(0x40)\n      dup1\n      swap2\n      sub\n      swap1\n      return\n        /* \"@openzeppelin/contracts/token/ERC20/ERC20.sol\":3551:3691  function allowance(address owner, address spender) public view virtual returns (uint256) {... */\n    tag_32:\n      tag_144\n      0x04\n      dup1\n      calldatasize\n      sub\n      dup2\n      add\n      swap1\n      tag_145\n      swap2\n      swap1\n      tag_146\n      jump\t// in\n    tag_145:\n      tag_147\n      jump\t// in\n    tag_144:\n      mload(0x40)\n      tag_148\n      swap2\n      swap1\n      tag_58\n      jump\t// in\n    tag_148:\n      mload(0x40)\n      dup1\n      swap2\n      sub\n      swap1\n      return\n        /* \"contracts/PingPongPlay.sol\":922:991  uint256 public constant PROJECT_DEVELOPMENT = TOTAL_SUPPLY * 10 / 100 */\n    tag_33:\n      tag_149\n      tag_150\n      jump\t// in\n    tag_149:\n      mload(0x40)\n      tag_151\n      swap2\n      swap1\n      tag_58\n      jump\t// in\n    tag_151:\n      mload(0x40)\n      dup1\n      swap2\n      sub\n      swap1\n      return\n        /* \"@openzeppelin/contracts/access/Ownable.sol\":2543:2758  function transferOwnership(address newOwner) public virtual onlyOwner {... */\n    tag_34:\n      tag_152\n      0x04\n      dup1\n      calldatasize\n      sub\n      dup2\n      add\n      swap1\n      tag_153\n      swap2\n      swap1\n      tag_61\n      jump\t// in\n    tag_153:\n      tag_154\n      jump\t// in\n    tag_152:\n      stop\n        /* \"contracts/PingPongPlay.sol\":1276:1303  uint256 public teamReleased */\n    tag_35:\n      tag_155\n      tag_156\n      jump\t// in\n    tag_155:\n      mload(0x40)\n      tag_157\n      swap2\n      swap1\n      tag_58\n      jump\t// in\n    tag_157:\n      mload(0x40)\n      dup1\n      swap2\n      sub\n      swap1\n      return\n        /* \"@openzeppelin/contracts/token/ERC20/ERC20.sol\":1779:1868  function name() public view virtual returns (string memory) {... */\n    tag_44:\n        /* \"@openzeppelin/contracts/token/ERC20/ERC20.sol\":1824:1837  string memory */\n      0x60\n        /* \"@openzeppelin/contracts/token/ERC20/ERC20.sol\":1856:1861  _name */\n      0x03\n        /* \"@openzeppelin/contracts/token/ERC20/ERC20.sol\":1849:1861  return _name */\n      dup1\n      sload\n      tag_159\n      swap1\n      tag_160\n      jump\t// in\n    tag_159:\n      dup1\n      0x1f\n      add\n      0x20\n      dup1\n      swap2\n      div\n      mul\n      0x20\n      add\n      mload(0x40)\n      swap1\n      dup2\n      add\n      0x40\n      mstore\n      dup1\n      swap3\n      swap2\n      swap1\n      dup2\n      dup2\n      mstore\n      0x20\n      add\n      dup3\n      dup1\n      sload\n      tag_161\n      swap1\n      tag_160\n      jump\t// in\n    tag_161:\n      dup1\n      iszero\n      tag_162\n      jumpi\n      dup1\n      0x1f\n      lt\n      tag_163\n      jumpi\n      0x0100\n      dup1\n      dup4\n      sload\n      div\n      mul\n      dup4\n      mstore\n      swap2\n      0x20\n      add\n      swap2\n      jump(tag_162)\n    tag_163:\n      dup3\n      add\n      swap2\n      swap1\n      0x00\n      mstore\n      keccak256(0x00, 0x20)\n      swap1\n    tag_164:\n      dup2\n      sload\n      dup2\n      mstore\n      swap1\n      0x01\n      add\n      swap1\n      0x20\n      add\n      dup1\n      dup4\n      gt\n      tag_164\n      jumpi\n      dup3\n      swap1\n      sub\n      0x1f\n      and\n      dup3\n      add\n      swap2\n    tag_162:\n      pop\n      pop\n      pop\n      pop\n      pop\n      swap1\n      pop\n        /* \"@openzeppelin/contracts/token/ERC20/ERC20.sol\":1779:1868  function name() public view virtual returns (string memory) {... */\n      swap1\n      jump\t// out\n        /* \"@openzeppelin/contracts/token/ERC20/ERC20.sol\":3998:4184  function approve(address spender, uint256 value) public virtual returns (bool) {... */\n    tag_50:\n        /* \"@openzeppelin/contracts/token/ERC20/ERC20.sol\":4071:4075  bool */\n      0x00\n        /* \"@openzeppelin/contracts/token/ERC20/ERC20.sol\":4087:4100  address owner */\n      0x00\n        /* \"@openzeppelin/contracts/token/ERC20/ERC20.sol\":4103:4115  _msgSender() */\n      tag_166\n        /* \"@openzeppelin/contracts/token/ERC20/ERC20.sol\":4103:4113  _msgSender */\n      tag_167\n        /* \"@openzeppelin/contracts/token/ERC20/ERC20.sol\":4103:4115  _msgSender() */\n      jump\t// in\n    tag_166:\n        /* \"@openzeppelin/contracts/token/ERC20/ERC20.sol\":4087:4115  address owner = _msgSender() */\n      swap1\n      pop\n        /* \"@openzeppelin/contracts/token/ERC20/ERC20.sol\":4125:4156  _approve(owner, spender, value) */\n      tag_168\n        /* \"@openzeppelin/contracts/token/ERC20/ERC20.sol\":4134:4139  owner */\n      dup2\n        /* \"@openzeppelin/contracts/token/ERC20/ERC20.sol\":4141:4148  spender */\n      dup6\n        /* \"@openzeppelin/contracts/token/ERC20/ERC20.sol\":4150:4155  value */\n      dup6\n        /* \"@openzeppelin/contracts/token/ERC20/ERC20.sol\":4125:4133  _approve */\n      tag_169\n        /* \"@openzeppelin/contracts/token/ERC20/ERC20.sol\":4125:4156  _approve(owner, spender, value) */\n      jump\t// in\n    tag_168:\n        /* \"@openzeppelin/contracts/token/ERC20/ERC20.sol\":4173:4177  true */\n      0x01\n        /* \"@openzeppelin/contracts/token/ERC20/ERC20.sol\":4166:4177  return true */\n      swap2\n      pop\n      pop\n        /* \"@openzeppelin/contracts/token/ERC20/ERC20.sol\":3998:4184  function approve(address spender, uint256 value) public virtual returns (bool) {... */\n      swap3\n      swap2\n      pop\n      pop\n      jump\t// out\n        /* \"contracts/PingPongPlay.sol\":3104:3650  function releaseTeamTokens() external nonReentrant onlyOwner {... */\n    tag_54:\n        /* \"@openzeppelin/contracts/security/ReentrancyGuard.sol\":2261:2282  _nonReentrantBefore() */\n      tag_171\n        /* \"@openzeppelin/contracts/security/ReentrancyGuard.sol\":2261:2280  _nonReentrantBefore */\n      tag_172\n        /* \"@openzeppelin/contracts/security/ReentrancyGuard.sol\":2261:2282  _nonReentrantBefore() */\n      jump\t// in\n    tag_171:\n        /* \"@openzeppelin/contracts/access/Ownable.sol\":1531:1544  _checkOwner() */\n      tag_174\n        /* \"@openzeppelin/contracts/access/Ownable.sol\":1531:1542  _checkOwner */\n      tag_175\n        /* \"@openzeppelin/contracts/access/Ownable.sol\":1531:1544  _checkOwner() */\n      jump\t// in\n    tag_174:\n        /* \"contracts/PingPongPlay.sol\":3202:3214  vestingStart */\n      sload(0x07)\n        /* \"contracts/PingPongPlay.sol\":3183:3198  block.timestamp */\n      timestamp\n        /* \"contracts/PingPongPlay.sol\":3183:3214  block.timestamp >= vestingStart */\n      lt\n      iszero\n        /* \"contracts/PingPongPlay.sol\":3175:3238  require(block.timestamp >= vestingStart, \"Vesting not started\") */\n      tag_177\n      jumpi\n      mload(0x40)\n      0x08c379a000000000000000000000000000000000000000000000000000000000\n      dup2\n      mstore\n      0x04\n      add\n      tag_178\n      swap1\n      tag_179\n      jump\t// in\n    tag_178:\n      mload(0x40)\n      dup1\n      swap2\n      sub\n      swap1\n      revert\n    tag_177:\n        /* \"contracts/PingPongPlay.sol\":3257:3272  uint256 elapsed */\n      0x00\n        /* \"contracts/PingPongPlay.sol\":3275:3308  block.timestamp.sub(vestingStart) */\n      tag_180\n        /* \"contracts/PingPongPlay.sol\":3295:3307  vestingStart */\n      sload(0x07)\n        /* \"contracts/PingPongPlay.sol\":3275:3290  block.timestamp */\n      timestamp\n        /* \"contracts/PingPongPlay.sol\":3275:3294  block.timestamp.sub */\n      tag_181\n      swap1\n        /* \"contracts/PingPongPlay.sol\":3275:3308  block.timestamp.sub(vestingStart) */\n      swap2\n      swap1\n      0xffffffff\n      and\n      jump\t// in\n    tag_180:\n        /* \"contracts/PingPongPlay.sol\":3257:3308  uint256 elapsed = block.timestamp.sub(vestingStart) */\n      swap1\n      pop\n        /* \"contracts/PingPongPlay.sol\":3318:3341  uint256 totalReleasable */\n      0x00\n        /* \"contracts/PingPongPlay.sol\":3344:3392  TEAM_FOUNDERS.mul(elapsed).div(VESTING_DURATION) */\n      tag_182\n        /* \"contracts/PingPongPlay.sol\":1262:1270  365 days */\n      0x01e13380\n        /* \"contracts/PingPongPlay.sol\":3344:3370  TEAM_FOUNDERS.mul(elapsed) */\n      tag_183\n        /* \"contracts/PingPongPlay.sol\":3362:3369  elapsed */\n      dup5\n        /* \"contracts/PingPongPlay.sol\":836:839  100 */\n      0x64\n        /* \"contracts/PingPongPlay.sol\":831:833  20 */\n      0x14\n        /* \"contracts/PingPongPlay.sol\":647:669  100_000_000 * 10 ** 18 */\n      0x52b7d2dcc80cd2e4000000\n        /* \"contracts/PingPongPlay.sol\":816:833  TOTAL_SUPPLY * 20 */\n      tag_184\n      swap2\n      swap1\n      tag_185\n      jump\t// in\n    tag_184:\n        /* \"contracts/PingPongPlay.sol\":816:839  TOTAL_SUPPLY * 20 / 100 */\n      tag_186\n      swap2\n      swap1\n      tag_187\n      jump\t// in\n    tag_186:\n        /* \"contracts/PingPongPlay.sol\":3344:3361  TEAM_FOUNDERS.mul */\n      tag_188\n      swap1\n        /* \"contracts/PingPongPlay.sol\":3344:3370  TEAM_FOUNDERS.mul(elapsed) */\n      swap2\n      swap1\n      0xffffffff\n      and\n      jump\t// in\n    tag_183:\n        /* \"contracts/PingPongPlay.sol\":3344:3374  TEAM_FOUNDERS.mul(elapsed).div */\n      tag_189\n      swap1\n        /* \"contracts/PingPongPlay.sol\":3344:3392  TEAM_FOUNDERS.mul(elapsed).div(VESTING_DURATION) */\n      swap2\n      swap1\n      0xffffffff\n      and\n      jump\t// in\n    tag_182:\n        /* \"contracts/PingPongPlay.sol\":3318:3392  uint256 totalReleasable = TEAM_FOUNDERS.mul(elapsed).div(VESTING_DURATION) */\n      swap1\n      pop\n        /* \"contracts/PingPongPlay.sol\":3402:3425  uint256 amountToRelease */\n      0x00\n        /* \"contracts/PingPongPlay.sol\":3428:3461  totalReleasable.sub(teamReleased) */\n      tag_190\n        /* \"contracts/PingPongPlay.sol\":3448:3460  teamReleased */\n      sload(0x08)\n        /* \"contracts/PingPongPlay.sol\":3428:3443  totalReleasable */\n      dup4\n        /* \"contracts/PingPongPlay.sol\":3428:3447  totalReleasable.sub */\n      tag_181\n      swap1\n        /* \"contracts/PingPongPlay.sol\":3428:3461  totalReleasable.sub(teamReleased) */\n      swap2\n      swap1\n      0xffffffff\n      and\n      jump\t// in\n    tag_190:\n        /* \"contracts/PingPongPlay.sol\":3402:3461  uint256 amountToRelease = totalReleasable.sub(teamReleased) */\n      swap1\n      pop\n        /* \"contracts/PingPongPlay.sol\":3498:3499  0 */\n      0x00\n        /* \"contracts/PingPongPlay.sol\":3480:3495  amountToRelease */\n      dup2\n        /* \"contracts/PingPongPlay.sol\":3480:3499  amountToRelease > 0 */\n      gt\n        /* \"contracts/PingPongPlay.sol\":3472:3524  require(amountToRelease > 0, \"No tokens to release\") */\n      tag_191\n      jumpi\n      mload(0x40)\n      0x08c379a000000000000000000000000000000000000000000000000000000000\n      dup2\n      mstore\n      0x04\n      add\n      tag_192\n      swap1\n      tag_193\n      jump\t// in\n    tag_192:\n      mload(0x40)\n      dup1\n      swap2\n      sub\n      swap1\n      revert\n    tag_191:\n        /* \"contracts/PingPongPlay.sol\":3550:3583  teamReleased.add(amountToRelease) */\n      tag_194\n        /* \"contracts/PingPongPlay.sol\":3567:3582  amountToRelease */\n      dup2\n        /* \"contracts/PingPongPlay.sol\":3550:3562  teamReleased */\n      sload(0x08)\n        /* \"contracts/PingPongPlay.sol\":3550:3566  teamReleased.add */\n      tag_195\n      swap1\n        /* \"contracts/PingPongPlay.sol\":3550:3583  teamReleased.add(amountToRelease) */\n      swap2\n      swap1\n      0xffffffff\n      and\n      jump\t// in\n    tag_194:\n        /* \"contracts/PingPongPlay.sol\":3535:3547  teamReleased */\n      0x08\n        /* \"contracts/PingPongPlay.sol\":3535:3583  teamReleased = teamReleased.add(amountToRelease) */\n      dup2\n      swap1\n      sstore\n      pop\n        /* \"contracts/PingPongPlay.sol\":3593:3643  _transfer(address(this), owner(), amountToRelease) */\n      tag_196\n        /* \"contracts/PingPongPlay.sol\":3611:3615  this */\n      address\n        /* \"contracts/PingPongPlay.sol\":3618:3625  owner() */\n      tag_197\n        /* \"contracts/PingPongPlay.sol\":3618:3623  owner */\n      tag_117\n        /* \"contracts/PingPongPlay.sol\":3618:3625  owner() */\n      jump\t// in\n    tag_197:\n        /* \"contracts/PingPongPlay.sol\":3627:3642  amountToRelease */\n      dup4\n        /* \"contracts/PingPongPlay.sol\":3593:3602  _transfer */\n      tag_198\n        /* \"contracts/PingPongPlay.sol\":3593:3643  _transfer(address(this), owner(), amountToRelease) */\n      jump\t// in\n    tag_196:\n        /* \"contracts/PingPongPlay.sol\":3165:3650  {... */\n      pop\n      pop\n      pop\n        /* \"@openzeppelin/contracts/security/ReentrancyGuard.sol\":2303:2323  _nonReentrantAfter() */\n      tag_199\n        /* \"@openzeppelin/contracts/security/ReentrancyGuard.sol\":2303:2321  _nonReentrantAfter */\n      tag_200\n        /* \"@openzeppelin/contracts/security/ReentrancyGuard.sol\":2303:2323  _nonReentrantAfter() */\n      jump\t// in\n    tag_199:\n        /* \"contracts/PingPongPlay.sol\":3104:3650  function releaseTeamTokens() external nonReentrant onlyOwner {... */\n      jump\t// out\n        /* \"contracts/PingPongPlay.sol\":776:839  uint256 public constant TEAM_FOUNDERS = TOTAL_SUPPLY * 20 / 100 */\n    tag_56:\n        /* \"contracts/PingPongPlay.sol\":836:839  100 */\n      0x64\n        /* \"contracts/PingPongPlay.sol\":831:833  20 */\n      0x14\n        /* \"contracts/PingPongPlay.sol\":647:669  100_000_000 * 10 ** 18 */\n      0x52b7d2dcc80cd2e4000000\n        /* \"contracts/PingPongPlay.sol\":816:833  TOTAL_SUPPLY * 20 */\n      tag_201\n      swap2\n      swap1\n      tag_185\n      jump\t// in\n    tag_201:\n        /* \"contracts/PingPongPlay.sol\":816:839  TOTAL_SUPPLY * 20 / 100 */\n      tag_202\n      swap2\n      swap1\n      tag_187\n      jump\t// in\n    tag_202:\n        /* \"contracts/PingPongPlay.sol\":776:839  uint256 public constant TEAM_FOUNDERS = TOTAL_SUPPLY * 20 / 100 */\n      dup2\n      jump\t// out\n        /* \"contracts/PingPongPlay.sol\":1584:1623  mapping(address => Stake) public stakes */\n    tag_62:\n      mstore(0x20, 0x09)\n      dup1\n      0x00\n      mstore\n      keccak256(0x00, 0x40)\n      0x00\n      swap2\n      pop\n      swap1\n      pop\n      dup1\n      0x00\n      add\n      sload\n      swap1\n      dup1\n      0x01\n      add\n      sload\n      swap1\n      dup1\n      0x02\n      add\n      sload\n      swap1\n      pop\n      dup4\n      jump\t// out\n        /* \"@openzeppelin/contracts/token/ERC20/ERC20.sol\":2849:2946  function totalSupply() public view virtual returns (uint256) {... */\n    tag_66:\n        /* \"@openzeppelin/contracts/token/ERC20/ERC20.sol\":2901:2908  uint256 */\n      0x00\n        /* \"@openzeppelin/contracts/token/ERC20/ERC20.sol\":2927:2939  _totalSupply */\n      sload(0x02)\n        /* \"@openzeppelin/contracts/token/ERC20/ERC20.sol\":2920:2939  return _totalSupply */\n      swap1\n      pop\n        /* \"@openzeppelin/contracts/token/ERC20/ERC20.sol\":2849:2946  function totalSupply() public view virtual returns (uint256) {... */\n      swap1\n      jump\t// out\n        /* \"contracts/PingPongPlay.sol\":1060:1126  uint256 public constant COMMUNITY_REWARDS = TOTAL_SUPPLY * 5 / 100 */\n    tag_69:\n        /* \"contracts/PingPongPlay.sol\":1123:1126  100 */\n      0x64\n        /* \"contracts/PingPongPlay.sol\":1119:1120  5 */\n      0x05\n        /* \"contracts/PingPongPlay.sol\":647:669  100_000_000 * 10 ** 18 */\n      0x52b7d2dcc80cd2e4000000\n        /* \"contracts/PingPongPlay.sol\":1104:1120  TOTAL_SUPPLY * 5 */\n      tag_204\n      swap2\n      swap1\n      tag_185\n      jump\t// in\n    tag_204:\n        /* \"contracts/PingPongPlay.sol\":1104:1126  TOTAL_SUPPLY * 5 / 100 */\n      tag_205\n      swap2\n      swap1\n      tag_187\n      jump\t// in\n    tag_205:\n        /* \"contracts/PingPongPlay.sol\":1060:1126  uint256 public constant COMMUNITY_REWARDS = TOTAL_SUPPLY * 5 / 100 */\n      dup2\n      jump\t// out\n        /* \"@openzeppelin/contracts/token/ERC20/ERC20.sol\":4776:5020  function transferFrom(address from, address to, uint256 value) public virtual returns (bool) {... */\n    tag_74:\n        /* \"@openzeppelin/contracts/token/ERC20/ERC20.sol\":4863:4867  bool */\n      0x00\n        /* \"@openzeppelin/contracts/token/ERC20/ERC20.sol\":4879:4894  address spender */\n      0x00\n        /* \"@openzeppelin/contracts/token/ERC20/ERC20.sol\":4897:4909  _msgSender() */\n      tag_207\n        /* \"@openzeppelin/contracts/token/ERC20/ERC20.sol\":4897:4907  _msgSender */\n      tag_167\n        /* \"@openzeppelin/contracts/token/ERC20/ERC20.sol\":4897:4909  _msgSender() */\n      jump\t// in\n    tag_207:\n        /* \"@openzeppelin/contracts/token/ERC20/ERC20.sol\":4879:4909  address spender = _msgSender() */\n      swap1\n      pop\n        /* \"@openzeppelin/contracts/token/ERC20/ERC20.sol\":4919:4956  _spendAllowance(from, spender, value) */\n      tag_208\n        /* \"@openzeppelin/contracts/token/ERC20/ERC20.sol\":4935:4939  from */\n      dup6\n        /* \"@openzeppelin/contracts/token/ERC20/ERC20.sol\":4941:4948  spender */\n      dup3\n        /* \"@openzeppelin/contracts/token/ERC20/ERC20.sol\":4950:4955  value */\n      dup6\n        /* \"@openzeppelin/contracts/token/ERC20/ERC20.sol\":4919:4934  _spendAllowance */\n      tag_209\n        /* \"@openzeppelin/contracts/token/ERC20/ERC20.sol\":4919:4956  _spendAllowance(from, spender, value) */\n      jump\t// in\n    tag_208:\n        /* \"@openzeppelin/contracts/token/ERC20/ERC20.sol\":4966:4992  _transfer(from, to, value) */\n      tag_210\n        /* \"@openzeppelin/contracts/token/ERC20/ERC20.sol\":4976:4980  from */\n      dup6\n        /* \"@openzeppelin/contracts/token/ERC20/ERC20.sol\":4982:4984  to */\n      dup6\n        /* \"@openzeppelin/contracts/token/ERC20/ERC20.sol\":4986:4991  value */\n      dup6\n        /* \"@openzeppelin/contracts/token/ERC20/ERC20.sol\":4966:4975  _transfer */\n      tag_198\n        /* \"@openzeppelin/contracts/token/ERC20/ERC20.sol\":4966:4992  _transfer(from, to, value) */\n      jump\t// in\n    tag_210:\n        /* \"@openzeppelin/contracts/token/ERC20/ERC20.sol\":5009:5013  true */\n      0x01\n        /* \"@openzeppelin/contracts/token/ERC20/ERC20.sol\":5002:5013  return true */\n      swap2\n      pop\n      pop\n        /* \"@openzeppelin/contracts/token/ERC20/ERC20.sol\":4776:5020  function transferFrom(address from, address to, uint256 value) public virtual returns (bool) {... */\n      swap4\n      swap3\n      pop\n      pop\n      pop\n      jump\t// out\n        /* \"contracts/PingPongPlay.sol\":1186:1213  uint256 public vestingStart */\n    tag_77:\n      sload(0x07)\n      dup2\n      jump\t// out\n        /* \"contracts/PingPongPlay.sol\":1629:1660  address[] public stakeAddresses */\n    tag_82:\n      0x0a\n      dup2\n      dup2\n      sload\n      dup2\n      lt\n      tag_211\n      jumpi\n      0x00\n      dup1\n      revert\n    tag_211:\n      swap1\n      0x00\n      mstore\n      keccak256(0x00, 0x20)\n      add\n      0x00\n      swap2\n      pop\n      sload\n      swap1\n      0x0100\n      exp\n      swap1\n      div\n      0xffffffffffffffffffffffffffffffffffffffff\n      and\n      dup2\n      jump\t// out\n        /* \"contracts/PingPongPlay.sol\":4774:5883  function unstake(uint256 amount) external nonReentrant {... */\n    tag_87:\n        /* \"@openzeppelin/contracts/security/ReentrancyGuard.sol\":2261:2282  _nonReentrantBefore() */\n      tag_214\n        /* \"@openzeppelin/contracts/security/ReentrancyGuard.sol\":2261:2280  _nonReentrantBefore */\n      tag_172\n        /* \"@openzeppelin/contracts/security/ReentrancyGuard.sol\":2261:2282  _nonReentrantBefore() */\n      jump\t// in\n    tag_214:\n        /* \"contracts/PingPongPlay.sol\":4856:4857  0 */\n      0x00\n        /* \"contracts/PingPongPlay.sol\":4847:4853  amount */\n      dup2\n        /* \"contracts/PingPongPlay.sol\":4847:4857  amount > 0 */\n      gt\n        /* \"contracts/PingPongPlay.sol\":4839:4885  require(amount > 0, \"Cannot unstake 0 tokens\") */\n      tag_216\n      jumpi\n      mload(0x40)\n      0x08c379a000000000000000000000000000000000000000000000000000000000\n      dup2\n      mstore\n      0x04\n      add\n      tag_217\n      swap1\n      tag_218\n      jump\t// in\n    tag_217:\n      mload(0x40)\n      dup1\n      swap2\n      sub\n      swap1\n      revert\n    tag_216:\n        /* \"contracts/PingPongPlay.sol\":4932:4938  amount */\n      dup1\n        /* \"contracts/PingPongPlay.sol\":4903:4909  stakes */\n      0x09\n        /* \"contracts/PingPongPlay.sol\":4903:4921  stakes[msg.sender] */\n      0x00\n        /* \"contracts/PingPongPlay.sol\":4910:4920  msg.sender */\n      caller\n        /* \"contracts/PingPongPlay.sol\":4903:4921  stakes[msg.sender] */\n      0xffffffffffffffffffffffffffffffffffffffff\n      and\n      0xffffffffffffffffffffffffffffffffffffffff\n      and\n      dup2\n      mstore\n      0x20\n      add\n      swap1\n      dup2\n      mstore\n      0x20\n      add\n      0x00\n      keccak256\n        /* \"contracts/PingPongPlay.sol\":4903:4928  stakes[msg.sender].amount */\n      0x00\n      add\n      sload\n        /* \"contracts/PingPongPlay.sol\":4903:4938  stakes[msg.sender].amount >= amount */\n      lt\n      iszero\n        /* \"contracts/PingPongPlay.sol\":4895:4969  require(stakes[msg.sender].amount >= amount, \"Insufficient staked amount\") */\n      tag_219\n      jumpi\n      mload(0x40)\n      0x08c379a000000000000000000000000000000000000000000000000000000000\n      dup2\n      mstore\n      0x04\n      add\n      tag_220\n      swap1\n      tag_221\n      jump\t// in\n    tag_220:\n      mload(0x40)\n      dup1\n      swap2\n      sub\n      swap1\n      revert\n    tag_219:\n        /* \"contracts/PingPongPlay.sol\":5024:5038  uint256 reward */\n      0x00\n        /* \"contracts/PingPongPlay.sol\":5041:5068  calculateReward(msg.sender) */\n      tag_222\n        /* \"contracts/PingPongPlay.sol\":5057:5067  msg.sender */\n      caller\n        /* \"contracts/PingPongPlay.sol\":5041:5056  calculateReward */\n      tag_142\n        /* \"contracts/PingPongPlay.sol\":5041:5068  calculateReward(msg.sender) */\n      jump\t// in\n    tag_222:\n        /* \"contracts/PingPongPlay.sol\":5024:5068  uint256 reward = calculateReward(msg.sender) */\n      swap1\n      pop\n        /* \"contracts/PingPongPlay.sol\":5078:5097  uint256 totalAmount */\n      0x00\n        /* \"contracts/PingPongPlay.sol\":5100:5118  amount.add(reward) */\n      tag_223\n        /* \"contracts/PingPongPlay.sol\":5111:5117  reward */\n      dup3\n        /* \"contracts/PingPongPlay.sol\":5100:5106  amount */\n      dup5\n        /* \"contracts/PingPongPlay.sol\":5100:5110  amount.add */\n      tag_195\n      swap1\n        /* \"contracts/PingPongPlay.sol\":5100:5118  amount.add(reward) */\n      swap2\n      swap1\n      0xffffffff\n      and\n      jump\t// in\n    tag_223:\n        /* \"contracts/PingPongPlay.sol\":5078:5118  uint256 totalAmount = amount.add(reward) */\n      swap1\n      pop\n        /* \"contracts/PingPongPlay.sol\":5186:5223  stakes[msg.sender].amount.sub(amount) */\n      tag_224\n        /* \"contracts/PingPongPlay.sol\":5216:5222  amount */\n      dup4\n        /* \"contracts/PingPongPlay.sol\":5186:5192  stakes */\n      0x09\n        /* \"contracts/PingPongPlay.sol\":5186:5204  stakes[msg.sender] */\n      0x00\n        /* \"contracts/PingPongPlay.sol\":5193:5203  msg.sender */\n      caller\n        /* \"contracts/PingPongPlay.sol\":5186:5204  stakes[msg.sender] */\n      0xffffffffffffffffffffffffffffffffffffffff\n      and\n      0xffffffffffffffffffffffffffffffffffffffff\n      and\n      dup2\n      mstore\n      0x20\n      add\n      swap1\n      dup2\n      mstore\n      0x20\n      add\n      0x00\n      keccak256\n        /* \"contracts/PingPongPlay.sol\":5186:5211  stakes[msg.sender].amount */\n      0x00\n      add\n      sload\n        /* \"contracts/PingPongPlay.sol\":5186:5215  stakes[msg.sender].amount.sub */\n      tag_181\n      swap1\n        /* \"contracts/PingPongPlay.sol\":5186:5223  stakes[msg.sender].amount.sub(amount) */\n      swap2\n      swap1\n      0xffffffff\n      and\n      jump\t// in\n    tag_224:\n        /* \"contracts/PingPongPlay.sol\":5158:5164  stakes */\n      0x09\n        /* \"contracts/PingPongPlay.sol\":5158:5176  stakes[msg.sender] */\n      0x00\n        /* \"contracts/PingPongPlay.sol\":5165:5175  msg.sender */\n      caller\n        /* \"contracts/PingPongPlay.sol\":5158:5176  stakes[msg.sender] */\n      0xffffffffffffffffffffffffffffffffffffffff\n      and\n      0xffffffffffffffffffffffffffffffffffffffff\n      and\n      dup2\n      mstore\n      0x20\n      add\n      swap1\n      dup2\n      mstore\n      0x20\n      add\n      0x00\n      keccak256\n        /* \"contracts/PingPongPlay.sol\":5158:5183  stakes[msg.sender].amount */\n      0x00\n      add\n        /* \"contracts/PingPongPlay.sol\":5158:5223  stakes[msg.sender].amount = stakes[msg.sender].amount.sub(amount) */\n      dup2\n      swap1\n      sstore\n      pop\n        /* \"contracts/PingPongPlay.sol\":5264:5279  block.timestamp */\n      timestamp\n        /* \"contracts/PingPongPlay.sol\":5233:5239  stakes */\n      0x09\n        /* \"contracts/PingPongPlay.sol\":5233:5251  stakes[msg.sender] */\n      0x00\n        /* \"contracts/PingPongPlay.sol\":5240:5250  msg.sender */\n      caller\n        /* \"contracts/PingPongPlay.sol\":5233:5251  stakes[msg.sender] */\n      0xffffffffffffffffffffffffffffffffffffffff\n      and\n      0xffffffffffffffffffffffffffffffffffffffff\n      and\n      dup2\n      mstore\n      0x20\n      add\n      swap1\n      dup2\n      mstore\n      0x20\n      add\n      0x00\n      keccak256\n        /* \"contracts/PingPongPlay.sol\":5233:5261  stakes[msg.sender].timestamp */\n      0x01\n      add\n        /* \"contracts/PingPongPlay.sol\":5233:5279  stakes[msg.sender].timestamp = block.timestamp */\n      dup2\n      swap1\n      sstore\n      pop\n        /* \"contracts/PingPongPlay.sol\":5322:5337  block.timestamp */\n      timestamp\n        /* \"contracts/PingPongPlay.sol\":5289:5295  stakes */\n      0x09\n        /* \"contracts/PingPongPlay.sol\":5289:5307  stakes[msg.sender] */\n      0x00\n        /* \"contracts/PingPongPlay.sol\":5296:5306  msg.sender */\n      caller\n        /* \"contracts/PingPongPlay.sol\":5289:5307  stakes[msg.sender] */\n      0xffffffffffffffffffffffffffffffffffffffff\n      and\n      0xffffffffffffffffffffffffffffffffffffffff\n      and\n      dup2\n      mstore\n      0x20\n      add\n      swap1\n      dup2\n      mstore\n      0x20\n      add\n      0x00\n      keccak256\n        /* \"contracts/PingPongPlay.sol\":5289:5319  stakes[msg.sender].lastClaimed */\n      0x02\n      add\n        /* \"contracts/PingPongPlay.sol\":5289:5337  stakes[msg.sender].lastClaimed = block.timestamp */\n      dup2\n      swap1\n      sstore\n      pop\n        /* \"contracts/PingPongPlay.sol\":5392:5441  _transfer(address(this), msg.sender, totalAmount) */\n      tag_225\n        /* \"contracts/PingPongPlay.sol\":5410:5414  this */\n      address\n        /* \"contracts/PingPongPlay.sol\":5417:5427  msg.sender */\n      caller\n        /* \"contracts/PingPongPlay.sol\":5429:5440  totalAmount */\n      dup4\n        /* \"contracts/PingPongPlay.sol\":5392:5401  _transfer */\n      tag_198\n        /* \"contracts/PingPongPlay.sol\":5392:5441  _transfer(address(this), msg.sender, totalAmount) */\n      jump\t// in\n    tag_225:\n        /* \"contracts/PingPongPlay.sol\":5522:5528  uint i */\n      0x00\n        /* \"contracts/PingPongPlay.sol\":5531:5532  0 */\n      0x00\n        /* \"contracts/PingPongPlay.sol\":5522:5532  uint i = 0 */\n      swap1\n      pop\n        /* \"contracts/PingPongPlay.sol\":5517:5782  for (uint i = 0; i < stakeAddresses.length; i++) {... */\n    tag_226:\n        /* \"contracts/PingPongPlay.sol\":5538:5552  stakeAddresses */\n      0x0a\n        /* \"contracts/PingPongPlay.sol\":5538:5559  stakeAddresses.length */\n      dup1\n      sload\n      swap1\n      pop\n        /* \"contracts/PingPongPlay.sol\":5534:5535  i */\n      dup2\n        /* \"contracts/PingPongPlay.sol\":5534:5559  i < stakeAddresses.length */\n      lt\n        /* \"contracts/PingPongPlay.sol\":5517:5782  for (uint i = 0; i < stakeAddresses.length; i++) {... */\n      iszero\n      tag_227\n      jumpi\n        /* \"contracts/PingPongPlay.sol\":5605:5615  msg.sender */\n      caller\n        /* \"contracts/PingPongPlay.sol\":5584:5615  stakeAddresses[i] == msg.sender */\n      0xffffffffffffffffffffffffffffffffffffffff\n      and\n        /* \"contracts/PingPongPlay.sol\":5584:5598  stakeAddresses */\n      0x0a\n        /* \"contracts/PingPongPlay.sol\":5599:5600  i */\n      dup3\n        /* \"contracts/PingPongPlay.sol\":5584:5601  stakeAddresses[i] */\n      dup2\n      sload\n      dup2\n      lt\n      tag_229\n      jumpi\n      tag_230\n      tag_231\n      jump\t// in\n    tag_230:\n    tag_229:\n      swap1\n      0x00\n      mstore\n      keccak256(0x00, 0x20)\n      add\n      0x00\n      swap1\n      sload\n      swap1\n      0x0100\n      exp\n      swap1\n      div\n      0xffffffffffffffffffffffffffffffffffffffff\n      and\n        /* \"contracts/PingPongPlay.sol\":5584:5615  stakeAddresses[i] == msg.sender */\n      0xffffffffffffffffffffffffffffffffffffffff\n      and\n      sub\n        /* \"contracts/PingPongPlay.sol\":5580:5772  if (stakeAddresses[i] == msg.sender) {... */\n      tag_233\n      jumpi\n        /* \"contracts/PingPongPlay.sol\":5655:5669  stakeAddresses */\n      0x0a\n        /* \"contracts/PingPongPlay.sol\":5694:5695  1 */\n      0x01\n        /* \"contracts/PingPongPlay.sol\":5670:5684  stakeAddresses */\n      0x0a\n        /* \"contracts/PingPongPlay.sol\":5670:5691  stakeAddresses.length */\n      dup1\n      sload\n      swap1\n      pop\n        /* \"contracts/PingPongPlay.sol\":5670:5695  stakeAddresses.length - 1 */\n      tag_234\n      swap2\n      swap1\n      tag_235\n      jump\t// in\n    tag_234:\n        /* \"contracts/PingPongPlay.sol\":5655:5696  stakeAddresses[stakeAddresses.length - 1] */\n      dup2\n      sload\n      dup2\n      lt\n      tag_236\n      jumpi\n      tag_237\n      tag_231\n      jump\t// in\n    tag_237:\n    tag_236:\n      swap1\n      0x00\n      mstore\n      keccak256(0x00, 0x20)\n      add\n      0x00\n      swap1\n      sload\n      swap1\n      0x0100\n      exp\n      swap1\n      div\n      0xffffffffffffffffffffffffffffffffffffffff\n      and\n        /* \"contracts/PingPongPlay.sol\":5635:5649  stakeAddresses */\n      0x0a\n        /* \"contracts/PingPongPlay.sol\":5650:5651  i */\n      dup3\n        /* \"contracts/PingPongPlay.sol\":5635:5652  stakeAddresses[i] */\n      dup2\n      sload\n      dup2\n      lt\n      tag_239\n      jumpi\n      tag_240\n      tag_231\n      jump\t// in\n    tag_240:\n    tag_239:\n      swap1\n      0x00\n      mstore\n      keccak256(0x00, 0x20)\n      add\n      0x00\n        /* \"contracts/PingPongPlay.sol\":5635:5696  stakeAddresses[i] = stakeAddresses[stakeAddresses.length - 1] */\n      0x0100\n      exp\n      dup2\n      sload\n      dup2\n      0xffffffffffffffffffffffffffffffffffffffff\n      mul\n      not\n      and\n      swap1\n      dup4\n      0xffffffffffffffffffffffffffffffffffffffff\n      and\n      mul\n      or\n      swap1\n      sstore\n      pop\n        /* \"contracts/PingPongPlay.sol\":5714:5728  stakeAddresses */\n      0x0a\n        /* \"contracts/PingPongPlay.sol\":5714:5734  stakeAddresses.pop() */\n      dup1\n      sload\n      dup1\n      tag_242\n      jumpi\n      tag_243\n      tag_244\n      jump\t// in\n    tag_243:\n    tag_242:\n      0x01\n      swap1\n      sub\n      dup2\n      dup2\n      swap1\n      0x00\n      mstore\n      keccak256(0x00, 0x20)\n      add\n      exp(0x0100, 0x00)\n      dup2\n      sload\n      swap1\n      0xffffffffffffffffffffffffffffffffffffffff\n      mul\n      not\n      and\n      swap1\n      sstore\n      swap1\n      sstore\n        /* \"contracts/PingPongPlay.sol\":5752:5757  break */\n      jump(tag_227)\n        /* \"contracts/PingPongPlay.sol\":5580:5772  if (stakeAddresses[i] == msg.sender) {... */\n    tag_233:\n        /* \"contracts/PingPongPlay.sol\":5561:5564  i++ */\n      dup1\n      dup1\n      0x01\n      add\n      swap2\n      pop\n      pop\n        /* \"contracts/PingPongPlay.sol\":5517:5782  for (uint i = 0; i < stakeAddresses.length; i++) {... */\n      jump(tag_226)\n    tag_227:\n      pop\n        /* \"contracts/PingPongPlay.sol\":5807:5817  msg.sender */\n      caller\n        /* \"contracts/PingPongPlay.sol\":5798:5826  Unstaked(msg.sender, amount) */\n      0xffffffffffffffffffffffffffffffffffffffff\n      and\n      0x0f5bb82176feb1b5e747e28471aa92156a04d9f3ab9f45f28e2d704232b93f75\n        /* \"contracts/PingPongPlay.sol\":5819:5825  amount */\n      dup5\n        /* \"contracts/PingPongPlay.sol\":5798:5826  Unstaked(msg.sender, amount) */\n      mload(0x40)\n      tag_246\n      swap2\n      swap1\n      tag_58\n      jump\t// in\n    tag_246:\n      mload(0x40)\n      dup1\n      swap2\n      sub\n      swap1\n      log2\n        /* \"contracts/PingPongPlay.sol\":5857:5867  msg.sender */\n      caller\n        /* \"contracts/PingPongPlay.sol\":5841:5876  InterestClaimed(msg.sender, reward) */\n      0xffffffffffffffffffffffffffffffffffffffff\n      and\n      0xf9984c8173c4b4ff9cc454f76ed19c053f4490ccb224fd9ddffeb4ef4bea3530\n        /* \"contracts/PingPongPlay.sol\":5869:5875  reward */\n      dup4\n        /* \"contracts/PingPongPlay.sol\":5841:5876  InterestClaimed(msg.sender, reward) */\n      mload(0x40)\n      tag_247\n      swap2\n      swap1\n      tag_58\n      jump\t// in\n    tag_247:\n      mload(0x40)\n      dup1\n      swap2\n      sub\n      swap1\n      log2\n        /* \"contracts/PingPongPlay.sol\":4829:5883  {... */\n      pop\n      pop\n        /* \"@openzeppelin/contracts/security/ReentrancyGuard.sol\":2303:2323  _nonReentrantAfter() */\n      tag_248\n        /* \"@openzeppelin/contracts/security/ReentrancyGuard.sol\":2303:2321  _nonReentrantAfter */\n      tag_200\n        /* \"@openzeppelin/contracts/security/ReentrancyGuard.sol\":2303:2323  _nonReentrantAfter() */\n      jump\t// in\n    tag_248:\n        /* \"contracts/PingPongPlay.sol\":4774:5883  function unstake(uint256 amount) external nonReentrant {... */\n      pop\n      jump\t// out\n        /* \"@openzeppelin/contracts/token/ERC20/ERC20.sol\":2707:2789  function decimals() public view virtual returns (uint8) {... */\n    tag_89:\n        /* \"@openzeppelin/contracts/token/ERC20/ERC20.sol\":2756:2761  uint8 */\n      0x00\n        /* \"@openzeppelin/contracts/token/ERC20/ERC20.sol\":2780:2782  18 */\n      0x12\n        /* \"@openzeppelin/contracts/token/ERC20/ERC20.sol\":2773:2782  return 18 */\n      swap1\n      pop\n        /* \"@openzeppelin/contracts/token/ERC20/ERC20.sol\":2707:2789  function decimals() public view virtual returns (uint8) {... */\n      swap1\n      jump\t// out\n        /* \"contracts/PingPongPlay.sol\":845:916  uint256 public constant MARKETING_PARTNERSHIP = TOTAL_SUPPLY * 15 / 100 */\n    tag_93:\n        /* \"contracts/PingPongPlay.sol\":913:916  100 */\n      0x64\n        /* \"contracts/PingPongPlay.sol\":908:910  15 */\n      0x0f\n        /* \"contracts/PingPongPlay.sol\":647:669  100_000_000 * 10 ** 18 */\n      0x52b7d2dcc80cd2e4000000\n        /* \"contracts/PingPongPlay.sol\":893:910  TOTAL_SUPPLY * 15 */\n      tag_250\n      swap2\n      swap1\n      tag_185\n      jump\t// in\n    tag_250:\n        /* \"contracts/PingPongPlay.sol\":893:916  TOTAL_SUPPLY * 15 / 100 */\n      tag_251\n      swap2\n      swap1\n      tag_187\n      jump\t// in\n    tag_251:\n        /* \"contracts/PingPongPlay.sol\":845:916  uint256 public constant MARKETING_PARTNERSHIP = TOTAL_SUPPLY * 15 / 100 */\n      dup2\n      jump\t// out\n        /* \"@openzeppelin/contracts/token/ERC20/extensions/ERC20Burnable.sol\":618:705  function burn(uint256 value) public virtual {... */\n    tag_97:\n        /* \"@openzeppelin/contracts/token/ERC20/extensions/ERC20Burnable.sol\":672:698  _burn(_msgSender(), value) */\n      tag_253\n        /* \"@openzeppelin/contracts/token/ERC20/extensions/ERC20Burnable.sol\":678:690  _msgSender() */\n      tag_254\n        /* \"@openzeppelin/contracts/token/ERC20/extensions/ERC20Burnable.sol\":678:688  _msgSender */\n      tag_167\n        /* \"@openzeppelin/contracts/token/ERC20/extensions/ERC20Burnable.sol\":678:690  _msgSender() */\n      jump\t// in\n    tag_254:\n        /* \"@openzeppelin/contracts/token/ERC20/extensions/ERC20Burnable.sol\":692:697  value */\n      dup3\n        /* \"@openzeppelin/contracts/token/ERC20/extensions/ERC20Burnable.sol\":672:677  _burn */\n      tag_255\n        /* \"@openzeppelin/contracts/token/ERC20/extensions/ERC20Burnable.sol\":672:698  _burn(_msgSender(), value) */\n      jump\t// in\n    tag_253:\n        /* \"@openzeppelin/contracts/token/ERC20/extensions/ERC20Burnable.sol\":618:705  function burn(uint256 value) public virtual {... */\n      pop\n      jump\t// out\n        /* \"contracts/PingPongPlay.sol\":1219:1270  uint256 public constant VESTING_DURATION = 365 days */\n    tag_99:\n        /* \"contracts/PingPongPlay.sol\":1262:1270  365 days */\n      0x01e13380\n        /* \"contracts/PingPongPlay.sol\":1219:1270  uint256 public constant VESTING_DURATION = 365 days */\n      dup2\n      jump\t// out\n        /* \"contracts/PingPongPlay.sol\":709:770  uint256 public constant PUBLIC_SALE = TOTAL_SUPPLY * 40 / 100 */\n    tag_102:\n        /* \"contracts/PingPongPlay.sol\":767:770  100 */\n      0x64\n        /* \"contracts/PingPongPlay.sol\":762:764  40 */\n      0x28\n        /* \"contracts/PingPongPlay.sol\":647:669  100_000_000 * 10 ** 18 */\n      0x52b7d2dcc80cd2e4000000\n        /* \"contracts/PingPongPlay.sol\":747:764  TOTAL_SUPPLY * 40 */\n      tag_256\n      swap2\n      swap1\n      tag_185\n      jump\t// in\n    tag_256:\n        /* \"contracts/PingPongPlay.sol\":747:770  TOTAL_SUPPLY * 40 / 100 */\n      tag_257\n      swap2\n      swap1\n      tag_187\n      jump\t// in\n    tag_257:\n        /* \"contracts/PingPongPlay.sol\":709:770  uint256 public constant PUBLIC_SALE = TOTAL_SUPPLY * 40 / 100 */\n      dup2\n      jump\t// out\n        /* \"@openzeppelin/contracts/token/ERC20/ERC20.sol\":3004:3120  function balanceOf(address account) public view virtual returns (uint256) {... */\n    tag_106:\n        /* \"@openzeppelin/contracts/token/ERC20/ERC20.sol\":3069:3076  uint256 */\n      0x00\n        /* \"@openzeppelin/contracts/token/ERC20/ERC20.sol\":3095:3104  _balances */\n      0x00\n        /* \"@openzeppelin/contracts/token/ERC20/ERC20.sol\":3095:3113  _balances[account] */\n      0x00\n        /* \"@openzeppelin/contracts/token/ERC20/ERC20.sol\":3105:3112  account */\n      dup4\n        /* \"@openzeppelin/contracts/token/ERC20/ERC20.sol\":3095:3113  _balances[account] */\n      0xffffffffffffffffffffffffffffffffffffffff\n      and\n      0xffffffffffffffffffffffffffffffffffffffff\n      and\n      dup2\n      mstore\n      0x20\n      add\n      swap1\n      dup2\n      mstore\n      0x20\n      add\n      0x00\n      keccak256\n      sload\n        /* \"@openzeppelin/contracts/token/ERC20/ERC20.sol\":3088:3113  return _balances[account] */\n      swap1\n      pop\n        /* \"@openzeppelin/contracts/token/ERC20/ERC20.sol\":3004:3120  function balanceOf(address account) public view virtual returns (uint256) {... */\n      swap2\n      swap1\n      pop\n      jump\t// out\n        /* \"@openzeppelin/contracts/access/Ownable.sol\":2293:2394  function renounceOwnership() public virtual onlyOwner {... */\n    tag_109:\n        /* \"@openzeppelin/contracts/access/Ownable.sol\":1531:1544  _checkOwner() */\n      tag_260\n        /* \"@openzeppelin/contracts/access/Ownable.sol\":1531:1542  _checkOwner */\n      tag_175\n        /* \"@openzeppelin/contracts/access/Ownable.sol\":1531:1544  _checkOwner() */\n      jump\t// in\n    tag_260:\n        /* \"@openzeppelin/contracts/access/Ownable.sol\":2357:2387  _transferOwnership(address(0)) */\n      tag_262\n        /* \"@openzeppelin/contracts/access/Ownable.sol\":2384:2385  0 */\n      0x00\n        /* \"@openzeppelin/contracts/access/Ownable.sol\":2357:2375  _transferOwnership */\n      tag_263\n        /* \"@openzeppelin/contracts/access/Ownable.sol\":2357:2387  _transferOwnership(address(0)) */\n      jump\t// in\n    tag_262:\n        /* \"@openzeppelin/contracts/access/Ownable.sol\":2293:2394  function renounceOwnership() public virtual onlyOwner {... */\n      jump\t// out\n        /* \"@openzeppelin/contracts/token/ERC20/extensions/ERC20Burnable.sol\":1021:1179  function burnFrom(address account, uint256 value) public virtual {... */\n    tag_112:\n        /* \"@openzeppelin/contracts/token/ERC20/extensions/ERC20Burnable.sol\":1096:1141  _spendAllowance(account, _msgSender(), value) */\n      tag_265\n        /* \"@openzeppelin/contracts/token/ERC20/extensions/ERC20Burnable.sol\":1112:1119  account */\n      dup3\n        /* \"@openzeppelin/contracts/token/ERC20/extensions/ERC20Burnable.sol\":1121:1133  _msgSender() */\n      tag_266\n        /* \"@openzeppelin/contracts/token/ERC20/extensions/ERC20Burnable.sol\":1121:1131  _msgSender */\n      tag_167\n        /* \"@openzeppelin/contracts/token/ERC20/extensions/ERC20Burnable.sol\":1121:1133  _msgSender() */\n      jump\t// in\n    tag_266:\n        /* \"@openzeppelin/contracts/token/ERC20/extensions/ERC20Burnable.sol\":1135:1140  value */\n      dup4\n        /* \"@openzeppelin/contracts/token/ERC20/extensions/ERC20Burnable.sol\":1096:1111  _spendAllowance */\n      tag_209\n        /* \"@openzeppelin/contracts/token/ERC20/extensions/ERC20Burnable.sol\":1096:1141  _spendAllowance(account, _msgSender(), value) */\n      jump\t// in\n    tag_265:\n        /* \"@openzeppelin/contracts/token/ERC20/extensions/ERC20Burnable.sol\":1151:1172  _burn(account, value) */\n      tag_267\n        /* \"@openzeppelin/contracts/token/ERC20/extensions/ERC20Burnable.sol\":1157:1164  account */\n      dup3\n        /* \"@openzeppelin/contracts/token/ERC20/extensions/ERC20Burnable.sol\":1166:1171  value */\n      dup3\n        /* \"@openzeppelin/contracts/token/ERC20/extensions/ERC20Burnable.sol\":1151:1156  _burn */\n      tag_255\n        /* \"@openzeppelin/contracts/token/ERC20/extensions/ERC20Burnable.sol\":1151:1172  _burn(account, value) */\n      jump\t// in\n    tag_267:\n        /* \"@openzeppelin/contracts/token/ERC20/extensions/ERC20Burnable.sol\":1021:1179  function burnFrom(address account, uint256 value) public virtual {... */\n      pop\n      pop\n      jump\t// out\n        /* \"contracts/PingPongPlay.sol\":1737:1762  uint256 public rewardRate */\n    tag_114:\n      sload(0x0b)\n      dup2\n      jump\t// out\n        /* \"@openzeppelin/contracts/access/Ownable.sol\":1638:1723  function owner() public view virtual returns (address) {... */\n    tag_117:\n        /* \"@openzeppelin/contracts/access/Ownable.sol\":1684:1691  address */\n      0x00\n        /* \"@openzeppelin/contracts/access/Ownable.sol\":1710:1716  _owner */\n      0x05\n      0x00\n      swap1\n      sload\n      swap1\n      0x0100\n      exp\n      swap1\n      div\n      0xffffffffffffffffffffffffffffffffffffffff\n      and\n        /* \"@openzeppelin/contracts/access/Ownable.sol\":1703:1716  return _owner */\n      swap1\n      pop\n        /* \"@openzeppelin/contracts/access/Ownable.sol\":1638:1723  function owner() public view virtual returns (address) {... */\n      swap1\n      jump\t// out\n        /* \"contracts/PingPongPlay.sol\":608:669  uint256 public constant TOTAL_SUPPLY = 100_000_000 * 10 ** 18 */\n    tag_120:\n        /* \"contracts/PingPongPlay.sol\":647:669  100_000_000 * 10 ** 18 */\n      0x52b7d2dcc80cd2e4000000\n        /* \"contracts/PingPongPlay.sol\":608:669  uint256 public constant TOTAL_SUPPLY = 100_000_000 * 10 ** 18 */\n      dup2\n      jump\t// out\n        /* \"@openzeppelin/contracts/token/ERC20/ERC20.sol\":1981:2074  function symbol() public view virtual returns (string memory) {... */\n    tag_123:\n        /* \"@openzeppelin/contracts/token/ERC20/ERC20.sol\":2028:2041  string memory */\n      0x60\n        /* \"@openzeppelin/contracts/token/ERC20/ERC20.sol\":2060:2067  _symbol */\n      0x04\n        /* \"@openzeppelin/contracts/token/ERC20/ERC20.sol\":2053:2067  return _symbol */\n      dup1\n      sload\n      tag_270\n      swap1\n      tag_160\n      jump\t// in\n    tag_270:\n      dup1\n      0x1f\n      add\n      0x20\n      dup1\n      swap2\n      div\n      mul\n      0x20\n      add\n      mload(0x40)\n      swap1\n      dup2\n      add\n      0x40\n      mstore\n      dup1\n      swap3\n      swap2\n      swap1\n      dup2\n      dup2\n      mstore\n      0x20\n      add\n      dup3\n      dup1\n      sload\n      tag_271\n      swap1\n      tag_160\n      jump\t// in\n    tag_271:\n      dup1\n      iszero\n      tag_272\n      jumpi\n      dup1\n      0x1f\n      lt\n      tag_273\n      jumpi\n      0x0100\n      dup1\n      dup4\n      sload\n      div\n      mul\n      dup4\n      mstore\n      swap2\n      0x20\n      add\n      swap2\n      jump(tag_272)\n    tag_273:\n      dup3\n      add\n      swap2\n      swap1\n      0x00\n      mstore\n      keccak256(0x00, 0x20)\n      swap1\n    tag_274:\n      dup2\n      sload\n      dup2\n      mstore\n      swap1\n      0x01\n      add\n      swap1\n      0x20\n      add\n      dup1\n      dup4\n      gt\n      tag_274\n      jumpi\n      dup3\n      swap1\n      sub\n      0x1f\n      and\n      dup3\n      add\n      swap2\n    tag_272:\n      pop\n      pop\n      pop\n      pop\n      pop\n      swap1\n      pop\n        /* \"@openzeppelin/contracts/token/ERC20/ERC20.sol\":1981:2074  function symbol() public view virtual returns (string memory) {... */\n      swap1\n      jump\t// out\n        /* \"contracts/PingPongPlay.sol\":997:1054  uint256 public constant RESERVE = TOTAL_SUPPLY * 10 / 100 */\n    tag_126:\n        /* \"contracts/PingPongPlay.sol\":1051:1054  100 */\n      0x64\n        /* \"contracts/PingPongPlay.sol\":1046:1048  10 */\n      0x0a\n        /* \"contracts/PingPongPlay.sol\":647:669  100_000_000 * 10 ** 18 */\n      0x52b7d2dcc80cd2e4000000\n        /* \"contracts/PingPongPlay.sol\":1031:1048  TOTAL_SUPPLY * 10 */\n      tag_275\n      swap2\n      swap1\n      tag_185\n      jump\t// in\n    tag_275:\n        /* \"contracts/PingPongPlay.sol\":1031:1054  TOTAL_SUPPLY * 10 / 100 */\n      tag_276\n      swap2\n      swap1\n      tag_187\n      jump\t// in\n    tag_276:\n        /* \"contracts/PingPongPlay.sol\":997:1054  uint256 public constant RESERVE = TOTAL_SUPPLY * 10 / 100 */\n      dup2\n      jump\t// out\n        /* \"contracts/PingPongPlay.sol\":2845:3015  function updateRewardRate(uint256 _newRate) external onlyOwner {... */\n    tag_130:\n        /* \"@openzeppelin/contracts/access/Ownable.sol\":1531:1544  _checkOwner() */\n      tag_278\n        /* \"@openzeppelin/contracts/access/Ownable.sol\":1531:1542  _checkOwner */\n      tag_175\n        /* \"@openzeppelin/contracts/access/Ownable.sol\":1531:1544  _checkOwner() */\n      jump\t// in\n    tag_278:\n        /* \"contracts/PingPongPlay.sol\":2937:2938  0 */\n      0x00\n        /* \"contracts/PingPongPlay.sol\":2926:2934  _newRate */\n      dup2\n        /* \"contracts/PingPongPlay.sol\":2926:2938  _newRate > 0 */\n      gt\n        /* \"contracts/PingPongPlay.sol\":2918:2977  require(_newRate > 0, \"Reward rate must be greater than 0\") */\n      tag_280\n      jumpi\n      mload(0x40)\n      0x08c379a000000000000000000000000000000000000000000000000000000000\n      dup2\n      mstore\n      0x04\n      add\n      tag_281\n      swap1\n      tag_282\n      jump\t// in\n    tag_281:\n      mload(0x40)\n      dup1\n      swap2\n      sub\n      swap1\n      revert\n    tag_280:\n        /* \"contracts/PingPongPlay.sol\":3000:3008  _newRate */\n      dup1\n        /* \"contracts/PingPongPlay.sol\":2987:2997  rewardRate */\n      0x0b\n        /* \"contracts/PingPongPlay.sol\":2987:3008  rewardRate = _newRate */\n      dup2\n      swap1\n      sstore\n      pop\n        /* \"contracts/PingPongPlay.sol\":2845:3015  function updateRewardRate(uint256 _newRate) external onlyOwner {... */\n      pop\n      jump\t// out\n        /* \"contracts/PingPongPlay.sol\":3806:4600  function stake(uint256 amount) external nonReentrant {... */\n    tag_133:\n        /* \"@openzeppelin/contracts/security/ReentrancyGuard.sol\":2261:2282  _nonReentrantBefore() */\n      tag_284\n        /* \"@openzeppelin/contracts/security/ReentrancyGuard.sol\":2261:2280  _nonReentrantBefore */\n      tag_172\n        /* \"@openzeppelin/contracts/security/ReentrancyGuard.sol\":2261:2282  _nonReentrantBefore() */\n      jump\t// in\n    tag_284:\n        /* \"contracts/PingPongPlay.sol\":3886:3887  0 */\n      0x00\n        /* \"contracts/PingPongPlay.sol\":3877:3883  amount */\n      dup2\n        /* \"contracts/PingPongPlay.sol\":3877:3887  amount > 0 */\n      gt\n        /* \"contracts/PingPongPlay.sol\":3869:3913  require(amount > 0, \"Cannot stake 0 tokens\") */\n      tag_286\n      jumpi\n      mload(0x40)\n      0x08c379a000000000000000000000000000000000000000000000000000000000\n      dup2\n      mstore\n      0x04\n      add\n      tag_287\n      swap1\n      tag_288\n      jump\t// in\n    tag_287:\n      mload(0x40)\n      dup1\n      swap2\n      sub\n      swap1\n      revert\n    tag_286:\n        /* \"contracts/PingPongPlay.sol\":3923:3967  _transfer(msg.sender, address(this), amount) */\n      tag_289\n        /* \"contracts/PingPongPlay.sol\":3933:3943  msg.sender */\n      caller\n        /* \"contracts/PingPongPlay.sol\":3953:3957  this */\n      address\n        /* \"contracts/PingPongPlay.sol\":3960:3966  amount */\n      dup4\n        /* \"contracts/PingPongPlay.sol\":3923:3932  _transfer */\n      tag_198\n        /* \"contracts/PingPongPlay.sol\":3923:3967  _transfer(msg.sender, address(this), amount) */\n      jump\t// in\n    tag_289:\n        /* \"contracts/PingPongPlay.sol\":3978:4001  Stake storage userStake */\n      0x00\n        /* \"contracts/PingPongPlay.sol\":4004:4010  stakes */\n      0x09\n        /* \"contracts/PingPongPlay.sol\":4004:4022  stakes[msg.sender] */\n      0x00\n        /* \"contracts/PingPongPlay.sol\":4011:4021  msg.sender */\n      caller\n        /* \"contracts/PingPongPlay.sol\":4004:4022  stakes[msg.sender] */\n      0xffffffffffffffffffffffffffffffffffffffff\n      and\n      0xffffffffffffffffffffffffffffffffffffffff\n      and\n      dup2\n      mstore\n      0x20\n      add\n      swap1\n      dup2\n      mstore\n      0x20\n      add\n      0x00\n      keccak256\n        /* \"contracts/PingPongPlay.sol\":3978:4022  Stake storage userStake = stakes[msg.sender] */\n      swap1\n      pop\n        /* \"contracts/PingPongPlay.sol\":4032:4046  stakeAddresses */\n      0x0a\n        /* \"contracts/PingPongPlay.sol\":4052:4062  msg.sender */\n      caller\n        /* \"contracts/PingPongPlay.sol\":4032:4063  stakeAddresses.push(msg.sender) */\n      swap1\n      dup1\n      0x01\n      dup2\n      sload\n      add\n      dup1\n      dup3\n      sstore\n      dup1\n      swap2\n      pop\n      pop\n      0x01\n      swap1\n      sub\n      swap1\n      0x00\n      mstore\n      keccak256(0x00, 0x20)\n      add\n      0x00\n      swap1\n      swap2\n      swap1\n      swap2\n      swap1\n      swap2\n      0x0100\n      exp\n      dup2\n      sload\n      dup2\n      0xffffffffffffffffffffffffffffffffffffffff\n      mul\n      not\n      and\n      swap1\n      dup4\n      0xffffffffffffffffffffffffffffffffffffffff\n      and\n      mul\n      or\n      swap1\n      sstore\n      pop\n        /* \"contracts/PingPongPlay.sol\":4129:4150  uint256 pendingReward */\n      0x00\n        /* \"contracts/PingPongPlay.sol\":4153:4180  calculateReward(msg.sender) */\n      tag_291\n        /* \"contracts/PingPongPlay.sol\":4169:4179  msg.sender */\n      caller\n        /* \"contracts/PingPongPlay.sol\":4153:4168  calculateReward */\n      tag_142\n        /* \"contracts/PingPongPlay.sol\":4153:4180  calculateReward(msg.sender) */\n      jump\t// in\n    tag_291:\n        /* \"contracts/PingPongPlay.sol\":4129:4180  uint256 pendingReward = calculateReward(msg.sender) */\n      swap1\n      pop\n        /* \"contracts/PingPongPlay.sol\":4210:4211  0 */\n      0x00\n        /* \"contracts/PingPongPlay.sol\":4194:4207  pendingReward */\n      dup2\n        /* \"contracts/PingPongPlay.sol\":4194:4211  pendingReward > 0 */\n      gt\n        /* \"contracts/PingPongPlay.sol\":4190:4350  if (pendingReward > 0) {... */\n      iszero\n      tag_292\n      jumpi\n        /* \"contracts/PingPongPlay.sol\":4227:4278  _transfer(address(this), msg.sender, pendingReward) */\n      tag_293\n        /* \"contracts/PingPongPlay.sol\":4245:4249  this */\n      address\n        /* \"contracts/PingPongPlay.sol\":4252:4262  msg.sender */\n      caller\n        /* \"contracts/PingPongPlay.sol\":4264:4277  pendingReward */\n      dup4\n        /* \"contracts/PingPongPlay.sol\":4227:4236  _transfer */\n      tag_198\n        /* \"contracts/PingPongPlay.sol\":4227:4278  _transfer(address(this), msg.sender, pendingReward) */\n      jump\t// in\n    tag_293:\n        /* \"contracts/PingPongPlay.sol\":4313:4323  msg.sender */\n      caller\n        /* \"contracts/PingPongPlay.sol\":4297:4339  InterestClaimed(msg.sender, pendingReward) */\n      0xffffffffffffffffffffffffffffffffffffffff\n      and\n      0xf9984c8173c4b4ff9cc454f76ed19c053f4490ccb224fd9ddffeb4ef4bea3530\n        /* \"contracts/PingPongPlay.sol\":4325:4338  pendingReward */\n      dup3\n        /* \"contracts/PingPongPlay.sol\":4297:4339  InterestClaimed(msg.sender, pendingReward) */\n      mload(0x40)\n      tag_294\n      swap2\n      swap1\n      tag_58\n      jump\t// in\n    tag_294:\n      mload(0x40)\n      dup1\n      swap2\n      sub\n      swap1\n      log2\n        /* \"contracts/PingPongPlay.sol\":4190:4350  if (pendingReward > 0) {... */\n    tag_292:\n        /* \"contracts/PingPongPlay.sol\":4469:4497  userStake.amount.add(amount) */\n      tag_295\n        /* \"contracts/PingPongPlay.sol\":4490:4496  amount */\n      dup4\n        /* \"contracts/PingPongPlay.sol\":4469:4478  userStake */\n      dup4\n        /* \"contracts/PingPongPlay.sol\":4469:4485  userStake.amount */\n      0x00\n      add\n      sload\n        /* \"contracts/PingPongPlay.sol\":4469:4489  userStake.amount.add */\n      tag_195\n      swap1\n        /* \"contracts/PingPongPlay.sol\":4469:4497  userStake.amount.add(amount) */\n      swap2\n      swap1\n      0xffffffff\n      and\n      jump\t// in\n    tag_295:\n        /* \"contracts/PingPongPlay.sol\":4450:4459  userStake */\n      dup3\n        /* \"contracts/PingPongPlay.sol\":4450:4466  userStake.amount */\n      0x00\n      add\n        /* \"contracts/PingPongPlay.sol\":4450:4497  userStake.amount = userStake.amount.add(amount) */\n      dup2\n      swap1\n      sstore\n      pop\n        /* \"contracts/PingPongPlay.sol\":4529:4544  block.timestamp */\n      timestamp\n        /* \"contracts/PingPongPlay.sol\":4507:4516  userStake */\n      dup3\n        /* \"contracts/PingPongPlay.sol\":4507:4526  userStake.timestamp */\n      0x01\n      add\n        /* \"contracts/PingPongPlay.sol\":4507:4544  userStake.timestamp = block.timestamp */\n      dup2\n      swap1\n      sstore\n      pop\n        /* \"contracts/PingPongPlay.sol\":4578:4593  block.timestamp */\n      timestamp\n        /* \"contracts/PingPongPlay.sol\":4554:4563  userStake */\n      dup3\n        /* \"contracts/PingPongPlay.sol\":4554:4575  userStake.lastClaimed */\n      0x02\n      add\n        /* \"contracts/PingPongPlay.sol\":4554:4593  userStake.lastClaimed = block.timestamp */\n      dup2\n      swap1\n      sstore\n      pop\n        /* \"contracts/PingPongPlay.sol\":3859:4600  {... */\n      pop\n      pop\n        /* \"@openzeppelin/contracts/security/ReentrancyGuard.sol\":2303:2323  _nonReentrantAfter() */\n      tag_296\n        /* \"@openzeppelin/contracts/security/ReentrancyGuard.sol\":2303:2321  _nonReentrantAfter */\n      tag_200\n        /* \"@openzeppelin/contracts/security/ReentrancyGuard.sol\":2303:2323  _nonReentrantAfter() */\n      jump\t// in\n    tag_296:\n        /* \"contracts/PingPongPlay.sol\":3806:4600  function stake(uint256 amount) external nonReentrant {... */\n      pop\n      jump\t// out\n        /* \"@openzeppelin/contracts/token/ERC20/ERC20.sol\":3315:3493  function transfer(address to, uint256 value) public virtual returns (bool) {... */\n    tag_136:\n        /* \"@openzeppelin/contracts/token/ERC20/ERC20.sol\":3384:3388  bool */\n      0x00\n        /* \"@openzeppelin/contracts/token/ERC20/ERC20.sol\":3400:3413  address owner */\n      0x00\n        /* \"@openzeppelin/contracts/token/ERC20/ERC20.sol\":3416:3428  _msgSender() */\n      tag_298\n        /* \"@openzeppelin/contracts/token/ERC20/ERC20.sol\":3416:3426  _msgSender */\n      tag_167\n        /* \"@openzeppelin/contracts/token/ERC20/ERC20.sol\":3416:3428  _msgSender() */\n      jump\t// in\n    tag_298:\n        /* \"@openzeppelin/contracts/token/ERC20/ERC20.sol\":3400:3428  address owner = _msgSender() */\n      swap1\n      pop\n        /* \"@openzeppelin/contracts/token/ERC20/ERC20.sol\":3438:3465  _transfer(owner, to, value) */\n      tag_299\n        /* \"@openzeppelin/contracts/token/ERC20/ERC20.sol\":3448:3453  owner */\n      dup2\n        /* \"@openzeppelin/contracts/token/ERC20/ERC20.sol\":3455:3457  to */\n      dup6\n        /* \"@openzeppelin/contracts/token/ERC20/ERC20.sol\":3459:3464  value */\n      dup6\n        /* \"@openzeppelin/contracts/token/ERC20/ERC20.sol\":3438:3447  _transfer */\n      tag_198\n        /* \"@openzeppelin/contracts/token/ERC20/ERC20.sol\":3438:3465  _transfer(owner, to, value) */\n      jump\t// in\n    tag_299:\n        /* \"@openzeppelin/contracts/token/ERC20/ERC20.sol\":3482:3486  true */\n      0x01\n        /* \"@openzeppelin/contracts/token/ERC20/ERC20.sol\":3475:3486  return true */\n      swap2\n      pop\n      pop\n        /* \"@openzeppelin/contracts/token/ERC20/ERC20.sol\":3315:3493  function transfer(address to, uint256 value) public virtual returns (bool) {... */\n      swap3\n      swap2\n      pop\n      pop\n      jump\t// out\n        /* \"contracts/PingPongPlay.sol\":6549:7289  function releaseAllInterest() external onlyOwner {... */\n    tag_139:\n        /* \"@openzeppelin/contracts/access/Ownable.sol\":1531:1544  _checkOwner() */\n      tag_301\n        /* \"@openzeppelin/contracts/access/Ownable.sol\":1531:1542  _checkOwner */\n      tag_175\n        /* \"@openzeppelin/contracts/access/Ownable.sol\":1531:1544  _checkOwner() */\n      jump\t// in\n    tag_301:\n        /* \"contracts/PingPongPlay.sol\":6608:6632  address[] memory stakers */\n      0x00\n        /* \"contracts/PingPongPlay.sol\":6635:6651  _getAllStakers() */\n      tag_303\n        /* \"contracts/PingPongPlay.sol\":6635:6649  _getAllStakers */\n      tag_304\n        /* \"contracts/PingPongPlay.sol\":6635:6651  _getAllStakers() */\n      jump\t// in\n    tag_303:\n        /* \"contracts/PingPongPlay.sol\":6608:6651  address[] memory stakers = _getAllStakers() */\n      swap1\n      pop\n        /* \"contracts/PingPongPlay.sol\":6661:6682  uint256 totalReleased */\n      0x00\n        /* \"contracts/PingPongPlay.sol\":6685:6686  0 */\n      0x00\n        /* \"contracts/PingPongPlay.sol\":6661:6686  uint256 totalReleased = 0 */\n      swap1\n      pop\n        /* \"contracts/PingPongPlay.sol\":6702:6711  uint256 i */\n      0x00\n        /* \"contracts/PingPongPlay.sol\":6714:6715  0 */\n      0x00\n        /* \"contracts/PingPongPlay.sol\":6702:6715  uint256 i = 0 */\n      swap1\n      pop\n        /* \"contracts/PingPongPlay.sol\":6697:7225  for (uint256 i = 0; i < stakers.length; i++) {... */\n    tag_305:\n        /* \"contracts/PingPongPlay.sol\":6721:6728  stakers */\n      dup3\n        /* \"contracts/PingPongPlay.sol\":6721:6735  stakers.length */\n      mload\n        /* \"contracts/PingPongPlay.sol\":6717:6718  i */\n      dup2\n        /* \"contracts/PingPongPlay.sol\":6717:6735  i < stakers.length */\n      lt\n        /* \"contracts/PingPongPlay.sol\":6697:7225  for (uint256 i = 0; i < stakers.length; i++) {... */\n      iszero\n      tag_306\n      jumpi\n        /* \"contracts/PingPongPlay.sol\":6756:6779  Stake storage userStake */\n      0x00\n        /* \"contracts/PingPongPlay.sol\":6782:6788  stakes */\n      0x09\n        /* \"contracts/PingPongPlay.sol\":6782:6800  stakes[stakers[i]] */\n      0x00\n        /* \"contracts/PingPongPlay.sol\":6789:6796  stakers */\n      dup6\n        /* \"contracts/PingPongPlay.sol\":6797:6798  i */\n      dup5\n        /* \"contracts/PingPongPlay.sol\":6789:6799  stakers[i] */\n      dup2\n      mload\n      dup2\n      lt\n      tag_308\n      jumpi\n      tag_309\n      tag_231\n      jump\t// in\n    tag_309:\n    tag_308:\n      0x20\n      mul\n      0x20\n      add\n      add\n      mload\n        /* \"contracts/PingPongPlay.sol\":6782:6800  stakes[stakers[i]] */\n      0xffffffffffffffffffffffffffffffffffffffff\n      and\n      0xffffffffffffffffffffffffffffffffffffffff\n      and\n      dup2\n      mstore\n      0x20\n      add\n      swap1\n      dup2\n      mstore\n      0x20\n      add\n      0x00\n      keccak256\n        /* \"contracts/PingPongPlay.sol\":6756:6800  Stake storage userStake = stakes[stakers[i]] */\n      swap1\n      pop\n        /* \"contracts/PingPongPlay.sol\":6814:6835  uint256 pendingReward */\n      0x00\n        /* \"contracts/PingPongPlay.sol\":6838:6865  calculateReward(stakers[i]) */\n      tag_310\n        /* \"contracts/PingPongPlay.sol\":6854:6861  stakers */\n      dup6\n        /* \"contracts/PingPongPlay.sol\":6862:6863  i */\n      dup5\n        /* \"contracts/PingPongPlay.sol\":6854:6864  stakers[i] */\n      dup2\n      mload\n      dup2\n      lt\n      tag_311\n      jumpi\n      tag_312\n      tag_231\n      jump\t// in\n    tag_312:\n    tag_311:\n      0x20\n      mul\n      0x20\n      add\n      add\n      mload\n        /* \"contracts/PingPongPlay.sol\":6838:6853  calculateReward */\n      tag_142\n        /* \"contracts/PingPongPlay.sol\":6838:6865  calculateReward(stakers[i]) */\n      jump\t// in\n    tag_310:\n        /* \"contracts/PingPongPlay.sol\":6814:6865  uint256 pendingReward = calculateReward(stakers[i]) */\n      swap1\n      pop\n        /* \"contracts/PingPongPlay.sol\":6899:6900  0 */\n      0x00\n        /* \"contracts/PingPongPlay.sol\":6883:6896  pendingReward */\n      dup2\n        /* \"contracts/PingPongPlay.sol\":6883:6900  pendingReward > 0 */\n      gt\n        /* \"contracts/PingPongPlay.sol\":6879:7215  if (pendingReward > 0) {... */\n      iszero\n      tag_313\n      jumpi\n        /* \"contracts/PingPongPlay.sol\":6920:6971  _transfer(address(this), stakers[i], pendingReward) */\n      tag_314\n        /* \"contracts/PingPongPlay.sol\":6938:6942  this */\n      address\n        /* \"contracts/PingPongPlay.sol\":6945:6952  stakers */\n      dup7\n        /* \"contracts/PingPongPlay.sol\":6953:6954  i */\n      dup6\n        /* \"contracts/PingPongPlay.sol\":6945:6955  stakers[i] */\n      dup2\n      mload\n      dup2\n      lt\n      tag_315\n      jumpi\n      tag_316\n      tag_231\n      jump\t// in\n    tag_316:\n    tag_315:\n      0x20\n      mul\n      0x20\n      add\n      add\n      mload\n        /* \"contracts/PingPongPlay.sol\":6957:6970  pendingReward */\n      dup4\n        /* \"contracts/PingPongPlay.sol\":6920:6929  _transfer */\n      tag_198\n        /* \"contracts/PingPongPlay.sol\":6920:6971  _transfer(address(this), stakers[i], pendingReward) */\n      jump\t// in\n    tag_314:\n        /* \"contracts/PingPongPlay.sol\":7013:7028  block.timestamp */\n      timestamp\n        /* \"contracts/PingPongPlay.sol\":6989:6998  userStake */\n      dup3\n        /* \"contracts/PingPongPlay.sol\":6989:7010  userStake.lastClaimed */\n      0x02\n      add\n        /* \"contracts/PingPongPlay.sol\":6989:7028  userStake.lastClaimed = block.timestamp */\n      dup2\n      swap1\n      sstore\n      pop\n        /* \"contracts/PingPongPlay.sol\":7103:7135  totalReleased.add(pendingReward) */\n      tag_317\n        /* \"contracts/PingPongPlay.sol\":7121:7134  pendingReward */\n      dup2\n        /* \"contracts/PingPongPlay.sol\":7103:7116  totalReleased */\n      dup6\n        /* \"contracts/PingPongPlay.sol\":7103:7120  totalReleased.add */\n      tag_195\n      swap1\n        /* \"contracts/PingPongPlay.sol\":7103:7135  totalReleased.add(pendingReward) */\n      swap2\n      swap1\n      0xffffffff\n      and\n      jump\t// in\n    tag_317:\n        /* \"contracts/PingPongPlay.sol\":7087:7135  totalReleased = totalReleased.add(pendingReward) */\n      swap4\n      pop\n        /* \"contracts/PingPongPlay.sol\":7174:7181  stakers */\n      dup5\n        /* \"contracts/PingPongPlay.sol\":7182:7183  i */\n      dup4\n        /* \"contracts/PingPongPlay.sol\":7174:7184  stakers[i] */\n      dup2\n      mload\n      dup2\n      lt\n      tag_318\n      jumpi\n      tag_319\n      tag_231\n      jump\t// in\n    tag_319:\n    tag_318:\n      0x20\n      mul\n      0x20\n      add\n      add\n      mload\n        /* \"contracts/PingPongPlay.sol\":7158:7200  InterestClaimed(stakers[i], pendingReward) */\n      0xffffffffffffffffffffffffffffffffffffffff\n      and\n      0xf9984c8173c4b4ff9cc454f76ed19c053f4490ccb224fd9ddffeb4ef4bea3530\n        /* \"contracts/PingPongPlay.sol\":7186:7199  pendingReward */\n      dup3\n        /* \"contracts/PingPongPlay.sol\":7158:7200  InterestClaimed(stakers[i], pendingReward) */\n      mload(0x40)\n      tag_320\n      swap2\n      swap1\n      tag_58\n      jump\t// in\n    tag_320:\n      mload(0x40)\n      dup1\n      swap2\n      sub\n      swap1\n      log2\n        /* \"contracts/PingPongPlay.sol\":6879:7215  if (pendingReward > 0) {... */\n    tag_313:\n        /* \"contracts/PingPongPlay.sol\":6742:7225  {... */\n      pop\n      pop\n        /* \"contracts/PingPongPlay.sol\":6737:6740  i++ */\n      dup1\n      dup1\n      0x01\n      add\n      swap2\n      pop\n      pop\n        /* \"contracts/PingPongPlay.sol\":6697:7225  for (uint256 i = 0; i < stakers.length; i++) {... */\n      jump(tag_305)\n    tag_306:\n      pop\n        /* \"contracts/PingPongPlay.sol\":7248:7282  AllInterestReleased(totalReleased) */\n      0x6a51b76326892cba00f44f8bc83414a1c2e4715f4bc1ebcac12326172ed53f18\n        /* \"contracts/PingPongPlay.sol\":7268:7281  totalReleased */\n      dup2\n        /* \"contracts/PingPongPlay.sol\":7248:7282  AllInterestReleased(totalReleased) */\n      mload(0x40)\n      tag_321\n      swap2\n      swap1\n      tag_58\n      jump\t// in\n    tag_321:\n      mload(0x40)\n      dup1\n      swap2\n      sub\n      swap1\n      log1\n        /* \"contracts/PingPongPlay.sol\":6598:7289  {... */\n      pop\n      pop\n        /* \"contracts/PingPongPlay.sol\":6549:7289  function releaseAllInterest() external onlyOwner {... */\n      jump\t// out\n        /* \"contracts/PingPongPlay.sol\":6058:6440  function calculateReward(address staker) public view returns (uint256) {... */\n    tag_142:\n        /* \"contracts/PingPongPlay.sol\":6120:6127  uint256 */\n      0x00\n        /* \"contracts/PingPongPlay.sol\":6139:6161  Stake memory userStake */\n      0x00\n        /* \"contracts/PingPongPlay.sol\":6164:6170  stakes */\n      0x09\n        /* \"contracts/PingPongPlay.sol\":6164:6178  stakes[staker] */\n      0x00\n        /* \"contracts/PingPongPlay.sol\":6171:6177  staker */\n      dup5\n        /* \"contracts/PingPongPlay.sol\":6164:6178  stakes[staker] */\n      0xffffffffffffffffffffffffffffffffffffffff\n      and\n      0xffffffffffffffffffffffffffffffffffffffff\n      and\n      dup2\n      mstore\n      0x20\n      add\n      swap1\n      dup2\n      mstore\n      0x20\n      add\n      0x00\n      keccak256\n        /* \"contracts/PingPongPlay.sol\":6139:6178  Stake memory userStake = stakes[staker] */\n      mload(0x40)\n      dup1\n      0x60\n      add\n      0x40\n      mstore\n      swap1\n      dup2\n      0x00\n      dup3\n      add\n      sload\n      dup2\n      mstore\n      0x20\n      add\n      0x01\n      dup3\n      add\n      sload\n      dup2\n      mstore\n      0x20\n      add\n      0x02\n      dup3\n      add\n      sload\n      dup2\n      mstore\n      pop\n      pop\n      swap1\n      pop\n        /* \"contracts/PingPongPlay.sol\":6212:6213  0 */\n      0x00\n        /* \"contracts/PingPongPlay.sol\":6192:6201  userStake */\n      dup2\n        /* \"contracts/PingPongPlay.sol\":6192:6208  userStake.amount */\n      0x00\n      add\n      mload\n        /* \"contracts/PingPongPlay.sol\":6192:6213  userStake.amount == 0 */\n      sub\n        /* \"contracts/PingPongPlay.sol\":6188:6223  if (userStake.amount == 0) return 0 */\n      tag_323\n      jumpi\n        /* \"contracts/PingPongPlay.sol\":6222:6223  0 */\n      0x00\n        /* \"contracts/PingPongPlay.sol\":6215:6223  return 0 */\n      swap2\n      pop\n      pop\n      jump(tag_322)\n        /* \"contracts/PingPongPlay.sol\":6188:6223  if (userStake.amount == 0) return 0 */\n    tag_323:\n        /* \"contracts/PingPongPlay.sol\":6234:6252  uint256 daysStaked */\n      0x00\n        /* \"contracts/PingPongPlay.sol\":6299:6305  1 days */\n      0x015180\n        /* \"contracts/PingPongPlay.sol\":6274:6283  userStake */\n      dup3\n        /* \"contracts/PingPongPlay.sol\":6274:6295  userStake.lastClaimed */\n      0x40\n      add\n      mload\n        /* \"contracts/PingPongPlay.sol\":6256:6271  block.timestamp */\n      timestamp\n        /* \"contracts/PingPongPlay.sol\":6256:6295  block.timestamp - userStake.lastClaimed */\n      tag_324\n      swap2\n      swap1\n      tag_235\n      jump\t// in\n    tag_324:\n        /* \"contracts/PingPongPlay.sol\":6255:6305  (block.timestamp - userStake.lastClaimed) / 1 days */\n      tag_325\n      swap2\n      swap1\n      tag_187\n      jump\t// in\n    tag_325:\n        /* \"contracts/PingPongPlay.sol\":6234:6305  uint256 daysStaked = (block.timestamp - userStake.lastClaimed) / 1 days */\n      swap1\n      pop\n        /* \"contracts/PingPongPlay.sol\":6315:6335  uint256 annualReward */\n      0x00\n        /* \"contracts/PingPongPlay.sol\":6338:6379  userStake.amount.mul(rewardRate).div(100) */\n      tag_326\n        /* \"contracts/PingPongPlay.sol\":6375:6378  100 */\n      0x64\n        /* \"contracts/PingPongPlay.sol\":6338:6370  userStake.amount.mul(rewardRate) */\n      tag_327\n        /* \"contracts/PingPongPlay.sol\":6359:6369  rewardRate */\n      sload(0x0b)\n        /* \"contracts/PingPongPlay.sol\":6338:6347  userStake */\n      dup7\n        /* \"contracts/PingPongPlay.sol\":6338:6354  userStake.amount */\n      0x00\n      add\n      mload\n        /* \"contracts/PingPongPlay.sol\":6338:6358  userStake.amount.mul */\n      tag_188\n      swap1\n        /* \"contracts/PingPongPlay.sol\":6338:6370  userStake.amount.mul(rewardRate) */\n      swap2\n      swap1\n      0xffffffff\n      and\n      jump\t// in\n    tag_327:\n        /* \"contracts/PingPongPlay.sol\":6338:6374  userStake.amount.mul(rewardRate).div */\n      tag_189\n      swap1\n        /* \"contracts/PingPongPlay.sol\":6338:6379  userStake.amount.mul(rewardRate).div(100) */\n      swap2\n      swap1\n      0xffffffff\n      and\n      jump\t// in\n    tag_326:\n        /* \"contracts/PingPongPlay.sol\":6315:6379  uint256 annualReward = userStake.amount.mul(rewardRate).div(100) */\n      swap1\n      pop\n        /* \"contracts/PingPongPlay.sol\":6396:6433  annualReward.mul(daysStaked).div(365) */\n      tag_328\n        /* \"contracts/PingPongPlay.sol\":6429:6432  365 */\n      0x016d\n        /* \"contracts/PingPongPlay.sol\":6396:6424  annualReward.mul(daysStaked) */\n      tag_329\n        /* \"contracts/PingPongPlay.sol\":6413:6423  daysStaked */\n      dup5\n        /* \"contracts/PingPongPlay.sol\":6396:6408  annualReward */\n      dup5\n        /* \"contracts/PingPongPlay.sol\":6396:6412  annualReward.mul */\n      tag_188\n      swap1\n        /* \"contracts/PingPongPlay.sol\":6396:6424  annualReward.mul(daysStaked) */\n      swap2\n      swap1\n      0xffffffff\n      and\n      jump\t// in\n    tag_329:\n        /* \"contracts/PingPongPlay.sol\":6396:6428  annualReward.mul(daysStaked).div */\n      tag_189\n      swap1\n        /* \"contracts/PingPongPlay.sol\":6396:6433  annualReward.mul(daysStaked).div(365) */\n      swap2\n      swap1\n      0xffffffff\n      and\n      jump\t// in\n    tag_328:\n        /* \"contracts/PingPongPlay.sol\":6389:6433  return annualReward.mul(daysStaked).div(365) */\n      swap4\n      pop\n      pop\n      pop\n      pop\n        /* \"contracts/PingPongPlay.sol\":6058:6440  function calculateReward(address staker) public view returns (uint256) {... */\n    tag_322:\n      swap2\n      swap1\n      pop\n      jump\t// out\n        /* \"@openzeppelin/contracts/token/ERC20/ERC20.sol\":3551:3691  function allowance(address owner, address spender) public view virtual returns (uint256) {... */\n    tag_147:\n        /* \"@openzeppelin/contracts/token/ERC20/ERC20.sol\":3631:3638  uint256 */\n      0x00\n        /* \"@openzeppelin/contracts/token/ERC20/ERC20.sol\":3657:3668  _allowances */\n      0x01\n        /* \"@openzeppelin/contracts/token/ERC20/ERC20.sol\":3657:3675  _allowances[owner] */\n      0x00\n        /* \"@openzeppelin/contracts/token/ERC20/ERC20.sol\":3669:3674  owner */\n      dup5\n        /* \"@openzeppelin/contracts/token/ERC20/ERC20.sol\":3657:3675  _allowances[owner] */\n      0xffffffffffffffffffffffffffffffffffffffff\n      and\n      0xffffffffffffffffffffffffffffffffffffffff\n      and\n      dup2\n      mstore\n      0x20\n      add\n      swap1\n      dup2\n      mstore\n      0x20\n      add\n      0x00\n      keccak256\n        /* \"@openzeppelin/contracts/token/ERC20/ERC20.sol\":3657:3684  _allowances[owner][spender] */\n      0x00\n        /* \"@openzeppelin/contracts/token/ERC20/ERC20.sol\":3676:3683  spender */\n      dup4\n        /* \"@openzeppelin/contracts/token/ERC20/ERC20.sol\":3657:3684  _allowances[owner][spender] */\n      0xffffffffffffffffffffffffffffffffffffffff\n      and\n      0xffffffffffffffffffffffffffffffffffffffff\n      and\n      dup2\n      mstore\n      0x20\n      add\n      swap1\n      dup2\n      mstore\n      0x20\n      add\n      0x00\n      keccak256\n      sload\n        /* \"@openzeppelin/contracts/token/ERC20/ERC20.sol\":3650:3684  return _allowances[owner][spender] */\n      swap1\n      pop\n        /* \"@openzeppelin/contracts/token/ERC20/ERC20.sol\":3551:3691  function allowance(address owner, address spender) public view virtual returns (uint256) {... */\n      swap3\n      swap2\n      pop\n      pop\n      jump\t// out\n        /* \"contracts/PingPongPlay.sol\":922:991  uint256 public constant PROJECT_DEVELOPMENT = TOTAL_SUPPLY * 10 / 100 */\n    tag_150:\n        /* \"contracts/PingPongPlay.sol\":988:991  100 */\n      0x64\n        /* \"contracts/PingPongPlay.sol\":983:985  10 */\n      0x0a\n        /* \"contracts/PingPongPlay.sol\":647:669  100_000_000 * 10 ** 18 */\n      0x52b7d2dcc80cd2e4000000\n        /* \"contracts/PingPongPlay.sol\":968:985  TOTAL_SUPPLY * 10 */\n      tag_331\n      swap2\n      swap1\n      tag_185\n      jump\t// in\n    tag_331:\n        /* \"contracts/PingPongPlay.sol\":968:991  TOTAL_SUPPLY * 10 / 100 */\n      tag_332\n      swap2\n      swap1\n      tag_187\n      jump\t// in\n    tag_332:\n        /* \"contracts/PingPongPlay.sol\":922:991  uint256 public constant PROJECT_DEVELOPMENT = TOTAL_SUPPLY * 10 / 100 */\n      dup2\n      jump\t// out\n        /* \"@openzeppelin/contracts/access/Ownable.sol\":2543:2758  function transferOwnership(address newOwner) public virtual onlyOwner {... */\n    tag_154:\n        /* \"@openzeppelin/contracts/access/Ownable.sol\":1531:1544  _checkOwner() */\n      tag_334\n        /* \"@openzeppelin/contracts/access/Ownable.sol\":1531:1542  _checkOwner */\n      tag_175\n        /* \"@openzeppelin/contracts/access/Ownable.sol\":1531:1544  _checkOwner() */\n      jump\t// in\n    tag_334:\n        /* \"@openzeppelin/contracts/access/Ownable.sol\":2647:2648  0 */\n      0x00\n        /* \"@openzeppelin/contracts/access/Ownable.sol\":2627:2649  newOwner == address(0) */\n      0xffffffffffffffffffffffffffffffffffffffff\n      and\n        /* \"@openzeppelin/contracts/access/Ownable.sol\":2627:2635  newOwner */\n      dup2\n        /* \"@openzeppelin/contracts/access/Ownable.sol\":2627:2649  newOwner == address(0) */\n      0xffffffffffffffffffffffffffffffffffffffff\n      and\n      sub\n        /* \"@openzeppelin/contracts/access/Ownable.sol\":2623:2714  if (newOwner == address(0)) {... */\n      tag_336\n      jumpi\n        /* \"@openzeppelin/contracts/access/Ownable.sol\":2700:2701  0 */\n      0x00\n        /* \"@openzeppelin/contracts/access/Ownable.sol\":2672:2703  OwnableInvalidOwner(address(0)) */\n      mload(0x40)\n      0x1e4fbdf700000000000000000000000000000000000000000000000000000000\n      dup2\n      mstore\n      0x04\n      add\n      tag_337\n      swap2\n      swap1\n      tag_84\n      jump\t// in\n    tag_337:\n      mload(0x40)\n      dup1\n      swap2\n      sub\n      swap1\n      revert\n        /* \"@openzeppelin/contracts/access/Ownable.sol\":2623:2714  if (newOwner == address(0)) {... */\n    tag_336:\n        /* \"@openzeppelin/contracts/access/Ownable.sol\":2723:2751  _transferOwnership(newOwner) */\n      tag_338\n        /* \"@openzeppelin/contracts/access/Ownable.sol\":2742:2750  newOwner */\n      dup2\n        /* \"@openzeppelin/contracts/access/Ownable.sol\":2723:2741  _transferOwnership */\n      tag_263\n        /* \"@openzeppelin/contracts/access/Ownable.sol\":2723:2751  _transferOwnership(newOwner) */\n      jump\t// in\n    tag_338:\n        /* \"@openzeppelin/contracts/access/Ownable.sol\":2543:2758  function transferOwnership(address newOwner) public virtual onlyOwner {... */\n      pop\n      jump\t// out\n        /* \"contracts/PingPongPlay.sol\":1276:1303  uint256 public teamReleased */\n    tag_156:\n      sload(0x08)\n      dup2\n      jump\t// out\n        /* \"@openzeppelin/contracts/utils/Context.sol\":656:752  function _msgSender() internal view virtual returns (address) {... */\n    tag_167:\n        /* \"@openzeppelin/contracts/utils/Context.sol\":709:716  address */\n      0x00\n        /* \"@openzeppelin/contracts/utils/Context.sol\":735:745  msg.sender */\n      caller\n        /* \"@openzeppelin/contracts/utils/Context.sol\":728:745  return msg.sender */\n      swap1\n      pop\n        /* \"@openzeppelin/contracts/utils/Context.sol\":656:752  function _msgSender() internal view virtual returns (address) {... */\n      swap1\n      jump\t// out\n        /* \"@openzeppelin/contracts/token/ERC20/ERC20.sol\":8726:8854  function _approve(address owner, address spender, uint256 value) internal {... */\n    tag_169:\n        /* \"@openzeppelin/contracts/token/ERC20/ERC20.sol\":8810:8847  _approve(owner, spender, value, true) */\n      tag_341\n        /* \"@openzeppelin/contracts/token/ERC20/ERC20.sol\":8819:8824  owner */\n      dup4\n        /* \"@openzeppelin/contracts/token/ERC20/ERC20.sol\":8826:8833  spender */\n      dup4\n        /* \"@openzeppelin/contracts/token/ERC20/ERC20.sol\":8835:8840  value */\n      dup4\n        /* \"@openzeppelin/contracts/token/ERC20/ERC20.sol\":8842:8846  true */\n      0x01\n        /* \"@openzeppelin/contracts/token/ERC20/ERC20.sol\":8810:8818  _approve */\n      tag_342\n        /* \"@openzeppelin/contracts/token/ERC20/ERC20.sol\":8810:8847  _approve(owner, spender, value, true) */\n      jump\t// in\n    tag_341:\n        /* \"@openzeppelin/contracts/token/ERC20/ERC20.sol\":8726:8854  function _approve(address owner, address spender, uint256 value) internal {... */\n      pop\n      pop\n      pop\n      jump\t// out\n        /* \"@openzeppelin/contracts/security/ReentrancyGuard.sol\":2336:2623  function _nonReentrantBefore() private {... */\n    tag_172:\n        /* \"@openzeppelin/contracts/security/ReentrancyGuard.sol\":1759:1760  2 */\n      0x02\n        /* \"@openzeppelin/contracts/security/ReentrancyGuard.sol\":2468:2475  _status */\n      sload(0x06)\n        /* \"@openzeppelin/contracts/security/ReentrancyGuard.sol\":2468:2487  _status != _ENTERED */\n      sub\n        /* \"@openzeppelin/contracts/security/ReentrancyGuard.sol\":2460:2523  require(_status != _ENTERED, \"ReentrancyGuard: reentrant call\") */\n      tag_344\n      jumpi\n      mload(0x40)\n      0x08c379a000000000000000000000000000000000000000000000000000000000\n      dup2\n      mstore\n      0x04\n      add\n      tag_345\n      swap1\n      tag_346\n      jump\t// in\n    tag_345:\n      mload(0x40)\n      dup1\n      swap2\n      sub\n      swap1\n      revert\n    tag_344:\n        /* \"@openzeppelin/contracts/security/ReentrancyGuard.sol\":1759:1760  2 */\n      0x02\n        /* \"@openzeppelin/contracts/security/ReentrancyGuard.sol\":2598:2605  _status */\n      0x06\n        /* \"@openzeppelin/contracts/security/ReentrancyGuard.sol\":2598:2616  _status = _ENTERED */\n      dup2\n      swap1\n      sstore\n      pop\n        /* \"@openzeppelin/contracts/security/ReentrancyGuard.sol\":2336:2623  function _nonReentrantBefore() private {... */\n      jump\t// out\n        /* \"@openzeppelin/contracts/access/Ownable.sol\":1796:1958  function _checkOwner() internal view virtual {... */\n    tag_175:\n        /* \"@openzeppelin/contracts/access/Ownable.sol\":1866:1878  _msgSender() */\n      tag_348\n        /* \"@openzeppelin/contracts/access/Ownable.sol\":1866:1876  _msgSender */\n      tag_167\n        /* \"@openzeppelin/contracts/access/Ownable.sol\":1866:1878  _msgSender() */\n      jump\t// in\n    tag_348:\n        /* \"@openzeppelin/contracts/access/Ownable.sol\":1855:1878  owner() != _msgSender() */\n      0xffffffffffffffffffffffffffffffffffffffff\n      and\n        /* \"@openzeppelin/contracts/access/Ownable.sol\":1855:1862  owner() */\n      tag_349\n        /* \"@openzeppelin/contracts/access/Ownable.sol\":1855:1860  owner */\n      tag_117\n        /* \"@openzeppelin/contracts/access/Ownable.sol\":1855:1862  owner() */\n      jump\t// in\n    tag_349:\n        /* \"@openzeppelin/contracts/access/Ownable.sol\":1855:1878  owner() != _msgSender() */\n      0xffffffffffffffffffffffffffffffffffffffff\n      and\n      eq\n        /* \"@openzeppelin/contracts/access/Ownable.sol\":1851:1952  if (owner() != _msgSender()) {... */\n      tag_350\n      jumpi\n        /* \"@openzeppelin/contracts/access/Ownable.sol\":1928:1940  _msgSender() */\n      tag_351\n        /* \"@openzeppelin/contracts/access/Ownable.sol\":1928:1938  _msgSender */\n      tag_167\n        /* \"@openzeppelin/contracts/access/Ownable.sol\":1928:1940  _msgSender() */\n      jump\t// in\n    tag_351:\n        /* \"@openzeppelin/contracts/access/Ownable.sol\":1901:1941  OwnableUnauthorizedAccount(_msgSender()) */\n      mload(0x40)\n      0x118cdaa700000000000000000000000000000000000000000000000000000000\n      dup2\n      mstore\n      0x04\n      add\n      tag_352\n      swap2\n      swap1\n      tag_84\n      jump\t// in\n    tag_352:\n      mload(0x40)\n      dup1\n      swap2\n      sub\n      swap1\n      revert\n        /* \"@openzeppelin/contracts/access/Ownable.sol\":1851:1952  if (owner() != _msgSender()) {... */\n    tag_350:\n        /* \"@openzeppelin/contracts/access/Ownable.sol\":1796:1958  function _checkOwner() internal view virtual {... */\n      jump\t// out\n        /* \"@openzeppelin/contracts/utils/math/SafeMath.sol\":3122:3218  function sub(uint256 a, uint256 b) internal pure returns (uint256) {... */\n    tag_181:\n        /* \"@openzeppelin/contracts/utils/math/SafeMath.sol\":3180:3187  uint256 */\n      0x00\n        /* \"@openzeppelin/contracts/utils/math/SafeMath.sol\":3210:3211  b */\n      dup2\n        /* \"@openzeppelin/contracts/utils/math/SafeMath.sol\":3206:3207  a */\n      dup4\n        /* \"@openzeppelin/contracts/utils/math/SafeMath.sol\":3206:3211  a - b */\n      tag_354\n      swap2\n      swap1\n      tag_235\n      jump\t// in\n    tag_354:\n        /* \"@openzeppelin/contracts/utils/math/SafeMath.sol\":3199:3211  return a - b */\n      swap1\n      pop\n        /* \"@openzeppelin/contracts/utils/math/SafeMath.sol\":3122:3218  function sub(uint256 a, uint256 b) internal pure returns (uint256) {... */\n      swap3\n      swap2\n      pop\n      pop\n      jump\t// out\n        /* \"@openzeppelin/contracts/utils/math/SafeMath.sol\":3465:3561  function mul(uint256 a, uint256 b) internal pure returns (uint256) {... */\n    tag_188:\n        /* \"@openzeppelin/contracts/utils/math/SafeMath.sol\":3523:3530  uint256 */\n      0x00\n        /* \"@openzeppelin/contracts/utils/math/SafeMath.sol\":3553:3554  b */\n      dup2\n        /* \"@openzeppelin/contracts/utils/math/SafeMath.sol\":3549:3550  a */\n      dup4\n        /* \"@openzeppelin/contracts/utils/math/SafeMath.sol\":3549:3554  a * b */\n      tag_356\n      swap2\n      swap1\n      tag_185\n      jump\t// in\n    tag_356:\n        /* \"@openzeppelin/contracts/utils/math/SafeMath.sol\":3542:3554  return a * b */\n      swap1\n      pop\n        /* \"@openzeppelin/contracts/utils/math/SafeMath.sol\":3465:3561  function mul(uint256 a, uint256 b) internal pure returns (uint256) {... */\n      swap3\n      swap2\n      pop\n      pop\n      jump\t// out\n        /* \"@openzeppelin/contracts/utils/math/SafeMath.sol\":3850:3946  function div(uint256 a, uint256 b) internal pure returns (uint256) {... */\n    tag_189:\n        /* \"@openzeppelin/contracts/utils/math/SafeMath.sol\":3908:3915  uint256 */\n      0x00\n        /* \"@openzeppelin/contracts/utils/math/SafeMath.sol\":3938:3939  b */\n      dup2\n        /* \"@openzeppelin/contracts/utils/math/SafeMath.sol\":3934:3935  a */\n      dup4\n        /* \"@openzeppelin/contracts/utils/math/SafeMath.sol\":3934:3939  a / b */\n      tag_358\n      swap2\n      swap1\n      tag_187\n      jump\t// in\n    tag_358:\n        /* \"@openzeppelin/contracts/utils/math/SafeMath.sol\":3927:3939  return a / b */\n      swap1\n      pop\n        /* \"@openzeppelin/contracts/utils/math/SafeMath.sol\":3850:3946  function div(uint256 a, uint256 b) internal pure returns (uint256) {... */\n      swap3\n      swap2\n      pop\n      pop\n      jump\t// out\n        /* \"@openzeppelin/contracts/utils/math/SafeMath.sol\":2755:2851  function add(uint256 a, uint256 b) internal pure returns (uint256) {... */\n    tag_195:\n        /* \"@openzeppelin/contracts/utils/math/SafeMath.sol\":2813:2820  uint256 */\n      0x00\n        /* \"@openzeppelin/contracts/utils/math/SafeMath.sol\":2843:2844  b */\n      dup2\n        /* \"@openzeppelin/contracts/utils/math/SafeMath.sol\":2839:2840  a */\n      dup4\n        /* \"@openzeppelin/contracts/utils/math/SafeMath.sol\":2839:2844  a + b */\n      tag_360\n      swap2\n      swap1\n      tag_361\n      jump\t// in\n    tag_360:\n        /* \"@openzeppelin/contracts/utils/math/SafeMath.sol\":2832:2844  return a + b */\n      swap1\n      pop\n        /* \"@openzeppelin/contracts/utils/math/SafeMath.sol\":2755:2851  function add(uint256 a, uint256 b) internal pure returns (uint256) {... */\n      swap3\n      swap2\n      pop\n      pop\n      jump\t// out\n        /* \"@openzeppelin/contracts/token/ERC20/ERC20.sol\":5393:5693  function _transfer(address from, address to, uint256 value) internal {... */\n    tag_198:\n        /* \"@openzeppelin/contracts/token/ERC20/ERC20.sol\":5492:5493  0 */\n      0x00\n        /* \"@openzeppelin/contracts/token/ERC20/ERC20.sol\":5476:5494  from == address(0) */\n      0xffffffffffffffffffffffffffffffffffffffff\n      and\n        /* \"@openzeppelin/contracts/token/ERC20/ERC20.sol\":5476:5480  from */\n      dup4\n        /* \"@openzeppelin/contracts/token/ERC20/ERC20.sol\":5476:5494  from == address(0) */\n      0xffffffffffffffffffffffffffffffffffffffff\n      and\n      sub\n        /* \"@openzeppelin/contracts/token/ERC20/ERC20.sol\":5472:5558  if (from == address(0)) {... */\n      tag_363\n      jumpi\n        /* \"@openzeppelin/contracts/token/ERC20/ERC20.sol\":5544:5545  0 */\n      0x00\n        /* \"@openzeppelin/contracts/token/ERC20/ERC20.sol\":5517:5547  ERC20InvalidSender(address(0)) */\n      mload(0x40)\n      0x96c6fd1e00000000000000000000000000000000000000000000000000000000\n      dup2\n      mstore\n      0x04\n      add\n      tag_364\n      swap2\n      swap1\n      tag_84\n      jump\t// in\n    tag_364:\n      mload(0x40)\n      dup1\n      swap2\n      sub\n      swap1\n      revert\n        /* \"@openzeppelin/contracts/token/ERC20/ERC20.sol\":5472:5558  if (from == address(0)) {... */\n    tag_363:\n        /* \"@openzeppelin/contracts/token/ERC20/ERC20.sol\":5585:5586  0 */\n      0x00\n        /* \"@openzeppelin/contracts/token/ERC20/ERC20.sol\":5571:5587  to == address(0) */\n      0xffffffffffffffffffffffffffffffffffffffff\n      and\n        /* \"@openzeppelin/contracts/token/ERC20/ERC20.sol\":5571:5573  to */\n      dup3\n        /* \"@openzeppelin/contracts/token/ERC20/ERC20.sol\":5571:5587  to == address(0) */\n      0xffffffffffffffffffffffffffffffffffffffff\n      and\n      sub\n        /* \"@openzeppelin/contracts/token/ERC20/ERC20.sol\":5567:5653  if (to == address(0)) {... */\n      tag_365\n      jumpi\n        /* \"@openzeppelin/contracts/token/ERC20/ERC20.sol\":5639:5640  0 */\n      0x00\n        /* \"@openzeppelin/contracts/token/ERC20/ERC20.sol\":5610:5642  ERC20InvalidReceiver(address(0)) */\n      mload(0x40)\n      0xec442f0500000000000000000000000000000000000000000000000000000000\n      dup2\n      mstore\n      0x04\n      add\n      tag_366\n      swap2\n      swap1\n      tag_84\n      jump\t// in\n    tag_366:\n      mload(0x40)\n      dup1\n      swap2\n      sub\n      swap1\n      revert\n        /* \"@openzeppelin/contracts/token/ERC20/ERC20.sol\":5567:5653  if (to == address(0)) {... */\n    tag_365:\n        /* \"@openzeppelin/contracts/token/ERC20/ERC20.sol\":5662:5686  _update(from, to, value) */\n      tag_367\n        /* \"@openzeppelin/contracts/token/ERC20/ERC20.sol\":5670:5674  from */\n      dup4\n        /* \"@openzeppelin/contracts/token/ERC20/ERC20.sol\":5676:5678  to */\n      dup4\n        /* \"@openzeppelin/contracts/token/ERC20/ERC20.sol\":5680:5685  value */\n      dup4\n        /* \"@openzeppelin/contracts/token/ERC20/ERC20.sol\":5662:5669  _update */\n      tag_368\n        /* \"@openzeppelin/contracts/token/ERC20/ERC20.sol\":5662:5686  _update(from, to, value) */\n      jump\t// in\n    tag_367:\n        /* \"@openzeppelin/contracts/token/ERC20/ERC20.sol\":5393:5693  function _transfer(address from, address to, uint256 value) internal {... */\n      pop\n      pop\n      pop\n      jump\t// out\n        /* \"@openzeppelin/contracts/security/ReentrancyGuard.sol\":2629:2838  function _nonReentrantAfter() private {... */\n    tag_200:\n        /* \"@openzeppelin/contracts/security/ReentrancyGuard.sol\":1716:1717  1 */\n      0x01\n        /* \"@openzeppelin/contracts/security/ReentrancyGuard.sol\":2809:2816  _status */\n      0x06\n        /* \"@openzeppelin/contracts/security/ReentrancyGuard.sol\":2809:2831  _status = _NOT_ENTERED */\n      dup2\n      swap1\n      sstore\n      pop\n        /* \"@openzeppelin/contracts/security/ReentrancyGuard.sol\":2629:2838  function _nonReentrantAfter() private {... */\n      jump\t// out\n        /* \"@openzeppelin/contracts/token/ERC20/ERC20.sol\":10415:10891  function _spendAllowance(address owner, address spender, uint256 value) internal virtual {... */\n    tag_209:\n        /* \"@openzeppelin/contracts/token/ERC20/ERC20.sol\":10514:10538  uint256 currentAllowance */\n      0x00\n        /* \"@openzeppelin/contracts/token/ERC20/ERC20.sol\":10541:10566  allowance(owner, spender) */\n      tag_371\n        /* \"@openzeppelin/contracts/token/ERC20/ERC20.sol\":10551:10556  owner */\n      dup5\n        /* \"@openzeppelin/contracts/token/ERC20/ERC20.sol\":10558:10565  spender */\n      dup5\n        /* \"@openzeppelin/contracts/token/ERC20/ERC20.sol\":10541:10550  allowance */\n      tag_147\n        /* \"@openzeppelin/contracts/token/ERC20/ERC20.sol\":10541:10566  allowance(owner, spender) */\n      jump\t// in\n    tag_371:\n        /* \"@openzeppelin/contracts/token/ERC20/ERC20.sol\":10514:10566  uint256 currentAllowance = allowance(owner, spender) */\n      swap1\n      pop\n        /* \"@openzeppelin/contracts/token/ERC20/ERC20.sol\":10599:10616  type(uint256).max */\n      0xffffffffffffffffffffffffffffffffffffffffffffffffffffffffffffffff\n        /* \"@openzeppelin/contracts/token/ERC20/ERC20.sol\":10580:10596  currentAllowance */\n      dup2\n        /* \"@openzeppelin/contracts/token/ERC20/ERC20.sol\":10580:10616  currentAllowance < type(uint256).max */\n      lt\n        /* \"@openzeppelin/contracts/token/ERC20/ERC20.sol\":10576:10885  if (currentAllowance < type(uint256).max) {... */\n      iszero\n      tag_372\n      jumpi\n        /* \"@openzeppelin/contracts/token/ERC20/ERC20.sol\":10655:10660  value */\n      dup2\n        /* \"@openzeppelin/contracts/token/ERC20/ERC20.sol\":10636:10652  currentAllowance */\n      dup2\n        /* \"@openzeppelin/contracts/token/ERC20/ERC20.sol\":10636:10660  currentAllowance < value */\n      lt\n        /* \"@openzeppelin/contracts/token/ERC20/ERC20.sol\":10632:10762  if (currentAllowance < value) {... */\n      iszero\n      tag_373\n      jumpi\n        /* \"@openzeppelin/contracts/token/ERC20/ERC20.sol\":10714:10721  spender */\n      dup3\n        /* \"@openzeppelin/contracts/token/ERC20/ERC20.sol\":10723:10739  currentAllowance */\n      dup2\n        /* \"@openzeppelin/contracts/token/ERC20/ERC20.sol\":10741:10746  value */\n      dup4\n        /* \"@openzeppelin/contracts/token/ERC20/ERC20.sol\":10687:10747  ERC20InsufficientAllowance(spender, currentAllowance, value) */\n      mload(0x40)\n      0xfb8f41b200000000000000000000000000000000000000000000000000000000\n      dup2\n      mstore\n      0x04\n      add\n      tag_374\n      swap4\n      swap3\n      swap2\n      swap1\n      tag_375\n      jump\t// in\n    tag_374:\n      mload(0x40)\n      dup1\n      swap2\n      sub\n      swap1\n      revert\n        /* \"@openzeppelin/contracts/token/ERC20/ERC20.sol\":10632:10762  if (currentAllowance < value) {... */\n    tag_373:\n        /* \"@openzeppelin/contracts/token/ERC20/ERC20.sol\":10803:10860  _approve(owner, spender, currentAllowance - value, false) */\n      tag_376\n        /* \"@openzeppelin/contracts/token/ERC20/ERC20.sol\":10812:10817  owner */\n      dup5\n        /* \"@openzeppelin/contracts/token/ERC20/ERC20.sol\":10819:10826  spender */\n      dup5\n        /* \"@openzeppelin/contracts/token/ERC20/ERC20.sol\":10847:10852  value */\n      dup5\n        /* \"@openzeppelin/contracts/token/ERC20/ERC20.sol\":10828:10844  currentAllowance */\n      dup5\n        /* \"@openzeppelin/contracts/token/ERC20/ERC20.sol\":10828:10852  currentAllowance - value */\n      sub\n        /* \"@openzeppelin/contracts/token/ERC20/ERC20.sol\":10854:10859  false */\n      0x00\n        /* \"@openzeppelin/contracts/token/ERC20/ERC20.sol\":10803:10811  _approve */\n      tag_342\n        /* \"@openzeppelin/contracts/token/ERC20/ERC20.sol\":10803:10860  _approve(owner, spender, currentAllowance - value, false) */\n      jump\t// in\n    tag_376:\n        /* \"@openzeppelin/contracts/token/ERC20/ERC20.sol\":10576:10885  if (currentAllowance < type(uint256).max) {... */\n    tag_372:\n        /* \"@openzeppelin/contracts/token/ERC20/ERC20.sol\":10504:10891  {... */\n      pop\n        /* \"@openzeppelin/contracts/token/ERC20/ERC20.sol\":10415:10891  function _spendAllowance(address owner, address spender, uint256 value) internal virtual {... */\n      pop\n      pop\n      pop\n      jump\t// out\n        /* \"@openzeppelin/contracts/token/ERC20/ERC20.sol\":7984:8190  function _burn(address account, uint256 value) internal {... */\n    tag_255:\n        /* \"@openzeppelin/contracts/token/ERC20/ERC20.sol\":8073:8074  0 */\n      0x00\n        /* \"@openzeppelin/contracts/token/ERC20/ERC20.sol\":8054:8075  account == address(0) */\n      0xffffffffffffffffffffffffffffffffffffffff\n      and\n        /* \"@openzeppelin/contracts/token/ERC20/ERC20.sol\":8054:8061  account */\n      dup3\n        /* \"@openzeppelin/contracts/token/ERC20/ERC20.sol\":8054:8075  account == address(0) */\n      0xffffffffffffffffffffffffffffffffffffffff\n      and\n      sub\n        /* \"@openzeppelin/contracts/token/ERC20/ERC20.sol\":8050:8139  if (account == address(0)) {... */\n      tag_378\n      jumpi\n        /* \"@openzeppelin/contracts/token/ERC20/ERC20.sol\":8125:8126  0 */\n      0x00\n        /* \"@openzeppelin/contracts/token/ERC20/ERC20.sol\":8098:8128  ERC20InvalidSender(address(0)) */\n      mload(0x40)\n      0x96c6fd1e00000000000000000000000000000000000000000000000000000000\n      dup2\n      mstore\n      0x04\n      add\n      tag_379\n      swap2\n      swap1\n      tag_84\n      jump\t// in\n    tag_379:\n      mload(0x40)\n      dup1\n      swap2\n      sub\n      swap1\n      revert\n        /* \"@openzeppelin/contracts/token/ERC20/ERC20.sol\":8050:8139  if (account == address(0)) {... */\n    tag_378:\n        /* \"@openzeppelin/contracts/token/ERC20/ERC20.sol\":8148:8183  _update(account, address(0), value) */\n      tag_380\n        /* \"@openzeppelin/contracts/token/ERC20/ERC20.sol\":8156:8163  account */\n      dup3\n        /* \"@openzeppelin/contracts/token/ERC20/ERC20.sol\":8173:8174  0 */\n      0x00\n        /* \"@openzeppelin/contracts/token/ERC20/ERC20.sol\":8177:8182  value */\n      dup4\n        /* \"@openzeppelin/contracts/token/ERC20/ERC20.sol\":8148:8155  _update */\n      tag_368\n        /* \"@openzeppelin/contracts/token/ERC20/ERC20.sol\":8148:8183  _update(account, address(0), value) */\n      jump\t// in\n    tag_380:\n        /* \"@openzeppelin/contracts/token/ERC20/ERC20.sol\":7984:8190  function _burn(address account, uint256 value) internal {... */\n      pop\n      pop\n      jump\t// out\n        /* \"@openzeppelin/contracts/access/Ownable.sol\":2912:3099  function _transferOwnership(address newOwner) internal virtual {... */\n    tag_263:\n        /* \"@openzeppelin/contracts/access/Ownable.sol\":2985:3001  address oldOwner */\n      0x00\n        /* \"@openzeppelin/contracts/access/Ownable.sol\":3004:3010  _owner */\n      0x05\n      0x00\n      swap1\n      sload\n      swap1\n      0x0100\n      exp\n      swap1\n      div\n      0xffffffffffffffffffffffffffffffffffffffff\n      and\n        /* \"@openzeppelin/contracts/access/Ownable.sol\":2985:3010  address oldOwner = _owner */\n      swap1\n      pop\n        /* \"@openzeppelin/contracts/access/Ownable.sol\":3029:3037  newOwner */\n      dup2\n        /* \"@openzeppelin/contracts/access/Ownable.sol\":3020:3026  _owner */\n      0x05\n      0x00\n        /* \"@openzeppelin/contracts/access/Ownable.sol\":3020:3037  _owner = newOwner */\n      0x0100\n      exp\n      dup2\n      sload\n      dup2\n      0xffffffffffffffffffffffffffffffffffffffff\n      mul\n      not\n      and\n      swap1\n      dup4\n      0xffffffffffffffffffffffffffffffffffffffff\n      and\n      mul\n      or\n      swap1\n      sstore\n      pop\n        /* \"@openzeppelin/contracts/access/Ownable.sol\":3083:3091  newOwner */\n      dup2\n        /* \"@openzeppelin/contracts/access/Ownable.sol\":3052:3092  OwnershipTransferred(oldOwner, newOwner) */\n      0xffffffffffffffffffffffffffffffffffffffff\n      and\n        /* \"@openzeppelin/contracts/access/Ownable.sol\":3073:3081  oldOwner */\n      dup2\n        /* \"@openzeppelin/contracts/access/Ownable.sol\":3052:3092  OwnershipTransferred(oldOwner, newOwner) */\n      0xffffffffffffffffffffffffffffffffffffffff\n      and\n      0x8be0079c531659141344cd1fd0a4f28419497f9722a3daafe3b4186f6b6457e0\n      mload(0x40)\n      mload(0x40)\n      dup1\n      swap2\n      sub\n      swap1\n      log3\n        /* \"@openzeppelin/contracts/access/Ownable.sol\":2975:3099  {... */\n      pop\n        /* \"@openzeppelin/contracts/access/Ownable.sol\":2912:3099  function _transferOwnership(address newOwner) internal virtual {... */\n      pop\n      jump\t// out\n        /* \"contracts/PingPongPlay.sol\":7358:7989  function _getAllStakers() internal view returns (address[] memory) {... */\n    tag_304:\n        /* \"contracts/PingPongPlay.sol\":7407:7423  address[] memory */\n      0x60\n        /* \"contracts/PingPongPlay.sol\":7435:7454  uint256 stakerCount */\n      0x00\n        /* \"contracts/PingPongPlay.sol\":7457:7458  0 */\n      0x00\n        /* \"contracts/PingPongPlay.sol\":7435:7458  uint256 stakerCount = 0 */\n      swap1\n      pop\n        /* \"contracts/PingPongPlay.sol\":7473:7479  uint i */\n      0x00\n        /* \"contracts/PingPongPlay.sol\":7482:7483  0 */\n      0x00\n        /* \"contracts/PingPongPlay.sol\":7473:7483  uint i = 0 */\n      swap1\n      pop\n        /* \"contracts/PingPongPlay.sol\":7468:7653  for (uint i = 0; i < stakeAddresses.length; i++) {... */\n    tag_383:\n        /* \"contracts/PingPongPlay.sol\":7489:7503  stakeAddresses */\n      0x0a\n        /* \"contracts/PingPongPlay.sol\":7489:7510  stakeAddresses.length */\n      dup1\n      sload\n      swap1\n      pop\n        /* \"contracts/PingPongPlay.sol\":7485:7486  i */\n      dup2\n        /* \"contracts/PingPongPlay.sol\":7485:7510  i < stakeAddresses.length */\n      lt\n        /* \"contracts/PingPongPlay.sol\":7468:7653  for (uint i = 0; i < stakeAddresses.length; i++) {... */\n      iszero\n      tag_384\n      jumpi\n        /* \"contracts/PingPongPlay.sol\":7570:7571  0 */\n      0x00\n        /* \"contracts/PingPongPlay.sol\":7535:7541  stakes */\n      0x09\n        /* \"contracts/PingPongPlay.sol\":7535:7560  stakes[stakeAddresses[i]] */\n      0x00\n        /* \"contracts/PingPongPlay.sol\":7542:7556  stakeAddresses */\n      0x0a\n        /* \"contracts/PingPongPlay.sol\":7557:7558  i */\n      dup5\n        /* \"contracts/PingPongPlay.sol\":7542:7559  stakeAddresses[i] */\n      dup2\n      sload\n      dup2\n      lt\n      tag_386\n      jumpi\n      tag_387\n      tag_231\n      jump\t// in\n    tag_387:\n    tag_386:\n      swap1\n      0x00\n      mstore\n      keccak256(0x00, 0x20)\n      add\n      0x00\n      swap1\n      sload\n      swap1\n      0x0100\n      exp\n      swap1\n      div\n      0xffffffffffffffffffffffffffffffffffffffff\n      and\n        /* \"contracts/PingPongPlay.sol\":7535:7560  stakes[stakeAddresses[i]] */\n      0xffffffffffffffffffffffffffffffffffffffff\n      and\n      0xffffffffffffffffffffffffffffffffffffffff\n      and\n      dup2\n      mstore\n      0x20\n      add\n      swap1\n      dup2\n      mstore\n      0x20\n      add\n      0x00\n      keccak256\n        /* \"contracts/PingPongPlay.sol\":7535:7567  stakes[stakeAddresses[i]].amount */\n      0x00\n      add\n      sload\n        /* \"contracts/PingPongPlay.sol\":7535:7571  stakes[stakeAddresses[i]].amount > 0 */\n      gt\n        /* \"contracts/PingPongPlay.sol\":7531:7643  if (stakes[stakeAddresses[i]].amount > 0) { // corrected line here!... */\n      iszero\n      tag_389\n      jumpi\n        /* \"contracts/PingPongPlay.sol\":7615:7628  stakerCount++ */\n      dup2\n      dup1\n      tag_390\n      swap1\n      tag_391\n      jump\t// in\n    tag_390:\n      swap3\n      pop\n      pop\n        /* \"contracts/PingPongPlay.sol\":7531:7643  if (stakes[stakeAddresses[i]].amount > 0) { // corrected line here!... */\n    tag_389:\n        /* \"contracts/PingPongPlay.sol\":7512:7515  i++ */\n      dup1\n      dup1\n      0x01\n      add\n      swap2\n      pop\n      pop\n        /* \"contracts/PingPongPlay.sol\":7468:7653  for (uint i = 0; i < stakeAddresses.length; i++) {... */\n      jump(tag_383)\n    tag_384:\n      pop\n        /* \"contracts/PingPongPlay.sol\":7662:7686  address[] memory stakers */\n      0x00\n        /* \"contracts/PingPongPlay.sol\":7703:7714  stakerCount */\n      dup2\n        /* \"contracts/PingPongPlay.sol\":7689:7715  new address[](stakerCount) */\n      0xffffffffffffffff\n      dup2\n      gt\n      iszero\n      tag_392\n      jumpi\n      tag_393\n      tag_394\n      jump\t// in\n    tag_393:\n    tag_392:\n      mload(0x40)\n      swap1\n      dup1\n      dup3\n      mstore\n      dup1\n      0x20\n      mul\n      0x20\n      add\n      dup3\n      add\n      0x40\n      mstore\n      dup1\n      iszero\n      tag_395\n      jumpi\n      dup2\n      0x20\n      add\n      0x20\n      dup3\n      mul\n      dup1\n      calldatasize\n      dup4\n      calldatacopy\n      dup1\n      dup3\n      add\n      swap2\n      pop\n      pop\n      swap1\n      pop\n    tag_395:\n      pop\n        /* \"contracts/PingPongPlay.sol\":7662:7715  address[] memory stakers = new address[](stakerCount) */\n      swap1\n      pop\n        /* \"contracts/PingPongPlay.sol\":7725:7738  uint256 index */\n      0x00\n        /* \"contracts/PingPongPlay.sol\":7741:7742  0 */\n      0x00\n        /* \"contracts/PingPongPlay.sol\":7725:7742  uint256 index = 0 */\n      swap1\n      pop\n        /* \"contracts/PingPongPlay.sol\":7757:7763  uint i */\n      0x00\n        /* \"contracts/PingPongPlay.sol\":7766:7767  0 */\n      0x00\n        /* \"contracts/PingPongPlay.sol\":7757:7767  uint i = 0 */\n      swap1\n      pop\n        /* \"contracts/PingPongPlay.sol\":7752:7959  for (uint i = 0; i < stakeAddresses.length; i++) {... */\n    tag_396:\n        /* \"contracts/PingPongPlay.sol\":7773:7787  stakeAddresses */\n      0x0a\n        /* \"contracts/PingPongPlay.sol\":7773:7794  stakeAddresses.length */\n      dup1\n      sload\n      swap1\n      pop\n        /* \"contracts/PingPongPlay.sol\":7769:7770  i */\n      dup2\n        /* \"contracts/PingPongPlay.sol\":7769:7794  i < stakeAddresses.length */\n      lt\n        /* \"contracts/PingPongPlay.sol\":7752:7959  for (uint i = 0; i < stakeAddresses.length; i++) {... */\n      iszero\n      tag_397\n      jumpi\n        /* \"contracts/PingPongPlay.sol\":7854:7855  0 */\n      0x00\n        /* \"contracts/PingPongPlay.sol\":7819:7825  stakes */\n      0x09\n        /* \"contracts/PingPongPlay.sol\":7819:7844  stakes[stakeAddresses[i]] */\n      0x00\n        /* \"contracts/PingPongPlay.sol\":7826:7840  stakeAddresses */\n      0x0a\n        /* \"contracts/PingPongPlay.sol\":7841:7842  i */\n      dup5\n        /* \"contracts/PingPongPlay.sol\":7826:7843  stakeAddresses[i] */\n      dup2\n      sload\n      dup2\n      lt\n      tag_399\n      jumpi\n      tag_400\n      tag_231\n      jump\t// in\n    tag_400:\n    tag_399:\n      swap1\n      0x00\n      mstore\n      keccak256(0x00, 0x20)\n      add\n      0x00\n      swap1\n      sload\n      swap1\n      0x0100\n      exp\n      swap1\n      div\n      0xffffffffffffffffffffffffffffffffffffffff\n      and\n        /* \"contracts/PingPongPlay.sol\":7819:7844  stakes[stakeAddresses[i]] */\n      0xffffffffffffffffffffffffffffffffffffffff\n      and\n      0xffffffffffffffffffffffffffffffffffffffff\n      and\n      dup2\n      mstore\n      0x20\n      add\n      swap1\n      dup2\n      mstore\n      0x20\n      add\n      0x00\n      keccak256\n        /* \"contracts/PingPongPlay.sol\":7819:7851  stakes[stakeAddresses[i]].amount */\n      0x00\n      add\n      sload\n        /* \"contracts/PingPongPlay.sol\":7819:7855  stakes[stakeAddresses[i]].amount > 0 */\n      gt\n        /* \"contracts/PingPongPlay.sol\":7815:7949  if (stakes[stakeAddresses[i]].amount > 0) {... */\n      iszero\n      tag_402\n      jumpi\n        /* \"contracts/PingPongPlay.sol\":7892:7906  stakeAddresses */\n      0x0a\n        /* \"contracts/PingPongPlay.sol\":7907:7908  i */\n      dup2\n        /* \"contracts/PingPongPlay.sol\":7892:7909  stakeAddresses[i] */\n      dup2\n      sload\n      dup2\n      lt\n      tag_403\n      jumpi\n      tag_404\n      tag_231\n      jump\t// in\n    tag_404:\n    tag_403:\n      swap1\n      0x00\n      mstore\n      keccak256(0x00, 0x20)\n      add\n      0x00\n      swap1\n      sload\n      swap1\n      0x0100\n      exp\n      swap1\n      div\n      0xffffffffffffffffffffffffffffffffffffffff\n      and\n        /* \"contracts/PingPongPlay.sol\":7875:7882  stakers */\n      dup4\n        /* \"contracts/PingPongPlay.sol\":7883:7888  index */\n      dup4\n        /* \"contracts/PingPongPlay.sol\":7875:7889  stakers[index] */\n      dup2\n      mload\n      dup2\n      lt\n      tag_406\n      jumpi\n      tag_407\n      tag_231\n      jump\t// in\n    tag_407:\n    tag_406:\n      0x20\n      mul\n      0x20\n      add\n      add\n        /* \"contracts/PingPongPlay.sol\":7875:7909  stakers[index] = stakeAddresses[i] */\n      swap1\n      0xffffffffffffffffffffffffffffffffffffffff\n      and\n      swap1\n      dup2\n      0xffffffffffffffffffffffffffffffffffffffff\n      and\n      dup2\n      mstore\n      pop\n      pop\n        /* \"contracts/PingPongPlay.sol\":7927:7934  index++ */\n      dup2\n      dup1\n      tag_408\n      swap1\n      tag_391\n      jump\t// in\n    tag_408:\n      swap3\n      pop\n      pop\n        /* \"contracts/PingPongPlay.sol\":7815:7949  if (stakes[stakeAddresses[i]].amount > 0) {... */\n    tag_402:\n        /* \"contracts/PingPongPlay.sol\":7796:7799  i++ */\n      dup1\n      dup1\n      0x01\n      add\n      swap2\n      pop\n      pop\n        /* \"contracts/PingPongPlay.sol\":7752:7959  for (uint i = 0; i < stakeAddresses.length; i++) {... */\n      jump(tag_396)\n    tag_397:\n      pop\n        /* \"contracts/PingPongPlay.sol\":7975:7982  stakers */\n      dup2\n        /* \"contracts/PingPongPlay.sol\":7968:7982  return stakers */\n      swap4\n      pop\n      pop\n      pop\n      pop\n        /* \"contracts/PingPongPlay.sol\":7358:7989  function _getAllStakers() internal view returns (address[] memory) {... */\n      swap1\n      jump\t// out\n        /* \"@openzeppelin/contracts/token/ERC20/ERC20.sol\":9701:10133  function _approve(address owner, address spender, uint256 value, bool emitEvent) internal virtual {... */\n    tag_342:\n        /* \"@openzeppelin/contracts/token/ERC20/ERC20.sol\":9830:9831  0 */\n      0x00\n        /* \"@openzeppelin/contracts/token/ERC20/ERC20.sol\":9813:9832  owner == address(0) */\n      0xffffffffffffffffffffffffffffffffffffffff\n      and\n        /* \"@openzeppelin/contracts/token/ERC20/ERC20.sol\":9813:9818  owner */\n      dup5\n        /* \"@openzeppelin/contracts/token/ERC20/ERC20.sol\":9813:9832  owner == address(0) */\n      0xffffffffffffffffffffffffffffffffffffffff\n      and\n      sub\n        /* \"@openzeppelin/contracts/token/ERC20/ERC20.sol\":9809:9898  if (owner == address(0)) {... */\n      tag_410\n      jumpi\n        /* \"@openzeppelin/contracts/token/ERC20/ERC20.sol\":9884:9885  0 */\n      0x00\n        /* \"@openzeppelin/contracts/token/ERC20/ERC20.sol\":9855:9887  ERC20InvalidApprover(address(0)) */\n      mload(0x40)\n      0xe602df0500000000000000000000000000000000000000000000000000000000\n      dup2\n      mstore\n      0x04\n      add\n      tag_411\n      swap2\n      swap1\n      tag_84\n      jump\t// in\n    tag_411:\n      mload(0x40)\n      dup1\n      swap2\n      sub\n      swap1\n      revert\n        /* \"@openzeppelin/contracts/token/ERC20/ERC20.sol\":9809:9898  if (owner == address(0)) {... */\n    tag_410:\n        /* \"@openzeppelin/contracts/token/ERC20/ERC20.sol\":9930:9931  0 */\n      0x00\n        /* \"@openzeppelin/contracts/token/ERC20/ERC20.sol\":9911:9932  spender == address(0) */\n      0xffffffffffffffffffffffffffffffffffffffff\n      and\n        /* \"@openzeppelin/contracts/token/ERC20/ERC20.sol\":9911:9918  spender */\n      dup4\n        /* \"@openzeppelin/contracts/token/ERC20/ERC20.sol\":9911:9932  spender == address(0) */\n      0xffffffffffffffffffffffffffffffffffffffff\n      and\n      sub\n        /* \"@openzeppelin/contracts/token/ERC20/ERC20.sol\":9907:9997  if (spender == address(0)) {... */\n      tag_412\n      jumpi\n        /* \"@openzeppelin/contracts/token/ERC20/ERC20.sol\":9983:9984  0 */\n      0x00\n        /* \"@openzeppelin/contracts/token/ERC20/ERC20.sol\":9955:9986  ERC20InvalidSpender(address(0)) */\n      mload(0x40)\n      0x94280d6200000000000000000000000000000000000000000000000000000000\n      dup2\n      mstore\n      0x04\n      add\n      tag_413\n      swap2\n      swap1\n      tag_84\n      jump\t// in\n    tag_413:\n      mload(0x40)\n      dup1\n      swap2\n      sub\n      swap1\n      revert\n        /* \"@openzeppelin/contracts/token/ERC20/ERC20.sol\":9907:9997  if (spender == address(0)) {... */\n    tag_412:\n        /* \"@openzeppelin/contracts/token/ERC20/ERC20.sol\":10036:10041  value */\n      dup2\n        /* \"@openzeppelin/contracts/token/ERC20/ERC20.sol\":10006:10017  _allowances */\n      0x01\n        /* \"@openzeppelin/contracts/token/ERC20/ERC20.sol\":10006:10024  _allowances[owner] */\n      0x00\n        /* \"@openzeppelin/contracts/token/ERC20/ERC20.sol\":10018:10023  owner */\n      dup7\n        /* \"@openzeppelin/contracts/token/ERC20/ERC20.sol\":10006:10024  _allowances[owner] */\n      0xffffffffffffffffffffffffffffffffffffffff\n      and\n      0xffffffffffffffffffffffffffffffffffffffff\n      and\n      dup2\n      mstore\n      0x20\n      add\n      swap1\n      dup2\n      mstore\n      0x20\n      add\n      0x00\n      keccak256\n        /* \"@openzeppelin/contracts/token/ERC20/ERC20.sol\":10006:10033  _allowances[owner][spender] */\n      0x00\n        /* \"@openzeppelin/contracts/token/ERC20/ERC20.sol\":10025:10032  spender */\n      dup6\n        /* \"@openzeppelin/contracts/token/ERC20/ERC20.sol\":10006:10033  _allowances[owner][spender] */\n      0xffffffffffffffffffffffffffffffffffffffff\n      and\n      0xffffffffffffffffffffffffffffffffffffffff\n      and\n      dup2\n      mstore\n      0x20\n      add\n      swap1\n      dup2\n      mstore\n      0x20\n      add\n      0x00\n      keccak256\n        /* \"@openzeppelin/contracts/token/ERC20/ERC20.sol\":10006:10041  _allowances[owner][spender] = value */\n      dup2\n      swap1\n      sstore\n      pop\n        /* \"@openzeppelin/contracts/token/ERC20/ERC20.sol\":10055:10064  emitEvent */\n      dup1\n        /* \"@openzeppelin/contracts/token/ERC20/ERC20.sol\":10051:10127  if (emitEvent) {... */\n      iszero\n      tag_414\n      jumpi\n        /* \"@openzeppelin/contracts/token/ERC20/ERC20.sol\":10101:10108  spender */\n      dup3\n        /* \"@openzeppelin/contracts/token/ERC20/ERC20.sol\":10085:10116  Approval(owner, spender, value) */\n      0xffffffffffffffffffffffffffffffffffffffff\n      and\n        /* \"@openzeppelin/contracts/token/ERC20/ERC20.sol\":10094:10099  owner */\n      dup5\n        /* \"@openzeppelin/contracts/token/ERC20/ERC20.sol\":10085:10116  Approval(owner, spender, value) */\n      0xffffffffffffffffffffffffffffffffffffffff\n      and\n      0x8c5be1e5ebec7d5bd14f71427d1e84f3dd0314c0f7b2291e5b200ac8c7c3b925\n        /* \"@openzeppelin/contracts/token/ERC20/ERC20.sol\":10110:10115  value */\n      dup5\n        /* \"@openzeppelin/contracts/token/ERC20/ERC20.sol\":10085:10116  Approval(owner, spender, value) */\n      mload(0x40)\n      tag_415\n      swap2\n      swap1\n      tag_58\n      jump\t// in\n    tag_415:\n      mload(0x40)\n      dup1\n      swap2\n      sub\n      swap1\n      log3\n        /* \"@openzeppelin/contracts/token/ERC20/ERC20.sol\":10051:10127  if (emitEvent) {... */\n    tag_414:\n        /* \"@openzeppelin/contracts/token/ERC20/ERC20.sol\":9701:10133  function _approve(address owner, address spender, uint256 value, bool emitEvent) internal virtual {... */\n      pop\n      pop\n      pop\n      pop\n      jump\t// out\n        /* \"@openzeppelin/contracts/token/ERC20/ERC20.sol\":6008:7115  function _update(address from, address to, uint256 value) internal virtual {... */\n    tag_368:\n        /* \"@openzeppelin/contracts/token/ERC20/ERC20.sol\":6113:6114  0 */\n      0x00\n        /* \"@openzeppelin/contracts/token/ERC20/ERC20.sol\":6097:6115  from == address(0) */\n      0xffffffffffffffffffffffffffffffffffffffff\n      and\n        /* \"@openzeppelin/contracts/token/ERC20/ERC20.sol\":6097:6101  from */\n      dup4\n        /* \"@openzeppelin/contracts/token/ERC20/ERC20.sol\":6097:6115  from == address(0) */\n      0xffffffffffffffffffffffffffffffffffffffff\n      and\n      sub\n        /* \"@openzeppelin/contracts/token/ERC20/ERC20.sol\":6093:6633  if (from == address(0)) {... */\n      tag_417\n      jumpi\n        /* \"@openzeppelin/contracts/token/ERC20/ERC20.sol\":6249:6254  value */\n      dup1\n        /* \"@openzeppelin/contracts/token/ERC20/ERC20.sol\":6233:6245  _totalSupply */\n      0x02\n      0x00\n        /* \"@openzeppelin/contracts/token/ERC20/ERC20.sol\":6233:6254  _totalSupply += value */\n      dup3\n      dup3\n      sload\n      tag_418\n      swap2\n      swap1\n      tag_361\n      jump\t// in\n    tag_418:\n      swap3\n      pop\n      pop\n      dup2\n      swap1\n      sstore\n      pop\n        /* \"@openzeppelin/contracts/token/ERC20/ERC20.sol\":6093:6633  if (from == address(0)) {... */\n      jump(tag_419)\n    tag_417:\n        /* \"@openzeppelin/contracts/token/ERC20/ERC20.sol\":6285:6304  uint256 fromBalance */\n      0x00\n        /* \"@openzeppelin/contracts/token/ERC20/ERC20.sol\":6307:6316  _balances */\n      0x00\n        /* \"@openzeppelin/contracts/token/ERC20/ERC20.sol\":6307:6322  _balances[from] */\n      0x00\n        /* \"@openzeppelin/contracts/token/ERC20/ERC20.sol\":6317:6321  from */\n      dup6\n        /* \"@openzeppelin/contracts/token/ERC20/ERC20.sol\":6307:6322  _balances[from] */\n      0xffffffffffffffffffffffffffffffffffffffff\n      and\n      0xffffffffffffffffffffffffffffffffffffffff\n      and\n      dup2\n      mstore\n      0x20\n      add\n      swap1\n      dup2\n      mstore\n      0x20\n      add\n      0x00\n      keccak256\n      sload\n        /* \"@openzeppelin/contracts/token/ERC20/ERC20.sol\":6285:6322  uint256 fromBalance = _balances[from] */\n      swap1\n      pop\n        /* \"@openzeppelin/contracts/token/ERC20/ERC20.sol\":6354:6359  value */\n      dup2\n        /* \"@openzeppelin/contracts/token/ERC20/ERC20.sol\":6340:6351  fromBalance */\n      dup2\n        /* \"@openzeppelin/contracts/token/ERC20/ERC20.sol\":6340:6359  fromBalance < value */\n      lt\n        /* \"@openzeppelin/contracts/token/ERC20/ERC20.sol\":6336:6451  if (fromBalance < value) {... */\n      iszero\n      tag_420\n      jumpi\n        /* \"@openzeppelin/contracts/token/ERC20/ERC20.sol\":6411:6415  from */\n      dup4\n        /* \"@openzeppelin/contracts/token/ERC20/ERC20.sol\":6417:6428  fromBalance */\n      dup2\n        /* \"@openzeppelin/contracts/token/ERC20/ERC20.sol\":6430:6435  value */\n      dup4\n        /* \"@openzeppelin/contracts/token/ERC20/ERC20.sol\":6386:6436  ERC20InsufficientBalance(from, fromBalance, value) */\n      mload(0x40)\n      0xe450d38c00000000000000000000000000000000000000000000000000000000\n      dup2\n      mstore\n      0x04\n      add\n      tag_421\n      swap4\n      swap3\n      swap2\n      swap1\n      tag_375\n      jump\t// in\n    tag_421:\n      mload(0x40)\n      dup1\n      swap2\n      sub\n      swap1\n      revert\n        /* \"@openzeppelin/contracts/token/ERC20/ERC20.sol\":6336:6451  if (fromBalance < value) {... */\n    tag_420:\n        /* \"@openzeppelin/contracts/token/ERC20/ERC20.sol\":6603:6608  value */\n      dup2\n        /* \"@openzeppelin/contracts/token/ERC20/ERC20.sol\":6589:6600  fromBalance */\n      dup2\n        /* \"@openzeppelin/contracts/token/ERC20/ERC20.sol\":6589:6608  fromBalance - value */\n      sub\n        /* \"@openzeppelin/contracts/token/ERC20/ERC20.sol\":6571:6580  _balances */\n      0x00\n        /* \"@openzeppelin/contracts/token/ERC20/ERC20.sol\":6571:6586  _balances[from] */\n      0x00\n        /* \"@openzeppelin/contracts/token/ERC20/ERC20.sol\":6581:6585  from */\n      dup7\n        /* \"@openzeppelin/contracts/token/ERC20/ERC20.sol\":6571:6586  _balances[from] */\n      0xffffffffffffffffffffffffffffffffffffffff\n      and\n      0xffffffffffffffffffffffffffffffffffffffff\n      and\n      dup2\n      mstore\n      0x20\n      add\n      swap1\n      dup2\n      mstore\n      0x20\n      add\n      0x00\n      keccak256\n        /* \"@openzeppelin/contracts/token/ERC20/ERC20.sol\":6571:6608  _balances[from] = fromBalance - value */\n      dup2\n      swap1\n      sstore\n      pop\n        /* \"@openzeppelin/contracts/token/ERC20/ERC20.sol\":6271:6633  {... */\n      pop\n        /* \"@openzeppelin/contracts/token/ERC20/ERC20.sol\":6093:6633  if (from == address(0)) {... */\n    tag_419:\n        /* \"@openzeppelin/contracts/token/ERC20/ERC20.sol\":6661:6662  0 */\n      0x00\n        /* \"@openzeppelin/contracts/token/ERC20/ERC20.sol\":6647:6663  to == address(0) */\n      0xffffffffffffffffffffffffffffffffffffffff\n      and\n        /* \"@openzeppelin/contracts/token/ERC20/ERC20.sol\":6647:6649  to */\n      dup3\n        /* \"@openzeppelin/contracts/token/ERC20/ERC20.sol\":6647:6663  to == address(0) */\n      0xffffffffffffffffffffffffffffffffffffffff\n      and\n      sub\n        /* \"@openzeppelin/contracts/token/ERC20/ERC20.sol\":6643:7068  if (to == address(0)) {... */\n      tag_422\n      jumpi\n        /* \"@openzeppelin/contracts/token/ERC20/ERC20.sol\":6826:6831  value */\n      dup1\n        /* \"@openzeppelin/contracts/token/ERC20/ERC20.sol\":6810:6822  _totalSupply */\n      0x02\n      0x00\n        /* \"@openzeppelin/contracts/token/ERC20/ERC20.sol\":6810:6831  _totalSupply -= value */\n      dup3\n      dup3\n      sload\n      sub\n      swap3\n      pop\n      pop\n      dup2\n      swap1\n      sstore\n      pop\n        /* \"@openzeppelin/contracts/token/ERC20/ERC20.sol\":6643:7068  if (to == address(0)) {... */\n      jump(tag_423)\n    tag_422:\n        /* \"@openzeppelin/contracts/token/ERC20/ERC20.sol\":7038:7043  value */\n      dup1\n        /* \"@openzeppelin/contracts/token/ERC20/ERC20.sol\":7021:7030  _balances */\n      0x00\n        /* \"@openzeppelin/contracts/token/ERC20/ERC20.sol\":7021:7034  _balances[to] */\n      0x00\n        /* \"@openzeppelin/contracts/token/ERC20/ERC20.sol\":7031:7033  to */\n      dup5\n        /* \"@openzeppelin/contracts/token/ERC20/ERC20.sol\":7021:7034  _balances[to] */\n      0xffffffffffffffffffffffffffffffffffffffff\n      and\n      0xffffffffffffffffffffffffffffffffffffffff\n      and\n      dup2\n      mstore\n      0x20\n      add\n      swap1\n      dup2\n      mstore\n      0x20\n      add\n      0x00\n      keccak256\n      0x00\n        /* \"@openzeppelin/contracts/token/ERC20/ERC20.sol\":7021:7043  _balances[to] += value */\n      dup3\n      dup3\n      sload\n      add\n      swap3\n      pop\n      pop\n      dup2\n      swap1\n      sstore\n      pop\n        /* \"@openzeppelin/contracts/token/ERC20/ERC20.sol\":6643:7068  if (to == address(0)) {... */\n    tag_423:\n        /* \"@openzeppelin/contracts/token/ERC20/ERC20.sol\":7098:7100  to */\n      dup2\n        /* \"@openzeppelin/contracts/token/ERC20/ERC20.sol\":7083:7108  Transfer(from, to, value) */\n      0xffffffffffffffffffffffffffffffffffffffff\n      and\n        /* \"@openzeppelin/contracts/token/ERC20/ERC20.sol\":7092:7096  from */\n      dup4\n        /* \"@openzeppelin/contracts/token/ERC20/ERC20.sol\":7083:7108  Transfer(from, to, value) */\n      0xffffffffffffffffffffffffffffffffffffffff\n      and\n      0xddf252ad1be2c89b69c2b068fc378daa952ba7f163c4a11628f55a4df523b3ef\n        /* \"@openzeppelin/contracts/token/ERC20/ERC20.sol\":7102:7107  value */\n      dup4\n        /* \"@openzeppelin/contracts/token/ERC20/ERC20.sol\":7083:7108  Transfer(from, to, value) */\n      mload(0x40)\n      tag_424\n      swap2\n      swap1\n      tag_58\n      jump\t// in\n    tag_424:\n      mload(0x40)\n      dup1\n      swap2\n      sub\n      swap1\n      log3\n        /* \"@openzeppelin/contracts/token/ERC20/ERC20.sol\":6008:7115  function _update(address from, address to, uint256 value) internal virtual {... */\n      pop\n      pop\n      pop\n      jump\t// out\n        /* \"#utility.yul\":7:106   */\n    tag_425:\n        /* \"#utility.yul\":59:65   */\n      0x00\n        /* \"#utility.yul\":93:98   */\n      dup2\n        /* \"#utility.yul\":87:99   */\n      mload\n        /* \"#utility.yul\":77:99   */\n      swap1\n      pop\n        /* \"#utility.yul\":7:106   */\n      swap2\n      swap1\n      pop\n      jump\t// out\n        /* \"#utility.yul\":112:281   */\n    tag_426:\n        /* \"#utility.yul\":196:207   */\n      0x00\n        /* \"#utility.yul\":230:236   */\n      dup3\n        /* \"#utility.yul\":225:228   */\n      dup3\n        /* \"#utility.yul\":218:237   */\n      mstore\n        /* \"#utility.yul\":270:274   */\n      0x20\n        /* \"#utility.yul\":265:268   */\n      dup3\n        /* \"#utility.yul\":261:275   */\n      add\n        /* \"#utility.yul\":246:275   */\n      swap1\n      pop\n        /* \"#utility.yul\":112:281   */\n      swap3\n      swap2\n      pop\n      pop\n      jump\t// out\n        /* \"#utility.yul\":287:426   */\n    tag_427:\n        /* \"#utility.yul\":376:382   */\n      dup3\n        /* \"#utility.yul\":371:374   */\n      dup2\n        /* \"#utility.yul\":366:369   */\n      dup4\n        /* \"#utility.yul\":360:383   */\n      mcopy\n        /* \"#utility.yul\":417:418   */\n      0x00\n        /* \"#utility.yul\":408:414   */\n      dup4\n        /* \"#utility.yul\":403:406   */\n      dup4\n        /* \"#utility.yul\":399:415   */\n      add\n        /* \"#utility.yul\":392:419   */\n      mstore\n        /* \"#utility.yul\":287:426   */\n      pop\n      pop\n      pop\n      jump\t// out\n        /* \"#utility.yul\":432:534   */\n    tag_428:\n        /* \"#utility.yul\":473:479   */\n      0x00\n        /* \"#utility.yul\":524:526   */\n      0x1f\n        /* \"#utility.yul\":520:527   */\n      not\n        /* \"#utility.yul\":515:517   */\n      0x1f\n        /* \"#utility.yul\":508:513   */\n      dup4\n        /* \"#utility.yul\":504:518   */\n      add\n        /* \"#utility.yul\":500:528   */\n      and\n        /* \"#utility.yul\":490:528   */\n      swap1\n      pop\n        /* \"#utility.yul\":432:534   */\n      swap2\n      swap1\n      pop\n      jump\t// out\n        /* \"#utility.yul\":540:917   */\n    tag_429:\n        /* \"#utility.yul\":628:631   */\n      0x00\n        /* \"#utility.yul\":656:695   */\n      tag_469\n        /* \"#utility.yul\":689:694   */\n      dup3\n        /* \"#utility.yul\":656:695   */\n      tag_425\n      jump\t// in\n    tag_469:\n        /* \"#utility.yul\":711:782   */\n      tag_470\n        /* \"#utility.yul\":775:781   */\n      dup2\n        /* \"#utility.yul\":770:773   */\n      dup6\n        /* \"#utility.yul\":711:782   */\n      tag_426\n      jump\t// in\n    tag_470:\n        /* \"#utility.yul\":704:782   */\n      swap4\n      pop\n        /* \"#utility.yul\":791:856   */\n      tag_471\n        /* \"#utility.yul\":849:855   */\n      dup2\n        /* \"#utility.yul\":844:847   */\n      dup6\n        /* \"#utility.yul\":837:841   */\n      0x20\n        /* \"#utility.yul\":830:835   */\n      dup7\n        /* \"#utility.yul\":826:842   */\n      add\n        /* \"#utility.yul\":791:856   */\n      tag_427\n      jump\t// in\n    tag_471:\n        /* \"#utility.yul\":881:910   */\n      tag_472\n        /* \"#utility.yul\":903:909   */\n      dup2\n        /* \"#utility.yul\":881:910   */\n      tag_428\n      jump\t// in\n    tag_472:\n        /* \"#utility.yul\":876:879   */\n      dup5\n        /* \"#utility.yul\":872:911   */\n      add\n        /* \"#utility.yul\":865:911   */\n      swap2\n      pop\n        /* \"#utility.yul\":632:917   */\n      pop\n        /* \"#utility.yul\":540:917   */\n      swap3\n      swap2\n      pop\n      pop\n      jump\t// out\n        /* \"#utility.yul\":923:1236   */\n    tag_46:\n        /* \"#utility.yul\":1036:1040   */\n      0x00\n        /* \"#utility.yul\":1074:1076   */\n      0x20\n        /* \"#utility.yul\":1063:1072   */\n      dup3\n        /* \"#utility.yul\":1059:1077   */\n      add\n        /* \"#utility.yul\":1051:1077   */\n      swap1\n      pop\n        /* \"#utility.yul\":1123:1132   */\n      dup2\n        /* \"#utility.yul\":1117:1121   */\n      dup2\n        /* \"#utility.yul\":1113:1133   */\n      sub\n        /* \"#utility.yul\":1109:1110   */\n      0x00\n        /* \"#utility.yul\":1098:1107   */\n      dup4\n        /* \"#utility.yul\":1094:1111   */\n      add\n        /* \"#utility.yul\":1087:1134   */\n      mstore\n        /* \"#utility.yul\":1151:1229   */\n      tag_474\n        /* \"#utility.yul\":1224:1228   */\n      dup2\n        /* \"#utility.yul\":1215:1221   */\n      dup5\n        /* \"#utility.yul\":1151:1229   */\n      tag_429\n      jump\t// in\n    tag_474:\n        /* \"#utility.yul\":1143:1229   */\n      swap1\n      pop\n        /* \"#utility.yul\":923:1236   */\n      swap3\n      swap2\n      pop\n      pop\n      jump\t// out\n        /* \"#utility.yul\":1323:1440   */\n    tag_431:\n        /* \"#utility.yul\":1432:1433   */\n      0x00\n        /* \"#utility.yul\":1429:1430   */\n      0x00\n        /* \"#utility.yul\":1422:1434   */\n      revert\n        /* \"#utility.yul\":1569:1695   */\n    tag_433:\n        /* \"#utility.yul\":1606:1613   */\n      0x00\n        /* \"#utility.yul\":1646:1688   */\n      0xffffffffffffffffffffffffffffffffffffffff\n        /* \"#utility.yul\":1639:1644   */\n      dup3\n        /* \"#utility.yul\":1635:1689   */\n      and\n        /* \"#utility.yul\":1624:1689   */\n      swap1\n      pop\n        /* \"#utility.yul\":1569:1695   */\n      swap2\n      swap1\n      pop\n      jump\t// out\n        /* \"#utility.yul\":1701:1797   */\n    tag_434:\n        /* \"#utility.yul\":1738:1745   */\n      0x00\n        /* \"#utility.yul\":1767:1791   */\n      tag_480\n        /* \"#utility.yul\":1785:1790   */\n      dup3\n        /* \"#utility.yul\":1767:1791   */\n      tag_433\n      jump\t// in\n    tag_480:\n        /* \"#utility.yul\":1756:1791   */\n      swap1\n      pop\n        /* \"#utility.yul\":1701:1797   */\n      swap2\n      swap1\n      pop\n      jump\t// out\n        /* \"#utility.yul\":1803:1925   */\n    tag_435:\n        /* \"#utility.yul\":1876:1900   */\n      tag_482\n        /* \"#utility.yul\":1894:1899   */\n      dup2\n        /* \"#utility.yul\":1876:1900   */\n      tag_434\n      jump\t// in\n    tag_482:\n        /* \"#utility.yul\":1869:1874   */\n      dup2\n        /* \"#utility.yul\":1866:1901   */\n      eq\n        /* \"#utility.yul\":1856:1919   */\n      tag_483\n      jumpi\n        /* \"#utility.yul\":1915:1916   */\n      0x00\n        /* \"#utility.yul\":1912:1913   */\n      0x00\n        /* \"#utility.yul\":1905:1917   */\n      revert\n        /* \"#utility.yul\":1856:1919   */\n    tag_483:\n        /* \"#utility.yul\":1803:1925   */\n      pop\n      jump\t// out\n        /* \"#utility.yul\":1931:2070   */\n    tag_436:\n        /* \"#utility.yul\":1977:1982   */\n      0x00\n        /* \"#utility.yul\":2015:2021   */\n      dup2\n        /* \"#utility.yul\":2002:2022   */\n      calldataload\n        /* \"#utility.yul\":1993:2022   */\n      swap1\n      pop\n        /* \"#utility.yul\":2031:2064   */\n      tag_485\n        /* \"#utility.yul\":2058:2063   */\n      dup2\n        /* \"#utility.yul\":2031:2064   */\n      tag_435\n      jump\t// in\n    tag_485:\n        /* \"#utility.yul\":1931:2070   */\n      swap3\n      swap2\n      pop\n      pop\n      jump\t// out\n        /* \"#utility.yul\":2076:2153   */\n    tag_437:\n        /* \"#utility.yul\":2113:2120   */\n      0x00\n        /* \"#utility.yul\":2142:2147   */\n      dup2\n        /* \"#utility.yul\":2131:2147   */\n      swap1\n      pop\n        /* \"#utility.yul\":2076:2153   */\n      swap2\n      swap1\n      pop\n      jump\t// out\n        /* \"#utility.yul\":2159:2281   */\n    tag_438:\n        /* \"#utility.yul\":2232:2256   */\n      tag_488\n        /* \"#utility.yul\":2250:2255   */\n      dup2\n        /* \"#utility.yul\":2232:2256   */\n      tag_437\n      jump\t// in\n    tag_488:\n        /* \"#utility.yul\":2225:2230   */\n      dup2\n        /* \"#utility.yul\":2222:2257   */\n      eq\n        /* \"#utility.yul\":2212:2275   */\n      tag_489\n      jumpi\n        /* \"#utility.yul\":2271:2272   */\n      0x00\n        /* \"#utility.yul\":2268:2269   */\n      0x00\n        /* \"#utility.yul\":2261:2273   */\n      revert\n        /* \"#utility.yul\":2212:2275   */\n    tag_489:\n        /* \"#utility.yul\":2159:2281   */\n      pop\n      jump\t// out\n        /* \"#utility.yul\":2287:2426   */\n    tag_439:\n        /* \"#utility.yul\":2333:2338   */\n      0x00\n        /* \"#utility.yul\":2371:2377   */\n      dup2\n        /* \"#utility.yul\":2358:2378   */\n      calldataload\n        /* \"#utility.yul\":2349:2378   */\n      swap1\n      pop\n        /* \"#utility.yul\":2387:2420   */\n      tag_491\n        /* \"#utility.yul\":2414:2419   */\n      dup2\n        /* \"#utility.yul\":2387:2420   */\n      tag_438\n      jump\t// in\n    tag_491:\n        /* \"#utility.yul\":2287:2426   */\n      swap3\n      swap2\n      pop\n      pop\n      jump\t// out\n        /* \"#utility.yul\":2432:2906   */\n    tag_49:\n        /* \"#utility.yul\":2500:2506   */\n      0x00\n        /* \"#utility.yul\":2508:2514   */\n      0x00\n        /* \"#utility.yul\":2557:2559   */\n      0x40\n        /* \"#utility.yul\":2545:2554   */\n      dup4\n        /* \"#utility.yul\":2536:2543   */\n      dup6\n        /* \"#utility.yul\":2532:2555   */\n      sub\n        /* \"#utility.yul\":2528:2560   */\n      slt\n        /* \"#utility.yul\":2525:2644   */\n      iszero\n      tag_493\n      jumpi\n        /* \"#utility.yul\":2563:2642   */\n      tag_494\n      tag_431\n      jump\t// in\n    tag_494:\n        /* \"#utility.yul\":2525:2644   */\n    tag_493:\n        /* \"#utility.yul\":2683:2684   */\n      0x00\n        /* \"#utility.yul\":2708:2761   */\n      tag_495\n        /* \"#utility.yul\":2753:2760   */\n      dup6\n        /* \"#utility.yul\":2744:2750   */\n      dup3\n        /* \"#utility.yul\":2733:2742   */\n      dup7\n        /* \"#utility.yul\":2729:2751   */\n      add\n        /* \"#utility.yul\":2708:2761   */\n      tag_436\n      jump\t// in\n    tag_495:\n        /* \"#utility.yul\":2698:2761   */\n      swap3\n      pop\n        /* \"#utility.yul\":2654:2771   */\n      pop\n        /* \"#utility.yul\":2810:2812   */\n      0x20\n        /* \"#utility.yul\":2836:2889   */\n      tag_496\n        /* \"#utility.yul\":2881:2888   */\n      dup6\n        /* \"#utility.yul\":2872:2878   */\n      dup3\n        /* \"#utility.yul\":2861:2870   */\n      dup7\n        /* \"#utility.yul\":2857:2879   */\n      add\n        /* \"#utility.yul\":2836:2889   */\n      tag_439\n      jump\t// in\n    tag_496:\n        /* \"#utility.yul\":2826:2889   */\n      swap2\n      pop\n        /* \"#utility.yul\":2781:2899   */\n      pop\n        /* \"#utility.yul\":2432:2906   */\n      swap3\n      pop\n      swap3\n      swap1\n      pop\n      jump\t// out\n        /* \"#utility.yul\":2912:3002   */\n    tag_440:\n        /* \"#utility.yul\":2946:2953   */\n      0x00\n        /* \"#utility.yul\":2989:2994   */\n      dup2\n        /* \"#utility.yul\":2982:2995   */\n      iszero\n        /* \"#utility.yul\":2975:2996   */\n      iszero\n        /* \"#utility.yul\":2964:2996   */\n      swap1\n      pop\n        /* \"#utility.yul\":2912:3002   */\n      swap2\n      swap1\n      pop\n      jump\t// out\n        /* \"#utility.yul\":3008:3117   */\n    tag_441:\n        /* \"#utility.yul\":3089:3110   */\n      tag_499\n        /* \"#utility.yul\":3104:3109   */\n      dup2\n        /* \"#utility.yul\":3089:3110   */\n      tag_440\n      jump\t// in\n    tag_499:\n        /* \"#utility.yul\":3084:3087   */\n      dup3\n        /* \"#utility.yul\":3077:3111   */\n      mstore\n        /* \"#utility.yul\":3008:3117   */\n      pop\n      pop\n      jump\t// out\n        /* \"#utility.yul\":3123:3333   */\n    tag_52:\n        /* \"#utility.yul\":3210:3214   */\n      0x00\n        /* \"#utility.yul\":3248:3250   */\n      0x20\n        /* \"#utility.yul\":3237:3246   */\n      dup3\n        /* \"#utility.yul\":3233:3251   */\n      add\n        /* \"#utility.yul\":3225:3251   */\n      swap1\n      pop\n        /* \"#utility.yul\":3261:3326   */\n      tag_501\n        /* \"#utility.yul\":3323:3324   */\n      0x00\n        /* \"#utility.yul\":3312:3321   */\n      dup4\n        /* \"#utility.yul\":3308:3325   */\n      add\n        /* \"#utility.yul\":3299:3305   */\n      dup5\n        /* \"#utility.yul\":3261:3326   */\n      tag_441\n      jump\t// in\n    tag_501:\n        /* \"#utility.yul\":3123:3333   */\n      swap3\n      swap2\n      pop\n      pop\n      jump\t// out\n        /* \"#utility.yul\":3339:3457   */\n    tag_442:\n        /* \"#utility.yul\":3426:3450   */\n      tag_503\n        /* \"#utility.yul\":3444:3449   */\n      dup2\n        /* \"#utility.yul\":3426:3450   */\n      tag_437\n      jump\t// in\n    tag_503:\n        /* \"#utility.yul\":3421:3424   */\n      dup3\n        /* \"#utility.yul\":3414:3451   */\n      mstore\n        /* \"#utility.yul\":3339:3457   */\n      pop\n      pop\n      jump\t// out\n        /* \"#utility.yul\":3463:3685   */\n    tag_58:\n        /* \"#utility.yul\":3556:3560   */\n      0x00\n        /* \"#utility.yul\":3594:3596   */\n      0x20\n        /* \"#utility.yul\":3583:3592   */\n      dup3\n        /* \"#utility.yul\":3579:3597   */\n      add\n        /* \"#utility.yul\":3571:3597   */\n      swap1\n      pop\n        /* \"#utility.yul\":3607:3678   */\n      tag_505\n        /* \"#utility.yul\":3675:3676   */\n      0x00\n        /* \"#utility.yul\":3664:3673   */\n      dup4\n        /* \"#utility.yul\":3660:3677   */\n      add\n        /* \"#utility.yul\":3651:3657   */\n      dup5\n        /* \"#utility.yul\":3607:3678   */\n      tag_442\n      jump\t// in\n    tag_505:\n        /* \"#utility.yul\":3463:3685   */\n      swap3\n      swap2\n      pop\n      pop\n      jump\t// out\n        /* \"#utility.yul\":3691:4020   */\n    tag_61:\n        /* \"#utility.yul\":3750:3756   */\n      0x00\n        /* \"#utility.yul\":3799:3801   */\n      0x20\n        /* \"#utility.yul\":3787:3796   */\n      dup3\n        /* \"#utility.yul\":3778:3785   */\n      dup5\n        /* \"#utility.yul\":3774:3797   */\n      sub\n        /* \"#utility.yul\":3770:3802   */\n      slt\n        /* \"#utility.yul\":3767:3886   */\n      iszero\n      tag_507\n      jumpi\n        /* \"#utility.yul\":3805:3884   */\n      tag_508\n      tag_431\n      jump\t// in\n    tag_508:\n        /* \"#utility.yul\":3767:3886   */\n    tag_507:\n        /* \"#utility.yul\":3925:3926   */\n      0x00\n        /* \"#utility.yul\":3950:4003   */\n      tag_509\n        /* \"#utility.yul\":3995:4002   */\n      dup5\n        /* \"#utility.yul\":3986:3992   */\n      dup3\n        /* \"#utility.yul\":3975:3984   */\n      dup6\n        /* \"#utility.yul\":3971:3993   */\n      add\n        /* \"#utility.yul\":3950:4003   */\n      tag_436\n      jump\t// in\n    tag_509:\n        /* \"#utility.yul\":3940:4003   */\n      swap2\n      pop\n        /* \"#utility.yul\":3896:4013   */\n      pop\n        /* \"#utility.yul\":3691:4020   */\n      swap3\n      swap2\n      pop\n      pop\n      jump\t// out\n        /* \"#utility.yul\":4026:4468   */\n    tag_64:\n        /* \"#utility.yul\":4175:4179   */\n      0x00\n        /* \"#utility.yul\":4213:4215   */\n      0x60\n        /* \"#utility.yul\":4202:4211   */\n      dup3\n        /* \"#utility.yul\":4198:4216   */\n      add\n        /* \"#utility.yul\":4190:4216   */\n      swap1\n      pop\n        /* \"#utility.yul\":4226:4297   */\n      tag_511\n        /* \"#utility.yul\":4294:4295   */\n      0x00\n        /* \"#utility.yul\":4283:4292   */\n      dup4\n        /* \"#utility.yul\":4279:4296   */\n      add\n        /* \"#utility.yul\":4270:4276   */\n      dup7\n        /* \"#utility.yul\":4226:4297   */\n      tag_442\n      jump\t// in\n    tag_511:\n        /* \"#utility.yul\":4307:4379   */\n      tag_512\n        /* \"#utility.yul\":4375:4377   */\n      0x20\n        /* \"#utility.yul\":4364:4373   */\n      dup4\n        /* \"#utility.yul\":4360:4378   */\n      add\n        /* \"#utility.yul\":4351:4357   */\n      dup6\n        /* \"#utility.yul\":4307:4379   */\n      tag_442\n      jump\t// in\n    tag_512:\n        /* \"#utility.yul\":4389:4461   */\n      tag_513\n        /* \"#utility.yul\":4457:4459   */\n      0x40\n        /* \"#utility.yul\":4446:4455   */\n      dup4\n        /* \"#utility.yul\":4442:4460   */\n      add\n        /* \"#utility.yul\":4433:4439   */\n      dup5\n        /* \"#utility.yul\":4389:4461   */\n      tag_442\n      jump\t// in\n    tag_513:\n        /* \"#utility.yul\":4026:4468   */\n      swap5\n      swap4\n      pop\n      pop\n      pop\n      pop\n      jump\t// out\n        /* \"#utility.yul\":4474:5093   */\n    tag_73:\n        /* \"#utility.yul\":4551:4557   */\n      0x00\n        /* \"#utility.yul\":4559:4565   */\n      0x00\n        /* \"#utility.yul\":4567:4573   */\n      0x00\n        /* \"#utility.yul\":4616:4618   */\n      0x60\n        /* \"#utility.yul\":4604:4613   */\n      dup5\n        /* \"#utility.yul\":4595:4602   */\n      dup7\n        /* \"#utility.yul\":4591:4614   */\n      sub\n        /* \"#utility.yul\":4587:4619   */\n      slt\n        /* \"#utility.yul\":4584:4703   */\n      iszero\n      tag_515\n      jumpi\n        /* \"#utility.yul\":4622:4701   */\n      tag_516\n      tag_431\n      jump\t// in\n    tag_516:\n        /* \"#utility.yul\":4584:4703   */\n    tag_515:\n        /* \"#utility.yul\":4742:4743   */\n      0x00\n        /* \"#utility.yul\":4767:4820   */\n      tag_517\n        /* \"#utility.yul\":4812:4819   */\n      dup7\n        /* \"#utility.yul\":4803:4809   */\n      dup3\n        /* \"#utility.yul\":4792:4801   */\n      dup8\n        /* \"#utility.yul\":4788:4810   */\n      add\n        /* \"#utility.yul\":4767:4820   */\n      tag_436\n      jump\t// in\n    tag_517:\n        /* \"#utility.yul\":4757:4820   */\n      swap4\n      pop\n        /* \"#utility.yul\":4713:4830   */\n      pop\n        /* \"#utility.yul\":4869:4871   */\n      0x20\n        /* \"#utility.yul\":4895:4948   */\n      tag_518\n        /* \"#utility.yul\":4940:4947   */\n      dup7\n        /* \"#utility.yul\":4931:4937   */\n      dup3\n        /* \"#utility.yul\":4920:4929   */\n      dup8\n        /* \"#utility.yul\":4916:4938   */\n      add\n        /* \"#utility.yul\":4895:4948   */\n      tag_436\n      jump\t// in\n    tag_518:\n        /* \"#utility.yul\":4885:4948   */\n      swap3\n      pop\n        /* \"#utility.yul\":4840:4958   */\n      pop\n        /* \"#utility.yul\":4997:4999   */\n      0x40\n        /* \"#utility.yul\":5023:5076   */\n      tag_519\n        /* \"#utility.yul\":5068:5075   */\n      dup7\n        /* \"#utility.yul\":5059:5065   */\n      dup3\n        /* \"#utility.yul\":5048:5057   */\n      dup8\n        /* \"#utility.yul\":5044:5066   */\n      add\n        /* \"#utility.yul\":5023:5076   */\n      tag_439\n      jump\t// in\n    tag_519:\n        /* \"#utility.yul\":5013:5076   */\n      swap2\n      pop\n        /* \"#utility.yul\":4968:5086   */\n      pop\n        /* \"#utility.yul\":4474:5093   */\n      swap3\n      pop\n      swap3\n      pop\n      swap3\n      jump\t// out\n        /* \"#utility.yul\":5099:5428   */\n    tag_81:\n        /* \"#utility.yul\":5158:5164   */\n      0x00\n        /* \"#utility.yul\":5207:5209   */\n      0x20\n        /* \"#utility.yul\":5195:5204   */\n      dup3\n        /* \"#utility.yul\":5186:5193   */\n      dup5\n        /* \"#utility.yul\":5182:5205   */\n      sub\n        /* \"#utility.yul\":5178:5210   */\n      slt\n        /* \"#utility.yul\":5175:5294   */\n      iszero\n      tag_521\n      jumpi\n        /* \"#utility.yul\":5213:5292   */\n      tag_522\n      tag_431\n      jump\t// in\n    tag_522:\n        /* \"#utility.yul\":5175:5294   */\n    tag_521:\n        /* \"#utility.yul\":5333:5334   */\n      0x00\n        /* \"#utility.yul\":5358:5411   */\n      tag_523\n        /* \"#utility.yul\":5403:5410   */\n      dup5\n        /* \"#utility.yul\":5394:5400   */\n      dup3\n        /* \"#utility.yul\":5383:5392   */\n      dup6\n        /* \"#utility.yul\":5379:5401   */\n      add\n        /* \"#utility.yul\":5358:5411   */\n      tag_439\n      jump\t// in\n    tag_523:\n        /* \"#utility.yul\":5348:5411   */\n      swap2\n      pop\n        /* \"#utility.yul\":5304:5421   */\n      pop\n        /* \"#utility.yul\":5099:5428   */\n      swap3\n      swap2\n      pop\n      pop\n      jump\t// out\n        /* \"#utility.yul\":5434:5552   */\n    tag_443:\n        /* \"#utility.yul\":5521:5545   */\n      tag_525\n        /* \"#utility.yul\":5539:5544   */\n      dup2\n        /* \"#utility.yul\":5521:5545   */\n      tag_434\n      jump\t// in\n    tag_525:\n        /* \"#utility.yul\":5516:5519   */\n      dup3\n        /* \"#utility.yul\":5509:5546   */\n      mstore\n        /* \"#utility.yul\":5434:5552   */\n      pop\n      pop\n      jump\t// out\n        /* \"#utility.yul\":5558:5780   */\n    tag_84:\n        /* \"#utility.yul\":5651:5655   */\n      0x00\n        /* \"#utility.yul\":5689:5691   */\n      0x20\n        /* \"#utility.yul\":5678:5687   */\n      dup3\n        /* \"#utility.yul\":5674:5692   */\n      add\n        /* \"#utility.yul\":5666:5692   */\n      swap1\n      pop\n        /* \"#utility.yul\":5702:5773   */\n      tag_527\n        /* \"#utility.yul\":5770:5771   */\n      0x00\n        /* \"#utility.yul\":5759:5768   */\n      dup4\n        /* \"#utility.yul\":5755:5772   */\n      add\n        /* \"#utility.yul\":5746:5752   */\n      dup5\n        /* \"#utility.yul\":5702:5773   */\n      tag_443\n      jump\t// in\n    tag_527:\n        /* \"#utility.yul\":5558:5780   */\n      swap3\n      swap2\n      pop\n      pop\n      jump\t// out\n        /* \"#utility.yul\":5786:5872   */\n    tag_444:\n        /* \"#utility.yul\":5821:5828   */\n      0x00\n        /* \"#utility.yul\":5861:5865   */\n      0xff\n        /* \"#utility.yul\":5854:5859   */\n      dup3\n        /* \"#utility.yul\":5850:5866   */\n      and\n        /* \"#utility.yul\":5839:5866   */\n      swap1\n      pop\n        /* \"#utility.yul\":5786:5872   */\n      swap2\n      swap1\n      pop\n      jump\t// out\n        /* \"#utility.yul\":5878:5990   */\n    tag_445:\n        /* \"#utility.yul\":5961:5983   */\n      tag_530\n        /* \"#utility.yul\":5977:5982   */\n      dup2\n        /* \"#utility.yul\":5961:5983   */\n      tag_444\n      jump\t// in\n    tag_530:\n        /* \"#utility.yul\":5956:5959   */\n      dup3\n        /* \"#utility.yul\":5949:5984   */\n      mstore\n        /* \"#utility.yul\":5878:5990   */\n      pop\n      pop\n      jump\t// out\n        /* \"#utility.yul\":5996:6210   */\n    tag_91:\n        /* \"#utility.yul\":6085:6089   */\n      0x00\n        /* \"#utility.yul\":6123:6125   */\n      0x20\n        /* \"#utility.yul\":6112:6121   */\n      dup3\n        /* \"#utility.yul\":6108:6126   */\n      add\n        /* \"#utility.yul\":6100:6126   */\n      swap1\n      pop\n        /* \"#utility.yul\":6136:6203   */\n      tag_532\n        /* \"#utility.yul\":6200:6201   */\n      0x00\n        /* \"#utility.yul\":6189:6198   */\n      dup4\n        /* \"#utility.yul\":6185:6202   */\n      add\n        /* \"#utility.yul\":6176:6182   */\n      dup5\n        /* \"#utility.yul\":6136:6203   */\n      tag_445\n      jump\t// in\n    tag_532:\n        /* \"#utility.yul\":5996:6210   */\n      swap3\n      swap2\n      pop\n      pop\n      jump\t// out\n        /* \"#utility.yul\":6216:6690   */\n    tag_146:\n        /* \"#utility.yul\":6284:6290   */\n      0x00\n        /* \"#utility.yul\":6292:6298   */\n      0x00\n        /* \"#utility.yul\":6341:6343   */\n      0x40\n        /* \"#utility.yul\":6329:6338   */\n      dup4\n        /* \"#utility.yul\":6320:6327   */\n      dup6\n        /* \"#utility.yul\":6316:6339   */\n      sub\n        /* \"#utility.yul\":6312:6344   */\n      slt\n        /* \"#utility.yul\":6309:6428   */\n      iszero\n      tag_534\n      jumpi\n        /* \"#utility.yul\":6347:6426   */\n      tag_535\n      tag_431\n      jump\t// in\n    tag_535:\n        /* \"#utility.yul\":6309:6428   */\n    tag_534:\n        /* \"#utility.yul\":6467:6468   */\n      0x00\n        /* \"#utility.yul\":6492:6545   */\n      tag_536\n        /* \"#utility.yul\":6537:6544   */\n      dup6\n        /* \"#utility.yul\":6528:6534   */\n      dup3\n        /* \"#utility.yul\":6517:6526   */\n      dup7\n        /* \"#utility.yul\":6513:6535   */\n      add\n        /* \"#utility.yul\":6492:6545   */\n      tag_436\n      jump\t// in\n    tag_536:\n        /* \"#utility.yul\":6482:6545   */\n      swap3\n      pop\n        /* \"#utility.yul\":6438:6555   */\n      pop\n        /* \"#utility.yul\":6594:6596   */\n      0x20\n        /* \"#utility.yul\":6620:6673   */\n      tag_537\n        /* \"#utility.yul\":6665:6672   */\n      dup6\n        /* \"#utility.yul\":6656:6662   */\n      dup3\n        /* \"#utility.yul\":6645:6654   */\n      dup7\n        /* \"#utility.yul\":6641:6663   */\n      add\n        /* \"#utility.yul\":6620:6673   */\n      tag_436\n      jump\t// in\n    tag_537:\n        /* \"#utility.yul\":6610:6673   */\n      swap2\n      pop\n        /* \"#utility.yul\":6565:6683   */\n      pop\n        /* \"#utility.yul\":6216:6690   */\n      swap3\n      pop\n      swap3\n      swap1\n      pop\n      jump\t// out\n        /* \"#utility.yul\":6696:6876   */\n    tag_446:\n        /* \"#utility.yul\":6744:6821   */\n      0x4e487b7100000000000000000000000000000000000000000000000000000000\n        /* \"#utility.yul\":6741:6742   */\n      0x00\n        /* \"#utility.yul\":6734:6822   */\n      mstore\n        /* \"#utility.yul\":6841:6845   */\n      0x22\n        /* \"#utility.yul\":6838:6839   */\n      0x04\n        /* \"#utility.yul\":6831:6846   */\n      mstore\n        /* \"#utility.yul\":6865:6869   */\n      0x24\n        /* \"#utility.yul\":6862:6863   */\n      0x00\n        /* \"#utility.yul\":6855:6870   */\n      revert\n        /* \"#utility.yul\":6882:7202   */\n    tag_160:\n        /* \"#utility.yul\":6926:6932   */\n      0x00\n        /* \"#utility.yul\":6963:6964   */\n      0x02\n        /* \"#utility.yul\":6957:6961   */\n      dup3\n        /* \"#utility.yul\":6953:6965   */\n      div\n        /* \"#utility.yul\":6943:6965   */\n      swap1\n      pop\n        /* \"#utility.yul\":7010:7011   */\n      0x01\n        /* \"#utility.yul\":7004:7008   */\n      dup3\n        /* \"#utility.yul\":7000:7012   */\n      and\n        /* \"#utility.yul\":7031:7049   */\n      dup1\n        /* \"#utility.yul\":7021:7102   */\n      tag_540\n      jumpi\n        /* \"#utility.yul\":7087:7091   */\n      0x7f\n        /* \"#utility.yul\":7079:7085   */\n      dup3\n        /* \"#utility.yul\":7075:7092   */\n      and\n        /* \"#utility.yul\":7065:7092   */\n      swap2\n      pop\n        /* \"#utility.yul\":7021:7102   */\n    tag_540:\n        /* \"#utility.yul\":7149:7151   */\n      0x20\n        /* \"#utility.yul\":7141:7147   */\n      dup3\n        /* \"#utility.yul\":7138:7152   */\n      lt\n        /* \"#utility.yul\":7118:7136   */\n      dup2\n        /* \"#utility.yul\":7115:7153   */\n      sub\n        /* \"#utility.yul\":7112:7196   */\n      tag_541\n      jumpi\n        /* \"#utility.yul\":7168:7186   */\n      tag_542\n      tag_446\n      jump\t// in\n    tag_542:\n        /* \"#utility.yul\":7112:7196   */\n    tag_541:\n        /* \"#utility.yul\":6933:7202   */\n      pop\n        /* \"#utility.yul\":6882:7202   */\n      swap2\n      swap1\n      pop\n      jump\t// out\n        /* \"#utility.yul\":7208:7377   */\n    tag_447:\n        /* \"#utility.yul\":7348:7369   */\n      0x56657374696e67206e6f74207374617274656400000000000000000000000000\n        /* \"#utility.yul\":7344:7345   */\n      0x00\n        /* \"#utility.yul\":7336:7342   */\n      dup3\n        /* \"#utility.yul\":7332:7346   */\n      add\n        /* \"#utility.yul\":7325:7370   */\n      mstore\n        /* \"#utility.yul\":7208:7377   */\n      pop\n      jump\t// out\n        /* \"#utility.yul\":7383:7749   */\n    tag_448:\n        /* \"#utility.yul\":7525:7528   */\n      0x00\n        /* \"#utility.yul\":7546:7613   */\n      tag_545\n        /* \"#utility.yul\":7610:7612   */\n      0x13\n        /* \"#utility.yul\":7605:7608   */\n      dup4\n        /* \"#utility.yul\":7546:7613   */\n      tag_426\n      jump\t// in\n    tag_545:\n        /* \"#utility.yul\":7539:7613   */\n      swap2\n      pop\n        /* \"#utility.yul\":7622:7715   */\n      tag_546\n        /* \"#utility.yul\":7711:7714   */\n      dup3\n        /* \"#utility.yul\":7622:7715   */\n      tag_447\n      jump\t// in\n    tag_546:\n        /* \"#utility.yul\":7740:7742   */\n      0x20\n        /* \"#utility.yul\":7735:7738   */\n      dup3\n        /* \"#utility.yul\":7731:7743   */\n      add\n        /* \"#utility.yul\":7724:7743   */\n      swap1\n      pop\n        /* \"#utility.yul\":7383:7749   */\n      swap2\n      swap1\n      pop\n      jump\t// out\n        /* \"#utility.yul\":7755:8174   */\n    tag_179:\n        /* \"#utility.yul\":7921:7925   */\n      0x00\n        /* \"#utility.yul\":7959:7961   */\n      0x20\n        /* \"#utility.yul\":7948:7957   */\n      dup3\n        /* \"#utility.yul\":7944:7962   */\n      add\n        /* \"#utility.yul\":7936:7962   */\n      swap1\n      pop\n        /* \"#utility.yul\":8008:8017   */\n      dup2\n        /* \"#utility.yul\":8002:8006   */\n      dup2\n        /* \"#utility.yul\":7998:8018   */\n      sub\n        /* \"#utility.yul\":7994:7995   */\n      0x00\n        /* \"#utility.yul\":7983:7992   */\n      dup4\n        /* \"#utility.yul\":7979:7996   */\n      add\n        /* \"#utility.yul\":7972:8019   */\n      mstore\n        /* \"#utility.yul\":8036:8167   */\n      tag_548\n        /* \"#utility.yul\":8162:8166   */\n      dup2\n        /* \"#utility.yul\":8036:8167   */\n      tag_448\n      jump\t// in\n    tag_548:\n        /* \"#utility.yul\":8028:8167   */\n      swap1\n      pop\n        /* \"#utility.yul\":7755:8174   */\n      swap2\n      swap1\n      pop\n      jump\t// out\n        /* \"#utility.yul\":8180:8360   */\n    tag_449:\n        /* \"#utility.yul\":8228:8305   */\n      0x4e487b7100000000000000000000000000000000000000000000000000000000\n        /* \"#utility.yul\":8225:8226   */\n      0x00\n        /* \"#utility.yul\":8218:8306   */\n      mstore\n        /* \"#utility.yul\":8325:8329   */\n      0x11\n        /* \"#utility.yul\":8322:8323   */\n      0x04\n        /* \"#utility.yul\":8315:8330   */\n      mstore\n        /* \"#utility.yul\":8349:8353   */\n      0x24\n        /* \"#utility.yul\":8346:8347   */\n      0x00\n        /* \"#utility.yul\":8339:8354   */\n      revert\n        /* \"#utility.yul\":8366:8776   */\n    tag_185:\n        /* \"#utility.yul\":8406:8413   */\n      0x00\n        /* \"#utility.yul\":8429:8449   */\n      tag_551\n        /* \"#utility.yul\":8447:8448   */\n      dup3\n        /* \"#utility.yul\":8429:8449   */\n      tag_437\n      jump\t// in\n    tag_551:\n        /* \"#utility.yul\":8424:8449   */\n      swap2\n      pop\n        /* \"#utility.yul\":8463:8483   */\n      tag_552\n        /* \"#utility.yul\":8481:8482   */\n      dup4\n        /* \"#utility.yul\":8463:8483   */\n      tag_437\n      jump\t// in\n    tag_552:\n        /* \"#utility.yul\":8458:8483   */\n      swap3\n      pop\n        /* \"#utility.yul\":8518:8519   */\n      dup3\n        /* \"#utility.yul\":8515:8516   */\n      dup3\n        /* \"#utility.yul\":8511:8520   */\n      mul\n        /* \"#utility.yul\":8540:8570   */\n      tag_553\n        /* \"#utility.yul\":8558:8569   */\n      dup2\n        /* \"#utility.yul\":8540:8570   */\n      tag_437\n      jump\t// in\n    tag_553:\n        /* \"#utility.yul\":8529:8570   */\n      swap2\n      pop\n        /* \"#utility.yul\":8719:8720   */\n      dup3\n        /* \"#utility.yul\":8710:8717   */\n      dup3\n        /* \"#utility.yul\":8706:8721   */\n      div\n        /* \"#utility.yul\":8703:8704   */\n      dup5\n        /* \"#utility.yul\":8700:8722   */\n      eq\n        /* \"#utility.yul\":8680:8681   */\n      dup4\n        /* \"#utility.yul\":8673:8682   */\n      iszero\n        /* \"#utility.yul\":8653:8736   */\n      or\n        /* \"#utility.yul\":8630:8769   */\n      tag_554\n      jumpi\n        /* \"#utility.yul\":8749:8767   */\n      tag_555\n      tag_449\n      jump\t// in\n    tag_555:\n        /* \"#utility.yul\":8630:8769   */\n    tag_554:\n        /* \"#utility.yul\":8414:8776   */\n      pop\n        /* \"#utility.yul\":8366:8776   */\n      swap3\n      swap2\n      pop\n      pop\n      jump\t// out\n        /* \"#utility.yul\":8782:8962   */\n    tag_450:\n        /* \"#utility.yul\":8830:8907   */\n      0x4e487b7100000000000000000000000000000000000000000000000000000000\n        /* \"#utility.yul\":8827:8828   */\n      0x00\n        /* \"#utility.yul\":8820:8908   */\n      mstore\n        /* \"#utility.yul\":8927:8931   */\n      0x12\n        /* \"#utility.yul\":8924:8925   */\n      0x04\n        /* \"#utility.yul\":8917:8932   */\n      mstore\n        /* \"#utility.yul\":8951:8955   */\n      0x24\n        /* \"#utility.yul\":8948:8949   */\n      0x00\n        /* \"#utility.yul\":8941:8956   */\n      revert\n        /* \"#utility.yul\":8968:9153   */\n    tag_187:\n        /* \"#utility.yul\":9008:9009   */\n      0x00\n        /* \"#utility.yul\":9025:9045   */\n      tag_558\n        /* \"#utility.yul\":9043:9044   */\n      dup3\n        /* \"#utility.yul\":9025:9045   */\n      tag_437\n      jump\t// in\n    tag_558:\n        /* \"#utility.yul\":9020:9045   */\n      swap2\n      pop\n        /* \"#utility.yul\":9059:9079   */\n      tag_559\n        /* \"#utility.yul\":9077:9078   */\n      dup4\n        /* \"#utility.yul\":9059:9079   */\n      tag_437\n      jump\t// in\n    tag_559:\n        /* \"#utility.yul\":9054:9079   */\n      swap3\n      pop\n        /* \"#utility.yul\":9098:9099   */\n      dup3\n        /* \"#utility.yul\":9088:9123   */\n      tag_560\n      jumpi\n        /* \"#utility.yul\":9103:9121   */\n      tag_561\n      tag_450\n      jump\t// in\n    tag_561:\n        /* \"#utility.yul\":9088:9123   */\n    tag_560:\n        /* \"#utility.yul\":9145:9146   */\n      dup3\n        /* \"#utility.yul\":9142:9143   */\n      dup3\n        /* \"#utility.yul\":9138:9147   */\n      div\n        /* \"#utility.yul\":9133:9147   */\n      swap1\n      pop\n        /* \"#utility.yul\":8968:9153   */\n      swap3\n      swap2\n      pop\n      pop\n      jump\t// out\n        /* \"#utility.yul\":9159:9329   */\n    tag_451:\n        /* \"#utility.yul\":9299:9321   */\n      0x4e6f20746f6b656e7320746f2072656c65617365000000000000000000000000\n        /* \"#utility.yul\":9295:9296   */\n      0x00\n        /* \"#utility.yul\":9287:9293   */\n      dup3\n        /* \"#utility.yul\":9283:9297   */\n      add\n        /* \"#utility.yul\":9276:9322   */\n      mstore\n        /* \"#utility.yul\":9159:9329   */\n      pop\n      jump\t// out\n        /* \"#utility.yul\":9335:9701   */\n    tag_452:\n        /* \"#utility.yul\":9477:9480   */\n      0x00\n        /* \"#utility.yul\":9498:9565   */\n      tag_564\n        /* \"#utility.yul\":9562:9564   */\n      0x14\n        /* \"#utility.yul\":9557:9560   */\n      dup4\n        /* \"#utility.yul\":9498:9565   */\n      tag_426\n      jump\t// in\n    tag_564:\n        /* \"#utility.yul\":9491:9565   */\n      swap2\n      pop\n        /* \"#utility.yul\":9574:9667   */\n      tag_565\n        /* \"#utility.yul\":9663:9666   */\n      dup3\n        /* \"#utility.yul\":9574:9667   */\n      tag_451\n      jump\t// in\n    tag_565:\n        /* \"#utility.yul\":9692:9694   */\n      0x20\n        /* \"#utility.yul\":9687:9690   */\n      dup3\n        /* \"#utility.yul\":9683:9695   */\n      add\n        /* \"#utility.yul\":9676:9695   */\n      swap1\n      pop\n        /* \"#utility.yul\":9335:9701   */\n      swap2\n      swap1\n      pop\n      jump\t// out\n        /* \"#utility.yul\":9707:10126   */\n    tag_193:\n        /* \"#utility.yul\":9873:9877   */\n      0x00\n        /* \"#utility.yul\":9911:9913   */\n      0x20\n        /* \"#utility.yul\":9900:9909   */\n      dup3\n        /* \"#utility.yul\":9896:9914   */\n      add\n        /* \"#utility.yul\":9888:9914   */\n      swap1\n      pop\n        /* \"#utility.yul\":9960:9969   */\n      dup2\n        /* \"#utility.yul\":9954:9958   */\n      dup2\n        /* \"#utility.yul\":9950:9970   */\n      sub\n        /* \"#utility.yul\":9946:9947   */\n      0x00\n        /* \"#utility.yul\":9935:9944   */\n      dup4\n        /* \"#utility.yul\":9931:9948   */\n      add\n        /* \"#utility.yul\":9924:9971   */\n      mstore\n        /* \"#utility.yul\":9988:10119   */\n      tag_567\n        /* \"#utility.yul\":10114:10118   */\n      dup2\n        /* \"#utility.yul\":9988:10119   */\n      tag_452\n      jump\t// in\n    tag_567:\n        /* \"#utility.yul\":9980:10119   */\n      swap1\n      pop\n        /* \"#utility.yul\":9707:10126   */\n      swap2\n      swap1\n      pop\n      jump\t// out\n        /* \"#utility.yul\":10132:10305   */\n    tag_453:\n        /* \"#utility.yul\":10272:10297   */\n      0x43616e6e6f7420756e7374616b65203020746f6b656e73000000000000000000\n        /* \"#utility.yul\":10268:10269   */\n      0x00\n        /* \"#utility.yul\":10260:10266   */\n      dup3\n        /* \"#utility.yul\":10256:10270   */\n      add\n        /* \"#utility.yul\":10249:10298   */\n      mstore\n        /* \"#utility.yul\":10132:10305   */\n      pop\n      jump\t// out\n        /* \"#utility.yul\":10311:10677   */\n    tag_454:\n        /* \"#utility.yul\":10453:10456   */\n      0x00\n        /* \"#utility.yul\":10474:10541   */\n      tag_570\n        /* \"#utility.yul\":10538:10540   */\n      0x17\n        /* \"#utility.yul\":10533:10536   */\n      dup4\n        /* \"#utility.yul\":10474:10541   */\n      tag_426\n      jump\t// in\n    tag_570:\n        /* \"#utility.yul\":10467:10541   */\n      swap2\n      pop\n        /* \"#utility.yul\":10550:10643   */\n      tag_571\n        /* \"#utility.yul\":10639:10642   */\n      dup3\n        /* \"#utility.yul\":10550:10643   */\n      tag_453\n      jump\t// in\n    tag_571:\n        /* \"#utility.yul\":10668:10670   */\n      0x20\n        /* \"#utility.yul\":10663:10666   */\n      dup3\n        /* \"#utility.yul\":10659:10671   */\n      add\n        /* \"#utility.yul\":10652:10671   */\n      swap1\n      pop\n        /* \"#utility.yul\":10311:10677   */\n      swap2\n      swap1\n      pop\n      jump\t// out\n        /* \"#utility.yul\":10683:11102   */\n    tag_218:\n        /* \"#utility.yul\":10849:10853   */\n      0x00\n        /* \"#utility.yul\":10887:10889   */\n      0x20\n        /* \"#utility.yul\":10876:10885   */\n      dup3\n        /* \"#utility.yul\":10872:10890   */\n      add\n        /* \"#utility.yul\":10864:10890   */\n      swap1\n      pop\n        /* \"#utility.yul\":10936:10945   */\n      dup2\n        /* \"#utility.yul\":10930:10934   */\n      dup2\n        /* \"#utility.yul\":10926:10946   */\n      sub\n        /* \"#utility.yul\":10922:10923   */\n      0x00\n        /* \"#utility.yul\":10911:10920   */\n      dup4\n        /* \"#utility.yul\":10907:10924   */\n      add\n        /* \"#utility.yul\":10900:10947   */\n      mstore\n        /* \"#utility.yul\":10964:11095   */\n      tag_573\n        /* \"#utility.yul\":11090:11094   */\n      dup2\n        /* \"#utility.yul\":10964:11095   */\n      tag_454\n      jump\t// in\n    tag_573:\n        /* \"#utility.yul\":10956:11095   */\n      swap1\n      pop\n        /* \"#utility.yul\":10683:11102   */\n      swap2\n      swap1\n      pop\n      jump\t// out\n        /* \"#utility.yul\":11108:11284   */\n    tag_455:\n        /* \"#utility.yul\":11248:11276   */\n      0x496e73756666696369656e74207374616b656420616d6f756e74000000000000\n        /* \"#utility.yul\":11244:11245   */\n      0x00\n        /* \"#utility.yul\":11236:11242   */\n      dup3\n        /* \"#utility.yul\":11232:11246   */\n      add\n        /* \"#utility.yul\":11225:11277   */\n      mstore\n        /* \"#utility.yul\":11108:11284   */\n      pop\n      jump\t// out\n        /* \"#utility.yul\":11290:11656   */\n    tag_456:\n        /* \"#utility.yul\":11432:11435   */\n      0x00\n        /* \"#utility.yul\":11453:11520   */\n      tag_576\n        /* \"#utility.yul\":11517:11519   */\n      0x1a\n        /* \"#utility.yul\":11512:11515   */\n      dup4\n        /* \"#utility.yul\":11453:11520   */\n      tag_426\n      jump\t// in\n    tag_576:\n        /* \"#utility.yul\":11446:11520   */\n      swap2\n      pop\n        /* \"#utility.yul\":11529:11622   */\n      tag_577\n        /* \"#utility.yul\":11618:11621   */\n      dup3\n        /* \"#utility.yul\":11529:11622   */\n      tag_455\n      jump\t// in\n    tag_577:\n        /* \"#utility.yul\":11647:11649   */\n      0x20\n        /* \"#utility.yul\":11642:11645   */\n      dup3\n        /* \"#utility.yul\":11638:11650   */\n      add\n        /* \"#utility.yul\":11631:11650   */\n      swap1\n      pop\n        /* \"#utility.yul\":11290:11656   */\n      swap2\n      swap1\n      pop\n      jump\t// out\n        /* \"#utility.yul\":11662:12081   */\n    tag_221:\n        /* \"#utility.yul\":11828:11832   */\n      0x00\n        /* \"#utility.yul\":11866:11868   */\n      0x20\n        /* \"#utility.yul\":11855:11864   */\n      dup3\n        /* \"#utility.yul\":11851:11869   */\n      add\n        /* \"#utility.yul\":11843:11869   */\n      swap1\n      pop\n        /* \"#utility.yul\":11915:11924   */\n      dup2\n        /* \"#utility.yul\":11909:11913   */\n      dup2\n        /* \"#utility.yul\":11905:11925   */\n      sub\n        /* \"#utility.yul\":11901:11902   */\n      0x00\n        /* \"#utility.yul\":11890:11899   */\n      dup4\n        /* \"#utility.yul\":11886:11903   */\n      add\n        /* \"#utility.yul\":11879:11926   */\n      mstore\n        /* \"#utility.yul\":11943:12074   */\n      tag_579\n        /* \"#utility.yul\":12069:12073   */\n      dup2\n        /* \"#utility.yul\":11943:12074   */\n      tag_456\n      jump\t// in\n    tag_579:\n        /* \"#utility.yul\":11935:12074   */\n      swap1\n      pop\n        /* \"#utility.yul\":11662:12081   */\n      swap2\n      swap1\n      pop\n      jump\t// out\n        /* \"#utility.yul\":12087:12267   */\n    tag_231:\n        /* \"#utility.yul\":12135:12212   */\n      0x4e487b7100000000000000000000000000000000000000000000000000000000\n        /* \"#utility.yul\":12132:12133   */\n      0x00\n        /* \"#utility.yul\":12125:12213   */\n      mstore\n        /* \"#utility.yul\":12232:12236   */\n      0x32\n        /* \"#utility.yul\":12229:12230   */\n      0x04\n        /* \"#utility.yul\":12222:12237   */\n      mstore\n        /* \"#utility.yul\":12256:12260   */\n      0x24\n        /* \"#utility.yul\":12253:12254   */\n      0x00\n        /* \"#utility.yul\":12246:12261   */\n      revert\n        /* \"#utility.yul\":12273:12467   */\n    tag_235:\n        /* \"#utility.yul\":12313:12317   */\n      0x00\n        /* \"#utility.yul\":12333:12353   */\n      tag_582\n        /* \"#utility.yul\":12351:12352   */\n      dup3\n        /* \"#utility.yul\":12333:12353   */\n      tag_437\n      jump\t// in\n    tag_582:\n        /* \"#utility.yul\":12328:12353   */\n      swap2\n      pop\n        /* \"#utility.yul\":12367:12387   */\n      tag_583\n        /* \"#utility.yul\":12385:12386   */\n      dup4\n        /* \"#utility.yul\":12367:12387   */\n      tag_437\n      jump\t// in\n    tag_583:\n        /* \"#utility.yul\":12362:12387   */\n      swap3\n      pop\n        /* \"#utility.yul\":12411:12412   */\n      dup3\n        /* \"#utility.yul\":12408:12409   */\n      dup3\n        /* \"#utility.yul\":12404:12413   */\n      sub\n        /* \"#utility.yul\":12396:12413   */\n      swap1\n      pop\n        /* \"#utility.yul\":12435:12436   */\n      dup2\n        /* \"#utility.yul\":12429:12433   */\n      dup2\n        /* \"#utility.yul\":12426:12437   */\n      gt\n        /* \"#utility.yul\":12423:12460   */\n      iszero\n      tag_584\n      jumpi\n        /* \"#utility.yul\":12440:12458   */\n      tag_585\n      tag_449\n      jump\t// in\n    tag_585:\n        /* \"#utility.yul\":12423:12460   */\n    tag_584:\n        /* \"#utility.yul\":12273:12467   */\n      swap3\n      swap2\n      pop\n      pop\n      jump\t// out\n        /* \"#utility.yul\":12473:12653   */\n    tag_244:\n        /* \"#utility.yul\":12521:12598   */\n      0x4e487b7100000000000000000000000000000000000000000000000000000000\n        /* \"#utility.yul\":12518:12519   */\n      0x00\n        /* \"#utility.yul\":12511:12599   */\n      mstore\n        /* \"#utility.yul\":12618:12622   */\n      0x31\n        /* \"#utility.yul\":12615:12616   */\n      0x04\n        /* \"#utility.yul\":12608:12623   */\n      mstore\n        /* \"#utility.yul\":12642:12646   */\n      0x24\n        /* \"#utility.yul\":12639:12640   */\n      0x00\n        /* \"#utility.yul\":12632:12647   */\n      revert\n        /* \"#utility.yul\":12659:12880   */\n    tag_457:\n        /* \"#utility.yul\":12799:12833   */\n      0x5265776172642072617465206d7573742062652067726561746572207468616e\n        /* \"#utility.yul\":12795:12796   */\n      0x00\n        /* \"#utility.yul\":12787:12793   */\n      dup3\n        /* \"#utility.yul\":12783:12797   */\n      add\n        /* \"#utility.yul\":12776:12834   */\n      mstore\n        /* \"#utility.yul\":12868:12872   */\n      0x2030000000000000000000000000000000000000000000000000000000000000\n        /* \"#utility.yul\":12863:12865   */\n      0x20\n        /* \"#utility.yul\":12855:12861   */\n      dup3\n        /* \"#utility.yul\":12851:12866   */\n      add\n        /* \"#utility.yul\":12844:12873   */\n      mstore\n        /* \"#utility.yul\":12659:12880   */\n      pop\n      jump\t// out\n        /* \"#utility.yul\":12886:13252   */\n    tag_458:\n        /* \"#utility.yul\":13028:13031   */\n      0x00\n        /* \"#utility.yul\":13049:13116   */\n      tag_589\n        /* \"#utility.yul\":13113:13115   */\n      0x22\n        /* \"#utility.yul\":13108:13111   */\n      dup4\n        /* \"#utility.yul\":13049:13116   */\n      tag_426\n      jump\t// in\n    tag_589:\n        /* \"#utility.yul\":13042:13116   */\n      swap2\n      pop\n        /* \"#utility.yul\":13125:13218   */\n      tag_590\n        /* \"#utility.yul\":13214:13217   */\n      dup3\n        /* \"#utility.yul\":13125:13218   */\n      tag_457\n      jump\t// in\n    tag_590:\n        /* \"#utility.yul\":13243:13245   */\n      0x40\n        /* \"#utility.yul\":13238:13241   */\n      dup3\n        /* \"#utility.yul\":13234:13246   */\n      add\n        /* \"#utility.yul\":13227:13246   */\n      swap1\n      pop\n        /* \"#utility.yul\":12886:13252   */\n      swap2\n      swap1\n      pop\n      jump\t// out\n        /* \"#utility.yul\":13258:13677   */\n    tag_282:\n        /* \"#utility.yul\":13424:13428   */\n      0x00\n        /* \"#utility.yul\":13462:13464   */\n      0x20\n        /* \"#utility.yul\":13451:13460   */\n      dup3\n        /* \"#utility.yul\":13447:13465   */\n      add\n        /* \"#utility.yul\":13439:13465   */\n      swap1\n      pop\n        /* \"#utility.yul\":13511:13520   */\n      dup2\n        /* \"#utility.yul\":13505:13509   */\n      dup2\n        /* \"#utility.yul\":13501:13521   */\n      sub\n        /* \"#utility.yul\":13497:13498   */\n      0x00\n        /* \"#utility.yul\":13486:13495   */\n      dup4\n        /* \"#utility.yul\":13482:13499   */\n      add\n        /* \"#utility.yul\":13475:13522   */\n      mstore\n        /* \"#utility.yul\":13539:13670   */\n      tag_592\n        /* \"#utility.yul\":13665:13669   */\n      dup2\n        /* \"#utility.yul\":13539:13670   */\n      tag_458\n      jump\t// in\n    tag_592:\n        /* \"#utility.yul\":13531:13670   */\n      swap1\n      pop\n        /* \"#utility.yul\":13258:13677   */\n      swap2\n      swap1\n      pop\n      jump\t// out\n        /* \"#utility.yul\":13683:13854   */\n    tag_459:\n        /* \"#utility.yul\":13823:13846   */\n      0x43616e6e6f74207374616b65203020746f6b656e730000000000000000000000\n        /* \"#utility.yul\":13819:13820   */\n      0x00\n        /* \"#utility.yul\":13811:13817   */\n      dup3\n        /* \"#utility.yul\":13807:13821   */\n      add\n        /* \"#utility.yul\":13800:13847   */\n      mstore\n        /* \"#utility.yul\":13683:13854   */\n      pop\n      jump\t// out\n        /* \"#utility.yul\":13860:14226   */\n    tag_460:\n        /* \"#utility.yul\":14002:14005   */\n      0x00\n        /* \"#utility.yul\":14023:14090   */\n      tag_595\n        /* \"#utility.yul\":14087:14089   */\n      0x15\n        /* \"#utility.yul\":14082:14085   */\n      dup4\n        /* \"#utility.yul\":14023:14090   */\n      tag_426\n      jump\t// in\n    tag_595:\n        /* \"#utility.yul\":14016:14090   */\n      swap2\n      pop\n        /* \"#utility.yul\":14099:14192   */\n      tag_596\n        /* \"#utility.yul\":14188:14191   */\n      dup3\n        /* \"#utility.yul\":14099:14192   */\n      tag_459\n      jump\t// in\n    tag_596:\n        /* \"#utility.yul\":14217:14219   */\n      0x20\n        /* \"#utility.yul\":14212:14215   */\n      dup3\n        /* \"#utility.yul\":14208:14220   */\n      add\n        /* \"#utility.yul\":14201:14220   */\n      swap1\n      pop\n        /* \"#utility.yul\":13860:14226   */\n      swap2\n      swap1\n      pop\n      jump\t// out\n        /* \"#utility.yul\":14232:14651   */\n    tag_288:\n        /* \"#utility.yul\":14398:14402   */\n      0x00\n        /* \"#utility.yul\":14436:14438   */\n      0x20\n        /* \"#utility.yul\":14425:14434   */\n      dup3\n        /* \"#utility.yul\":14421:14439   */\n      add\n        /* \"#utility.yul\":14413:14439   */\n      swap1\n      pop\n        /* \"#utility.yul\":14485:14494   */\n      dup2\n        /* \"#utility.yul\":14479:14483   */\n      dup2\n        /* \"#utility.yul\":14475:14495   */\n      sub\n        /* \"#utility.yul\":14471:14472   */\n      0x00\n        /* \"#utility.yul\":14460:14469   */\n      dup4\n        /* \"#utility.yul\":14456:14473   */\n      add\n        /* \"#utility.yul\":14449:14496   */\n      mstore\n        /* \"#utility.yul\":14513:14644   */\n      tag_598\n        /* \"#utility.yul\":14639:14643   */\n      dup2\n        /* \"#utility.yul\":14513:14644   */\n      tag_460\n      jump\t// in\n    tag_598:\n        /* \"#utility.yul\":14505:14644   */\n      swap1\n      pop\n        /* \"#utility.yul\":14232:14651   */\n      swap2\n      swap1\n      pop\n      jump\t// out\n        /* \"#utility.yul\":14657:14838   */\n    tag_461:\n        /* \"#utility.yul\":14797:14830   */\n      0x5265656e7472616e637947756172643a207265656e7472616e742063616c6c00\n        /* \"#utility.yul\":14793:14794   */\n      0x00\n        /* \"#utility.yul\":14785:14791   */\n      dup3\n        /* \"#utility.yul\":14781:14795   */\n      add\n        /* \"#utility.yul\":14774:14831   */\n      mstore\n        /* \"#utility.yul\":14657:14838   */\n      pop\n      jump\t// out\n        /* \"#utility.yul\":14844:15210   */\n    tag_462:\n        /* \"#utility.yul\":14986:14989   */\n      0x00\n        /* \"#utility.yul\":15007:15074   */\n      tag_601\n        /* \"#utility.yul\":15071:15073   */\n      0x1f\n        /* \"#utility.yul\":15066:15069   */\n      dup4\n        /* \"#utility.yul\":15007:15074   */\n      tag_426\n      jump\t// in\n    tag_601:\n        /* \"#utility.yul\":15000:15074   */\n      swap2\n      pop\n        /* \"#utility.yul\":15083:15176   */\n      tag_602\n        /* \"#utility.yul\":15172:15175   */\n      dup3\n        /* \"#utility.yul\":15083:15176   */\n      tag_461\n      jump\t// in\n    tag_602:\n        /* \"#utility.yul\":15201:15203   */\n      0x20\n        /* \"#utility.yul\":15196:15199   */\n      dup3\n        /* \"#utility.yul\":15192:15204   */\n      add\n        /* \"#utility.yul\":15185:15204   */\n      swap1\n      pop\n        /* \"#utility.yul\":14844:15210   */\n      swap2\n      swap1\n      pop\n      jump\t// out\n        /* \"#utility.yul\":15216:15635   */\n    tag_346:\n        /* \"#utility.yul\":15382:15386   */\n      0x00\n        /* \"#utility.yul\":15420:15422   */\n      0x20\n        /* \"#utility.yul\":15409:15418   */\n      dup3\n        /* \"#utility.yul\":15405:15423   */\n      add\n        /* \"#utility.yul\":15397:15423   */\n      swap1\n      pop\n        /* \"#utility.yul\":15469:15478   */\n      dup2\n        /* \"#utility.yul\":15463:15467   */\n      dup2\n        /* \"#utility.yul\":15459:15479   */\n      sub\n        /* \"#utility.yul\":15455:15456   */\n      0x00\n        /* \"#utility.yul\":15444:15453   */\n      dup4\n        /* \"#utility.yul\":15440:15457   */\n      add\n        /* \"#utility.yul\":15433:15480   */\n      mstore\n        /* \"#utility.yul\":15497:15628   */\n      tag_604\n        /* \"#utility.yul\":15623:15627   */\n      dup2\n        /* \"#utility.yul\":15497:15628   */\n      tag_462\n      jump\t// in\n    tag_604:\n        /* \"#utility.yul\":15489:15628   */\n      swap1\n      pop\n        /* \"#utility.yul\":15216:15635   */\n      swap2\n      swap1\n      pop\n      jump\t// out\n        /* \"#utility.yul\":15641:15832   */\n    tag_361:\n        /* \"#utility.yul\":15681:15684   */\n      0x00\n        /* \"#utility.yul\":15700:15720   */\n      tag_606\n        /* \"#utility.yul\":15718:15719   */\n      dup3\n        /* \"#utility.yul\":15700:15720   */\n      tag_437\n      jump\t// in\n    tag_606:\n        /* \"#utility.yul\":15695:15720   */\n      swap2\n      pop\n        /* \"#utility.yul\":15734:15754   */\n      tag_607\n        /* \"#utility.yul\":15752:15753   */\n      dup4\n        /* \"#utility.yul\":15734:15754   */\n      tag_437\n      jump\t// in\n    tag_607:\n        /* \"#utility.yul\":15729:15754   */\n      swap3\n      pop\n        /* \"#utility.yul\":15777:15778   */\n      dup3\n        /* \"#utility.yul\":15774:15775   */\n      dup3\n        /* \"#utility.yul\":15770:15779   */\n      add\n        /* \"#utility.yul\":15763:15779   */\n      swap1\n      pop\n        /* \"#utility.yul\":15798:15801   */\n      dup1\n        /* \"#utility.yul\":15795:15796   */\n      dup3\n        /* \"#utility.yul\":15792:15802   */\n      gt\n        /* \"#utility.yul\":15789:15825   */\n      iszero\n      tag_608\n      jumpi\n        /* \"#utility.yul\":15805:15823   */\n      tag_609\n      tag_449\n      jump\t// in\n    tag_609:\n        /* \"#utility.yul\":15789:15825   */\n    tag_608:\n        /* \"#utility.yul\":15641:15832   */\n      swap3\n      swap2\n      pop\n      pop\n      jump\t// out\n        /* \"#utility.yul\":15838:16280   */\n    tag_375:\n        /* \"#utility.yul\":15987:15991   */\n      0x00\n        /* \"#utility.yul\":16025:16027   */\n      0x60\n        /* \"#utility.yul\":16014:16023   */\n      dup3\n        /* \"#utility.yul\":16010:16028   */\n      add\n        /* \"#utility.yul\":16002:16028   */\n      swap1\n      pop\n        /* \"#utility.yul\":16038:16109   */\n      tag_611\n        /* \"#utility.yul\":16106:16107   */\n      0x00\n        /* \"#utility.yul\":16095:16104   */\n      dup4\n        /* \"#utility.yul\":16091:16108   */\n      add\n        /* \"#utility.yul\":16082:16088   */\n      dup7\n        /* \"#utility.yul\":16038:16109   */\n      tag_443\n      jump\t// in\n    tag_611:\n        /* \"#utility.yul\":16119:16191   */\n      tag_612\n        /* \"#utility.yul\":16187:16189   */\n      0x20\n        /* \"#utility.yul\":16176:16185   */\n      dup4\n        /* \"#utility.yul\":16172:16190   */\n      add\n        /* \"#utility.yul\":16163:16169   */\n      dup6\n        /* \"#utility.yul\":16119:16191   */\n      tag_442\n      jump\t// in\n    tag_612:\n        /* \"#utility.yul\":16201:16273   */\n      tag_613\n        /* \"#utility.yul\":16269:16271   */\n      0x40\n        /* \"#utility.yul\":16258:16267   */\n      dup4\n        /* \"#utility.yul\":16254:16272   */\n      add\n        /* \"#utility.yul\":16245:16251   */\n      dup5\n        /* \"#utility.yul\":16201:16273   */\n      tag_442\n      jump\t// in\n    tag_613:\n        /* \"#utility.yul\":15838:16280   */\n      swap5\n      swap4\n      pop\n      pop\n      pop\n      pop\n      jump\t// out\n        /* \"#utility.yul\":16286:16519   */\n    tag_391:\n        /* \"#utility.yul\":16325:16328   */\n      0x00\n        /* \"#utility.yul\":16348:16372   */\n      tag_615\n        /* \"#utility.yul\":16366:16371   */\n      dup3\n        /* \"#utility.yul\":16348:16372   */\n      tag_437\n      jump\t// in\n    tag_615:\n        /* \"#utility.yul\":16339:16372   */\n      swap2\n      pop\n        /* \"#utility.yul\":16394:16460   */\n      0xffffffffffffffffffffffffffffffffffffffffffffffffffffffffffffffff\n        /* \"#utility.yul\":16387:16392   */\n      dup3\n        /* \"#utility.yul\":16384:16461   */\n      sub\n        /* \"#utility.yul\":16381:16484   */\n      tag_616\n      jumpi\n        /* \"#utility.yul\":16464:16482   */\n      tag_617\n      tag_449\n      jump\t// in\n    tag_617:\n        /* \"#utility.yul\":16381:16484   */\n    tag_616:\n        /* \"#utility.yul\":16511:16512   */\n      0x01\n        /* \"#utility.yul\":16504:16509   */\n      dup3\n        /* \"#utility.yul\":16500:16513   */\n      add\n        /* \"#utility.yul\":16493:16513   */\n      swap1\n      pop\n        /* \"#utility.yul\":16286:16519   */\n      swap2\n      swap1\n      pop\n      jump\t// out\n        /* \"#utility.yul\":16525:16705   */\n    tag_394:\n        /* \"#utility.yul\":16573:16650   */\n      0x4e487b7100000000000000000000000000000000000000000000000000000000\n        /* \"#utility.yul\":16570:16571   */\n      0x00\n        /* \"#utility.yul\":16563:16651   */\n      mstore\n        /* \"#utility.yul\":16670:16674   */\n      0x41\n        /* \"#utility.yul\":16667:16668   */\n      0x04\n        /* \"#utility.yul\":16660:16675   */\n      mstore\n        /* \"#utility.yul\":16694:16698   */\n      0x24\n        /* \"#utility.yul\":16691:16692   */\n      0x00\n        /* \"#utility.yul\":16684:16699   */\n      revert\n\n    auxdata: 0xa2646970667358221220dea26fd50e88693e5ab7240d40137b89cd9ab888a65ddc6d86484334e0b6c34e64736f6c634300081c0033\n}\n",
				"bytecode": {
					"linkReferences": {},
					"object": "608060405234801561000f575f5ffd5b5060405161355b38038061355b8339818101604052810190610031919061077f565b306040518060400160405280600c81526020017f50696e67506f6e67506c617900000000000000000000000000000000000000008152506040518060400160405280600681526020017f50494e475050000000000000000000000000000000000000000000000000000081525081600390816100ad91906109de565b5080600490816100bd91906109de565b5050505f73ffffffffffffffffffffffffffffffffffffffff168173ffffffffffffffffffffffffffffffffffffffff1603610130575f6040517f1e4fbdf70000000000000000000000000000000000000000000000000000000081526004016101279190610aec565b60405180910390fd5b61013f816102f160201b60201c565b5060016006819055505f811161018a576040517f08c379a000000000000000000000000000000000000000000000000000000000815260040161018190610b85565b60405180910390fd5b80600b819055506101ac306a52b7d2dcc80cd2e40000006103b460201b60201c565b426007819055506101e73033606460286a52b7d2dcc80cd2e40000006101d29190610bd0565b6101dc9190610c3e565b61043960201b60201c565b61021b3030606460146a52b7d2dcc80cd2e40000006102069190610bd0565b6102109190610c3e565b61043960201b60201c565b61024f30336064600f6a52b7d2dcc80cd2e400000061023a9190610bd0565b6102449190610c3e565b61043960201b60201c565b61028330336064600a6a52b7d2dcc80cd2e400000061026e9190610bd0565b6102789190610c3e565b61043960201b60201c565b6102b730336064600a6a52b7d2dcc80cd2e40000006102a29190610bd0565b6102ac9190610c3e565b61043960201b60201c565b6102eb3033606460056a52b7d2dcc80cd2e40000006102d69190610bd0565b6102e09190610c3e565b61043960201b60201c565b50610cfe565b5f60055f9054906101000a900473ffffffffffffffffffffffffffffffffffffffff1690508160055f6101000a81548173ffffffffffffffffffffffffffffffffffffffff021916908373ffffffffffffffffffffffffffffffffffffffff1602179055508173ffffffffffffffffffffffffffffffffffffffff168173ffffffffffffffffffffffffffffffffffffffff167f8be0079c531659141344cd1fd0a4f28419497f9722a3daafe3b4186f6b6457e060405160405180910390a35050565b5f73ffffffffffffffffffffffffffffffffffffffff168273ffffffffffffffffffffffffffffffffffffffff1603610424575f6040517fec442f0500000000000000000000000000000000000000000000000000000000815260040161041b9190610aec565b60405180910390fd5b6104355f838361052f60201b60201c565b5050565b5f73ffffffffffffffffffffffffffffffffffffffff168373ffffffffffffffffffffffffffffffffffffffff16036104a9575f6040517f96c6fd1e0000000000000000000000000000000000000000000000000000000081526004016104a09190610aec565b60405180910390fd5b5f73ffffffffffffffffffffffffffffffffffffffff168273ffffffffffffffffffffffffffffffffffffffff1603610519575f6040517fec442f050000000000000000000000000000000000000000000000000000000081526004016105109190610aec565b60405180910390fd5b61052a83838361052f60201b60201c565b505050565b5f73ffffffffffffffffffffffffffffffffffffffff168373ffffffffffffffffffffffffffffffffffffffff160361057f578060025f8282546105739190610c6e565b9250508190555061064d565b5f5f5f8573ffffffffffffffffffffffffffffffffffffffff1673ffffffffffffffffffffffffffffffffffffffff1681526020019081526020015f2054905081811015610608578381836040517fe450d38c0000000000000000000000000000000000000000000000000000000081526004016105ff93929190610cb0565b60405180910390fd5b8181035f5f8673ffffffffffffffffffffffffffffffffffffffff1673ffffffffffffffffffffffffffffffffffffffff1681526020019081526020015f2081905550505b5f73ffffffffffffffffffffffffffffffffffffffff168273ffffffffffffffffffffffffffffffffffffffff1603610694578060025f82825403925050819055506106de565b805f5f8473ffffffffffffffffffffffffffffffffffffffff1673ffffffffffffffffffffffffffffffffffffffff1681526020019081526020015f205f82825401925050819055505b8173ffffffffffffffffffffffffffffffffffffffff168373ffffffffffffffffffffffffffffffffffffffff167fddf252ad1be2c89b69c2b068fc378daa952ba7f163c4a11628f55a4df523b3ef8360405161073b9190610ce5565b60405180910390a3505050565b5f5ffd5b5f819050919050565b61075e8161074c565b8114610768575f5ffd5b50565b5f8151905061077981610755565b92915050565b5f6020828403121561079457610793610748565b5b5f6107a18482850161076b565b91505092915050565b5f81519050919050565b7f4e487b71000000000000000000000000000000000000000000000000000000005f52604160045260245ffd5b7f4e487b71000000000000000000000000000000000000000000000000000000005f52602260045260245ffd5b5f600282049050600182168061082557607f821691505b602082108103610838576108376107e1565b5b50919050565b5f819050815f5260205f209050919050565b5f6020601f8301049050919050565b5f82821b905092915050565b5f6008830261089a7fffffffffffffffffffffffffffffffffffffffffffffffffffffffffffffffff8261085f565b6108a4868361085f565b95508019841693508086168417925050509392505050565b5f819050919050565b5f6108df6108da6108d58461074c565b6108bc565b61074c565b9050919050565b5f819050919050565b6108f8836108c5565b61090c610904826108e6565b84845461086b565b825550505050565b5f5f905090565b610923610914565b61092e8184846108ef565b505050565b5b81811015610951576109465f8261091b565b600181019050610934565b5050565b601f821115610996576109678161083e565b61097084610850565b8101602085101561097f578190505b61099361098b85610850565b830182610933565b50505b505050565b5f82821c905092915050565b5f6109b65f198460080261099b565b1980831691505092915050565b5f6109ce83836109a7565b9150826002028217905092915050565b6109e7826107aa565b67ffffffffffffffff811115610a00576109ff6107b4565b5b610a0a825461080e565b610a15828285610955565b5f60209050601f831160018114610a46575f8415610a34578287015190505b610a3e85826109c3565b865550610aa5565b601f198416610a548661083e565b5f5b82811015610a7b57848901518255600182019150602085019450602081019050610a56565b86831015610a985784890151610a94601f8916826109a7565b8355505b6001600288020188555050505b505050505050565b5f73ffffffffffffffffffffffffffffffffffffffff82169050919050565b5f610ad682610aad565b9050919050565b610ae681610acc565b82525050565b5f602082019050610aff5f830184610add565b92915050565b5f82825260208201905092915050565b7f5265776172642072617465206d7573742062652067726561746572207468616e5f8201527f2030000000000000000000000000000000000000000000000000000000000000602082015250565b5f610b6f602283610b05565b9150610b7a82610b15565b604082019050919050565b5f6020820190508181035f830152610b9c81610b63565b9050919050565b7f4e487b71000000000000000000000000000000000000000000000000000000005f52601160045260245ffd5b5f610bda8261074c565b9150610be58361074c565b9250828202610bf38161074c565b91508282048414831517610c0a57610c09610ba3565b5b5092915050565b7f4e487b71000000000000000000000000000000000000000000000000000000005f52601260045260245ffd5b5f610c488261074c565b9150610c538361074c565b925082610c6357610c62610c11565b5b828204905092915050565b5f610c788261074c565b9150610c838361074c565b9250828201905080821115610c9b57610c9a610ba3565b5b92915050565b610caa8161074c565b82525050565b5f606082019050610cc35f830186610add565b610cd06020830185610ca1565b610cdd6040830184610ca1565b949350505050565b5f602082019050610cf85f830184610ca1565b92915050565b61285080610d0b5f395ff3fe608060405234801561000f575f5ffd5b50600436106101f9575f3560e01c806370a08231116101185780639ef3a261116100ab578063d82e39621161007a578063d82e39621461056d578063dd62ed3e1461059d578063e75c4927146105cd578063f2fde38b146105eb578063f6f0fa8d14610607576101f9565b80639ef3a261146104fb578063a694fc3a14610517578063a9059cbb14610533578063cb3dbecb14610563576101f9565b80638da5cb5b116100e75780638da5cb5b14610483578063902d55a5146104a157806395d89b41146104bf5780639d2cc436146104dd576101f9565b806370a082311461040f578063715018a61461043f57806379cc6790146104495780637b0a47ee14610465576101f9565b8063254800d41161019057806339cf9b001161015f57806339cf9b001461039957806342966c68146103b75780634cfc4d30146103d35780635f89584e146103f1576101f9565b8063254800d414610311578063294f5fa31461032f5780632e17de781461035f578063313ce5671461037b576101f9565b806316934fc4116101cc57806316934fc41461027357806318160ddd146102a55780631cfe31c2146102c357806323b872dd146102e1576101f9565b806306fdde03146101fd578063095ea7b31461021b57806314c411c71461024b5780631571ccf614610255575b5f5ffd5b610205610625565b6040516102129190611fcc565b60405180910390f35b6102356004803603810190610230919061207d565b6106b5565b60405161024291906120d5565b60405180910390f35b6102536106d7565b005b61025d610827565b60405161026a91906120fd565b60405180910390f35b61028d60048036038101906102889190612116565b61084e565b60405161029c93929190612141565b60405180910390f35b6102ad610874565b6040516102ba91906120fd565b60405180910390f35b6102cb61087d565b6040516102d891906120fd565b60405180910390f35b6102fb60048036038101906102f69190612176565b6108a4565b60405161030891906120d5565b60405180910390f35b6103196108d2565b60405161032691906120fd565b60405180910390f35b610349600480360381019061034491906121c6565b6108d8565b6040516103569190612200565b60405180910390f35b610379600480360381019061037491906121c6565b610913565b005b610383610d51565b6040516103909190612234565b60405180910390f35b6103a1610d59565b6040516103ae91906120fd565b60405180910390f35b6103d160048036038101906103cc91906121c6565b610d80565b005b6103db610d94565b6040516103e891906120fd565b60405180910390f35b6103f9610d9c565b60405161040691906120fd565b60405180910390f35b61042960048036038101906104249190612116565b610dc3565b60405161043691906120fd565b60405180910390f35b610447610e08565b005b610463600480360381019061045e919061207d565b610e1b565b005b61046d610e3b565b60405161047a91906120fd565b60405180910390f35b61048b610e41565b6040516104989190612200565b60405180910390f35b6104a9610e69565b6040516104b691906120fd565b60405180910390f35b6104c7610e78565b6040516104d49190611fcc565b60405180910390f35b6104e5610f08565b6040516104f291906120fd565b60405180910390f35b610515600480360381019061051091906121c6565b610f2f565b005b610531600480360381019061052c91906121c6565b610f83565b005b61054d6004803603810190610548919061207d565b611122565b60405161055a91906120d5565b60405180910390f35b61056b611144565b005b61058760048036038101906105829190612116565b6112e8565b60405161059491906120fd565b60405180910390f35b6105b760048036038101906105b2919061224d565b6113e5565b6040516105c491906120fd565b60405180910390f35b6105d5611467565b6040516105e291906120fd565b60405180910390f35b61060560048036038101906106009190612116565b61148e565b005b61060f611512565b60405161061c91906120fd565b60405180910390f35b606060038054610634906122b8565b80601f0160208091040260200160405190810160405280929190818152602001828054610660906122b8565b80156106ab5780601f10610682576101008083540402835291602001916106ab565b820191905f5260205f20905b81548152906001019060200180831161068e57829003601f168201915b5050505050905090565b5f5f6106bf611518565b90506106cc81858561151f565b600191505092915050565b6106df611531565b6106e7611580565b60075442101561072c576040517f08c379a000000000000000000000000000000000000000000000000000000000815260040161072390612332565b60405180910390fd5b5f6107426007544261160790919063ffffffff16565b90505f6107916301e1338061078384606460146a52b7d2dcc80cd2e400000061076b919061237d565b61077591906123eb565b61161c90919063ffffffff16565b61163190919063ffffffff16565b90505f6107a96008548361160790919063ffffffff16565b90505f81116107ed576040517f08c379a00000000000000000000000000000000000000000000000000000000081526004016107e490612465565b60405180910390fd5b6108028160085461164690919063ffffffff16565b60088190555061081a30610814610e41565b8361165b565b50505061082561174b565b565b606460146a52b7d2dcc80cd2e4000000610841919061237d565b61084b91906123eb565b81565b6009602052805f5260405f205f91509050805f0154908060010154908060020154905083565b5f600254905090565b606460056a52b7d2dcc80cd2e4000000610897919061237d565b6108a191906123eb565b81565b5f5f6108ae611518565b90506108bb858285611755565b6108c685858561165b565b60019150509392505050565b60075481565b600a81815481106108e7575f80fd5b905f5260205f20015f915054906101000a900473ffffffffffffffffffffffffffffffffffffffff1681565b61091b611531565b5f811161095d576040517f08c379a0000000000000000000000000000000000000000000000000000000008152600401610954906124cd565b60405180910390fd5b8060095f3373ffffffffffffffffffffffffffffffffffffffff1673ffffffffffffffffffffffffffffffffffffffff1681526020019081526020015f205f015410156109df576040517f08c379a00000000000000000000000000000000000000000000000000000000081526004016109d690612535565b60405180910390fd5b5f6109e9336112e8565b90505f6109ff828461164690919063ffffffff16565b9050610a538360095f3373ffffffffffffffffffffffffffffffffffffffff1673ffffffffffffffffffffffffffffffffffffffff1681526020019081526020015f205f015461160790919063ffffffff16565b60095f3373ffffffffffffffffffffffffffffffffffffffff1673ffffffffffffffffffffffffffffffffffffffff1681526020019081526020015f205f01819055504260095f3373ffffffffffffffffffffffffffffffffffffffff1673ffffffffffffffffffffffffffffffffffffffff1681526020019081526020015f20600101819055504260095f3373ffffffffffffffffffffffffffffffffffffffff1673ffffffffffffffffffffffffffffffffffffffff1681526020019081526020015f2060020181905550610b2b30338361165b565b5f5f90505b600a80549050811015610ca7573373ffffffffffffffffffffffffffffffffffffffff16600a8281548110610b6857610b67612553565b5b905f5260205f20015f9054906101000a900473ffffffffffffffffffffffffffffffffffffffff1673ffffffffffffffffffffffffffffffffffffffff1603610c9a57600a6001600a80549050610bbf9190612580565b81548110610bd057610bcf612553565b5b905f5260205f20015f9054906101000a900473ffffffffffffffffffffffffffffffffffffffff16600a8281548110610c0c57610c0b612553565b5b905f5260205f20015f6101000a81548173ffffffffffffffffffffffffffffffffffffffff021916908373ffffffffffffffffffffffffffffffffffffffff160217905550600a805480610c6357610c626125b3565b5b600190038181905f5260205f20015f6101000a81549073ffffffffffffffffffffffffffffffffffffffff02191690559055610ca7565b8080600101915050610b30565b503373ffffffffffffffffffffffffffffffffffffffff167f0f5bb82176feb1b5e747e28471aa92156a04d9f3ab9f45f28e2d704232b93f7584604051610cee91906120fd565b60405180910390a23373ffffffffffffffffffffffffffffffffffffffff167ff9984c8173c4b4ff9cc454f76ed19c053f4490ccb224fd9ddffeb4ef4bea353083604051610d3c91906120fd565b60405180910390a25050610d4e61174b565b50565b5f6012905090565b6064600f6a52b7d2dcc80cd2e4000000610d73919061237d565b610d7d91906123eb565b81565b610d91610d8b611518565b826117e8565b50565b6301e1338081565b606460286a52b7d2dcc80cd2e4000000610db6919061237d565b610dc091906123eb565b81565b5f5f5f8373ffffffffffffffffffffffffffffffffffffffff1673ffffffffffffffffffffffffffffffffffffffff1681526020019081526020015f20549050919050565b610e10611580565b610e195f611867565b565b610e2d82610e27611518565b83611755565b610e3782826117e8565b5050565b600b5481565b5f60055f9054906101000a900473ffffffffffffffffffffffffffffffffffffffff16905090565b6a52b7d2dcc80cd2e400000081565b606060048054610e87906122b8565b80601f0160208091040260200160405190810160405280929190818152602001828054610eb3906122b8565b8015610efe5780601f10610ed557610100808354040283529160200191610efe565b820191905f5260205f20905b815481529060010190602001808311610ee157829003601f168201915b5050505050905090565b6064600a6a52b7d2dcc80cd2e4000000610f22919061237d565b610f2c91906123eb565b81565b610f37611580565b5f8111610f79576040517f08c379a0000000000000000000000000000000000000000000000000000000008152600401610f7090612650565b60405180910390fd5b80600b8190555050565b610f8b611531565b5f8111610fcd576040517f08c379a0000000000000000000000000000000000000000000000000000000008152600401610fc4906126b8565b60405180910390fd5b610fd833308361165b565b5f60095f3373ffffffffffffffffffffffffffffffffffffffff1673ffffffffffffffffffffffffffffffffffffffff1681526020019081526020015f209050600a33908060018154018082558091505060019003905f5260205f20015f9091909190916101000a81548173ffffffffffffffffffffffffffffffffffffffff021916908373ffffffffffffffffffffffffffffffffffffffff1602179055505f611082336112e8565b90505f8111156110e65761109730338361165b565b3373ffffffffffffffffffffffffffffffffffffffff167ff9984c8173c4b4ff9cc454f76ed19c053f4490ccb224fd9ddffeb4ef4bea3530826040516110dd91906120fd565b60405180910390a25b6110fc83835f015461164690919063ffffffff16565b825f0181905550428260010181905550428260020181905550505061111f61174b565b50565b5f5f61112c611518565b905061113981858561165b565b600191505092915050565b61114c611580565b5f61115561192a565b90505f5f90505f5f90505b82518110156112ac575f60095f8584815181106111805761117f612553565b5b602002602001015173ffffffffffffffffffffffffffffffffffffffff1673ffffffffffffffffffffffffffffffffffffffff1681526020019081526020015f2090505f6111e78584815181106111da576111d9612553565b5b60200260200101516112e8565b90505f81111561129d576112163086858151811061120857611207612553565b5b60200260200101518361165b565b428260020181905550611232818561164690919063ffffffff16565b935084838151811061124757611246612553565b5b602002602001015173ffffffffffffffffffffffffffffffffffffffff167ff9984c8173c4b4ff9cc454f76ed19c053f4490ccb224fd9ddffeb4ef4bea35308260405161129491906120fd565b60405180910390a25b50508080600101915050611160565b507f6a51b76326892cba00f44f8bc83414a1c2e4715f4bc1ebcac12326172ed53f18816040516112dc91906120fd565b60405180910390a15050565b5f5f60095f8473ffffffffffffffffffffffffffffffffffffffff1673ffffffffffffffffffffffffffffffffffffffff1681526020019081526020015f206040518060600160405290815f82015481526020016001820154815260200160028201548152505090505f815f015103611364575f9150506113e0565b5f620151808260400151426113799190612580565b61138391906123eb565b90505f6113b160646113a3600b54865f015161161c90919063ffffffff16565b61163190919063ffffffff16565b90506113da61016d6113cc848461161c90919063ffffffff16565b61163190919063ffffffff16565b93505050505b919050565b5f60015f8473ffffffffffffffffffffffffffffffffffffffff1673ffffffffffffffffffffffffffffffffffffffff1681526020019081526020015f205f8373ffffffffffffffffffffffffffffffffffffffff1673ffffffffffffffffffffffffffffffffffffffff1681526020019081526020015f2054905092915050565b6064600a6a52b7d2dcc80cd2e4000000611481919061237d565b61148b91906123eb565b81565b611496611580565b5f73ffffffffffffffffffffffffffffffffffffffff168173ffffffffffffffffffffffffffffffffffffffff1603611506575f6040517f1e4fbdf70000000000000000000000000000000000000000000000000000000081526004016114fd9190612200565b60405180910390fd5b61150f81611867565b50565b60085481565b5f33905090565b61152c8383836001611b74565b505050565b600260065403611576576040517f08c379a000000000000000000000000000000000000000000000000000000000815260040161156d90612720565b60405180910390fd5b6002600681905550565b611588611518565b73ffffffffffffffffffffffffffffffffffffffff166115a6610e41565b73ffffffffffffffffffffffffffffffffffffffff1614611605576115c9611518565b6040517f118cdaa70000000000000000000000000000000000000000000000000000000081526004016115fc9190612200565b60405180910390fd5b565b5f81836116149190612580565b905092915050565b5f8183611629919061237d565b905092915050565b5f818361163e91906123eb565b905092915050565b5f8183611653919061273e565b905092915050565b5f73ffffffffffffffffffffffffffffffffffffffff168373ffffffffffffffffffffffffffffffffffffffff16036116cb575f6040517f96c6fd1e0000000000000000000000000000000000000000000000000000000081526004016116c29190612200565b60405180910390fd5b5f73ffffffffffffffffffffffffffffffffffffffff168273ffffffffffffffffffffffffffffffffffffffff160361173b575f6040517fec442f050000000000000000000000000000000000000000000000000000000081526004016117329190612200565b60405180910390fd5b611746838383611d43565b505050565b6001600681905550565b5f61176084846113e5565b90507fffffffffffffffffffffffffffffffffffffffffffffffffffffffffffffffff8110156117e257818110156117d3578281836040517ffb8f41b20000000000000000000000000000000000000000000000000000000081526004016117ca93929190612771565b60405180910390fd5b6117e184848484035f611b74565b5b50505050565b5f73ffffffffffffffffffffffffffffffffffffffff168273ffffffffffffffffffffffffffffffffffffffff1603611858575f6040517f96c6fd1e00000000000000000000000000000000000000000000000000000000815260040161184f9190612200565b60405180910390fd5b611863825f83611d43565b5050565b5f60055f9054906101000a900473ffffffffffffffffffffffffffffffffffffffff1690508160055f6101000a81548173ffffffffffffffffffffffffffffffffffffffff021916908373ffffffffffffffffffffffffffffffffffffffff1602179055508173ffffffffffffffffffffffffffffffffffffffff168173ffffffffffffffffffffffffffffffffffffffff167f8be0079c531659141344cd1fd0a4f28419497f9722a3daafe3b4186f6b6457e060405160405180910390a35050565b60605f5f90505f5f90505b600a805490508110156119e0575f60095f600a848154811061195a57611959612553565b5b905f5260205f20015f9054906101000a900473ffffffffffffffffffffffffffffffffffffffff1673ffffffffffffffffffffffffffffffffffffffff1673ffffffffffffffffffffffffffffffffffffffff1681526020019081526020015f205f015411156119d35781806119cf906127a6565b9250505b8080600101915050611935565b505f8167ffffffffffffffff8111156119fc576119fb6127ed565b5b604051908082528060200260200182016040528015611a2a5781602001602082028036833780820191505090505b5090505f5f90505f5f90505b600a80549050811015611b6a575f60095f600a8481548110611a5b57611a5a612553565b5b905f5260205f20015f9054906101000a900473ffffffffffffffffffffffffffffffffffffffff1673ffffffffffffffffffffffffffffffffffffffff1673ffffffffffffffffffffffffffffffffffffffff1681526020019081526020015f205f01541115611b5d57600a8181548110611ad957611ad8612553565b5b905f5260205f20015f9054906101000a900473ffffffffffffffffffffffffffffffffffffffff16838381518110611b1457611b13612553565b5b602002602001019073ffffffffffffffffffffffffffffffffffffffff16908173ffffffffffffffffffffffffffffffffffffffff16815250508180611b59906127a6565b9250505b8080600101915050611a36565b5081935050505090565b5f73ffffffffffffffffffffffffffffffffffffffff168473ffffffffffffffffffffffffffffffffffffffff1603611be4575f6040517fe602df05000000000000000000000000000000000000000000000000000000008152600401611bdb9190612200565b60405180910390fd5b5f73ffffffffffffffffffffffffffffffffffffffff168373ffffffffffffffffffffffffffffffffffffffff1603611c54575f6040517f94280d62000000000000000000000000000000000000000000000000000000008152600401611c4b9190612200565b60405180910390fd5b8160015f8673ffffffffffffffffffffffffffffffffffffffff1673ffffffffffffffffffffffffffffffffffffffff1681526020019081526020015f205f8573ffffffffffffffffffffffffffffffffffffffff1673ffffffffffffffffffffffffffffffffffffffff1681526020019081526020015f20819055508015611d3d578273ffffffffffffffffffffffffffffffffffffffff168473ffffffffffffffffffffffffffffffffffffffff167f8c5be1e5ebec7d5bd14f71427d1e84f3dd0314c0f7b2291e5b200ac8c7c3b92584604051611d3491906120fd565b60405180910390a35b50505050565b5f73ffffffffffffffffffffffffffffffffffffffff168373ffffffffffffffffffffffffffffffffffffffff1603611d93578060025f828254611d87919061273e565b92505081905550611e61565b5f5f5f8573ffffffffffffffffffffffffffffffffffffffff1673ffffffffffffffffffffffffffffffffffffffff1681526020019081526020015f2054905081811015611e1c578381836040517fe450d38c000000000000000000000000000000000000000000000000000000008152600401611e1393929190612771565b60405180910390fd5b8181035f5f8673ffffffffffffffffffffffffffffffffffffffff1673ffffffffffffffffffffffffffffffffffffffff1681526020019081526020015f2081905550505b5f73ffffffffffffffffffffffffffffffffffffffff168273ffffffffffffffffffffffffffffffffffffffff1603611ea8578060025f8282540392505081905550611ef2565b805f5f8473ffffffffffffffffffffffffffffffffffffffff1673ffffffffffffffffffffffffffffffffffffffff1681526020019081526020015f205f82825401925050819055505b8173ffffffffffffffffffffffffffffffffffffffff168373ffffffffffffffffffffffffffffffffffffffff167fddf252ad1be2c89b69c2b068fc378daa952ba7f163c4a11628f55a4df523b3ef83604051611f4f91906120fd565b60405180910390a3505050565b5f81519050919050565b5f82825260208201905092915050565b8281835e5f83830152505050565b5f601f19601f8301169050919050565b5f611f9e82611f5c565b611fa88185611f66565b9350611fb8818560208601611f76565b611fc181611f84565b840191505092915050565b5f6020820190508181035f830152611fe48184611f94565b905092915050565b5f5ffd5b5f73ffffffffffffffffffffffffffffffffffffffff82169050919050565b5f61201982611ff0565b9050919050565b6120298161200f565b8114612033575f5ffd5b50565b5f8135905061204481612020565b92915050565b5f819050919050565b61205c8161204a565b8114612066575f5ffd5b50565b5f8135905061207781612053565b92915050565b5f5f6040838503121561209357612092611fec565b5b5f6120a085828601612036565b92505060206120b185828601612069565b9150509250929050565b5f8115159050919050565b6120cf816120bb565b82525050565b5f6020820190506120e85f8301846120c6565b92915050565b6120f78161204a565b82525050565b5f6020820190506121105f8301846120ee565b92915050565b5f6020828403121561212b5761212a611fec565b5b5f61213884828501612036565b91505092915050565b5f6060820190506121545f8301866120ee565b61216160208301856120ee565b61216e60408301846120ee565b949350505050565b5f5f5f6060848603121561218d5761218c611fec565b5b5f61219a86828701612036565b93505060206121ab86828701612036565b92505060406121bc86828701612069565b9150509250925092565b5f602082840312156121db576121da611fec565b5b5f6121e884828501612069565b91505092915050565b6121fa8161200f565b82525050565b5f6020820190506122135f8301846121f1565b92915050565b5f60ff82169050919050565b61222e81612219565b82525050565b5f6020820190506122475f830184612225565b92915050565b5f5f6040838503121561226357612262611fec565b5b5f61227085828601612036565b925050602061228185828601612036565b9150509250929050565b7f4e487b71000000000000000000000000000000000000000000000000000000005f52602260045260245ffd5b5f60028204905060018216806122cf57607f821691505b6020821081036122e2576122e161228b565b5b50919050565b7f56657374696e67206e6f742073746172746564000000000000000000000000005f82015250565b5f61231c601383611f66565b9150612327826122e8565b602082019050919050565b5f6020820190508181035f83015261234981612310565b9050919050565b7f4e487b71000000000000000000000000000000000000000000000000000000005f52601160045260245ffd5b5f6123878261204a565b91506123928361204a565b92508282026123a08161204a565b915082820484148315176123b7576123b6612350565b5b5092915050565b7f4e487b71000000000000000000000000000000000000000000000000000000005f52601260045260245ffd5b5f6123f58261204a565b91506124008361204a565b9250826124105761240f6123be565b5b828204905092915050565b7f4e6f20746f6b656e7320746f2072656c656173650000000000000000000000005f82015250565b5f61244f601483611f66565b915061245a8261241b565b602082019050919050565b5f6020820190508181035f83015261247c81612443565b9050919050565b7f43616e6e6f7420756e7374616b65203020746f6b656e730000000000000000005f82015250565b5f6124b7601783611f66565b91506124c282612483565b602082019050919050565b5f6020820190508181035f8301526124e4816124ab565b9050919050565b7f496e73756666696369656e74207374616b656420616d6f756e740000000000005f82015250565b5f61251f601a83611f66565b915061252a826124eb565b602082019050919050565b5f6020820190508181035f83015261254c81612513565b9050919050565b7f4e487b71000000000000000000000000000000000000000000000000000000005f52603260045260245ffd5b5f61258a8261204a565b91506125958361204a565b92508282039050818111156125ad576125ac612350565b5b92915050565b7f4e487b71000000000000000000000000000000000000000000000000000000005f52603160045260245ffd5b7f5265776172642072617465206d7573742062652067726561746572207468616e5f8201527f2030000000000000000000000000000000000000000000000000000000000000602082015250565b5f61263a602283611f66565b9150612645826125e0565b604082019050919050565b5f6020820190508181035f8301526126678161262e565b9050919050565b7f43616e6e6f74207374616b65203020746f6b656e7300000000000000000000005f82015250565b5f6126a2601583611f66565b91506126ad8261266e565b602082019050919050565b5f6020820190508181035f8301526126cf81612696565b9050919050565b7f5265656e7472616e637947756172643a207265656e7472616e742063616c6c005f82015250565b5f61270a601f83611f66565b9150612715826126d6565b602082019050919050565b5f6020820190508181035f830152612737816126fe565b9050919050565b5f6127488261204a565b91506127538361204a565b925082820190508082111561276b5761276a612350565b5b92915050565b5f6060820190506127845f8301866121f1565b61279160208301856120ee565b61279e60408301846120ee565b949350505050565b5f6127b08261204a565b91507fffffffffffffffffffffffffffffffffffffffffffffffffffffffffffffffff82036127e2576127e1612350565b5b600182019050919050565b7f4e487b71000000000000000000000000000000000000000000000000000000005f52604160045260245ffdfea2646970667358221220dea26fd50e88693e5ab7240d40137b89cd9ab888a65ddc6d86484334e0b6c34e64736f6c634300081c0033",
					"opcodes": "PUSH1 0x80 PUSH1 0x40 MSTORE CALLVALUE DUP1 ISZERO PUSH2 0xF JUMPI PUSH0 PUSH0 REVERT JUMPDEST POP PUSH1 0x40 MLOAD PUSH2 0x355B CODESIZE SUB DUP1 PUSH2 0x355B DUP4 CODECOPY DUP2 DUP2 ADD PUSH1 0x40 MSTORE DUP2 ADD SWAP1 PUSH2 0x31 SWAP2 SWAP1 PUSH2 0x77F JUMP JUMPDEST ADDRESS PUSH1 0x40 MLOAD DUP1 PUSH1 0x40 ADD PUSH1 0x40 MSTORE DUP1 PUSH1 0xC DUP2 MSTORE PUSH1 0x20 ADD PUSH32 0x50696E67506F6E67506C61790000000000000000000000000000000000000000 DUP2 MSTORE POP PUSH1 0x40 MLOAD DUP1 PUSH1 0x40 ADD PUSH1 0x40 MSTORE DUP1 PUSH1 0x6 DUP2 MSTORE PUSH1 0x20 ADD PUSH32 0x50494E4750500000000000000000000000000000000000000000000000000000 DUP2 MSTORE POP DUP2 PUSH1 0x3 SWAP1 DUP2 PUSH2 0xAD SWAP2 SWAP1 PUSH2 0x9DE JUMP JUMPDEST POP DUP1 PUSH1 0x4 SWAP1 DUP2 PUSH2 0xBD SWAP2 SWAP1 PUSH2 0x9DE JUMP JUMPDEST POP POP POP PUSH0 PUSH20 0xFFFFFFFFFFFFFFFFFFFFFFFFFFFFFFFFFFFFFFFF AND DUP2 PUSH20 0xFFFFFFFFFFFFFFFFFFFFFFFFFFFFFFFFFFFFFFFF AND SUB PUSH2 0x130 JUMPI PUSH0 PUSH1 0x40 MLOAD PUSH32 0x1E4FBDF700000000000000000000000000000000000000000000000000000000 DUP2 MSTORE PUSH1 0x4 ADD PUSH2 0x127 SWAP2 SWAP1 PUSH2 0xAEC JUMP JUMPDEST PUSH1 0x40 MLOAD DUP1 SWAP2 SUB SWAP1 REVERT JUMPDEST PUSH2 0x13F DUP2 PUSH2 0x2F1 PUSH1 0x20 SHL PUSH1 0x20 SHR JUMP JUMPDEST POP PUSH1 0x1 PUSH1 0x6 DUP2 SWAP1 SSTORE POP PUSH0 DUP2 GT PUSH2 0x18A JUMPI PUSH1 0x40 MLOAD PUSH32 0x8C379A000000000000000000000000000000000000000000000000000000000 DUP2 MSTORE PUSH1 0x4 ADD PUSH2 0x181 SWAP1 PUSH2 0xB85 JUMP JUMPDEST PUSH1 0x40 MLOAD DUP1 SWAP2 SUB SWAP1 REVERT JUMPDEST DUP1 PUSH1 0xB DUP2 SWAP1 SSTORE POP PUSH2 0x1AC ADDRESS PUSH11 0x52B7D2DCC80CD2E4000000 PUSH2 0x3B4 PUSH1 0x20 SHL PUSH1 0x20 SHR JUMP JUMPDEST TIMESTAMP PUSH1 0x7 DUP2 SWAP1 SSTORE POP PUSH2 0x1E7 ADDRESS CALLER PUSH1 0x64 PUSH1 0x28 PUSH11 0x52B7D2DCC80CD2E4000000 PUSH2 0x1D2 SWAP2 SWAP1 PUSH2 0xBD0 JUMP JUMPDEST PUSH2 0x1DC SWAP2 SWAP1 PUSH2 0xC3E JUMP JUMPDEST PUSH2 0x439 PUSH1 0x20 SHL PUSH1 0x20 SHR JUMP JUMPDEST PUSH2 0x21B ADDRESS ADDRESS PUSH1 0x64 PUSH1 0x14 PUSH11 0x52B7D2DCC80CD2E4000000 PUSH2 0x206 SWAP2 SWAP1 PUSH2 0xBD0 JUMP JUMPDEST PUSH2 0x210 SWAP2 SWAP1 PUSH2 0xC3E JUMP JUMPDEST PUSH2 0x439 PUSH1 0x20 SHL PUSH1 0x20 SHR JUMP JUMPDEST PUSH2 0x24F ADDRESS CALLER PUSH1 0x64 PUSH1 0xF PUSH11 0x52B7D2DCC80CD2E4000000 PUSH2 0x23A SWAP2 SWAP1 PUSH2 0xBD0 JUMP JUMPDEST PUSH2 0x244 SWAP2 SWAP1 PUSH2 0xC3E JUMP JUMPDEST PUSH2 0x439 PUSH1 0x20 SHL PUSH1 0x20 SHR JUMP JUMPDEST PUSH2 0x283 ADDRESS CALLER PUSH1 0x64 PUSH1 0xA PUSH11 0x52B7D2DCC80CD2E4000000 PUSH2 0x26E SWAP2 SWAP1 PUSH2 0xBD0 JUMP JUMPDEST PUSH2 0x278 SWAP2 SWAP1 PUSH2 0xC3E JUMP JUMPDEST PUSH2 0x439 PUSH1 0x20 SHL PUSH1 0x20 SHR JUMP JUMPDEST PUSH2 0x2B7 ADDRESS CALLER PUSH1 0x64 PUSH1 0xA PUSH11 0x52B7D2DCC80CD2E4000000 PUSH2 0x2A2 SWAP2 SWAP1 PUSH2 0xBD0 JUMP JUMPDEST PUSH2 0x2AC SWAP2 SWAP1 PUSH2 0xC3E JUMP JUMPDEST PUSH2 0x439 PUSH1 0x20 SHL PUSH1 0x20 SHR JUMP JUMPDEST PUSH2 0x2EB ADDRESS CALLER PUSH1 0x64 PUSH1 0x5 PUSH11 0x52B7D2DCC80CD2E4000000 PUSH2 0x2D6 SWAP2 SWAP1 PUSH2 0xBD0 JUMP JUMPDEST PUSH2 0x2E0 SWAP2 SWAP1 PUSH2 0xC3E JUMP JUMPDEST PUSH2 0x439 PUSH1 0x20 SHL PUSH1 0x20 SHR JUMP JUMPDEST POP PUSH2 0xCFE JUMP JUMPDEST PUSH0 PUSH1 0x5 PUSH0 SWAP1 SLOAD SWAP1 PUSH2 0x100 EXP SWAP1 DIV PUSH20 0xFFFFFFFFFFFFFFFFFFFFFFFFFFFFFFFFFFFFFFFF AND SWAP1 POP DUP2 PUSH1 0x5 PUSH0 PUSH2 0x100 EXP DUP2 SLOAD DUP2 PUSH20 0xFFFFFFFFFFFFFFFFFFFFFFFFFFFFFFFFFFFFFFFF MUL NOT AND SWAP1 DUP4 PUSH20 0xFFFFFFFFFFFFFFFFFFFFFFFFFFFFFFFFFFFFFFFF AND MUL OR SWAP1 SSTORE POP DUP2 PUSH20 0xFFFFFFFFFFFFFFFFFFFFFFFFFFFFFFFFFFFFFFFF AND DUP2 PUSH20 0xFFFFFFFFFFFFFFFFFFFFFFFFFFFFFFFFFFFFFFFF AND PUSH32 0x8BE0079C531659141344CD1FD0A4F28419497F9722A3DAAFE3B4186F6B6457E0 PUSH1 0x40 MLOAD PUSH1 0x40 MLOAD DUP1 SWAP2 SUB SWAP1 LOG3 POP POP JUMP JUMPDEST PUSH0 PUSH20 0xFFFFFFFFFFFFFFFFFFFFFFFFFFFFFFFFFFFFFFFF AND DUP3 PUSH20 0xFFFFFFFFFFFFFFFFFFFFFFFFFFFFFFFFFFFFFFFF AND SUB PUSH2 0x424 JUMPI PUSH0 PUSH1 0x40 MLOAD PUSH32 0xEC442F0500000000000000000000000000000000000000000000000000000000 DUP2 MSTORE PUSH1 0x4 ADD PUSH2 0x41B SWAP2 SWAP1 PUSH2 0xAEC JUMP JUMPDEST PUSH1 0x40 MLOAD DUP1 SWAP2 SUB SWAP1 REVERT JUMPDEST PUSH2 0x435 PUSH0 DUP4 DUP4 PUSH2 0x52F PUSH1 0x20 SHL PUSH1 0x20 SHR JUMP JUMPDEST POP POP JUMP JUMPDEST PUSH0 PUSH20 0xFFFFFFFFFFFFFFFFFFFFFFFFFFFFFFFFFFFFFFFF AND DUP4 PUSH20 0xFFFFFFFFFFFFFFFFFFFFFFFFFFFFFFFFFFFFFFFF AND SUB PUSH2 0x4A9 JUMPI PUSH0 PUSH1 0x40 MLOAD PUSH32 0x96C6FD1E00000000000000000000000000000000000000000000000000000000 DUP2 MSTORE PUSH1 0x4 ADD PUSH2 0x4A0 SWAP2 SWAP1 PUSH2 0xAEC JUMP JUMPDEST PUSH1 0x40 MLOAD DUP1 SWAP2 SUB SWAP1 REVERT JUMPDEST PUSH0 PUSH20 0xFFFFFFFFFFFFFFFFFFFFFFFFFFFFFFFFFFFFFFFF AND DUP3 PUSH20 0xFFFFFFFFFFFFFFFFFFFFFFFFFFFFFFFFFFFFFFFF AND SUB PUSH2 0x519 JUMPI PUSH0 PUSH1 0x40 MLOAD PUSH32 0xEC442F0500000000000000000000000000000000000000000000000000000000 DUP2 MSTORE PUSH1 0x4 ADD PUSH2 0x510 SWAP2 SWAP1 PUSH2 0xAEC JUMP JUMPDEST PUSH1 0x40 MLOAD DUP1 SWAP2 SUB SWAP1 REVERT JUMPDEST PUSH2 0x52A DUP4 DUP4 DUP4 PUSH2 0x52F PUSH1 0x20 SHL PUSH1 0x20 SHR JUMP JUMPDEST POP POP POP JUMP JUMPDEST PUSH0 PUSH20 0xFFFFFFFFFFFFFFFFFFFFFFFFFFFFFFFFFFFFFFFF AND DUP4 PUSH20 0xFFFFFFFFFFFFFFFFFFFFFFFFFFFFFFFFFFFFFFFF AND SUB PUSH2 0x57F JUMPI DUP1 PUSH1 0x2 PUSH0 DUP3 DUP3 SLOAD PUSH2 0x573 SWAP2 SWAP1 PUSH2 0xC6E JUMP JUMPDEST SWAP3 POP POP DUP2 SWAP1 SSTORE POP PUSH2 0x64D JUMP JUMPDEST PUSH0 PUSH0 PUSH0 DUP6 PUSH20 0xFFFFFFFFFFFFFFFFFFFFFFFFFFFFFFFFFFFFFFFF AND PUSH20 0xFFFFFFFFFFFFFFFFFFFFFFFFFFFFFFFFFFFFFFFF AND DUP2 MSTORE PUSH1 0x20 ADD SWAP1 DUP2 MSTORE PUSH1 0x20 ADD PUSH0 KECCAK256 SLOAD SWAP1 POP DUP2 DUP2 LT ISZERO PUSH2 0x608 JUMPI DUP4 DUP2 DUP4 PUSH1 0x40 MLOAD PUSH32 0xE450D38C00000000000000000000000000000000000000000000000000000000 DUP2 MSTORE PUSH1 0x4 ADD PUSH2 0x5FF SWAP4 SWAP3 SWAP2 SWAP1 PUSH2 0xCB0 JUMP JUMPDEST PUSH1 0x40 MLOAD DUP1 SWAP2 SUB SWAP1 REVERT JUMPDEST DUP2 DUP2 SUB PUSH0 PUSH0 DUP7 PUSH20 0xFFFFFFFFFFFFFFFFFFFFFFFFFFFFFFFFFFFFFFFF AND PUSH20 0xFFFFFFFFFFFFFFFFFFFFFFFFFFFFFFFFFFFFFFFF AND DUP2 MSTORE PUSH1 0x20 ADD SWAP1 DUP2 MSTORE PUSH1 0x20 ADD PUSH0 KECCAK256 DUP2 SWAP1 SSTORE POP POP JUMPDEST PUSH0 PUSH20 0xFFFFFFFFFFFFFFFFFFFFFFFFFFFFFFFFFFFFFFFF AND DUP3 PUSH20 0xFFFFFFFFFFFFFFFFFFFFFFFFFFFFFFFFFFFFFFFF AND SUB PUSH2 0x694 JUMPI DUP1 PUSH1 0x2 PUSH0 DUP3 DUP3 SLOAD SUB SWAP3 POP POP DUP2 SWAP1 SSTORE POP PUSH2 0x6DE JUMP JUMPDEST DUP1 PUSH0 PUSH0 DUP5 PUSH20 0xFFFFFFFFFFFFFFFFFFFFFFFFFFFFFFFFFFFFFFFF AND PUSH20 0xFFFFFFFFFFFFFFFFFFFFFFFFFFFFFFFFFFFFFFFF AND DUP2 MSTORE PUSH1 0x20 ADD SWAP1 DUP2 MSTORE PUSH1 0x20 ADD PUSH0 KECCAK256 PUSH0 DUP3 DUP3 SLOAD ADD SWAP3 POP POP DUP2 SWAP1 SSTORE POP JUMPDEST DUP2 PUSH20 0xFFFFFFFFFFFFFFFFFFFFFFFFFFFFFFFFFFFFFFFF AND DUP4 PUSH20 0xFFFFFFFFFFFFFFFFFFFFFFFFFFFFFFFFFFFFFFFF AND PUSH32 0xDDF252AD1BE2C89B69C2B068FC378DAA952BA7F163C4A11628F55A4DF523B3EF DUP4 PUSH1 0x40 MLOAD PUSH2 0x73B SWAP2 SWAP1 PUSH2 0xCE5 JUMP JUMPDEST PUSH1 0x40 MLOAD DUP1 SWAP2 SUB SWAP1 LOG3 POP POP POP JUMP JUMPDEST PUSH0 PUSH0 REVERT JUMPDEST PUSH0 DUP2 SWAP1 POP SWAP2 SWAP1 POP JUMP JUMPDEST PUSH2 0x75E DUP2 PUSH2 0x74C JUMP JUMPDEST DUP2 EQ PUSH2 0x768 JUMPI PUSH0 PUSH0 REVERT JUMPDEST POP JUMP JUMPDEST PUSH0 DUP2 MLOAD SWAP1 POP PUSH2 0x779 DUP2 PUSH2 0x755 JUMP JUMPDEST SWAP3 SWAP2 POP POP JUMP JUMPDEST PUSH0 PUSH1 0x20 DUP3 DUP5 SUB SLT ISZERO PUSH2 0x794 JUMPI PUSH2 0x793 PUSH2 0x748 JUMP JUMPDEST JUMPDEST PUSH0 PUSH2 0x7A1 DUP5 DUP3 DUP6 ADD PUSH2 0x76B JUMP JUMPDEST SWAP2 POP POP SWAP3 SWAP2 POP POP JUMP JUMPDEST PUSH0 DUP2 MLOAD SWAP1 POP SWAP2 SWAP1 POP JUMP JUMPDEST PUSH32 0x4E487B7100000000000000000000000000000000000000000000000000000000 PUSH0 MSTORE PUSH1 0x41 PUSH1 0x4 MSTORE PUSH1 0x24 PUSH0 REVERT JUMPDEST PUSH32 0x4E487B7100000000000000000000000000000000000000000000000000000000 PUSH0 MSTORE PUSH1 0x22 PUSH1 0x4 MSTORE PUSH1 0x24 PUSH0 REVERT JUMPDEST PUSH0 PUSH1 0x2 DUP3 DIV SWAP1 POP PUSH1 0x1 DUP3 AND DUP1 PUSH2 0x825 JUMPI PUSH1 0x7F DUP3 AND SWAP2 POP JUMPDEST PUSH1 0x20 DUP3 LT DUP2 SUB PUSH2 0x838 JUMPI PUSH2 0x837 PUSH2 0x7E1 JUMP JUMPDEST JUMPDEST POP SWAP2 SWAP1 POP JUMP JUMPDEST PUSH0 DUP2 SWAP1 POP DUP2 PUSH0 MSTORE PUSH1 0x20 PUSH0 KECCAK256 SWAP1 POP SWAP2 SWAP1 POP JUMP JUMPDEST PUSH0 PUSH1 0x20 PUSH1 0x1F DUP4 ADD DIV SWAP1 POP SWAP2 SWAP1 POP JUMP JUMPDEST PUSH0 DUP3 DUP3 SHL SWAP1 POP SWAP3 SWAP2 POP POP JUMP JUMPDEST PUSH0 PUSH1 0x8 DUP4 MUL PUSH2 0x89A PUSH32 0xFFFFFFFFFFFFFFFFFFFFFFFFFFFFFFFFFFFFFFFFFFFFFFFFFFFFFFFFFFFFFFFF DUP3 PUSH2 0x85F JUMP JUMPDEST PUSH2 0x8A4 DUP7 DUP4 PUSH2 0x85F JUMP JUMPDEST SWAP6 POP DUP1 NOT DUP5 AND SWAP4 POP DUP1 DUP7 AND DUP5 OR SWAP3 POP POP POP SWAP4 SWAP3 POP POP POP JUMP JUMPDEST PUSH0 DUP2 SWAP1 POP SWAP2 SWAP1 POP JUMP JUMPDEST PUSH0 PUSH2 0x8DF PUSH2 0x8DA PUSH2 0x8D5 DUP5 PUSH2 0x74C JUMP JUMPDEST PUSH2 0x8BC JUMP JUMPDEST PUSH2 0x74C JUMP JUMPDEST SWAP1 POP SWAP2 SWAP1 POP JUMP JUMPDEST PUSH0 DUP2 SWAP1 POP SWAP2 SWAP1 POP JUMP JUMPDEST PUSH2 0x8F8 DUP4 PUSH2 0x8C5 JUMP JUMPDEST PUSH2 0x90C PUSH2 0x904 DUP3 PUSH2 0x8E6 JUMP JUMPDEST DUP5 DUP5 SLOAD PUSH2 0x86B JUMP JUMPDEST DUP3 SSTORE POP POP POP POP JUMP JUMPDEST PUSH0 PUSH0 SWAP1 POP SWAP1 JUMP JUMPDEST PUSH2 0x923 PUSH2 0x914 JUMP JUMPDEST PUSH2 0x92E DUP2 DUP5 DUP5 PUSH2 0x8EF JUMP JUMPDEST POP POP POP JUMP JUMPDEST JUMPDEST DUP2 DUP2 LT ISZERO PUSH2 0x951 JUMPI PUSH2 0x946 PUSH0 DUP3 PUSH2 0x91B JUMP JUMPDEST PUSH1 0x1 DUP2 ADD SWAP1 POP PUSH2 0x934 JUMP JUMPDEST POP POP JUMP JUMPDEST PUSH1 0x1F DUP3 GT ISZERO PUSH2 0x996 JUMPI PUSH2 0x967 DUP2 PUSH2 0x83E JUMP JUMPDEST PUSH2 0x970 DUP5 PUSH2 0x850 JUMP JUMPDEST DUP2 ADD PUSH1 0x20 DUP6 LT ISZERO PUSH2 0x97F JUMPI DUP2 SWAP1 POP JUMPDEST PUSH2 0x993 PUSH2 0x98B DUP6 PUSH2 0x850 JUMP JUMPDEST DUP4 ADD DUP3 PUSH2 0x933 JUMP JUMPDEST POP POP JUMPDEST POP POP POP JUMP JUMPDEST PUSH0 DUP3 DUP3 SHR SWAP1 POP SWAP3 SWAP2 POP POP JUMP JUMPDEST PUSH0 PUSH2 0x9B6 PUSH0 NOT DUP5 PUSH1 0x8 MUL PUSH2 0x99B JUMP JUMPDEST NOT DUP1 DUP4 AND SWAP2 POP POP SWAP3 SWAP2 POP POP JUMP JUMPDEST PUSH0 PUSH2 0x9CE DUP4 DUP4 PUSH2 0x9A7 JUMP JUMPDEST SWAP2 POP DUP3 PUSH1 0x2 MUL DUP3 OR SWAP1 POP SWAP3 SWAP2 POP POP JUMP JUMPDEST PUSH2 0x9E7 DUP3 PUSH2 0x7AA JUMP JUMPDEST PUSH8 0xFFFFFFFFFFFFFFFF DUP2 GT ISZERO PUSH2 0xA00 JUMPI PUSH2 0x9FF PUSH2 0x7B4 JUMP JUMPDEST JUMPDEST PUSH2 0xA0A DUP3 SLOAD PUSH2 0x80E JUMP JUMPDEST PUSH2 0xA15 DUP3 DUP3 DUP6 PUSH2 0x955 JUMP JUMPDEST PUSH0 PUSH1 0x20 SWAP1 POP PUSH1 0x1F DUP4 GT PUSH1 0x1 DUP2 EQ PUSH2 0xA46 JUMPI PUSH0 DUP5 ISZERO PUSH2 0xA34 JUMPI DUP3 DUP8 ADD MLOAD SWAP1 POP JUMPDEST PUSH2 0xA3E DUP6 DUP3 PUSH2 0x9C3 JUMP JUMPDEST DUP7 SSTORE POP PUSH2 0xAA5 JUMP JUMPDEST PUSH1 0x1F NOT DUP5 AND PUSH2 0xA54 DUP7 PUSH2 0x83E JUMP JUMPDEST PUSH0 JUMPDEST DUP3 DUP2 LT ISZERO PUSH2 0xA7B JUMPI DUP5 DUP10 ADD MLOAD DUP3 SSTORE PUSH1 0x1 DUP3 ADD SWAP2 POP PUSH1 0x20 DUP6 ADD SWAP5 POP PUSH1 0x20 DUP2 ADD SWAP1 POP PUSH2 0xA56 JUMP JUMPDEST DUP7 DUP4 LT ISZERO PUSH2 0xA98 JUMPI DUP5 DUP10 ADD MLOAD PUSH2 0xA94 PUSH1 0x1F DUP10 AND DUP3 PUSH2 0x9A7 JUMP JUMPDEST DUP4 SSTORE POP JUMPDEST PUSH1 0x1 PUSH1 0x2 DUP9 MUL ADD DUP9 SSTORE POP POP POP JUMPDEST POP POP POP POP POP POP JUMP JUMPDEST PUSH0 PUSH20 0xFFFFFFFFFFFFFFFFFFFFFFFFFFFFFFFFFFFFFFFF DUP3 AND SWAP1 POP SWAP2 SWAP1 POP JUMP JUMPDEST PUSH0 PUSH2 0xAD6 DUP3 PUSH2 0xAAD JUMP JUMPDEST SWAP1 POP SWAP2 SWAP1 POP JUMP JUMPDEST PUSH2 0xAE6 DUP2 PUSH2 0xACC JUMP JUMPDEST DUP3 MSTORE POP POP JUMP JUMPDEST PUSH0 PUSH1 0x20 DUP3 ADD SWAP1 POP PUSH2 0xAFF PUSH0 DUP4 ADD DUP5 PUSH2 0xADD JUMP JUMPDEST SWAP3 SWAP2 POP POP JUMP JUMPDEST PUSH0 DUP3 DUP3 MSTORE PUSH1 0x20 DUP3 ADD SWAP1 POP SWAP3 SWAP2 POP POP JUMP JUMPDEST PUSH32 0x5265776172642072617465206D7573742062652067726561746572207468616E PUSH0 DUP3 ADD MSTORE PUSH32 0x2030000000000000000000000000000000000000000000000000000000000000 PUSH1 0x20 DUP3 ADD MSTORE POP JUMP JUMPDEST PUSH0 PUSH2 0xB6F PUSH1 0x22 DUP4 PUSH2 0xB05 JUMP JUMPDEST SWAP2 POP PUSH2 0xB7A DUP3 PUSH2 0xB15 JUMP JUMPDEST PUSH1 0x40 DUP3 ADD SWAP1 POP SWAP2 SWAP1 POP JUMP JUMPDEST PUSH0 PUSH1 0x20 DUP3 ADD SWAP1 POP DUP2 DUP2 SUB PUSH0 DUP4 ADD MSTORE PUSH2 0xB9C DUP2 PUSH2 0xB63 JUMP JUMPDEST SWAP1 POP SWAP2 SWAP1 POP JUMP JUMPDEST PUSH32 0x4E487B7100000000000000000000000000000000000000000000000000000000 PUSH0 MSTORE PUSH1 0x11 PUSH1 0x4 MSTORE PUSH1 0x24 PUSH0 REVERT JUMPDEST PUSH0 PUSH2 0xBDA DUP3 PUSH2 0x74C JUMP JUMPDEST SWAP2 POP PUSH2 0xBE5 DUP4 PUSH2 0x74C JUMP JUMPDEST SWAP3 POP DUP3 DUP3 MUL PUSH2 0xBF3 DUP2 PUSH2 0x74C JUMP JUMPDEST SWAP2 POP DUP3 DUP3 DIV DUP5 EQ DUP4 ISZERO OR PUSH2 0xC0A JUMPI PUSH2 0xC09 PUSH2 0xBA3 JUMP JUMPDEST JUMPDEST POP SWAP3 SWAP2 POP POP JUMP JUMPDEST PUSH32 0x4E487B7100000000000000000000000000000000000000000000000000000000 PUSH0 MSTORE PUSH1 0x12 PUSH1 0x4 MSTORE PUSH1 0x24 PUSH0 REVERT JUMPDEST PUSH0 PUSH2 0xC48 DUP3 PUSH2 0x74C JUMP JUMPDEST SWAP2 POP PUSH2 0xC53 DUP4 PUSH2 0x74C JUMP JUMPDEST SWAP3 POP DUP3 PUSH2 0xC63 JUMPI PUSH2 0xC62 PUSH2 0xC11 JUMP JUMPDEST JUMPDEST DUP3 DUP3 DIV SWAP1 POP SWAP3 SWAP2 POP POP JUMP JUMPDEST PUSH0 PUSH2 0xC78 DUP3 PUSH2 0x74C JUMP JUMPDEST SWAP2 POP PUSH2 0xC83 DUP4 PUSH2 0x74C JUMP JUMPDEST SWAP3 POP DUP3 DUP3 ADD SWAP1 POP DUP1 DUP3 GT ISZERO PUSH2 0xC9B JUMPI PUSH2 0xC9A PUSH2 0xBA3 JUMP JUMPDEST JUMPDEST SWAP3 SWAP2 POP POP JUMP JUMPDEST PUSH2 0xCAA DUP2 PUSH2 0x74C JUMP JUMPDEST DUP3 MSTORE POP POP JUMP JUMPDEST PUSH0 PUSH1 0x60 DUP3 ADD SWAP1 POP PUSH2 0xCC3 PUSH0 DUP4 ADD DUP7 PUSH2 0xADD JUMP JUMPDEST PUSH2 0xCD0 PUSH1 0x20 DUP4 ADD DUP6 PUSH2 0xCA1 JUMP JUMPDEST PUSH2 0xCDD PUSH1 0x40 DUP4 ADD DUP5 PUSH2 0xCA1 JUMP JUMPDEST SWAP5 SWAP4 POP POP POP POP JUMP JUMPDEST PUSH0 PUSH1 0x20 DUP3 ADD SWAP1 POP PUSH2 0xCF8 PUSH0 DUP4 ADD DUP5 PUSH2 0xCA1 JUMP JUMPDEST SWAP3 SWAP2 POP POP JUMP JUMPDEST PUSH2 0x2850 DUP1 PUSH2 0xD0B PUSH0 CODECOPY PUSH0 RETURN INVALID PUSH1 0x80 PUSH1 0x40 MSTORE CALLVALUE DUP1 ISZERO PUSH2 0xF JUMPI PUSH0 PUSH0 REVERT JUMPDEST POP PUSH1 0x4 CALLDATASIZE LT PUSH2 0x1F9 JUMPI PUSH0 CALLDATALOAD PUSH1 0xE0 SHR DUP1 PUSH4 0x70A08231 GT PUSH2 0x118 JUMPI DUP1 PUSH4 0x9EF3A261 GT PUSH2 0xAB JUMPI DUP1 PUSH4 0xD82E3962 GT PUSH2 0x7A JUMPI DUP1 PUSH4 0xD82E3962 EQ PUSH2 0x56D JUMPI DUP1 PUSH4 0xDD62ED3E EQ PUSH2 0x59D JUMPI DUP1 PUSH4 0xE75C4927 EQ PUSH2 0x5CD JUMPI DUP1 PUSH4 0xF2FDE38B EQ PUSH2 0x5EB JUMPI DUP1 PUSH4 0xF6F0FA8D EQ PUSH2 0x607 JUMPI PUSH2 0x1F9 JUMP JUMPDEST DUP1 PUSH4 0x9EF3A261 EQ PUSH2 0x4FB JUMPI DUP1 PUSH4 0xA694FC3A EQ PUSH2 0x517 JUMPI DUP1 PUSH4 0xA9059CBB EQ PUSH2 0x533 JUMPI DUP1 PUSH4 0xCB3DBECB EQ PUSH2 0x563 JUMPI PUSH2 0x1F9 JUMP JUMPDEST DUP1 PUSH4 0x8DA5CB5B GT PUSH2 0xE7 JUMPI DUP1 PUSH4 0x8DA5CB5B EQ PUSH2 0x483 JUMPI DUP1 PUSH4 0x902D55A5 EQ PUSH2 0x4A1 JUMPI DUP1 PUSH4 0x95D89B41 EQ PUSH2 0x4BF JUMPI DUP1 PUSH4 0x9D2CC436 EQ PUSH2 0x4DD JUMPI PUSH2 0x1F9 JUMP JUMPDEST DUP1 PUSH4 0x70A08231 EQ PUSH2 0x40F JUMPI DUP1 PUSH4 0x715018A6 EQ PUSH2 0x43F JUMPI DUP1 PUSH4 0x79CC6790 EQ PUSH2 0x449 JUMPI DUP1 PUSH4 0x7B0A47EE EQ PUSH2 0x465 JUMPI PUSH2 0x1F9 JUMP JUMPDEST DUP1 PUSH4 0x254800D4 GT PUSH2 0x190 JUMPI DUP1 PUSH4 0x39CF9B00 GT PUSH2 0x15F JUMPI DUP1 PUSH4 0x39CF9B00 EQ PUSH2 0x399 JUMPI DUP1 PUSH4 0x42966C68 EQ PUSH2 0x3B7 JUMPI DUP1 PUSH4 0x4CFC4D30 EQ PUSH2 0x3D3 JUMPI DUP1 PUSH4 0x5F89584E EQ PUSH2 0x3F1 JUMPI PUSH2 0x1F9 JUMP JUMPDEST DUP1 PUSH4 0x254800D4 EQ PUSH2 0x311 JUMPI DUP1 PUSH4 0x294F5FA3 EQ PUSH2 0x32F JUMPI DUP1 PUSH4 0x2E17DE78 EQ PUSH2 0x35F JUMPI DUP1 PUSH4 0x313CE567 EQ PUSH2 0x37B JUMPI PUSH2 0x1F9 JUMP JUMPDEST DUP1 PUSH4 0x16934FC4 GT PUSH2 0x1CC JUMPI DUP1 PUSH4 0x16934FC4 EQ PUSH2 0x273 JUMPI DUP1 PUSH4 0x18160DDD EQ PUSH2 0x2A5 JUMPI DUP1 PUSH4 0x1CFE31C2 EQ PUSH2 0x2C3 JUMPI DUP1 PUSH4 0x23B872DD EQ PUSH2 0x2E1 JUMPI PUSH2 0x1F9 JUMP JUMPDEST DUP1 PUSH4 0x6FDDE03 EQ PUSH2 0x1FD JUMPI DUP1 PUSH4 0x95EA7B3 EQ PUSH2 0x21B JUMPI DUP1 PUSH4 0x14C411C7 EQ PUSH2 0x24B JUMPI DUP1 PUSH4 0x1571CCF6 EQ PUSH2 0x255 JUMPI JUMPDEST PUSH0 PUSH0 REVERT JUMPDEST PUSH2 0x205 PUSH2 0x625 JUMP JUMPDEST PUSH1 0x40 MLOAD PUSH2 0x212 SWAP2 SWAP1 PUSH2 0x1FCC JUMP JUMPDEST PUSH1 0x40 MLOAD DUP1 SWAP2 SUB SWAP1 RETURN JUMPDEST PUSH2 0x235 PUSH1 0x4 DUP1 CALLDATASIZE SUB DUP2 ADD SWAP1 PUSH2 0x230 SWAP2 SWAP1 PUSH2 0x207D JUMP JUMPDEST PUSH2 0x6B5 JUMP JUMPDEST PUSH1 0x40 MLOAD PUSH2 0x242 SWAP2 SWAP1 PUSH2 0x20D5 JUMP JUMPDEST PUSH1 0x40 MLOAD DUP1 SWAP2 SUB SWAP1 RETURN JUMPDEST PUSH2 0x253 PUSH2 0x6D7 JUMP JUMPDEST STOP JUMPDEST PUSH2 0x25D PUSH2 0x827 JUMP JUMPDEST PUSH1 0x40 MLOAD PUSH2 0x26A SWAP2 SWAP1 PUSH2 0x20FD JUMP JUMPDEST PUSH1 0x40 MLOAD DUP1 SWAP2 SUB SWAP1 RETURN JUMPDEST PUSH2 0x28D PUSH1 0x4 DUP1 CALLDATASIZE SUB DUP2 ADD SWAP1 PUSH2 0x288 SWAP2 SWAP1 PUSH2 0x2116 JUMP JUMPDEST PUSH2 0x84E JUMP JUMPDEST PUSH1 0x40 MLOAD PUSH2 0x29C SWAP4 SWAP3 SWAP2 SWAP1 PUSH2 0x2141 JUMP JUMPDEST PUSH1 0x40 MLOAD DUP1 SWAP2 SUB SWAP1 RETURN JUMPDEST PUSH2 0x2AD PUSH2 0x874 JUMP JUMPDEST PUSH1 0x40 MLOAD PUSH2 0x2BA SWAP2 SWAP1 PUSH2 0x20FD JUMP JUMPDEST PUSH1 0x40 MLOAD DUP1 SWAP2 SUB SWAP1 RETURN JUMPDEST PUSH2 0x2CB PUSH2 0x87D JUMP JUMPDEST PUSH1 0x40 MLOAD PUSH2 0x2D8 SWAP2 SWAP1 PUSH2 0x20FD JUMP JUMPDEST PUSH1 0x40 MLOAD DUP1 SWAP2 SUB SWAP1 RETURN JUMPDEST PUSH2 0x2FB PUSH1 0x4 DUP1 CALLDATASIZE SUB DUP2 ADD SWAP1 PUSH2 0x2F6 SWAP2 SWAP1 PUSH2 0x2176 JUMP JUMPDEST PUSH2 0x8A4 JUMP JUMPDEST PUSH1 0x40 MLOAD PUSH2 0x308 SWAP2 SWAP1 PUSH2 0x20D5 JUMP JUMPDEST PUSH1 0x40 MLOAD DUP1 SWAP2 SUB SWAP1 RETURN JUMPDEST PUSH2 0x319 PUSH2 0x8D2 JUMP JUMPDEST PUSH1 0x40 MLOAD PUSH2 0x326 SWAP2 SWAP1 PUSH2 0x20FD JUMP JUMPDEST PUSH1 0x40 MLOAD DUP1 SWAP2 SUB SWAP1 RETURN JUMPDEST PUSH2 0x349 PUSH1 0x4 DUP1 CALLDATASIZE SUB DUP2 ADD SWAP1 PUSH2 0x344 SWAP2 SWAP1 PUSH2 0x21C6 JUMP JUMPDEST PUSH2 0x8D8 JUMP JUMPDEST PUSH1 0x40 MLOAD PUSH2 0x356 SWAP2 SWAP1 PUSH2 0x2200 JUMP JUMPDEST PUSH1 0x40 MLOAD DUP1 SWAP2 SUB SWAP1 RETURN JUMPDEST PUSH2 0x379 PUSH1 0x4 DUP1 CALLDATASIZE SUB DUP2 ADD SWAP1 PUSH2 0x374 SWAP2 SWAP1 PUSH2 0x21C6 JUMP JUMPDEST PUSH2 0x913 JUMP JUMPDEST STOP JUMPDEST PUSH2 0x383 PUSH2 0xD51 JUMP JUMPDEST PUSH1 0x40 MLOAD PUSH2 0x390 SWAP2 SWAP1 PUSH2 0x2234 JUMP JUMPDEST PUSH1 0x40 MLOAD DUP1 SWAP2 SUB SWAP1 RETURN JUMPDEST PUSH2 0x3A1 PUSH2 0xD59 JUMP JUMPDEST PUSH1 0x40 MLOAD PUSH2 0x3AE SWAP2 SWAP1 PUSH2 0x20FD JUMP JUMPDEST PUSH1 0x40 MLOAD DUP1 SWAP2 SUB SWAP1 RETURN JUMPDEST PUSH2 0x3D1 PUSH1 0x4 DUP1 CALLDATASIZE SUB DUP2 ADD SWAP1 PUSH2 0x3CC SWAP2 SWAP1 PUSH2 0x21C6 JUMP JUMPDEST PUSH2 0xD80 JUMP JUMPDEST STOP JUMPDEST PUSH2 0x3DB PUSH2 0xD94 JUMP JUMPDEST PUSH1 0x40 MLOAD PUSH2 0x3E8 SWAP2 SWAP1 PUSH2 0x20FD JUMP JUMPDEST PUSH1 0x40 MLOAD DUP1 SWAP2 SUB SWAP1 RETURN JUMPDEST PUSH2 0x3F9 PUSH2 0xD9C JUMP JUMPDEST PUSH1 0x40 MLOAD PUSH2 0x406 SWAP2 SWAP1 PUSH2 0x20FD JUMP JUMPDEST PUSH1 0x40 MLOAD DUP1 SWAP2 SUB SWAP1 RETURN JUMPDEST PUSH2 0x429 PUSH1 0x4 DUP1 CALLDATASIZE SUB DUP2 ADD SWAP1 PUSH2 0x424 SWAP2 SWAP1 PUSH2 0x2116 JUMP JUMPDEST PUSH2 0xDC3 JUMP JUMPDEST PUSH1 0x40 MLOAD PUSH2 0x436 SWAP2 SWAP1 PUSH2 0x20FD JUMP JUMPDEST PUSH1 0x40 MLOAD DUP1 SWAP2 SUB SWAP1 RETURN JUMPDEST PUSH2 0x447 PUSH2 0xE08 JUMP JUMPDEST STOP JUMPDEST PUSH2 0x463 PUSH1 0x4 DUP1 CALLDATASIZE SUB DUP2 ADD SWAP1 PUSH2 0x45E SWAP2 SWAP1 PUSH2 0x207D JUMP JUMPDEST PUSH2 0xE1B JUMP JUMPDEST STOP JUMPDEST PUSH2 0x46D PUSH2 0xE3B JUMP JUMPDEST PUSH1 0x40 MLOAD PUSH2 0x47A SWAP2 SWAP1 PUSH2 0x20FD JUMP JUMPDEST PUSH1 0x40 MLOAD DUP1 SWAP2 SUB SWAP1 RETURN JUMPDEST PUSH2 0x48B PUSH2 0xE41 JUMP JUMPDEST PUSH1 0x40 MLOAD PUSH2 0x498 SWAP2 SWAP1 PUSH2 0x2200 JUMP JUMPDEST PUSH1 0x40 MLOAD DUP1 SWAP2 SUB SWAP1 RETURN JUMPDEST PUSH2 0x4A9 PUSH2 0xE69 JUMP JUMPDEST PUSH1 0x40 MLOAD PUSH2 0x4B6 SWAP2 SWAP1 PUSH2 0x20FD JUMP JUMPDEST PUSH1 0x40 MLOAD DUP1 SWAP2 SUB SWAP1 RETURN JUMPDEST PUSH2 0x4C7 PUSH2 0xE78 JUMP JUMPDEST PUSH1 0x40 MLOAD PUSH2 0x4D4 SWAP2 SWAP1 PUSH2 0x1FCC JUMP JUMPDEST PUSH1 0x40 MLOAD DUP1 SWAP2 SUB SWAP1 RETURN JUMPDEST PUSH2 0x4E5 PUSH2 0xF08 JUMP JUMPDEST PUSH1 0x40 MLOAD PUSH2 0x4F2 SWAP2 SWAP1 PUSH2 0x20FD JUMP JUMPDEST PUSH1 0x40 MLOAD DUP1 SWAP2 SUB SWAP1 RETURN JUMPDEST PUSH2 0x515 PUSH1 0x4 DUP1 CALLDATASIZE SUB DUP2 ADD SWAP1 PUSH2 0x510 SWAP2 SWAP1 PUSH2 0x21C6 JUMP JUMPDEST PUSH2 0xF2F JUMP JUMPDEST STOP JUMPDEST PUSH2 0x531 PUSH1 0x4 DUP1 CALLDATASIZE SUB DUP2 ADD SWAP1 PUSH2 0x52C SWAP2 SWAP1 PUSH2 0x21C6 JUMP JUMPDEST PUSH2 0xF83 JUMP JUMPDEST STOP JUMPDEST PUSH2 0x54D PUSH1 0x4 DUP1 CALLDATASIZE SUB DUP2 ADD SWAP1 PUSH2 0x548 SWAP2 SWAP1 PUSH2 0x207D JUMP JUMPDEST PUSH2 0x1122 JUMP JUMPDEST PUSH1 0x40 MLOAD PUSH2 0x55A SWAP2 SWAP1 PUSH2 0x20D5 JUMP JUMPDEST PUSH1 0x40 MLOAD DUP1 SWAP2 SUB SWAP1 RETURN JUMPDEST PUSH2 0x56B PUSH2 0x1144 JUMP JUMPDEST STOP JUMPDEST PUSH2 0x587 PUSH1 0x4 DUP1 CALLDATASIZE SUB DUP2 ADD SWAP1 PUSH2 0x582 SWAP2 SWAP1 PUSH2 0x2116 JUMP JUMPDEST PUSH2 0x12E8 JUMP JUMPDEST PUSH1 0x40 MLOAD PUSH2 0x594 SWAP2 SWAP1 PUSH2 0x20FD JUMP JUMPDEST PUSH1 0x40 MLOAD DUP1 SWAP2 SUB SWAP1 RETURN JUMPDEST PUSH2 0x5B7 PUSH1 0x4 DUP1 CALLDATASIZE SUB DUP2 ADD SWAP1 PUSH2 0x5B2 SWAP2 SWAP1 PUSH2 0x224D JUMP JUMPDEST PUSH2 0x13E5 JUMP JUMPDEST PUSH1 0x40 MLOAD PUSH2 0x5C4 SWAP2 SWAP1 PUSH2 0x20FD JUMP JUMPDEST PUSH1 0x40 MLOAD DUP1 SWAP2 SUB SWAP1 RETURN JUMPDEST PUSH2 0x5D5 PUSH2 0x1467 JUMP JUMPDEST PUSH1 0x40 MLOAD PUSH2 0x5E2 SWAP2 SWAP1 PUSH2 0x20FD JUMP JUMPDEST PUSH1 0x40 MLOAD DUP1 SWAP2 SUB SWAP1 RETURN JUMPDEST PUSH2 0x605 PUSH1 0x4 DUP1 CALLDATASIZE SUB DUP2 ADD SWAP1 PUSH2 0x600 SWAP2 SWAP1 PUSH2 0x2116 JUMP JUMPDEST PUSH2 0x148E JUMP JUMPDEST STOP JUMPDEST PUSH2 0x60F PUSH2 0x1512 JUMP JUMPDEST PUSH1 0x40 MLOAD PUSH2 0x61C SWAP2 SWAP1 PUSH2 0x20FD JUMP JUMPDEST PUSH1 0x40 MLOAD DUP1 SWAP2 SUB SWAP1 RETURN JUMPDEST PUSH1 0x60 PUSH1 0x3 DUP1 SLOAD PUSH2 0x634 SWAP1 PUSH2 0x22B8 JUMP JUMPDEST DUP1 PUSH1 0x1F ADD PUSH1 0x20 DUP1 SWAP2 DIV MUL PUSH1 0x20 ADD PUSH1 0x40 MLOAD SWAP1 DUP2 ADD PUSH1 0x40 MSTORE DUP1 SWAP3 SWAP2 SWAP1 DUP2 DUP2 MSTORE PUSH1 0x20 ADD DUP3 DUP1 SLOAD PUSH2 0x660 SWAP1 PUSH2 0x22B8 JUMP JUMPDEST DUP1 ISZERO PUSH2 0x6AB JUMPI DUP1 PUSH1 0x1F LT PUSH2 0x682 JUMPI PUSH2 0x100 DUP1 DUP4 SLOAD DIV MUL DUP4 MSTORE SWAP2 PUSH1 0x20 ADD SWAP2 PUSH2 0x6AB JUMP JUMPDEST DUP3 ADD SWAP2 SWAP1 PUSH0 MSTORE PUSH1 0x20 PUSH0 KECCAK256 SWAP1 JUMPDEST DUP2 SLOAD DUP2 MSTORE SWAP1 PUSH1 0x1 ADD SWAP1 PUSH1 0x20 ADD DUP1 DUP4 GT PUSH2 0x68E JUMPI DUP3 SWAP1 SUB PUSH1 0x1F AND DUP3 ADD SWAP2 JUMPDEST POP POP POP POP POP SWAP1 POP SWAP1 JUMP JUMPDEST PUSH0 PUSH0 PUSH2 0x6BF PUSH2 0x1518 JUMP JUMPDEST SWAP1 POP PUSH2 0x6CC DUP2 DUP6 DUP6 PUSH2 0x151F JUMP JUMPDEST PUSH1 0x1 SWAP2 POP POP SWAP3 SWAP2 POP POP JUMP JUMPDEST PUSH2 0x6DF PUSH2 0x1531 JUMP JUMPDEST PUSH2 0x6E7 PUSH2 0x1580 JUMP JUMPDEST PUSH1 0x7 SLOAD TIMESTAMP LT ISZERO PUSH2 0x72C JUMPI PUSH1 0x40 MLOAD PUSH32 0x8C379A000000000000000000000000000000000000000000000000000000000 DUP2 MSTORE PUSH1 0x4 ADD PUSH2 0x723 SWAP1 PUSH2 0x2332 JUMP JUMPDEST PUSH1 0x40 MLOAD DUP1 SWAP2 SUB SWAP1 REVERT JUMPDEST PUSH0 PUSH2 0x742 PUSH1 0x7 SLOAD TIMESTAMP PUSH2 0x1607 SWAP1 SWAP2 SWAP1 PUSH4 0xFFFFFFFF AND JUMP JUMPDEST SWAP1 POP PUSH0 PUSH2 0x791 PUSH4 0x1E13380 PUSH2 0x783 DUP5 PUSH1 0x64 PUSH1 0x14 PUSH11 0x52B7D2DCC80CD2E4000000 PUSH2 0x76B SWAP2 SWAP1 PUSH2 0x237D JUMP JUMPDEST PUSH2 0x775 SWAP2 SWAP1 PUSH2 0x23EB JUMP JUMPDEST PUSH2 0x161C SWAP1 SWAP2 SWAP1 PUSH4 0xFFFFFFFF AND JUMP JUMPDEST PUSH2 0x1631 SWAP1 SWAP2 SWAP1 PUSH4 0xFFFFFFFF AND JUMP JUMPDEST SWAP1 POP PUSH0 PUSH2 0x7A9 PUSH1 0x8 SLOAD DUP4 PUSH2 0x1607 SWAP1 SWAP2 SWAP1 PUSH4 0xFFFFFFFF AND JUMP JUMPDEST SWAP1 POP PUSH0 DUP2 GT PUSH2 0x7ED JUMPI PUSH1 0x40 MLOAD PUSH32 0x8C379A000000000000000000000000000000000000000000000000000000000 DUP2 MSTORE PUSH1 0x4 ADD PUSH2 0x7E4 SWAP1 PUSH2 0x2465 JUMP JUMPDEST PUSH1 0x40 MLOAD DUP1 SWAP2 SUB SWAP1 REVERT JUMPDEST PUSH2 0x802 DUP2 PUSH1 0x8 SLOAD PUSH2 0x1646 SWAP1 SWAP2 SWAP1 PUSH4 0xFFFFFFFF AND JUMP JUMPDEST PUSH1 0x8 DUP2 SWAP1 SSTORE POP PUSH2 0x81A ADDRESS PUSH2 0x814 PUSH2 0xE41 JUMP JUMPDEST DUP4 PUSH2 0x165B JUMP JUMPDEST POP POP POP PUSH2 0x825 PUSH2 0x174B JUMP JUMPDEST JUMP JUMPDEST PUSH1 0x64 PUSH1 0x14 PUSH11 0x52B7D2DCC80CD2E4000000 PUSH2 0x841 SWAP2 SWAP1 PUSH2 0x237D JUMP JUMPDEST PUSH2 0x84B SWAP2 SWAP1 PUSH2 0x23EB JUMP JUMPDEST DUP2 JUMP JUMPDEST PUSH1 0x9 PUSH1 0x20 MSTORE DUP1 PUSH0 MSTORE PUSH1 0x40 PUSH0 KECCAK256 PUSH0 SWAP2 POP SWAP1 POP DUP1 PUSH0 ADD SLOAD SWAP1 DUP1 PUSH1 0x1 ADD SLOAD SWAP1 DUP1 PUSH1 0x2 ADD SLOAD SWAP1 POP DUP4 JUMP JUMPDEST PUSH0 PUSH1 0x2 SLOAD SWAP1 POP SWAP1 JUMP JUMPDEST PUSH1 0x64 PUSH1 0x5 PUSH11 0x52B7D2DCC80CD2E4000000 PUSH2 0x897 SWAP2 SWAP1 PUSH2 0x237D JUMP JUMPDEST PUSH2 0x8A1 SWAP2 SWAP1 PUSH2 0x23EB JUMP JUMPDEST DUP2 JUMP JUMPDEST PUSH0 PUSH0 PUSH2 0x8AE PUSH2 0x1518 JUMP JUMPDEST SWAP1 POP PUSH2 0x8BB DUP6 DUP3 DUP6 PUSH2 0x1755 JUMP JUMPDEST PUSH2 0x8C6 DUP6 DUP6 DUP6 PUSH2 0x165B JUMP JUMPDEST PUSH1 0x1 SWAP2 POP POP SWAP4 SWAP3 POP POP POP JUMP JUMPDEST PUSH1 0x7 SLOAD DUP2 JUMP JUMPDEST PUSH1 0xA DUP2 DUP2 SLOAD DUP2 LT PUSH2 0x8E7 JUMPI PUSH0 DUP1 REVERT JUMPDEST SWAP1 PUSH0 MSTORE PUSH1 0x20 PUSH0 KECCAK256 ADD PUSH0 SWAP2 POP SLOAD SWAP1 PUSH2 0x100 EXP SWAP1 DIV PUSH20 0xFFFFFFFFFFFFFFFFFFFFFFFFFFFFFFFFFFFFFFFF AND DUP2 JUMP JUMPDEST PUSH2 0x91B PUSH2 0x1531 JUMP JUMPDEST PUSH0 DUP2 GT PUSH2 0x95D JUMPI PUSH1 0x40 MLOAD PUSH32 0x8C379A000000000000000000000000000000000000000000000000000000000 DUP2 MSTORE PUSH1 0x4 ADD PUSH2 0x954 SWAP1 PUSH2 0x24CD JUMP JUMPDEST PUSH1 0x40 MLOAD DUP1 SWAP2 SUB SWAP1 REVERT JUMPDEST DUP1 PUSH1 0x9 PUSH0 CALLER PUSH20 0xFFFFFFFFFFFFFFFFFFFFFFFFFFFFFFFFFFFFFFFF AND PUSH20 0xFFFFFFFFFFFFFFFFFFFFFFFFFFFFFFFFFFFFFFFF AND DUP2 MSTORE PUSH1 0x20 ADD SWAP1 DUP2 MSTORE PUSH1 0x20 ADD PUSH0 KECCAK256 PUSH0 ADD SLOAD LT ISZERO PUSH2 0x9DF JUMPI PUSH1 0x40 MLOAD PUSH32 0x8C379A000000000000000000000000000000000000000000000000000000000 DUP2 MSTORE PUSH1 0x4 ADD PUSH2 0x9D6 SWAP1 PUSH2 0x2535 JUMP JUMPDEST PUSH1 0x40 MLOAD DUP1 SWAP2 SUB SWAP1 REVERT JUMPDEST PUSH0 PUSH2 0x9E9 CALLER PUSH2 0x12E8 JUMP JUMPDEST SWAP1 POP PUSH0 PUSH2 0x9FF DUP3 DUP5 PUSH2 0x1646 SWAP1 SWAP2 SWAP1 PUSH4 0xFFFFFFFF AND JUMP JUMPDEST SWAP1 POP PUSH2 0xA53 DUP4 PUSH1 0x9 PUSH0 CALLER PUSH20 0xFFFFFFFFFFFFFFFFFFFFFFFFFFFFFFFFFFFFFFFF AND PUSH20 0xFFFFFFFFFFFFFFFFFFFFFFFFFFFFFFFFFFFFFFFF AND DUP2 MSTORE PUSH1 0x20 ADD SWAP1 DUP2 MSTORE PUSH1 0x20 ADD PUSH0 KECCAK256 PUSH0 ADD SLOAD PUSH2 0x1607 SWAP1 SWAP2 SWAP1 PUSH4 0xFFFFFFFF AND JUMP JUMPDEST PUSH1 0x9 PUSH0 CALLER PUSH20 0xFFFFFFFFFFFFFFFFFFFFFFFFFFFFFFFFFFFFFFFF AND PUSH20 0xFFFFFFFFFFFFFFFFFFFFFFFFFFFFFFFFFFFFFFFF AND DUP2 MSTORE PUSH1 0x20 ADD SWAP1 DUP2 MSTORE PUSH1 0x20 ADD PUSH0 KECCAK256 PUSH0 ADD DUP2 SWAP1 SSTORE POP TIMESTAMP PUSH1 0x9 PUSH0 CALLER PUSH20 0xFFFFFFFFFFFFFFFFFFFFFFFFFFFFFFFFFFFFFFFF AND PUSH20 0xFFFFFFFFFFFFFFFFFFFFFFFFFFFFFFFFFFFFFFFF AND DUP2 MSTORE PUSH1 0x20 ADD SWAP1 DUP2 MSTORE PUSH1 0x20 ADD PUSH0 KECCAK256 PUSH1 0x1 ADD DUP2 SWAP1 SSTORE POP TIMESTAMP PUSH1 0x9 PUSH0 CALLER PUSH20 0xFFFFFFFFFFFFFFFFFFFFFFFFFFFFFFFFFFFFFFFF AND PUSH20 0xFFFFFFFFFFFFFFFFFFFFFFFFFFFFFFFFFFFFFFFF AND DUP2 MSTORE PUSH1 0x20 ADD SWAP1 DUP2 MSTORE PUSH1 0x20 ADD PUSH0 KECCAK256 PUSH1 0x2 ADD DUP2 SWAP1 SSTORE POP PUSH2 0xB2B ADDRESS CALLER DUP4 PUSH2 0x165B JUMP JUMPDEST PUSH0 PUSH0 SWAP1 POP JUMPDEST PUSH1 0xA DUP1 SLOAD SWAP1 POP DUP2 LT ISZERO PUSH2 0xCA7 JUMPI CALLER PUSH20 0xFFFFFFFFFFFFFFFFFFFFFFFFFFFFFFFFFFFFFFFF AND PUSH1 0xA DUP3 DUP2 SLOAD DUP2 LT PUSH2 0xB68 JUMPI PUSH2 0xB67 PUSH2 0x2553 JUMP JUMPDEST JUMPDEST SWAP1 PUSH0 MSTORE PUSH1 0x20 PUSH0 KECCAK256 ADD PUSH0 SWAP1 SLOAD SWAP1 PUSH2 0x100 EXP SWAP1 DIV PUSH20 0xFFFFFFFFFFFFFFFFFFFFFFFFFFFFFFFFFFFFFFFF AND PUSH20 0xFFFFFFFFFFFFFFFFFFFFFFFFFFFFFFFFFFFFFFFF AND SUB PUSH2 0xC9A JUMPI PUSH1 0xA PUSH1 0x1 PUSH1 0xA DUP1 SLOAD SWAP1 POP PUSH2 0xBBF SWAP2 SWAP1 PUSH2 0x2580 JUMP JUMPDEST DUP2 SLOAD DUP2 LT PUSH2 0xBD0 JUMPI PUSH2 0xBCF PUSH2 0x2553 JUMP JUMPDEST JUMPDEST SWAP1 PUSH0 MSTORE PUSH1 0x20 PUSH0 KECCAK256 ADD PUSH0 SWAP1 SLOAD SWAP1 PUSH2 0x100 EXP SWAP1 DIV PUSH20 0xFFFFFFFFFFFFFFFFFFFFFFFFFFFFFFFFFFFFFFFF AND PUSH1 0xA DUP3 DUP2 SLOAD DUP2 LT PUSH2 0xC0C JUMPI PUSH2 0xC0B PUSH2 0x2553 JUMP JUMPDEST JUMPDEST SWAP1 PUSH0 MSTORE PUSH1 0x20 PUSH0 KECCAK256 ADD PUSH0 PUSH2 0x100 EXP DUP2 SLOAD DUP2 PUSH20 0xFFFFFFFFFFFFFFFFFFFFFFFFFFFFFFFFFFFFFFFF MUL NOT AND SWAP1 DUP4 PUSH20 0xFFFFFFFFFFFFFFFFFFFFFFFFFFFFFFFFFFFFFFFF AND MUL OR SWAP1 SSTORE POP PUSH1 0xA DUP1 SLOAD DUP1 PUSH2 0xC63 JUMPI PUSH2 0xC62 PUSH2 0x25B3 JUMP JUMPDEST JUMPDEST PUSH1 0x1 SWAP1 SUB DUP2 DUP2 SWAP1 PUSH0 MSTORE PUSH1 0x20 PUSH0 KECCAK256 ADD PUSH0 PUSH2 0x100 EXP DUP2 SLOAD SWAP1 PUSH20 0xFFFFFFFFFFFFFFFFFFFFFFFFFFFFFFFFFFFFFFFF MUL NOT AND SWAP1 SSTORE SWAP1 SSTORE PUSH2 0xCA7 JUMP JUMPDEST DUP1 DUP1 PUSH1 0x1 ADD SWAP2 POP POP PUSH2 0xB30 JUMP JUMPDEST POP CALLER PUSH20 0xFFFFFFFFFFFFFFFFFFFFFFFFFFFFFFFFFFFFFFFF AND PUSH32 0xF5BB82176FEB1B5E747E28471AA92156A04D9F3AB9F45F28E2D704232B93F75 DUP5 PUSH1 0x40 MLOAD PUSH2 0xCEE SWAP2 SWAP1 PUSH2 0x20FD JUMP JUMPDEST PUSH1 0x40 MLOAD DUP1 SWAP2 SUB SWAP1 LOG2 CALLER PUSH20 0xFFFFFFFFFFFFFFFFFFFFFFFFFFFFFFFFFFFFFFFF AND PUSH32 0xF9984C8173C4B4FF9CC454F76ED19C053F4490CCB224FD9DDFFEB4EF4BEA3530 DUP4 PUSH1 0x40 MLOAD PUSH2 0xD3C SWAP2 SWAP1 PUSH2 0x20FD JUMP JUMPDEST PUSH1 0x40 MLOAD DUP1 SWAP2 SUB SWAP1 LOG2 POP POP PUSH2 0xD4E PUSH2 0x174B JUMP JUMPDEST POP JUMP JUMPDEST PUSH0 PUSH1 0x12 SWAP1 POP SWAP1 JUMP JUMPDEST PUSH1 0x64 PUSH1 0xF PUSH11 0x52B7D2DCC80CD2E4000000 PUSH2 0xD73 SWAP2 SWAP1 PUSH2 0x237D JUMP JUMPDEST PUSH2 0xD7D SWAP2 SWAP1 PUSH2 0x23EB JUMP JUMPDEST DUP2 JUMP JUMPDEST PUSH2 0xD91 PUSH2 0xD8B PUSH2 0x1518 JUMP JUMPDEST DUP3 PUSH2 0x17E8 JUMP JUMPDEST POP JUMP JUMPDEST PUSH4 0x1E13380 DUP2 JUMP JUMPDEST PUSH1 0x64 PUSH1 0x28 PUSH11 0x52B7D2DCC80CD2E4000000 PUSH2 0xDB6 SWAP2 SWAP1 PUSH2 0x237D JUMP JUMPDEST PUSH2 0xDC0 SWAP2 SWAP1 PUSH2 0x23EB JUMP JUMPDEST DUP2 JUMP JUMPDEST PUSH0 PUSH0 PUSH0 DUP4 PUSH20 0xFFFFFFFFFFFFFFFFFFFFFFFFFFFFFFFFFFFFFFFF AND PUSH20 0xFFFFFFFFFFFFFFFFFFFFFFFFFFFFFFFFFFFFFFFF AND DUP2 MSTORE PUSH1 0x20 ADD SWAP1 DUP2 MSTORE PUSH1 0x20 ADD PUSH0 KECCAK256 SLOAD SWAP1 POP SWAP2 SWAP1 POP JUMP JUMPDEST PUSH2 0xE10 PUSH2 0x1580 JUMP JUMPDEST PUSH2 0xE19 PUSH0 PUSH2 0x1867 JUMP JUMPDEST JUMP JUMPDEST PUSH2 0xE2D DUP3 PUSH2 0xE27 PUSH2 0x1518 JUMP JUMPDEST DUP4 PUSH2 0x1755 JUMP JUMPDEST PUSH2 0xE37 DUP3 DUP3 PUSH2 0x17E8 JUMP JUMPDEST POP POP JUMP JUMPDEST PUSH1 0xB SLOAD DUP2 JUMP JUMPDEST PUSH0 PUSH1 0x5 PUSH0 SWAP1 SLOAD SWAP1 PUSH2 0x100 EXP SWAP1 DIV PUSH20 0xFFFFFFFFFFFFFFFFFFFFFFFFFFFFFFFFFFFFFFFF AND SWAP1 POP SWAP1 JUMP JUMPDEST PUSH11 0x52B7D2DCC80CD2E4000000 DUP2 JUMP JUMPDEST PUSH1 0x60 PUSH1 0x4 DUP1 SLOAD PUSH2 0xE87 SWAP1 PUSH2 0x22B8 JUMP JUMPDEST DUP1 PUSH1 0x1F ADD PUSH1 0x20 DUP1 SWAP2 DIV MUL PUSH1 0x20 ADD PUSH1 0x40 MLOAD SWAP1 DUP2 ADD PUSH1 0x40 MSTORE DUP1 SWAP3 SWAP2 SWAP1 DUP2 DUP2 MSTORE PUSH1 0x20 ADD DUP3 DUP1 SLOAD PUSH2 0xEB3 SWAP1 PUSH2 0x22B8 JUMP JUMPDEST DUP1 ISZERO PUSH2 0xEFE JUMPI DUP1 PUSH1 0x1F LT PUSH2 0xED5 JUMPI PUSH2 0x100 DUP1 DUP4 SLOAD DIV MUL DUP4 MSTORE SWAP2 PUSH1 0x20 ADD SWAP2 PUSH2 0xEFE JUMP JUMPDEST DUP3 ADD SWAP2 SWAP1 PUSH0 MSTORE PUSH1 0x20 PUSH0 KECCAK256 SWAP1 JUMPDEST DUP2 SLOAD DUP2 MSTORE SWAP1 PUSH1 0x1 ADD SWAP1 PUSH1 0x20 ADD DUP1 DUP4 GT PUSH2 0xEE1 JUMPI DUP3 SWAP1 SUB PUSH1 0x1F AND DUP3 ADD SWAP2 JUMPDEST POP POP POP POP POP SWAP1 POP SWAP1 JUMP JUMPDEST PUSH1 0x64 PUSH1 0xA PUSH11 0x52B7D2DCC80CD2E4000000 PUSH2 0xF22 SWAP2 SWAP1 PUSH2 0x237D JUMP JUMPDEST PUSH2 0xF2C SWAP2 SWAP1 PUSH2 0x23EB JUMP JUMPDEST DUP2 JUMP JUMPDEST PUSH2 0xF37 PUSH2 0x1580 JUMP JUMPDEST PUSH0 DUP2 GT PUSH2 0xF79 JUMPI PUSH1 0x40 MLOAD PUSH32 0x8C379A000000000000000000000000000000000000000000000000000000000 DUP2 MSTORE PUSH1 0x4 ADD PUSH2 0xF70 SWAP1 PUSH2 0x2650 JUMP JUMPDEST PUSH1 0x40 MLOAD DUP1 SWAP2 SUB SWAP1 REVERT JUMPDEST DUP1 PUSH1 0xB DUP2 SWAP1 SSTORE POP POP JUMP JUMPDEST PUSH2 0xF8B PUSH2 0x1531 JUMP JUMPDEST PUSH0 DUP2 GT PUSH2 0xFCD JUMPI PUSH1 0x40 MLOAD PUSH32 0x8C379A000000000000000000000000000000000000000000000000000000000 DUP2 MSTORE PUSH1 0x4 ADD PUSH2 0xFC4 SWAP1 PUSH2 0x26B8 JUMP JUMPDEST PUSH1 0x40 MLOAD DUP1 SWAP2 SUB SWAP1 REVERT JUMPDEST PUSH2 0xFD8 CALLER ADDRESS DUP4 PUSH2 0x165B JUMP JUMPDEST PUSH0 PUSH1 0x9 PUSH0 CALLER PUSH20 0xFFFFFFFFFFFFFFFFFFFFFFFFFFFFFFFFFFFFFFFF AND PUSH20 0xFFFFFFFFFFFFFFFFFFFFFFFFFFFFFFFFFFFFFFFF AND DUP2 MSTORE PUSH1 0x20 ADD SWAP1 DUP2 MSTORE PUSH1 0x20 ADD PUSH0 KECCAK256 SWAP1 POP PUSH1 0xA CALLER SWAP1 DUP1 PUSH1 0x1 DUP2 SLOAD ADD DUP1 DUP3 SSTORE DUP1 SWAP2 POP POP PUSH1 0x1 SWAP1 SUB SWAP1 PUSH0 MSTORE PUSH1 0x20 PUSH0 KECCAK256 ADD PUSH0 SWAP1 SWAP2 SWAP1 SWAP2 SWAP1 SWAP2 PUSH2 0x100 EXP DUP2 SLOAD DUP2 PUSH20 0xFFFFFFFFFFFFFFFFFFFFFFFFFFFFFFFFFFFFFFFF MUL NOT AND SWAP1 DUP4 PUSH20 0xFFFFFFFFFFFFFFFFFFFFFFFFFFFFFFFFFFFFFFFF AND MUL OR SWAP1 SSTORE POP PUSH0 PUSH2 0x1082 CALLER PUSH2 0x12E8 JUMP JUMPDEST SWAP1 POP PUSH0 DUP2 GT ISZERO PUSH2 0x10E6 JUMPI PUSH2 0x1097 ADDRESS CALLER DUP4 PUSH2 0x165B JUMP JUMPDEST CALLER PUSH20 0xFFFFFFFFFFFFFFFFFFFFFFFFFFFFFFFFFFFFFFFF AND PUSH32 0xF9984C8173C4B4FF9CC454F76ED19C053F4490CCB224FD9DDFFEB4EF4BEA3530 DUP3 PUSH1 0x40 MLOAD PUSH2 0x10DD SWAP2 SWAP1 PUSH2 0x20FD JUMP JUMPDEST PUSH1 0x40 MLOAD DUP1 SWAP2 SUB SWAP1 LOG2 JUMPDEST PUSH2 0x10FC DUP4 DUP4 PUSH0 ADD SLOAD PUSH2 0x1646 SWAP1 SWAP2 SWAP1 PUSH4 0xFFFFFFFF AND JUMP JUMPDEST DUP3 PUSH0 ADD DUP2 SWAP1 SSTORE POP TIMESTAMP DUP3 PUSH1 0x1 ADD DUP2 SWAP1 SSTORE POP TIMESTAMP DUP3 PUSH1 0x2 ADD DUP2 SWAP1 SSTORE POP POP POP PUSH2 0x111F PUSH2 0x174B JUMP JUMPDEST POP JUMP JUMPDEST PUSH0 PUSH0 PUSH2 0x112C PUSH2 0x1518 JUMP JUMPDEST SWAP1 POP PUSH2 0x1139 DUP2 DUP6 DUP6 PUSH2 0x165B JUMP JUMPDEST PUSH1 0x1 SWAP2 POP POP SWAP3 SWAP2 POP POP JUMP JUMPDEST PUSH2 0x114C PUSH2 0x1580 JUMP JUMPDEST PUSH0 PUSH2 0x1155 PUSH2 0x192A JUMP JUMPDEST SWAP1 POP PUSH0 PUSH0 SWAP1 POP PUSH0 PUSH0 SWAP1 POP JUMPDEST DUP3 MLOAD DUP2 LT ISZERO PUSH2 0x12AC JUMPI PUSH0 PUSH1 0x9 PUSH0 DUP6 DUP5 DUP2 MLOAD DUP2 LT PUSH2 0x1180 JUMPI PUSH2 0x117F PUSH2 0x2553 JUMP JUMPDEST JUMPDEST PUSH1 0x20 MUL PUSH1 0x20 ADD ADD MLOAD PUSH20 0xFFFFFFFFFFFFFFFFFFFFFFFFFFFFFFFFFFFFFFFF AND PUSH20 0xFFFFFFFFFFFFFFFFFFFFFFFFFFFFFFFFFFFFFFFF AND DUP2 MSTORE PUSH1 0x20 ADD SWAP1 DUP2 MSTORE PUSH1 0x20 ADD PUSH0 KECCAK256 SWAP1 POP PUSH0 PUSH2 0x11E7 DUP6 DUP5 DUP2 MLOAD DUP2 LT PUSH2 0x11DA JUMPI PUSH2 0x11D9 PUSH2 0x2553 JUMP JUMPDEST JUMPDEST PUSH1 0x20 MUL PUSH1 0x20 ADD ADD MLOAD PUSH2 0x12E8 JUMP JUMPDEST SWAP1 POP PUSH0 DUP2 GT ISZERO PUSH2 0x129D JUMPI PUSH2 0x1216 ADDRESS DUP7 DUP6 DUP2 MLOAD DUP2 LT PUSH2 0x1208 JUMPI PUSH2 0x1207 PUSH2 0x2553 JUMP JUMPDEST JUMPDEST PUSH1 0x20 MUL PUSH1 0x20 ADD ADD MLOAD DUP4 PUSH2 0x165B JUMP JUMPDEST TIMESTAMP DUP3 PUSH1 0x2 ADD DUP2 SWAP1 SSTORE POP PUSH2 0x1232 DUP2 DUP6 PUSH2 0x1646 SWAP1 SWAP2 SWAP1 PUSH4 0xFFFFFFFF AND JUMP JUMPDEST SWAP4 POP DUP5 DUP4 DUP2 MLOAD DUP2 LT PUSH2 0x1247 JUMPI PUSH2 0x1246 PUSH2 0x2553 JUMP JUMPDEST JUMPDEST PUSH1 0x20 MUL PUSH1 0x20 ADD ADD MLOAD PUSH20 0xFFFFFFFFFFFFFFFFFFFFFFFFFFFFFFFFFFFFFFFF AND PUSH32 0xF9984C8173C4B4FF9CC454F76ED19C053F4490CCB224FD9DDFFEB4EF4BEA3530 DUP3 PUSH1 0x40 MLOAD PUSH2 0x1294 SWAP2 SWAP1 PUSH2 0x20FD JUMP JUMPDEST PUSH1 0x40 MLOAD DUP1 SWAP2 SUB SWAP1 LOG2 JUMPDEST POP POP DUP1 DUP1 PUSH1 0x1 ADD SWAP2 POP POP PUSH2 0x1160 JUMP JUMPDEST POP PUSH32 0x6A51B76326892CBA00F44F8BC83414A1C2E4715F4BC1EBCAC12326172ED53F18 DUP2 PUSH1 0x40 MLOAD PUSH2 0x12DC SWAP2 SWAP1 PUSH2 0x20FD JUMP JUMPDEST PUSH1 0x40 MLOAD DUP1 SWAP2 SUB SWAP1 LOG1 POP POP JUMP JUMPDEST PUSH0 PUSH0 PUSH1 0x9 PUSH0 DUP5 PUSH20 0xFFFFFFFFFFFFFFFFFFFFFFFFFFFFFFFFFFFFFFFF AND PUSH20 0xFFFFFFFFFFFFFFFFFFFFFFFFFFFFFFFFFFFFFFFF AND DUP2 MSTORE PUSH1 0x20 ADD SWAP1 DUP2 MSTORE PUSH1 0x20 ADD PUSH0 KECCAK256 PUSH1 0x40 MLOAD DUP1 PUSH1 0x60 ADD PUSH1 0x40 MSTORE SWAP1 DUP2 PUSH0 DUP3 ADD SLOAD DUP2 MSTORE PUSH1 0x20 ADD PUSH1 0x1 DUP3 ADD SLOAD DUP2 MSTORE PUSH1 0x20 ADD PUSH1 0x2 DUP3 ADD SLOAD DUP2 MSTORE POP POP SWAP1 POP PUSH0 DUP2 PUSH0 ADD MLOAD SUB PUSH2 0x1364 JUMPI PUSH0 SWAP2 POP POP PUSH2 0x13E0 JUMP JUMPDEST PUSH0 PUSH3 0x15180 DUP3 PUSH1 0x40 ADD MLOAD TIMESTAMP PUSH2 0x1379 SWAP2 SWAP1 PUSH2 0x2580 JUMP JUMPDEST PUSH2 0x1383 SWAP2 SWAP1 PUSH2 0x23EB JUMP JUMPDEST SWAP1 POP PUSH0 PUSH2 0x13B1 PUSH1 0x64 PUSH2 0x13A3 PUSH1 0xB SLOAD DUP7 PUSH0 ADD MLOAD PUSH2 0x161C SWAP1 SWAP2 SWAP1 PUSH4 0xFFFFFFFF AND JUMP JUMPDEST PUSH2 0x1631 SWAP1 SWAP2 SWAP1 PUSH4 0xFFFFFFFF AND JUMP JUMPDEST SWAP1 POP PUSH2 0x13DA PUSH2 0x16D PUSH2 0x13CC DUP5 DUP5 PUSH2 0x161C SWAP1 SWAP2 SWAP1 PUSH4 0xFFFFFFFF AND JUMP JUMPDEST PUSH2 0x1631 SWAP1 SWAP2 SWAP1 PUSH4 0xFFFFFFFF AND JUMP JUMPDEST SWAP4 POP POP POP POP JUMPDEST SWAP2 SWAP1 POP JUMP JUMPDEST PUSH0 PUSH1 0x1 PUSH0 DUP5 PUSH20 0xFFFFFFFFFFFFFFFFFFFFFFFFFFFFFFFFFFFFFFFF AND PUSH20 0xFFFFFFFFFFFFFFFFFFFFFFFFFFFFFFFFFFFFFFFF AND DUP2 MSTORE PUSH1 0x20 ADD SWAP1 DUP2 MSTORE PUSH1 0x20 ADD PUSH0 KECCAK256 PUSH0 DUP4 PUSH20 0xFFFFFFFFFFFFFFFFFFFFFFFFFFFFFFFFFFFFFFFF AND PUSH20 0xFFFFFFFFFFFFFFFFFFFFFFFFFFFFFFFFFFFFFFFF AND DUP2 MSTORE PUSH1 0x20 ADD SWAP1 DUP2 MSTORE PUSH1 0x20 ADD PUSH0 KECCAK256 SLOAD SWAP1 POP SWAP3 SWAP2 POP POP JUMP JUMPDEST PUSH1 0x64 PUSH1 0xA PUSH11 0x52B7D2DCC80CD2E4000000 PUSH2 0x1481 SWAP2 SWAP1 PUSH2 0x237D JUMP JUMPDEST PUSH2 0x148B SWAP2 SWAP1 PUSH2 0x23EB JUMP JUMPDEST DUP2 JUMP JUMPDEST PUSH2 0x1496 PUSH2 0x1580 JUMP JUMPDEST PUSH0 PUSH20 0xFFFFFFFFFFFFFFFFFFFFFFFFFFFFFFFFFFFFFFFF AND DUP2 PUSH20 0xFFFFFFFFFFFFFFFFFFFFFFFFFFFFFFFFFFFFFFFF AND SUB PUSH2 0x1506 JUMPI PUSH0 PUSH1 0x40 MLOAD PUSH32 0x1E4FBDF700000000000000000000000000000000000000000000000000000000 DUP2 MSTORE PUSH1 0x4 ADD PUSH2 0x14FD SWAP2 SWAP1 PUSH2 0x2200 JUMP JUMPDEST PUSH1 0x40 MLOAD DUP1 SWAP2 SUB SWAP1 REVERT JUMPDEST PUSH2 0x150F DUP2 PUSH2 0x1867 JUMP JUMPDEST POP JUMP JUMPDEST PUSH1 0x8 SLOAD DUP2 JUMP JUMPDEST PUSH0 CALLER SWAP1 POP SWAP1 JUMP JUMPDEST PUSH2 0x152C DUP4 DUP4 DUP4 PUSH1 0x1 PUSH2 0x1B74 JUMP JUMPDEST POP POP POP JUMP JUMPDEST PUSH1 0x2 PUSH1 0x6 SLOAD SUB PUSH2 0x1576 JUMPI PUSH1 0x40 MLOAD PUSH32 0x8C379A000000000000000000000000000000000000000000000000000000000 DUP2 MSTORE PUSH1 0x4 ADD PUSH2 0x156D SWAP1 PUSH2 0x2720 JUMP JUMPDEST PUSH1 0x40 MLOAD DUP1 SWAP2 SUB SWAP1 REVERT JUMPDEST PUSH1 0x2 PUSH1 0x6 DUP2 SWAP1 SSTORE POP JUMP JUMPDEST PUSH2 0x1588 PUSH2 0x1518 JUMP JUMPDEST PUSH20 0xFFFFFFFFFFFFFFFFFFFFFFFFFFFFFFFFFFFFFFFF AND PUSH2 0x15A6 PUSH2 0xE41 JUMP JUMPDEST PUSH20 0xFFFFFFFFFFFFFFFFFFFFFFFFFFFFFFFFFFFFFFFF AND EQ PUSH2 0x1605 JUMPI PUSH2 0x15C9 PUSH2 0x1518 JUMP JUMPDEST PUSH1 0x40 MLOAD PUSH32 0x118CDAA700000000000000000000000000000000000000000000000000000000 DUP2 MSTORE PUSH1 0x4 ADD PUSH2 0x15FC SWAP2 SWAP1 PUSH2 0x2200 JUMP JUMPDEST PUSH1 0x40 MLOAD DUP1 SWAP2 SUB SWAP1 REVERT JUMPDEST JUMP JUMPDEST PUSH0 DUP2 DUP4 PUSH2 0x1614 SWAP2 SWAP1 PUSH2 0x2580 JUMP JUMPDEST SWAP1 POP SWAP3 SWAP2 POP POP JUMP JUMPDEST PUSH0 DUP2 DUP4 PUSH2 0x1629 SWAP2 SWAP1 PUSH2 0x237D JUMP JUMPDEST SWAP1 POP SWAP3 SWAP2 POP POP JUMP JUMPDEST PUSH0 DUP2 DUP4 PUSH2 0x163E SWAP2 SWAP1 PUSH2 0x23EB JUMP JUMPDEST SWAP1 POP SWAP3 SWAP2 POP POP JUMP JUMPDEST PUSH0 DUP2 DUP4 PUSH2 0x1653 SWAP2 SWAP1 PUSH2 0x273E JUMP JUMPDEST SWAP1 POP SWAP3 SWAP2 POP POP JUMP JUMPDEST PUSH0 PUSH20 0xFFFFFFFFFFFFFFFFFFFFFFFFFFFFFFFFFFFFFFFF AND DUP4 PUSH20 0xFFFFFFFFFFFFFFFFFFFFFFFFFFFFFFFFFFFFFFFF AND SUB PUSH2 0x16CB JUMPI PUSH0 PUSH1 0x40 MLOAD PUSH32 0x96C6FD1E00000000000000000000000000000000000000000000000000000000 DUP2 MSTORE PUSH1 0x4 ADD PUSH2 0x16C2 SWAP2 SWAP1 PUSH2 0x2200 JUMP JUMPDEST PUSH1 0x40 MLOAD DUP1 SWAP2 SUB SWAP1 REVERT JUMPDEST PUSH0 PUSH20 0xFFFFFFFFFFFFFFFFFFFFFFFFFFFFFFFFFFFFFFFF AND DUP3 PUSH20 0xFFFFFFFFFFFFFFFFFFFFFFFFFFFFFFFFFFFFFFFF AND SUB PUSH2 0x173B JUMPI PUSH0 PUSH1 0x40 MLOAD PUSH32 0xEC442F0500000000000000000000000000000000000000000000000000000000 DUP2 MSTORE PUSH1 0x4 ADD PUSH2 0x1732 SWAP2 SWAP1 PUSH2 0x2200 JUMP JUMPDEST PUSH1 0x40 MLOAD DUP1 SWAP2 SUB SWAP1 REVERT JUMPDEST PUSH2 0x1746 DUP4 DUP4 DUP4 PUSH2 0x1D43 JUMP JUMPDEST POP POP POP JUMP JUMPDEST PUSH1 0x1 PUSH1 0x6 DUP2 SWAP1 SSTORE POP JUMP JUMPDEST PUSH0 PUSH2 0x1760 DUP5 DUP5 PUSH2 0x13E5 JUMP JUMPDEST SWAP1 POP PUSH32 0xFFFFFFFFFFFFFFFFFFFFFFFFFFFFFFFFFFFFFFFFFFFFFFFFFFFFFFFFFFFFFFFF DUP2 LT ISZERO PUSH2 0x17E2 JUMPI DUP2 DUP2 LT ISZERO PUSH2 0x17D3 JUMPI DUP3 DUP2 DUP4 PUSH1 0x40 MLOAD PUSH32 0xFB8F41B200000000000000000000000000000000000000000000000000000000 DUP2 MSTORE PUSH1 0x4 ADD PUSH2 0x17CA SWAP4 SWAP3 SWAP2 SWAP1 PUSH2 0x2771 JUMP JUMPDEST PUSH1 0x40 MLOAD DUP1 SWAP2 SUB SWAP1 REVERT JUMPDEST PUSH2 0x17E1 DUP5 DUP5 DUP5 DUP5 SUB PUSH0 PUSH2 0x1B74 JUMP JUMPDEST JUMPDEST POP POP POP POP JUMP JUMPDEST PUSH0 PUSH20 0xFFFFFFFFFFFFFFFFFFFFFFFFFFFFFFFFFFFFFFFF AND DUP3 PUSH20 0xFFFFFFFFFFFFFFFFFFFFFFFFFFFFFFFFFFFFFFFF AND SUB PUSH2 0x1858 JUMPI PUSH0 PUSH1 0x40 MLOAD PUSH32 0x96C6FD1E00000000000000000000000000000000000000000000000000000000 DUP2 MSTORE PUSH1 0x4 ADD PUSH2 0x184F SWAP2 SWAP1 PUSH2 0x2200 JUMP JUMPDEST PUSH1 0x40 MLOAD DUP1 SWAP2 SUB SWAP1 REVERT JUMPDEST PUSH2 0x1863 DUP3 PUSH0 DUP4 PUSH2 0x1D43 JUMP JUMPDEST POP POP JUMP JUMPDEST PUSH0 PUSH1 0x5 PUSH0 SWAP1 SLOAD SWAP1 PUSH2 0x100 EXP SWAP1 DIV PUSH20 0xFFFFFFFFFFFFFFFFFFFFFFFFFFFFFFFFFFFFFFFF AND SWAP1 POP DUP2 PUSH1 0x5 PUSH0 PUSH2 0x100 EXP DUP2 SLOAD DUP2 PUSH20 0xFFFFFFFFFFFFFFFFFFFFFFFFFFFFFFFFFFFFFFFF MUL NOT AND SWAP1 DUP4 PUSH20 0xFFFFFFFFFFFFFFFFFFFFFFFFFFFFFFFFFFFFFFFF AND MUL OR SWAP1 SSTORE POP DUP2 PUSH20 0xFFFFFFFFFFFFFFFFFFFFFFFFFFFFFFFFFFFFFFFF AND DUP2 PUSH20 0xFFFFFFFFFFFFFFFFFFFFFFFFFFFFFFFFFFFFFFFF AND PUSH32 0x8BE0079C531659141344CD1FD0A4F28419497F9722A3DAAFE3B4186F6B6457E0 PUSH1 0x40 MLOAD PUSH1 0x40 MLOAD DUP1 SWAP2 SUB SWAP1 LOG3 POP POP JUMP JUMPDEST PUSH1 0x60 PUSH0 PUSH0 SWAP1 POP PUSH0 PUSH0 SWAP1 POP JUMPDEST PUSH1 0xA DUP1 SLOAD SWAP1 POP DUP2 LT ISZERO PUSH2 0x19E0 JUMPI PUSH0 PUSH1 0x9 PUSH0 PUSH1 0xA DUP5 DUP2 SLOAD DUP2 LT PUSH2 0x195A JUMPI PUSH2 0x1959 PUSH2 0x2553 JUMP JUMPDEST JUMPDEST SWAP1 PUSH0 MSTORE PUSH1 0x20 PUSH0 KECCAK256 ADD PUSH0 SWAP1 SLOAD SWAP1 PUSH2 0x100 EXP SWAP1 DIV PUSH20 0xFFFFFFFFFFFFFFFFFFFFFFFFFFFFFFFFFFFFFFFF AND PUSH20 0xFFFFFFFFFFFFFFFFFFFFFFFFFFFFFFFFFFFFFFFF AND PUSH20 0xFFFFFFFFFFFFFFFFFFFFFFFFFFFFFFFFFFFFFFFF AND DUP2 MSTORE PUSH1 0x20 ADD SWAP1 DUP2 MSTORE PUSH1 0x20 ADD PUSH0 KECCAK256 PUSH0 ADD SLOAD GT ISZERO PUSH2 0x19D3 JUMPI DUP2 DUP1 PUSH2 0x19CF SWAP1 PUSH2 0x27A6 JUMP JUMPDEST SWAP3 POP POP JUMPDEST DUP1 DUP1 PUSH1 0x1 ADD SWAP2 POP POP PUSH2 0x1935 JUMP JUMPDEST POP PUSH0 DUP2 PUSH8 0xFFFFFFFFFFFFFFFF DUP2 GT ISZERO PUSH2 0x19FC JUMPI PUSH2 0x19FB PUSH2 0x27ED JUMP JUMPDEST JUMPDEST PUSH1 0x40 MLOAD SWAP1 DUP1 DUP3 MSTORE DUP1 PUSH1 0x20 MUL PUSH1 0x20 ADD DUP3 ADD PUSH1 0x40 MSTORE DUP1 ISZERO PUSH2 0x1A2A JUMPI DUP2 PUSH1 0x20 ADD PUSH1 0x20 DUP3 MUL DUP1 CALLDATASIZE DUP4 CALLDATACOPY DUP1 DUP3 ADD SWAP2 POP POP SWAP1 POP JUMPDEST POP SWAP1 POP PUSH0 PUSH0 SWAP1 POP PUSH0 PUSH0 SWAP1 POP JUMPDEST PUSH1 0xA DUP1 SLOAD SWAP1 POP DUP2 LT ISZERO PUSH2 0x1B6A JUMPI PUSH0 PUSH1 0x9 PUSH0 PUSH1 0xA DUP5 DUP2 SLOAD DUP2 LT PUSH2 0x1A5B JUMPI PUSH2 0x1A5A PUSH2 0x2553 JUMP JUMPDEST JUMPDEST SWAP1 PUSH0 MSTORE PUSH1 0x20 PUSH0 KECCAK256 ADD PUSH0 SWAP1 SLOAD SWAP1 PUSH2 0x100 EXP SWAP1 DIV PUSH20 0xFFFFFFFFFFFFFFFFFFFFFFFFFFFFFFFFFFFFFFFF AND PUSH20 0xFFFFFFFFFFFFFFFFFFFFFFFFFFFFFFFFFFFFFFFF AND PUSH20 0xFFFFFFFFFFFFFFFFFFFFFFFFFFFFFFFFFFFFFFFF AND DUP2 MSTORE PUSH1 0x20 ADD SWAP1 DUP2 MSTORE PUSH1 0x20 ADD PUSH0 KECCAK256 PUSH0 ADD SLOAD GT ISZERO PUSH2 0x1B5D JUMPI PUSH1 0xA DUP2 DUP2 SLOAD DUP2 LT PUSH2 0x1AD9 JUMPI PUSH2 0x1AD8 PUSH2 0x2553 JUMP JUMPDEST JUMPDEST SWAP1 PUSH0 MSTORE PUSH1 0x20 PUSH0 KECCAK256 ADD PUSH0 SWAP1 SLOAD SWAP1 PUSH2 0x100 EXP SWAP1 DIV PUSH20 0xFFFFFFFFFFFFFFFFFFFFFFFFFFFFFFFFFFFFFFFF AND DUP4 DUP4 DUP2 MLOAD DUP2 LT PUSH2 0x1B14 JUMPI PUSH2 0x1B13 PUSH2 0x2553 JUMP JUMPDEST JUMPDEST PUSH1 0x20 MUL PUSH1 0x20 ADD ADD SWAP1 PUSH20 0xFFFFFFFFFFFFFFFFFFFFFFFFFFFFFFFFFFFFFFFF AND SWAP1 DUP2 PUSH20 0xFFFFFFFFFFFFFFFFFFFFFFFFFFFFFFFFFFFFFFFF AND DUP2 MSTORE POP POP DUP2 DUP1 PUSH2 0x1B59 SWAP1 PUSH2 0x27A6 JUMP JUMPDEST SWAP3 POP POP JUMPDEST DUP1 DUP1 PUSH1 0x1 ADD SWAP2 POP POP PUSH2 0x1A36 JUMP JUMPDEST POP DUP2 SWAP4 POP POP POP POP SWAP1 JUMP JUMPDEST PUSH0 PUSH20 0xFFFFFFFFFFFFFFFFFFFFFFFFFFFFFFFFFFFFFFFF AND DUP5 PUSH20 0xFFFFFFFFFFFFFFFFFFFFFFFFFFFFFFFFFFFFFFFF AND SUB PUSH2 0x1BE4 JUMPI PUSH0 PUSH1 0x40 MLOAD PUSH32 0xE602DF0500000000000000000000000000000000000000000000000000000000 DUP2 MSTORE PUSH1 0x4 ADD PUSH2 0x1BDB SWAP2 SWAP1 PUSH2 0x2200 JUMP JUMPDEST PUSH1 0x40 MLOAD DUP1 SWAP2 SUB SWAP1 REVERT JUMPDEST PUSH0 PUSH20 0xFFFFFFFFFFFFFFFFFFFFFFFFFFFFFFFFFFFFFFFF AND DUP4 PUSH20 0xFFFFFFFFFFFFFFFFFFFFFFFFFFFFFFFFFFFFFFFF AND SUB PUSH2 0x1C54 JUMPI PUSH0 PUSH1 0x40 MLOAD PUSH32 0x94280D6200000000000000000000000000000000000000000000000000000000 DUP2 MSTORE PUSH1 0x4 ADD PUSH2 0x1C4B SWAP2 SWAP1 PUSH2 0x2200 JUMP JUMPDEST PUSH1 0x40 MLOAD DUP1 SWAP2 SUB SWAP1 REVERT JUMPDEST DUP2 PUSH1 0x1 PUSH0 DUP7 PUSH20 0xFFFFFFFFFFFFFFFFFFFFFFFFFFFFFFFFFFFFFFFF AND PUSH20 0xFFFFFFFFFFFFFFFFFFFFFFFFFFFFFFFFFFFFFFFF AND DUP2 MSTORE PUSH1 0x20 ADD SWAP1 DUP2 MSTORE PUSH1 0x20 ADD PUSH0 KECCAK256 PUSH0 DUP6 PUSH20 0xFFFFFFFFFFFFFFFFFFFFFFFFFFFFFFFFFFFFFFFF AND PUSH20 0xFFFFFFFFFFFFFFFFFFFFFFFFFFFFFFFFFFFFFFFF AND DUP2 MSTORE PUSH1 0x20 ADD SWAP1 DUP2 MSTORE PUSH1 0x20 ADD PUSH0 KECCAK256 DUP2 SWAP1 SSTORE POP DUP1 ISZERO PUSH2 0x1D3D JUMPI DUP3 PUSH20 0xFFFFFFFFFFFFFFFFFFFFFFFFFFFFFFFFFFFFFFFF AND DUP5 PUSH20 0xFFFFFFFFFFFFFFFFFFFFFFFFFFFFFFFFFFFFFFFF AND PUSH32 0x8C5BE1E5EBEC7D5BD14F71427D1E84F3DD0314C0F7B2291E5B200AC8C7C3B925 DUP5 PUSH1 0x40 MLOAD PUSH2 0x1D34 SWAP2 SWAP1 PUSH2 0x20FD JUMP JUMPDEST PUSH1 0x40 MLOAD DUP1 SWAP2 SUB SWAP1 LOG3 JUMPDEST POP POP POP POP JUMP JUMPDEST PUSH0 PUSH20 0xFFFFFFFFFFFFFFFFFFFFFFFFFFFFFFFFFFFFFFFF AND DUP4 PUSH20 0xFFFFFFFFFFFFFFFFFFFFFFFFFFFFFFFFFFFFFFFF AND SUB PUSH2 0x1D93 JUMPI DUP1 PUSH1 0x2 PUSH0 DUP3 DUP3 SLOAD PUSH2 0x1D87 SWAP2 SWAP1 PUSH2 0x273E JUMP JUMPDEST SWAP3 POP POP DUP2 SWAP1 SSTORE POP PUSH2 0x1E61 JUMP JUMPDEST PUSH0 PUSH0 PUSH0 DUP6 PUSH20 0xFFFFFFFFFFFFFFFFFFFFFFFFFFFFFFFFFFFFFFFF AND PUSH20 0xFFFFFFFFFFFFFFFFFFFFFFFFFFFFFFFFFFFFFFFF AND DUP2 MSTORE PUSH1 0x20 ADD SWAP1 DUP2 MSTORE PUSH1 0x20 ADD PUSH0 KECCAK256 SLOAD SWAP1 POP DUP2 DUP2 LT ISZERO PUSH2 0x1E1C JUMPI DUP4 DUP2 DUP4 PUSH1 0x40 MLOAD PUSH32 0xE450D38C00000000000000000000000000000000000000000000000000000000 DUP2 MSTORE PUSH1 0x4 ADD PUSH2 0x1E13 SWAP4 SWAP3 SWAP2 SWAP1 PUSH2 0x2771 JUMP JUMPDEST PUSH1 0x40 MLOAD DUP1 SWAP2 SUB SWAP1 REVERT JUMPDEST DUP2 DUP2 SUB PUSH0 PUSH0 DUP7 PUSH20 0xFFFFFFFFFFFFFFFFFFFFFFFFFFFFFFFFFFFFFFFF AND PUSH20 0xFFFFFFFFFFFFFFFFFFFFFFFFFFFFFFFFFFFFFFFF AND DUP2 MSTORE PUSH1 0x20 ADD SWAP1 DUP2 MSTORE PUSH1 0x20 ADD PUSH0 KECCAK256 DUP2 SWAP1 SSTORE POP POP JUMPDEST PUSH0 PUSH20 0xFFFFFFFFFFFFFFFFFFFFFFFFFFFFFFFFFFFFFFFF AND DUP3 PUSH20 0xFFFFFFFFFFFFFFFFFFFFFFFFFFFFFFFFFFFFFFFF AND SUB PUSH2 0x1EA8 JUMPI DUP1 PUSH1 0x2 PUSH0 DUP3 DUP3 SLOAD SUB SWAP3 POP POP DUP2 SWAP1 SSTORE POP PUSH2 0x1EF2 JUMP JUMPDEST DUP1 PUSH0 PUSH0 DUP5 PUSH20 0xFFFFFFFFFFFFFFFFFFFFFFFFFFFFFFFFFFFFFFFF AND PUSH20 0xFFFFFFFFFFFFFFFFFFFFFFFFFFFFFFFFFFFFFFFF AND DUP2 MSTORE PUSH1 0x20 ADD SWAP1 DUP2 MSTORE PUSH1 0x20 ADD PUSH0 KECCAK256 PUSH0 DUP3 DUP3 SLOAD ADD SWAP3 POP POP DUP2 SWAP1 SSTORE POP JUMPDEST DUP2 PUSH20 0xFFFFFFFFFFFFFFFFFFFFFFFFFFFFFFFFFFFFFFFF AND DUP4 PUSH20 0xFFFFFFFFFFFFFFFFFFFFFFFFFFFFFFFFFFFFFFFF AND PUSH32 0xDDF252AD1BE2C89B69C2B068FC378DAA952BA7F163C4A11628F55A4DF523B3EF DUP4 PUSH1 0x40 MLOAD PUSH2 0x1F4F SWAP2 SWAP1 PUSH2 0x20FD JUMP JUMPDEST PUSH1 0x40 MLOAD DUP1 SWAP2 SUB SWAP1 LOG3 POP POP POP JUMP JUMPDEST PUSH0 DUP2 MLOAD SWAP1 POP SWAP2 SWAP1 POP JUMP JUMPDEST PUSH0 DUP3 DUP3 MSTORE PUSH1 0x20 DUP3 ADD SWAP1 POP SWAP3 SWAP2 POP POP JUMP JUMPDEST DUP3 DUP2 DUP4 MCOPY PUSH0 DUP4 DUP4 ADD MSTORE POP POP POP JUMP JUMPDEST PUSH0 PUSH1 0x1F NOT PUSH1 0x1F DUP4 ADD AND SWAP1 POP SWAP2 SWAP1 POP JUMP JUMPDEST PUSH0 PUSH2 0x1F9E DUP3 PUSH2 0x1F5C JUMP JUMPDEST PUSH2 0x1FA8 DUP2 DUP6 PUSH2 0x1F66 JUMP JUMPDEST SWAP4 POP PUSH2 0x1FB8 DUP2 DUP6 PUSH1 0x20 DUP7 ADD PUSH2 0x1F76 JUMP JUMPDEST PUSH2 0x1FC1 DUP2 PUSH2 0x1F84 JUMP JUMPDEST DUP5 ADD SWAP2 POP POP SWAP3 SWAP2 POP POP JUMP JUMPDEST PUSH0 PUSH1 0x20 DUP3 ADD SWAP1 POP DUP2 DUP2 SUB PUSH0 DUP4 ADD MSTORE PUSH2 0x1FE4 DUP2 DUP5 PUSH2 0x1F94 JUMP JUMPDEST SWAP1 POP SWAP3 SWAP2 POP POP JUMP JUMPDEST PUSH0 PUSH0 REVERT JUMPDEST PUSH0 PUSH20 0xFFFFFFFFFFFFFFFFFFFFFFFFFFFFFFFFFFFFFFFF DUP3 AND SWAP1 POP SWAP2 SWAP1 POP JUMP JUMPDEST PUSH0 PUSH2 0x2019 DUP3 PUSH2 0x1FF0 JUMP JUMPDEST SWAP1 POP SWAP2 SWAP1 POP JUMP JUMPDEST PUSH2 0x2029 DUP2 PUSH2 0x200F JUMP JUMPDEST DUP2 EQ PUSH2 0x2033 JUMPI PUSH0 PUSH0 REVERT JUMPDEST POP JUMP JUMPDEST PUSH0 DUP2 CALLDATALOAD SWAP1 POP PUSH2 0x2044 DUP2 PUSH2 0x2020 JUMP JUMPDEST SWAP3 SWAP2 POP POP JUMP JUMPDEST PUSH0 DUP2 SWAP1 POP SWAP2 SWAP1 POP JUMP JUMPDEST PUSH2 0x205C DUP2 PUSH2 0x204A JUMP JUMPDEST DUP2 EQ PUSH2 0x2066 JUMPI PUSH0 PUSH0 REVERT JUMPDEST POP JUMP JUMPDEST PUSH0 DUP2 CALLDATALOAD SWAP1 POP PUSH2 0x2077 DUP2 PUSH2 0x2053 JUMP JUMPDEST SWAP3 SWAP2 POP POP JUMP JUMPDEST PUSH0 PUSH0 PUSH1 0x40 DUP4 DUP6 SUB SLT ISZERO PUSH2 0x2093 JUMPI PUSH2 0x2092 PUSH2 0x1FEC JUMP JUMPDEST JUMPDEST PUSH0 PUSH2 0x20A0 DUP6 DUP3 DUP7 ADD PUSH2 0x2036 JUMP JUMPDEST SWAP3 POP POP PUSH1 0x20 PUSH2 0x20B1 DUP6 DUP3 DUP7 ADD PUSH2 0x2069 JUMP JUMPDEST SWAP2 POP POP SWAP3 POP SWAP3 SWAP1 POP JUMP JUMPDEST PUSH0 DUP2 ISZERO ISZERO SWAP1 POP SWAP2 SWAP1 POP JUMP JUMPDEST PUSH2 0x20CF DUP2 PUSH2 0x20BB JUMP JUMPDEST DUP3 MSTORE POP POP JUMP JUMPDEST PUSH0 PUSH1 0x20 DUP3 ADD SWAP1 POP PUSH2 0x20E8 PUSH0 DUP4 ADD DUP5 PUSH2 0x20C6 JUMP JUMPDEST SWAP3 SWAP2 POP POP JUMP JUMPDEST PUSH2 0x20F7 DUP2 PUSH2 0x204A JUMP JUMPDEST DUP3 MSTORE POP POP JUMP JUMPDEST PUSH0 PUSH1 0x20 DUP3 ADD SWAP1 POP PUSH2 0x2110 PUSH0 DUP4 ADD DUP5 PUSH2 0x20EE JUMP JUMPDEST SWAP3 SWAP2 POP POP JUMP JUMPDEST PUSH0 PUSH1 0x20 DUP3 DUP5 SUB SLT ISZERO PUSH2 0x212B JUMPI PUSH2 0x212A PUSH2 0x1FEC JUMP JUMPDEST JUMPDEST PUSH0 PUSH2 0x2138 DUP5 DUP3 DUP6 ADD PUSH2 0x2036 JUMP JUMPDEST SWAP2 POP POP SWAP3 SWAP2 POP POP JUMP JUMPDEST PUSH0 PUSH1 0x60 DUP3 ADD SWAP1 POP PUSH2 0x2154 PUSH0 DUP4 ADD DUP7 PUSH2 0x20EE JUMP JUMPDEST PUSH2 0x2161 PUSH1 0x20 DUP4 ADD DUP6 PUSH2 0x20EE JUMP JUMPDEST PUSH2 0x216E PUSH1 0x40 DUP4 ADD DUP5 PUSH2 0x20EE JUMP JUMPDEST SWAP5 SWAP4 POP POP POP POP JUMP JUMPDEST PUSH0 PUSH0 PUSH0 PUSH1 0x60 DUP5 DUP7 SUB SLT ISZERO PUSH2 0x218D JUMPI PUSH2 0x218C PUSH2 0x1FEC JUMP JUMPDEST JUMPDEST PUSH0 PUSH2 0x219A DUP7 DUP3 DUP8 ADD PUSH2 0x2036 JUMP JUMPDEST SWAP4 POP POP PUSH1 0x20 PUSH2 0x21AB DUP7 DUP3 DUP8 ADD PUSH2 0x2036 JUMP JUMPDEST SWAP3 POP POP PUSH1 0x40 PUSH2 0x21BC DUP7 DUP3 DUP8 ADD PUSH2 0x2069 JUMP JUMPDEST SWAP2 POP POP SWAP3 POP SWAP3 POP SWAP3 JUMP JUMPDEST PUSH0 PUSH1 0x20 DUP3 DUP5 SUB SLT ISZERO PUSH2 0x21DB JUMPI PUSH2 0x21DA PUSH2 0x1FEC JUMP JUMPDEST JUMPDEST PUSH0 PUSH2 0x21E8 DUP5 DUP3 DUP6 ADD PUSH2 0x2069 JUMP JUMPDEST SWAP2 POP POP SWAP3 SWAP2 POP POP JUMP JUMPDEST PUSH2 0x21FA DUP2 PUSH2 0x200F JUMP JUMPDEST DUP3 MSTORE POP POP JUMP JUMPDEST PUSH0 PUSH1 0x20 DUP3 ADD SWAP1 POP PUSH2 0x2213 PUSH0 DUP4 ADD DUP5 PUSH2 0x21F1 JUMP JUMPDEST SWAP3 SWAP2 POP POP JUMP JUMPDEST PUSH0 PUSH1 0xFF DUP3 AND SWAP1 POP SWAP2 SWAP1 POP JUMP JUMPDEST PUSH2 0x222E DUP2 PUSH2 0x2219 JUMP JUMPDEST DUP3 MSTORE POP POP JUMP JUMPDEST PUSH0 PUSH1 0x20 DUP3 ADD SWAP1 POP PUSH2 0x2247 PUSH0 DUP4 ADD DUP5 PUSH2 0x2225 JUMP JUMPDEST SWAP3 SWAP2 POP POP JUMP JUMPDEST PUSH0 PUSH0 PUSH1 0x40 DUP4 DUP6 SUB SLT ISZERO PUSH2 0x2263 JUMPI PUSH2 0x2262 PUSH2 0x1FEC JUMP JUMPDEST JUMPDEST PUSH0 PUSH2 0x2270 DUP6 DUP3 DUP7 ADD PUSH2 0x2036 JUMP JUMPDEST SWAP3 POP POP PUSH1 0x20 PUSH2 0x2281 DUP6 DUP3 DUP7 ADD PUSH2 0x2036 JUMP JUMPDEST SWAP2 POP POP SWAP3 POP SWAP3 SWAP1 POP JUMP JUMPDEST PUSH32 0x4E487B7100000000000000000000000000000000000000000000000000000000 PUSH0 MSTORE PUSH1 0x22 PUSH1 0x4 MSTORE PUSH1 0x24 PUSH0 REVERT JUMPDEST PUSH0 PUSH1 0x2 DUP3 DIV SWAP1 POP PUSH1 0x1 DUP3 AND DUP1 PUSH2 0x22CF JUMPI PUSH1 0x7F DUP3 AND SWAP2 POP JUMPDEST PUSH1 0x20 DUP3 LT DUP2 SUB PUSH2 0x22E2 JUMPI PUSH2 0x22E1 PUSH2 0x228B JUMP JUMPDEST JUMPDEST POP SWAP2 SWAP1 POP JUMP JUMPDEST PUSH32 0x56657374696E67206E6F74207374617274656400000000000000000000000000 PUSH0 DUP3 ADD MSTORE POP JUMP JUMPDEST PUSH0 PUSH2 0x231C PUSH1 0x13 DUP4 PUSH2 0x1F66 JUMP JUMPDEST SWAP2 POP PUSH2 0x2327 DUP3 PUSH2 0x22E8 JUMP JUMPDEST PUSH1 0x20 DUP3 ADD SWAP1 POP SWAP2 SWAP1 POP JUMP JUMPDEST PUSH0 PUSH1 0x20 DUP3 ADD SWAP1 POP DUP2 DUP2 SUB PUSH0 DUP4 ADD MSTORE PUSH2 0x2349 DUP2 PUSH2 0x2310 JUMP JUMPDEST SWAP1 POP SWAP2 SWAP1 POP JUMP JUMPDEST PUSH32 0x4E487B7100000000000000000000000000000000000000000000000000000000 PUSH0 MSTORE PUSH1 0x11 PUSH1 0x4 MSTORE PUSH1 0x24 PUSH0 REVERT JUMPDEST PUSH0 PUSH2 0x2387 DUP3 PUSH2 0x204A JUMP JUMPDEST SWAP2 POP PUSH2 0x2392 DUP4 PUSH2 0x204A JUMP JUMPDEST SWAP3 POP DUP3 DUP3 MUL PUSH2 0x23A0 DUP2 PUSH2 0x204A JUMP JUMPDEST SWAP2 POP DUP3 DUP3 DIV DUP5 EQ DUP4 ISZERO OR PUSH2 0x23B7 JUMPI PUSH2 0x23B6 PUSH2 0x2350 JUMP JUMPDEST JUMPDEST POP SWAP3 SWAP2 POP POP JUMP JUMPDEST PUSH32 0x4E487B7100000000000000000000000000000000000000000000000000000000 PUSH0 MSTORE PUSH1 0x12 PUSH1 0x4 MSTORE PUSH1 0x24 PUSH0 REVERT JUMPDEST PUSH0 PUSH2 0x23F5 DUP3 PUSH2 0x204A JUMP JUMPDEST SWAP2 POP PUSH2 0x2400 DUP4 PUSH2 0x204A JUMP JUMPDEST SWAP3 POP DUP3 PUSH2 0x2410 JUMPI PUSH2 0x240F PUSH2 0x23BE JUMP JUMPDEST JUMPDEST DUP3 DUP3 DIV SWAP1 POP SWAP3 SWAP2 POP POP JUMP JUMPDEST PUSH32 0x4E6F20746F6B656E7320746F2072656C65617365000000000000000000000000 PUSH0 DUP3 ADD MSTORE POP JUMP JUMPDEST PUSH0 PUSH2 0x244F PUSH1 0x14 DUP4 PUSH2 0x1F66 JUMP JUMPDEST SWAP2 POP PUSH2 0x245A DUP3 PUSH2 0x241B JUMP JUMPDEST PUSH1 0x20 DUP3 ADD SWAP1 POP SWAP2 SWAP1 POP JUMP JUMPDEST PUSH0 PUSH1 0x20 DUP3 ADD SWAP1 POP DUP2 DUP2 SUB PUSH0 DUP4 ADD MSTORE PUSH2 0x247C DUP2 PUSH2 0x2443 JUMP JUMPDEST SWAP1 POP SWAP2 SWAP1 POP JUMP JUMPDEST PUSH32 0x43616E6E6F7420756E7374616B65203020746F6B656E73000000000000000000 PUSH0 DUP3 ADD MSTORE POP JUMP JUMPDEST PUSH0 PUSH2 0x24B7 PUSH1 0x17 DUP4 PUSH2 0x1F66 JUMP JUMPDEST SWAP2 POP PUSH2 0x24C2 DUP3 PUSH2 0x2483 JUMP JUMPDEST PUSH1 0x20 DUP3 ADD SWAP1 POP SWAP2 SWAP1 POP JUMP JUMPDEST PUSH0 PUSH1 0x20 DUP3 ADD SWAP1 POP DUP2 DUP2 SUB PUSH0 DUP4 ADD MSTORE PUSH2 0x24E4 DUP2 PUSH2 0x24AB JUMP JUMPDEST SWAP1 POP SWAP2 SWAP1 POP JUMP JUMPDEST PUSH32 0x496E73756666696369656E74207374616B656420616D6F756E74000000000000 PUSH0 DUP3 ADD MSTORE POP JUMP JUMPDEST PUSH0 PUSH2 0x251F PUSH1 0x1A DUP4 PUSH2 0x1F66 JUMP JUMPDEST SWAP2 POP PUSH2 0x252A DUP3 PUSH2 0x24EB JUMP JUMPDEST PUSH1 0x20 DUP3 ADD SWAP1 POP SWAP2 SWAP1 POP JUMP JUMPDEST PUSH0 PUSH1 0x20 DUP3 ADD SWAP1 POP DUP2 DUP2 SUB PUSH0 DUP4 ADD MSTORE PUSH2 0x254C DUP2 PUSH2 0x2513 JUMP JUMPDEST SWAP1 POP SWAP2 SWAP1 POP JUMP JUMPDEST PUSH32 0x4E487B7100000000000000000000000000000000000000000000000000000000 PUSH0 MSTORE PUSH1 0x32 PUSH1 0x4 MSTORE PUSH1 0x24 PUSH0 REVERT JUMPDEST PUSH0 PUSH2 0x258A DUP3 PUSH2 0x204A JUMP JUMPDEST SWAP2 POP PUSH2 0x2595 DUP4 PUSH2 0x204A JUMP JUMPDEST SWAP3 POP DUP3 DUP3 SUB SWAP1 POP DUP2 DUP2 GT ISZERO PUSH2 0x25AD JUMPI PUSH2 0x25AC PUSH2 0x2350 JUMP JUMPDEST JUMPDEST SWAP3 SWAP2 POP POP JUMP JUMPDEST PUSH32 0x4E487B7100000000000000000000000000000000000000000000000000000000 PUSH0 MSTORE PUSH1 0x31 PUSH1 0x4 MSTORE PUSH1 0x24 PUSH0 REVERT JUMPDEST PUSH32 0x5265776172642072617465206D7573742062652067726561746572207468616E PUSH0 DUP3 ADD MSTORE PUSH32 0x2030000000000000000000000000000000000000000000000000000000000000 PUSH1 0x20 DUP3 ADD MSTORE POP JUMP JUMPDEST PUSH0 PUSH2 0x263A PUSH1 0x22 DUP4 PUSH2 0x1F66 JUMP JUMPDEST SWAP2 POP PUSH2 0x2645 DUP3 PUSH2 0x25E0 JUMP JUMPDEST PUSH1 0x40 DUP3 ADD SWAP1 POP SWAP2 SWAP1 POP JUMP JUMPDEST PUSH0 PUSH1 0x20 DUP3 ADD SWAP1 POP DUP2 DUP2 SUB PUSH0 DUP4 ADD MSTORE PUSH2 0x2667 DUP2 PUSH2 0x262E JUMP JUMPDEST SWAP1 POP SWAP2 SWAP1 POP JUMP JUMPDEST PUSH32 0x43616E6E6F74207374616B65203020746F6B656E730000000000000000000000 PUSH0 DUP3 ADD MSTORE POP JUMP JUMPDEST PUSH0 PUSH2 0x26A2 PUSH1 0x15 DUP4 PUSH2 0x1F66 JUMP JUMPDEST SWAP2 POP PUSH2 0x26AD DUP3 PUSH2 0x266E JUMP JUMPDEST PUSH1 0x20 DUP3 ADD SWAP1 POP SWAP2 SWAP1 POP JUMP JUMPDEST PUSH0 PUSH1 0x20 DUP3 ADD SWAP1 POP DUP2 DUP2 SUB PUSH0 DUP4 ADD MSTORE PUSH2 0x26CF DUP2 PUSH2 0x2696 JUMP JUMPDEST SWAP1 POP SWAP2 SWAP1 POP JUMP JUMPDEST PUSH32 0x5265656E7472616E637947756172643A207265656E7472616E742063616C6C00 PUSH0 DUP3 ADD MSTORE POP JUMP JUMPDEST PUSH0 PUSH2 0x270A PUSH1 0x1F DUP4 PUSH2 0x1F66 JUMP JUMPDEST SWAP2 POP PUSH2 0x2715 DUP3 PUSH2 0x26D6 JUMP JUMPDEST PUSH1 0x20 DUP3 ADD SWAP1 POP SWAP2 SWAP1 POP JUMP JUMPDEST PUSH0 PUSH1 0x20 DUP3 ADD SWAP1 POP DUP2 DUP2 SUB PUSH0 DUP4 ADD MSTORE PUSH2 0x2737 DUP2 PUSH2 0x26FE JUMP JUMPDEST SWAP1 POP SWAP2 SWAP1 POP JUMP JUMPDEST PUSH0 PUSH2 0x2748 DUP3 PUSH2 0x204A JUMP JUMPDEST SWAP2 POP PUSH2 0x2753 DUP4 PUSH2 0x204A JUMP JUMPDEST SWAP3 POP DUP3 DUP3 ADD SWAP1 POP DUP1 DUP3 GT ISZERO PUSH2 0x276B JUMPI PUSH2 0x276A PUSH2 0x2350 JUMP JUMPDEST JUMPDEST SWAP3 SWAP2 POP POP JUMP JUMPDEST PUSH0 PUSH1 0x60 DUP3 ADD SWAP1 POP PUSH2 0x2784 PUSH0 DUP4 ADD DUP7 PUSH2 0x21F1 JUMP JUMPDEST PUSH2 0x2791 PUSH1 0x20 DUP4 ADD DUP6 PUSH2 0x20EE JUMP JUMPDEST PUSH2 0x279E PUSH1 0x40 DUP4 ADD DUP5 PUSH2 0x20EE JUMP JUMPDEST SWAP5 SWAP4 POP POP POP POP JUMP JUMPDEST PUSH0 PUSH2 0x27B0 DUP3 PUSH2 0x204A JUMP JUMPDEST SWAP2 POP PUSH32 0xFFFFFFFFFFFFFFFFFFFFFFFFFFFFFFFFFFFFFFFFFFFFFFFFFFFFFFFFFFFFFFFF DUP3 SUB PUSH2 0x27E2 JUMPI PUSH2 0x27E1 PUSH2 0x2350 JUMP JUMPDEST JUMPDEST PUSH1 0x1 DUP3 ADD SWAP1 POP SWAP2 SWAP1 POP JUMP JUMPDEST PUSH32 0x4E487B7100000000000000000000000000000000000000000000000000000000 PUSH0 MSTORE PUSH1 0x41 PUSH1 0x4 MSTORE PUSH1 0x24 PUSH0 REVERT INVALID LOG2 PUSH5 0x6970667358 0x22 SLT KECCAK256 0xDE LOG2 PUSH16 0xD50E88693E5AB7240D40137B89CD9AB8 DUP9 0xA6 TSTORE 0xDC PUSH14 0x86484334E0B6C34E64736F6C6343 STOP ADDMOD SHR STOP CALLER "
				},
				"gasEstimates": {
					"creation": {
						"codeDepositCost": "2064000",
						"executionCost": "infinite",
						"totalCost": "infinite"
					},
					"external": {
						"COMMUNITY_REWARDS()": "infinite",
						"MARKETING_PARTNERSHIP()": "infinite",
						"PROJECT_DEVELOPMENT()": "infinite",
						"PUBLIC_SALE()": "infinite",
						"RESERVE()": "infinite",
						"TEAM_FOUNDERS()": "infinite",
						"TOTAL_SUPPLY()": "392",
						"VESTING_DURATION()": "414",
						"allowance(address,address)": "infinite",
						"approve(address,uint256)": "infinite",
						"balanceOf(address)": "2874",
						"burn(uint256)": "infinite",
						"burnFrom(address,uint256)": "infinite",
						"calculateReward(address)": "infinite",
						"decimals()": "450",
						"name()": "infinite",
						"owner()": "2560",
						"releaseAllInterest()": "infinite",
						"releaseTeamTokens()": "infinite",
						"renounceOwnership()": "infinite",
						"rewardRate()": "2537",
						"stake(uint256)": "infinite",
						"stakeAddresses(uint256)": "5012",
						"stakes(address)": "infinite",
						"symbol()": "infinite",
						"teamReleased()": "2557",
						"totalSupply()": "2500",
						"transfer(address,uint256)": "infinite",
						"transferFrom(address,address,uint256)": "infinite",
						"transferOwnership(address)": "infinite",
						"unstake(uint256)": "infinite",
						"updateRewardRate(uint256)": "infinite",
						"vestingStart()": "2471"
					},
					"internal": {
						"_getAllStakers()": "infinite"
					}
				},
				"methodIdentifiers": {
					"COMMUNITY_REWARDS()": "1cfe31c2",
					"MARKETING_PARTNERSHIP()": "39cf9b00",
					"PROJECT_DEVELOPMENT()": "e75c4927",
					"PUBLIC_SALE()": "5f89584e",
					"RESERVE()": "9d2cc436",
					"TEAM_FOUNDERS()": "1571ccf6",
					"TOTAL_SUPPLY()": "902d55a5",
					"VESTING_DURATION()": "4cfc4d30",
					"allowance(address,address)": "dd62ed3e",
					"approve(address,uint256)": "095ea7b3",
					"balanceOf(address)": "70a08231",
					"burn(uint256)": "42966c68",
					"burnFrom(address,uint256)": "79cc6790",
					"calculateReward(address)": "d82e3962",
					"decimals()": "313ce567",
					"name()": "06fdde03",
					"owner()": "8da5cb5b",
					"releaseAllInterest()": "cb3dbecb",
					"releaseTeamTokens()": "14c411c7",
					"renounceOwnership()": "715018a6",
					"rewardRate()": "7b0a47ee",
					"stake(uint256)": "a694fc3a",
					"stakeAddresses(uint256)": "294f5fa3",
					"stakes(address)": "16934fc4",
					"symbol()": "95d89b41",
					"teamReleased()": "f6f0fa8d",
					"totalSupply()": "18160ddd",
					"transfer(address,uint256)": "a9059cbb",
					"transferFrom(address,address,uint256)": "23b872dd",
					"transferOwnership(address)": "f2fde38b",
					"unstake(uint256)": "2e17de78",
					"updateRewardRate(uint256)": "9ef3a261",
					"vestingStart()": "254800d4"
				}
			},
			"storageLayout": {
				"storage": [
					{
						"astId": 372,
						"contract": "contracts/PingPongPlay.sol:PingPongPlay",
						"label": "_balances",
						"offset": 0,
						"slot": "0",
						"type": "t_mapping(t_address,t_uint256)"
					},
					{
						"astId": 378,
						"contract": "contracts/PingPongPlay.sol:PingPongPlay",
						"label": "_allowances",
						"offset": 0,
						"slot": "1",
						"type": "t_mapping(t_address,t_mapping(t_address,t_uint256))"
					},
					{
						"astId": 380,
						"contract": "contracts/PingPongPlay.sol:PingPongPlay",
						"label": "_totalSupply",
						"offset": 0,
						"slot": "2",
						"type": "t_uint256"
					},
					{
						"astId": 382,
						"contract": "contracts/PingPongPlay.sol:PingPongPlay",
						"label": "_name",
						"offset": 0,
						"slot": "3",
						"type": "t_string_storage"
					},
					{
						"astId": 384,
						"contract": "contracts/PingPongPlay.sol:PingPongPlay",
						"label": "_symbol",
						"offset": 0,
						"slot": "4",
						"type": "t_string_storage"
					},
					{
						"astId": 8,
						"contract": "contracts/PingPongPlay.sol:PingPongPlay",
						"label": "_owner",
						"offset": 0,
						"slot": "5",
						"type": "t_address"
					},
					{
						"astId": 295,
						"contract": "contracts/PingPongPlay.sol:PingPongPlay",
						"label": "_status",
						"offset": 0,
						"slot": "6",
						"type": "t_uint256"
					},
					{
						"astId": 1430,
						"contract": "contracts/PingPongPlay.sol:PingPongPlay",
						"label": "vestingStart",
						"offset": 0,
						"slot": "7",
						"type": "t_uint256"
					},
					{
						"astId": 1435,
						"contract": "contracts/PingPongPlay.sol:PingPongPlay",
						"label": "teamReleased",
						"offset": 0,
						"slot": "8",
						"type": "t_uint256"
					},
					{
						"astId": 1447,
						"contract": "contracts/PingPongPlay.sol:PingPongPlay",
						"label": "stakes",
						"offset": 0,
						"slot": "9",
						"type": "t_mapping(t_address,t_struct(Stake)1442_storage)"
					},
					{
						"astId": 1450,
						"contract": "contracts/PingPongPlay.sol:PingPongPlay",
						"label": "stakeAddresses",
						"offset": 0,
						"slot": "10",
						"type": "t_array(t_address)dyn_storage"
					},
					{
						"astId": 1452,
						"contract": "contracts/PingPongPlay.sol:PingPongPlay",
						"label": "rewardRate",
						"offset": 0,
						"slot": "11",
						"type": "t_uint256"
					}
				],
				"types": {
					"t_address": {
						"encoding": "inplace",
						"label": "address",
						"numberOfBytes": "20"
					},
					"t_array(t_address)dyn_storage": {
						"base": "t_address",
						"encoding": "dynamic_array",
						"label": "address[]",
						"numberOfBytes": "32"
					},
					"t_mapping(t_address,t_mapping(t_address,t_uint256))": {
						"encoding": "mapping",
						"key": "t_address",
						"label": "mapping(address => mapping(address => uint256))",
						"numberOfBytes": "32",
						"value": "t_mapping(t_address,t_uint256)"
					},
					"t_mapping(t_address,t_struct(Stake)1442_storage)": {
						"encoding": "mapping",
						"key": "t_address",
						"label": "mapping(address => struct PingPongPlay.Stake)",
						"numberOfBytes": "32",
						"value": "t_struct(Stake)1442_storage"
					},
					"t_mapping(t_address,t_uint256)": {
						"encoding": "mapping",
						"key": "t_address",
						"label": "mapping(address => uint256)",
						"numberOfBytes": "32",
						"value": "t_uint256"
					},
					"t_string_storage": {
						"encoding": "bytes",
						"label": "string",
						"numberOfBytes": "32"
					},
					"t_struct(Stake)1442_storage": {
						"encoding": "inplace",
						"label": "struct PingPongPlay.Stake",
						"members": [
							{
								"astId": 1437,
								"contract": "contracts/PingPongPlay.sol:PingPongPlay",
								"label": "amount",
								"offset": 0,
								"slot": "0",
								"type": "t_uint256"
							},
							{
								"astId": 1439,
								"contract": "contracts/PingPongPlay.sol:PingPongPlay",
								"label": "timestamp",
								"offset": 0,
								"slot": "1",
								"type": "t_uint256"
							},
							{
								"astId": 1441,
								"contract": "contracts/PingPongPlay.sol:PingPongPlay",
								"label": "lastClaimed",
								"offset": 0,
								"slot": "2",
								"type": "t_uint256"
							}
						],
						"numberOfBytes": "96"
					},
					"t_uint256": {
						"encoding": "inplace",
						"label": "uint256",
						"numberOfBytes": "32"
					}
				}
			},
			"userdoc": {
				"kind": "user",
				"methods": {},
				"version": 1
			}
		}
	}
}